CC19302021788C201605170000014530000000208964803046T12V02                                                                                                                                                
DD193020217880000000436763500000004367635                2016051720160519000000000011968000000000000000000000000011968111023055148EFECTIVO00000004367635TBK4  0006055148000223            0000000000    
DD193020217880000000436764900000004367649                2016051720160520000000000003000000000000000000000000000003000111023055424EFECTIVO00000004367649TBKY  0006055424000646            0000000000    
DD193020217880000000436763100000004367631                2016051720160520000000000002500000000000000000000000000002500111023055694EFECTIVO00000004367631TBX0  0006055694001150            0000000000    
DD193020217880000000436765000000004367650                2016051720160518000000000022388000000000000000000000000022388111023055785EFECTIVO00000004367650TBJA  0006055785001317            0000000000    
DD193020217880000000436771200000004367712                2016051720160519000000000008000000000000000000000000000008000111023056375EFECTIVO00000004367712TBRK  0006056375002317            0000000000    
DD193020217880000000436765100000004367651                2016051720160520000000000002170000000000000000000000000002170111023056495EFECTIVO00000004367651TBKY  0006056495002729            0000000000    
DD193020217880000000436658600000004366586                2016051720160517000000000007200000000000000000000000000007200111023057187EFECTIVO00000004366586TBK4  0006057187004817            0000000000    
DD193020217880000000436742800000004367428                2016051720160519000000000004990000000000000000000000000004990111023057340EFECTIVO00000004367428TBKY  0006057340005504            0000000000    
DD193020217880000000436778900000004367789                2016051720160524000000000003000000000000000000000000000003000111023057796EFECTIVO00000004367789TBJA  0006057796011537            0000000000    
DD193020217880000000436779400000004367794                2016051720160520000000000002000000000000000000000000000002000111023057878EFECTIVO00000004367794TBRK  0006057878011905            0000000000    
DD193020217880000000436781000000004367810                2016051720160518000000000011000000000000000000000000000011000111023058093EFECTIVO00000004367810TBLS  0006058093013351            0000000000    
DD193020217880000000436787700000004367877                2016051720160520000000000001900000000000000000000000000001900111023059360EFECTIVO00000004367877TBLS  0006059360043121            0000000000    
DD193020217880000000436791500000004367915                2016051720160518000000000050000000000000000000000000000050000111023060038EFECTIVO00000004367915TBRK  0006060038051922            0000000000    
DD193020217880000000436791400000004367914                2016051720160520000000000011998000000000000000000000000011998111023060519EFECTIVO00000004367914TBLS  0006060519054108            0000000000    
DD193020217880000000436798900000004367989                2016051720160520000000000002000000000000000000000000000002000111023066585EFECTIVO00000004367989TBXU  0006066585065537            0000000000    
DD193020217880000000436801100000004368011                2016051720160520000000000050000000000000000000000000000050000111023068087EFECTIVO00000004368011TBX0  0006068087070454            0000000000    
DD193020217880000000436801600000004368016                2016051720160524000000000030000000000000000000000000000030000111023068394EFECTIVO00000004368016TBKY  0006068394070633            0000000000    
DD193020217880000000436802100000004368021                2016051720160520000000000040000000000000000000000000000040000111023069166EFECTIVO00000004368021TBRL  0006069166070926            0000000000    
DD193020217880000000436507700000004365077                2016051720160523000000000002500000000000000000000000000002500111023072386EFECTIVO00000004365077TBXU  0006072386072540            0000000000    
DD193020217880000000436805200000004368052                2016051720160518000000000004990000000000000000000000000004990111023073092EFECTIVO00000004368052TBKY  0006073092072843            0000000000    
DD193020217880000000436789900000004367899                2016051720160518000000000011000000000000000000000000000011000111023073734EFECTIVO00000004367899TBX0  0006073734073114            0000000000    
DD193020217880000000436806500000004368065                2016051720160520000000000200000000000000000000000000000200000111023074444EFECTIVO00000004368065TBLS  0006074444073311            0000000000    
DD193020217880000000436465500000004364655                2016051720160519000000000002000000000000000000000000000002000111017075634EFECTIVO00000004364655PZBA  0006075634073811            0000000000    
DD193020217880000000436807200000004368072                2016051720160524000000000030000000000000000000000000000030000111023075809EFECTIVO00000004368072TBXU  0006075809073849            0000000000    
DD193020217880000000436807700000004368077                2016051720160520000000000002495000000000000000000000000002495111023076665EFECTIVO00000004368077TBLS  0006076665074051            0000000000    
DD193020217880000000436489500000004364895                2016051720160519000000000011040000000000000000000000000011040111023078170EFECTIVO00000004364895TBRK  0006078170074507            0000000000    
DD193020217880000000436807500000004368075                2016051720160518000000000267578000000000000000000000000267578111023080392EFECTIVO00000004368075TBYP  0006080392075256            0000000000    
DD193020217880000000436531700000004365317                2016051720160519000000000004600000000000000000000000000004600111023082947EFECTIVO00000004365317TBRK  0006082947075836            0000000000    
DD193020217880000000436678700000004366787                2016051720160601000000000001000000000000000000000000000001000111017085410EFECTIVO00000004366787PZCA  0006085410080611            0000000000    
DD193020217880000000436813300000004368133                2016051720160520000000000020000000000000000000000000000020000111023087636EFECTIVO00000004368133TBJB  0006087636081104            0000000000    
DD193020217880000000436813900000004368139                2016051720160517000000000005900000000000000000000000000005900111023088829EFECTIVO00000004368139TBJA  0006088829081335            0000000000    
DD193020217880000000436816000000004368160                2016051720160524000000000003000000000000000000000000000003000111023090722EFECTIVO00000004368160TBLT  0006090722081654            0000000000    
DD193020217880000000436817100000004368171                2016051720160524000000000001500000000000000000000000000001500111023091906EFECTIVO00000004368171TBLS  0006091906081917            0000000000    
DD193020217880000000436817900000004368179                2016051720160524000000000030000000000000000000000000000030000111023093121EFECTIVO00000004368179TBKY  0006093121082213            0000000000    
DD193020217880000000436818400000004368184                2016051720160601000000000005000000000000000000000000000005000111023095107EFECTIVO00000004368184TBK4  0006095107082548            0000000000    
DD193020217880000000436655400000004366554                2016051720160523000000000007500000000000000000000000000007500111017096046EFECTIVO00000004366554PZAB  0006096046082739            0000000000    
DD193020217880000000436654100000004366541                2016051720160523000000000001500000000000000000000000000001500111017096483EFECTIVO00000004366541PZAB  0006096483082835            0000000000    
DD193020217880000000436818200000004368182                2016051720160524000000000003000000000000000000000000000003000111023097289EFECTIVO00000004368182TBJB  0006097289083013            0000000000    
DD193020217880000000436798800000004367988                2016051720160518000000000004000000000000000000000000000004000111023098698EFECTIVO00000004367988TBRK  0006098698083134            0000000000    
DD193020217880000000436820700000004368207                2016051720160531000000000004450000000000000000000000000004450111023098673EFECTIVO00000004368207TBKZ  0006098673083251            0000000000    
DD193020217880000000436822500000004368225                2016051720160524000000000001500000000000000000000000000001500111023100353EFECTIVO00000004368225TBJB  0006100353083530            0000000000    
DD193020217880000000436784400000004367844                2016051720160524000000000003250000000000000000000000000003250111017100482EFECTIVO00000004367844PZDB  0006100482083542            0000000000    
DD193020217880000000434560100000004345601                2016051720160610000000000009100000000000000000000000000009100111017100875EFECTIVO00000004345601PZDA  0006100875083620            0000000000    
DD193020217880000000436822900000004368229                2016051720160520000000000013000000000000000000000000000013000111023101307EFECTIVO00000004368229TBX0  0006101307083659            0000000000    
DD193020217880000000436820900000004368209                2016051720160524000000000003207000000000000000000000000003207111023101437EFECTIVO00000004368209TBKY  0006101437083710            0000000000    
DD193020217880000000436741500000004367415                2016051720160524000000000003250000000000000000000000000003250111017102467EFECTIVO00000004367415PZAA  0006102467083844            0000000000    
DD193020217880000000436806200000004368062                2016051720160520000000000025000000000000000000000000000025000111017102892EFECTIVO00000004368062PZAA  0006102892083923            0000000000    
DD193020217880000000436720800000004367208                2016051720160519000000000123670000000000000000000000000123670111023103300EFECTIVO00000004367208TBXV  0006103300084001            0000000000    
DD193020217880000000436769900000004367699                2016051720160520000000000024200000000000000000000000000024200111023103421EFECTIVO00000004367699TBX1  0006103421084013            0000000000    
DD193020217880000000436596600000004365966                2016051720160523000000000007500000000000000000000000000007500111017103600EFECTIVO00000004365966PZDA  0006103600084033            0000000000    
DD193020217880000000436596000000004365960                2016051720160523000000000003000000000000000000000000000003000111017104183EFECTIVO00000004365960PZDA  0006104183084128            0000000000    
DD193020217880000000436638000000004366380                2016051720160523000000000003000000000000000000000000000003000111017104628EFECTIVO00000004366380PZDA  0006104628084208            0000000000    
DD193020217880000000436639000000004366390                2016051720160523000000000001500000000000000000000000000001500111017105061EFECTIVO00000004366390PZDA  0006105061084250            0000000000    
DD193020217880000000436822000000004368220                2016051720160524000000000006900000000000000000000000000006900111017105372EFECTIVO00000004368220PZAA  0006105372084322            0000000000    
DD193020217880000000436824400000004368244                2016051720160518000000000016000000000000000000000000000016000111017106552EFECTIVO00000004368244PZCB  0006106552084510            0000000000    
DD193020217880000000436823500000004368235                2016051720160520000000000045000000000000000000000000000045000111023106911EFECTIVO00000004368235TBYO  0006106911084544            0000000000    
DD193020217880000000436826600000004368266                2016051720160517000000000013000000000000000000000000000013000111023109299EFECTIVO      4368266 TBLS  0006109299084830            0000000000    
DD193020217880000000436803100000004368031                2016051720160518000000000020000000000000000000000000000020000111023114756EFECTIVO00000004368031TBLT  0006114756085609            0000000000    
DD193020217880000000436825700000004368257                2016051720160520000000000010000000000000000000000000000010000111023114381EFECTIVO00000004368257TBK4  0006114381085622            0000000000    
DD193020217880000000436832000000004368320                2016051720160524000000000030000000000000000000000000000030000111023114694EFECTIVO00000004368320TBKZ  0006114694085647            0000000000    
DD193020217880000000436794500000004367945                2016051720160524000000000015000000000000000000000000000015000111017115635EFECTIVO00000004367945PZAB  0006115635085803            0000000000    
DD193020217880000000436687200000004366872                2016051720160523000000000008800000000000000000000000000008800111017115738EFECTIVO00000004366872PZBC  0006115738085812            0000000000    
DD193020217880000000436832700000004368327                2016051720160517000000000011500000000000000000000000000011500111023117406EFECTIVO00000004368327TBLS  0006117406085944            0000000000    
DD19302021788000000043671960000000004367                 2016051720160523000000000015000000000000000000000000000015000515000016285EFECTIVO00000004367196C21E  0000016285090250            0000000000    
DD19302021788000000043502350000000004350                 2016051720160611000000000009100000000000000000000000000009100194024016613EFECTIVO00000004350235724C  0000016613090322            0000000000    
DD193020217880000000436821600000004368216                2016051720160524000000000001500000000000000000000000000001500111017121122EFECTIVO00000004368216PZAC  0006121122090501            0000000000    
DD193020217880000000436817700000004368177                2016051720160524000000000003500000000000000000000000000003500111017122111EFECTIVO00000004368177PZBA  0006122111090612            0000000000    
DD19302021788000000043647000000000004364                 2016051720160517000000000126613000000000000000000000000126613000028018415EFECTIVO00000004364700028E  0000018415090618            0000000000    
DD19302021788000000043678040000000004367                 2016051720160518000000000183205000000000000000000000000183205000028018779EFECTIVO00000004367804028E  0000018779090646            0000000000    
DD19302021788000000043583630000000004358                 2016051720160613000000000015150000000000000000000000000015150000059020180EFECTIVO00000004358363059E  0000020180090846            0000000000    
DD193020217880000000436840100000004368401                2016051720160518000000000005000000000000000000000000000005000111023125691EFECTIVO00000004368401TBRK  0006125691090859            0000000000    
DD193020217880000000433364100000004333641                2016051720160608000000000009100000000000000000000000000009100111017125880EFECTIVO00000004333641PZDB  0006125880091032            0000000000    
DD193020217880000000436672900000004366729                2016051720160615000000000015098000000000000000000000000015098111017126979EFECTIVO00000004366729PZCB  0006126979091147            0000000000    
DD193020217880000000436834900000004368349                2016051720160518000000000003500000000000000000000000000003500111017127279EFECTIVO00000004368349PZAA  0006127279091207            0000000000    
DD193020217880000000436707900000004367079                2016051720160517000000000005495000000000000000000000000005495111017127327EFECTIVO00000004367079PZDA  0006127327091210            0000000000    
DD193020217880000000436740000000004367400                2016051720160519000000000002000000000000000000000000000002000111017128266EFECTIVO00000004367400PZAA  0006128266091313            0000000000    
DD19302021788000000043684100000000004368                 2016051720160524000000000001400000000000000000000000000001400350000024901EFECTIVO00000004368410C31A  0000024901091530            0000000000    
DD19302021788000000043566030000000004356                 2016051720160519000000000006500000000000000000000000000006500193076025006EFECTIVO00000004356603876E  0000025006091539            0000000000    
DD193020217880000000436840200000004368402                2016051720160518000000000005000000000000000000000000000005000111017130650EFECTIVO00000004368402PZDD  0006130650091542            0000000000    
DD19302021788000000043566100000000004356                 2016051720160519000000000006500000000000000000000000000006500193076025287EFECTIVO00000004356610876E  0000025287091604            0000000000    
DD193020217880000000436746300000004367463                2016051720160530000000000003600000000000000000000000000003600111023132061EFECTIVO      4367463 TBLV  0006132061091624            0000000000    
DD193020217880000000436462000000004364620                2016051720160615000000000014998000000000000000000000000014998111017133767EFECTIVO00000004364620PZBA  0006133767091856            0000000000    
DD193020217880000000436840800000004368408                2016051720160524000000000003000000000000000000000000000003000111017134270EFECTIVO00000004368408PZBB  0006134270091927            0000000000    
DD193020217880000000435734200000004357342                2016051720160517000000000020400000000000000000000000000020400111023134479EFECTIVO00000004357342TBKY  0006134479091938            0000000000    
DD193020217880000000435209800000004352098                2016051720160517000000000003290000000000000000000000000003290111017134919EFECTIVO00000004352098PZDA  0006134919092004            0000000000    
DD193020217880000000435424800000004354248                2016051720160517000000000011900000000000000000000000000011900111017136385EFECTIVO00000004354248PZDA  0006136385092132            0000000000    
DD193020217880000000436725000000004367250                2016051720160523000000000003000000000000000000000000000003000111017137062EFECTIVO00000004367250PZDA  0006137062092215            0000000000    
DD193020217880000000436839500000004368395                2016051720160524000000000003000000000000000000000000000003000111017137631EFECTIVO00000004368395PZAA  0006137631092250            0000000000    
DD193020217880000000436756100000004367561                2016051720160524000000000003250000000000000000000000000003250111017137933EFECTIVO00000004367561PZBB  0006137933092307            0000000000    
DD193020217880000000436728200000004367282                2016051720160524000000000001500000000000000000000000000001500111017138111EFECTIVO00000004367282PZCB  0006138111092317            0000000000    
DD193020217880000000436841400000004368414                2016051720160524000000000001500000000000000000000000000001500111017138562EFECTIVO00000004368414PZAA  0006138562092344            0000000000    
DD193020217880000000436559700000004365597                2016051720160523000000000001400000000000000000000000000001400111017138979EFECTIVO00000004365597PZAA  0006138979092411            0000000000    
DD19302021788000000043682990000000004368                 2016051720160524000000000003000000000000000000000000000003000335000031842EFECTIVO00000004368299LHHI  0000031842092413            0000000000    
DD19302021788000000043660070000000004366                 2016051720160517000000000011000000000000000000000000000011000193085031874EFECTIVO00000004366007885E  0000031874092415            0000000000    
DD193020217880000000436843600000004368436                2016051720160524000000000003000000000000000000000000000003000111017139371EFECTIVO00000004368436PZBA  0006139371092434            0000000000    
DD19302021788000000043682810000000004368                 2016051720160524000000000003000000000000000000000000000003000335000032409EFECTIVO00000004368281LHHI  0000032409092458            0000000000    
DD193020217880000000436848900000004368489                2016051720160517000000000011000000000000000000000000000011000111008140037EFECTIVO00000004368489TN25  0006140037092513            0000000000    
DD193020217880000000436190900000004361909                2016051720160517000000000003290000000000000000000000000003290111017140488EFECTIVO00000004361909PZCA  0006140488092538            0000000000    
DD193020217880000000436846900000004368469                2016051720160524000000000001500000000000000000000000000001500111017140832EFECTIVO00000004368469PZBC  0006140832092559            0000000000    
DD19302021788000000043681960000000004368                 2016051720160524000000000007500000000000000000000000000007500335000033237EFECTIVO00000004368196LHHI  0000033237092602            0000000000    
DD19302021788000000043644650000000004364                 2016051720160518000000000003600000000000000000000000000003600193055033278EFECTIVO00000004364465855C  0000033278092604            0000000000    
DD193020217880000000436851300000004368513                2016051720160524000000000007500000000000000000000000000007500111017141936EFECTIVO00000004368513PZCB  0006141936092709            0000000000    
DD193020217880000000436857500000004368575                2016051720160601000000000005000000000000000000000000000005000111023148696EFECTIVO00000004368575TBKY  0006148696093337            0000000000    
DD193020217880000000436851400000004368514                2016051720160524000000000003250000000000000000000000000003250111017149325EFECTIVO00000004368514PZBC  0006149325093413            0000000000    
DD193020217880000000436131500000004361315                2016051720160518000000000030000000000000000000000000000030000111017150903EFECTIVO00000004361315PZDA  0006150903093545            0000000000    
DD193020217880000000436828600000004368286                2016051720160520000000000001450000000000000000000000000001450111017152000EFECTIVO00000004368286PZCA  0006152000093646            0000000000    
DD193020217880000000436859600000004368596                2016051720160524000000000008797000000000000000000000000008797111017152042EFECTIVO00000004368596PZBA  0006152042093649            0000000000    
DD193020217880000000436693600000004366936                2016051720160523000000000003000000000000000000000000000003000111017152877EFECTIVO00000004366936PZDA  0006152877093736            0000000000    
DD193020217880000000431853600000004318536                2016051720160604000000000009100000000000000000000000000009100111017153067EFECTIVO00000004318536PZAA  0006153067093747            0000000000    
DD19302021788000000043581510000000004358                 2016051720160613000000000009100000000000000000000000000009100545000043525EFECTIVO00000004358151CCVC  0000043525093833            0000000000    
DD193020217880000000436864900000004368649                2016051720160517000000000011000000000000000000000000000011000111023154596EFECTIVO00000004368649TBKY  0006154596093917            0000000000    
DD193020217880000000436864600000004368646                2016051720160531000000000004450000000000000000000000000004450111023154727EFECTIVO00000004368646TBXU  0006154727093924            0000000000    
DD19302021788000000043637710000000004363                 2016051720160519000000000004300000000000000000000000000004300193057044422EFECTIVO00000004363771857D  0000044422093931            0000000000    
DD193020217880000000436860200000004368602                2016051720160518000000000003500000000000000000000000000003500111017156436EFECTIVO00000004368602PZCB  0006156436094105            0000000000    
DD193020217880000000436762200000004367622                2016051720160519000000000005937000000000000000000000000005937111017157473EFECTIVO00000004367622PZBA  0006157473094203            0000000000    
DD193020217880000000436661900000004366619                2016051720160523000000000007500000000000000000000000000007500111017157554EFECTIVO00000004366619PZAB  0006157554094208            0000000000    
DD193020217880000000436866400000004368664                2016051720160517000000000005600000000000000000000000000005600111023159282EFECTIVO00000004368664TBRL  0006159282094227            0000000000    
DD193020217880000000436839300000004368393                2016051720160601000000000002000000000000000000000000000002000111017159019EFECTIVO00000004368393PZDA  0006159019094332            0000000000    
DD193020217880000000436476900000004364769                2016051720160518000000000003990000000000000000000000000003990111017159132EFECTIVO00000004364769PZDB  0006159132094339            0000000000    
DD193020217880000000436863700000004368637                2016051720160601000000000000900000000000000000000000000000900111017159887EFECTIVO00000004368637PZCB  0006159887094421            0000000000    
DD193020217880000000436856300000004368563                2016051720160524000000000008800000000000000000000000000008800111023160083EFECTIVO00000004368563TBXW  0006160083094432            0000000000    
DD193020217880000000436871000000004368710                2016051720160517000000000011000000000000000000000000000011000111023160567EFECTIVO00000004368710TBKY  0006160567094501            0000000000    
DD19302021788000000043531560000000004353                 2016051720160612000000000009150000000000000000000000000009150000074050130EFECTIVO00000004353156074G  0000050130094544            0000000000    
DD19302021788000000043622440000000004362                 2016051720160517000000000003980000000000000000000000000003980193030050358EFECTIVO00000004362244830D  0000050358094559            0000000000    
DD193020217880000000436819000000004368190                2016051720160517000000000006200000000000000000000000000006200111017161657EFECTIVO00000004368190PZBB  0006161657094602            0000000000    
DD193020217880000000436840900000004368409                2016051720160524000000000007500000000000000000000000000007500111017161922EFECTIVO00000004368409PZAA  0006161922094617            0000000000    
DD193020217880000000436850500000004368505                2016051720160520000000000035000000000000000000000000000035000111017162379EFECTIVO00000004368505PZAB  0006162379094641            0000000000    
DD193020217880000000436870600000004368706                2016051720160518000000000008500000000000000000000000000008500111017162622EFECTIVO00000004368706PZAB  0006162622094655            0000000000    
DD19302021788000000043669480000000004366                 2016051720160517000000000003000000000000000000000000000003000475009051507EFECTIVO00000004366948PI9F  0000051507094707            0000000000    
DD193020217880000000436844300000004368443                2016051720160524000000000001500000000000000000000000000001500111017162929EFECTIVO00000004368443PZAA  0006162929094711            0000000000    
DD193020217880000000436837900000004368379                2016051720160519000000000005900000000000000000000000000005900111017163228EFECTIVO00000004368379PZDC  0006163228094728            0000000000    
DD19302021788000000043623840000000004362                 2016051720160518000000000015650000000000000000000000000015650395000051885EFECTIVO00000004362384C12E  0000051885094734            0000000000    
DD19302021788000000043684530000000004368                 2016051720160616000000000015150000000000000000000000000015150194043052053EFECTIVO00000004368453743D  0000052053094746            0000000000    
DD193020217880000000436634600000004366346                2016051720160519000000000163900000000000000000000000000163900111023163769EFECTIVO00000004366346TBX1  0006163769094755            0000000000    
DD193020217880000000436873100000004368731                2016051720160520000000000014000000000000000000000000000014000111023163962EFECTIVO00000004368731TBX0  0006163962094807            0000000000    
DD193020217880000000436873000000004368730                2016051720160531000000000004450000000000000000000000000004450111023164619EFECTIVO00000004368730TBXU  0006164619094844            0000000000    
DD193020217880000000436862700000004368627                2016051720160520000000000002000000000000000000000000000002000111017165029EFECTIVO00000004368627PZDC  0006165029094906            0000000000    
DD19302021788000000043659290000000004365                 2016051720160519000000000009740000000000000000000000000009740575000054234EFECTIVO00000004365929CCMF  0000054234095008            0000000000    
DD19302021788000000043686160000000004368                 2016051720160524000000000003249000000000000000000000000003249000056054263EFECTIVO00000004368616056B  0000054263095010            0000000000    
DD193020217880000000436873600000004368736                2016051720160520000000000002500000000000000000000000000002500111008167517EFECTIVO00000004368736TN88  0006167517095125            0000000000    
DD19302021788000000043629280000000004362                 2016051720160519000000000015529000000000000000000000000015529575000056122EFECTIVO00000004362928CCMF  0000056122095155            0000000000    
DD193020217880000000436627400000004366274                2016051720160615000000000009100000000000000000000000000009100111017168209EFECTIVO00000004366274PZCA  0006168209095205            0000000000    
DD193020217880000000436870500000004368705                2016051720160524000000000001400000000000000000000000000001400111017168465EFECTIVO00000004368705PZDC  0006168465095220            0000000000    
DD193020217880000000436874600000004368746                2016051720160517000000000003300000000000000000000000000003300111023170723EFECTIVO00000004368746TBRK  0006170723095302            0000000000    
DD19302021788000000043429440000000004342                 2016051720160610000000000015098000000000000000000000000015098316000057415EFECTIVO00000004342944CVOA  0000057415095321            0000000000    
DD193020217880000000432082800000004320828                2016051720160604000000000009100000000000000000000000000009100111017170029EFECTIVO00000004320828PZBA  0006170029095342            0000000000    
DD193020217880000000436857300000004368573                2016051720160524000000000008772000000000000000000000000008772111017172183EFECTIVO00000004368573PZDA  0006172183095537            0000000000    
DD193020217880000000436876000000004368760                2016051720160520000000000002000000000000000000000000000002000111017172586EFECTIVO00000004368760PZAB  0006172586095600            0000000000    
DD193020217880000000436876300000004368763                2016051720160531000000000001500000000000000000000000000001500111023172777EFECTIVO00000004368763TBYO  0006172777095612            0000000000    
DD193020217880000000436858000000004368580                2016051720160520000000000002000000000000000000000000000002000111023172940EFECTIVO00000004368580TBKY  0006172940095620            0000000000    
DD193020217880000000436719100000004367191                2016051720160523000000000001500000000000000000000000000001500111017173598EFECTIVO00000004367191PZAA  0006173598095657            0000000000    
DD193020217880000000436876400000004368764                2016051720160518000000000020000000000000000000000000000020000111023174786EFECTIVO00000004368764TBLS  0006174786095716            0000000000    
DD193020217880000000436879400000004368794                2016051720160518000000000002000000000000000000000000000002000111017174683EFECTIVO00000004368794PZDA  0006174683095754            0000000000    
DD193020217880000000436880300000004368803                2016051720160524000000000030000000000000000000000000000030000111023175074EFECTIVO00000004368803TBX1  0006175074095815            0000000000    
DD19302021788000000043686970000000004368                 2016051720160520000000000003500000000000000000000000000003500000046062037EFECTIVO00000004368697046E  0000062037095824            0000000000    
DD193020217880000000436652700000004366527                2016051720160523000000000003250000000000000000000000000003250111017177906EFECTIVO00000004366527PZDA  0006177906100045            0000000000    
DD19302021788000000043683180000000004368                 2016051720160524000000000001500000000000000000000000000001500375001065302EFECTIVO00000004368318ID1C  0000065302100153            0000000000    
DD193020217880000000436815700000004368157                2016051720160524000000000003222000000000000000000000000003222111017183271EFECTIVO00000004368157PZBA  0006183271100531            0000000000    
DD193020217880000000435956000000004359560                2016051720160517000000000043800000000000000000000000000043800111017183883EFECTIVO00000004359560PZBA  0006183883100605            0000000000    
DD193020217880000000436878600000004368786                2016051720160519000000000007900000000000000000000000000007900111023185822EFECTIVO00000004368786TBRK  0006185822100629            0000000000    
DD19302021788000000043665170000000004366                 2016051720160519000000000013779000000000000000000000000013779316000069618EFECTIVO00000004366517CVOB  0000069618100638            0000000000    
DD193020217880000000436855400000004368554                2016051720160524000000000003163000000000000000000000000003163111017186484EFECTIVO00000004368554PZDA  0006186484100823            0000000000    
DD19302021788000000043683740000000004368                 2016051720160524000000000005000000000000000000000000000005000193051071788EFECTIVO00000004368374851G  0000071788100852            0000000000    
DD19302021788000000043682940000000004368                 2016051720160531000000000004450000000000000000000000000004450193051072377EFECTIVO00000004368294851G  0000072377100927            0000000000    
DD193020217880000000436746000000004367460                2016051720160519000000000002000000000000000000000000000002000111017188282EFECTIVO00000004367460PZDE  0006188282100952            0000000000    
DD19302021788000000043645190000000004364                 2016051720160519000000000017428000000000000000000000000017428570019074911EFECTIVO00000004364519T19F  0000074911101202            0000000000    
DD193020217880000000436821000000004368210                2016051720160520000000000012000000000000000000000000000012000111017191056EFECTIVO00000004368210PZAA  0006191056101214            0000000000    
DD193020217880000000436155800000004361558                2016051720160517000000000007900000000000000000000000000007900111023192670EFECTIVO00000004361558TBRK  0006192670101219            0000000000    
DD193020217880000000436855600000004368556                2016051720160520000000000002500000000000000000000000000002500111017191632EFECTIVO00000004368556PZAC  0006191632101244            0000000000    
DD19302021788000000043661530000000004366                 2016051720160519000000000003050000000000000000000000000003050193040076737EFECTIVO00000004366153840E  0000076737101339            0000000000    
DD193020217880000000436389900000004363899                2016051720160519000000000023900000000000000000000000000023900111017192681EFECTIVO00000004363899PZAB  0006192681101339            0000000000    
DD193020217880000000436885500000004368855                2016051720160518000000000002000000000000000000000000000002000111017192714EFECTIVO00000004368855PZCB  0006192714101340            0000000000    
DD193020217880000000436873400000004368734                2016051720160601000000000005000000000000000000000000000005000111017192884EFECTIVO00000004368734PZDB  0006192884101348            0000000000    
DD193020217880000000436859200000004368592                2016051720160520000000000002500000000000000000000000000002500111017193060EFECTIVO00000004368592PZAC  0006193060101358            0000000000    
DD193020217880000000436827100000004368271                2016051720160524000000000007500000000000000000000000000007500111017193538EFECTIVO00000004368271PZDB  0006193538101425            0000000000    
DD19302021788000000043647420000000004364                 2016051720160615000000000015098000000000000000000000000015098535000079751EFECTIVO00000004364742CC5G  0000079751101647            0000000000    
DD19302021788000000043686620000000004368                 2016051720160518000000000007920000000000000000000000000007920193071079869EFECTIVO00000004368662871A  0000079869101654            0000000000    
DD19302021788000000043686880000000004368                 2016051720160520000000000017500000000000000000000000000017500194039080123EFECTIVO00000004368688739F  0000080123101710            0000000000    
DD19302021788000000043667600000000004366                 2016051720160519000000000010446000000000000000000000000010446475007081456EFECTIVO00000004366760RPPA  0000081456101827            0000000000    
DD193020217880000000436879100000004368791                2016051720160524000000000001500000000000000000000000000001500111017199770EFECTIVO00000004368791PZBA  0006199770101947            0000000000    
DD19302021788000000043651290000000004365                 2016051720160517000000000032980000000000000000000000000032980575001082966EFECTIVO00000004365129V01C  0000082966101959            0000000000    
DD193020217880000000436764200000004367642                2016051720160518000000000063800000000000000000000000000063800111023200559EFECTIVO00000004367642TBJA  0006200559102028            0000000000    
DD19302021788000000043664930000000004366                 2016051720160518000000000006490000000000000000000000000006490193017083908EFECTIVO00000004366493817H  0000083908102054            0000000000    
DD19302021788000000043629660000000004362                 2016051720160519000000000002000000000000000000000000000002000194020084017EFECTIVO00000004362966720E  0000084017102101            0000000000    
DD193020217880000000436743300000004367433                2016051720160519000000000002000000000000000000000000000002000111017201286EFECTIVO00000004367433PZBE  0006201286102106            0000000000    
DD19302021788000000043661160000000004366                 2016051720160615000000000015098000000000000000000000000015098245001084103EFECTIVO00000004366116EQUD  0000084103102107            0000000000    
DD193020217880000000436893600000004368936                2016051720160520000000000017000000000000000000000000000017000111017201504EFECTIVO00000004368936PZCA  0006201504102117            0000000000    
DD193020217880000000436900200000004369002                2016051720160517000000000022000000000000000000000000000022000111023201835EFECTIVO00000004369002TBX2  0006201835102134            0000000000    
DD193020217880000000435447700000004354477                2016051720160612000000000009100000000000000000000000000009100111017202064EFECTIVO00000004354477PZAA  0006202064102145            0000000000    
DD193020217880000000436884400000004368844                2016051720160517000000000020000000000000000000000000000020000111023202124EFECTIVO00000004368844TBX0  0006202124102147            0000000000    
DD193020217880000000436897800000004368978                2016051720160520000000000030000000000000000000000000000030000111023202789EFECTIVO00000004368978TBYO  0006202789102222            0000000000    
DD193020217880000000436749100000004367491                2016051720160524000000000003000000000000000000000000000003000111017204062EFECTIVO00000004367491PZCB  0006204062102328            0000000000    
DD193020217880000000436862900000004368629                2016051720160524000000000003250000000000000000000000000003250111017205582EFECTIVO00000004368629PZAA  0006205582102446            0000000000    
DD19302021788000000043688200000000004368                 2016051720160524000000000003000000000000000000000000000003000000079088770EFECTIVO00000004368820079A  0000088770102559            0000000000    
DD193020217880000000436901000000004369010                2016051720160520000000000002500000000000000000000000000002500111023207598EFECTIVO00000004369010TBXU  0006207598102627            0000000000    
DD193020217880000000431463400000004314634                2016051720160603000000000015098000000000000000000000000015098111017207631EFECTIVO00000004314634PZAA  0006207631102630            0000000000    
DD19302021788000000043688670000000004368                 2016051720160524000000000001500000000000000000000000000001500000079089378EFECTIVO00000004368867079A  0000089378102634            0000000000    
DD193020217880000000436881900000004368819                2016051720160524000000000008550000000000000000000000000008550111017208238EFECTIVO00000004368819PZDA  0006208238102704            0000000000    
DD193020217880000000436827600000004368276                2016051720160520000000000002500000000000000000000000000002500111023208512EFECTIVO00000004368276TBXU  0006208512102718            0000000000    
DD193020217880000000436869300000004368693                2016051720160520000000000005000000000000000000000000000005000111017208586EFECTIVO00000004368693PZDC  0006208586102723            0000000000    
DD193020217880000000436888600000004368886                2016051720160517000000000020000000000000000000000000000020000111023208891EFECTIVO00000004368886TBX0  0006208891102739            0000000000    
DD193020217880000000436752400000004367524                2016051720160524000000000003205000000000000000000000000003205111017211023EFECTIVO00000004367524PZDA  0006211023102929            0000000000    
DD193020217880000000434897800000004348978                2016051720160611000000000009100000000000000000000000000009100111017211729EFECTIVO00000004348978PZDB  0006211729103006            0000000000    
DD193020217880000000436822400000004368224                2016051720160524000000000003000000000000000000000000000003000111017211982EFECTIVO00000004368224PZBC  0006211982103018            0000000000    
DD193020217880000000436434100000004364341                2016051720160615000000000009100000000000000000000000000009100111017212455EFECTIVO00000004364341PZDA  0006212455103042            0000000000    
DD193020217880000000436823300000004368233                2016051720160524000000000003000000000000000000000000000003000111017212860EFECTIVO00000004368233PZBA  0006212860103103            0000000000    
DD193020217880000000436668300000004366683                2016051720160523000000000005000000000000000000000000000005000111023213179EFECTIVO00000004366683TBJB  0006213179103118            0000000000    
DD193020217880000000436700200000004367002                2016051720160523000000000003243000000000000000000000000003243111017213209EFECTIVO00000004367002PZBA  0006213209103119            0000000000    
DD19302021788000000043665330000000004366                 2016051720160615000000000015098000000000000000000000000015098194030094383EFECTIVO00000004366533730D  0000094383103123            0000000000    
DD193020217880000000436849600000004368496                2016051720160518000000000017000000000000000000000000000017000111017213339EFECTIVO00000004368496PZCA  0006213339103127            0000000000    
DD193020217880000000436905400000004369054                2016051720160518000000000062581000000000000000000000000062581111023215524EFECTIVO00000004369054TBLS  0006215524103235            0000000000    
DD193020217880000000436851800000004368518                2016051720160520000000000002500000000000000000000000000002500111008218851EFECTIVO00000004368518TNF7  0006218851103600            0000000000    
DD193020217880000000436904600000004369046                2016051720160518000000000003900000000000000000000000000003900111023220627EFECTIVO00000004369046TBLS  0006220627103648            0000000000    
DD193020217880000000436822100000004368221                2016051720160520000000000002000000000000000000000000000002000111017220138EFECTIVO00000004368221PZAA  0006220138103706            0000000000    
DD193020217880000000436912200000004369122                2016051720160520000000000100000000000000000000000000000100000111023222129EFECTIVO00000004369122TBLS  0006222129103806            0000000000    
DD19302021788000000043668610000000004366                 2016051720160519000000000003310000000000000000000000000003310194008101835EFECTIVO00000004366861708A  0000101835103812            0000000000    
DD19302021788000000043580830000000004358                 2016051720160613000000000009150000000000000000000000000009150000032102162EFECTIVO00000004358083032E  0000102162103832            0000000000    
DD193020217880000000436053800000004360538                2016051720160517000000000004900000000000000000000000000004900111017223315EFECTIVO00000004360538PZBA  0006223315103951            0000000000    
DD193020217880000000436908700000004369087                2016051720160524000000000015000000000000000000000000000015000111017223730EFECTIVO00000004369087PZAD  0006223730104012            0000000000    
DD193020217880000000436911800000004369118                2016051720160524000000000007500000000000000000000000000007500111017224864EFECTIVO00000004369118PZDC  0006224864104109            0000000000    
DD193020217880000000436874000000004368740                2016051720160520000000000002000000000000000000000000000002000111017225583EFECTIVO00000004368740PZCA  0006225583104146            0000000000    
DD193020217880000000436891900000004368919                2016051720160616000000000015098000000000000000000000000015098111017226044EFECTIVO00000004368919PZDD  0006226044104210            0000000000    
DD193020217880000000436906000000004369060                2016051720160524000000000003000000000000000000000000000003000111017226222EFECTIVO00000004369060PZDA  0006226222104219            0000000000    
DD19302021788000000043638530000000004363                 2016051720160517000000000003590000000000000000000000000003590194000107134EFECTIVO000000043638537MEH  0000107134104315            0000000000    
DD193020217880000000435521600000004355216                2016051720160612000000000009100000000000000000000000000009100111017228140EFECTIVO00000004355216PZCC  0006228140104354            0000000000    
DD193020217880000000436914700000004369147                2016051720160517000000000005900000000000000000000000000005900111023228156EFECTIVO00000004369147TBYO  0006228156104355            0000000000    
DD193020217880000000436770000000004367700                2016051720160520000000000008720000000000000000000000000008720111017229704EFECTIVO00000004367700PZAC  0006229704104513            0000000000    
DD193020217880000000436912600000004369126                2016051720160518000000000008642000000000000000000000000008642111017230899EFECTIVO00000004369126PZAB  0006230899104612            0000000000    
DD193020217880000000436891000000004368910                2016051720160520000000000000120000000000000000000000000000120111017231293EFECTIVO00000004368910PZAA  0006231293104631            0000000000    
DD193020217880000000436682400000004366824                2016051720160518000000000007500000000000000000000000000007500111017232107EFECTIVO00000004366824PZBC  0006232107104713            0000000000    
DD193020217880000000436378400000004363784                2016051720160519000000000002000000000000000000000000000002000111017232401EFECTIVO00000004363784PZBA  0006232401104729            0000000000    
DD193020217880000000436759500000004367595                2016051720160524000000000007940000000000000000000000000007940111017232402EFECTIVO00000004367595PZDA  0006232402104729            0000000000    
DD193020217880000000436702900000004367029                2016051720160523000000000001500000000000000000000000000001500111017232590EFECTIVO00000004367029PZDA  0006232590104739            0000000000    
DD193020217880000000436919600000004369196                2016051720160518000000000015500000000000000000000000000015500111023233505EFECTIVO00000004369196TBLS  0006233505104741            0000000000    
DD193020217880000000434554900000004345549                2016051720160610000000000015098000000000000000000000000015098111017233055EFECTIVO00000004345549PZDD  0006233055104803            0000000000    
DD193020217880000000436782400000004367824                2016051720160524000000000003038000000000000000000000000003038111017233543EFECTIVO00000004367824PZAA  0006233543104827            0000000000    
DD193020217880000000436713000000004367130                2016051720160523000000000003000000000000000000000000000003000111017234099EFECTIVO00000004367130PZDB  0006234099104854            0000000000    
DD19302021788000000043688990000000004368                 2016051720160517000000000040000000000000000000000000000040000194033113562EFECTIVO00000004368899733D  0000113562104920            0000000000    
DD193020217880000000436920400000004369204                2016051720160520000000000004000000000000000000000000000004000111023234710EFECTIVO00000004369204TBYO  0006234710104924            0000000000    
DD193020217880000000436903300000004369033                2016051720160517000000000011000000000000000000000000000011000111017236780EFECTIVO00000004369033PZDB  0006236780105107            0000000000    
DD19302021788000000043679440000000004367                 2016051720160524000000000011175000000000000000000000000011175550000115935EFECTIVO00000004367944LERH  0000115935105147            0000000000    
DD193020217880000000436719500000004367195                2016051720160519000000000003500000000000000000000000000003500111017238671EFECTIVO00000004367195PZBA  0006238671105241            0000000000    
DD19302021788000000043595790000000004359                 2016051720160517000000000006700000000000000000000000000006700193009118378EFECTIVO00000004359579DOMB  0000118378105337            0000000000    
DD193020217880000000436913200000004369132                2016051720160519000000000012100000000000000000000000000012100111017240110EFECTIVO00000004369132PZCA  0006240110105352            0000000000    
DD193020217880000000436896500000004368965                2016051720160524000000000003000000000000000000000000000003000111017240171EFECTIVO00000004368965PZBA  0006240171105355            0000000000    
DD193020217880000000436635400000004366354                2016051720160519000000000010000000000000000000000000000010000111017240173EFECTIVO00000004366354PZBC  0006240173105355            0000000000    
DD19302021788000000043640240000000004364                 2016051720160519000000000012719000000000000000000000000012719220000118886EFECTIVO00000004364024AYCC  0000118886105404            0000000000    
DD193020217880000000436854100000004368541                2016051720160524000000000003250000000000000000000000000003250111017240886EFECTIVO00000004368541PZDD  0006240886105430            0000000000    
DD19302021788000000043604270000000004360                 2016051720160614000000000015150000000000000000000000000015150000109119407EFECTIVO00000004360427109G  0000119407105435            0000000000    
DD193020217880000000436899200000004368992                2016051720160524000000000001500000000000000000000000000001500111017241217EFECTIVO00000004368992PZBA  0006241217105446            0000000000    
DD193020217880000000436896000000004368960                2016051720160520000000000010000000000000000000000000000010000111017241276EFECTIVO00000004368960PZAA  0006241276105450            0000000000    
DD193020217880000000436920600000004369206                2016051720160520000000000008144000000000000000000000000008144111023243096EFECTIVO00000004369206TBRK  0006243096105503            0000000000    
DD193020217880000000436798400000004367984                2016051720160519000000000003990000000000000000000000000003990111017241641EFECTIVO00000004367984PZAB  0006241641105508            0000000000    
DD193020217880000000436634100000004366341                2016051720160523000000000008778000000000000000000000000008778111017242585EFECTIVO00000004366341PZBB  0006242585105557            0000000000    
DD193020217880000000436870700000004368707                2016051720160517000000000011000000000000000000000000000011000111017242618EFECTIVO00000004368707PZAA  0006242618105559            0000000000    
DD19302021788000000043642570000000004364                 2016051720160517000000000017460000000000000000000000000017460215017120762EFECTIVO00000004364257A17B  0000120762105601            0000000000    
DD19302021788000000043680600000000004368                 2016051720160519000000000003290000000000000000000000000003290194003121258EFECTIVO00000004368060703C  0000121258105633            0000000000    
DD193020217880000000436920000000004369200                2016051720160524000000000005000000000000000000000000000005000111023244117EFECTIVO00000004369200TBKY  0006244117105713            0000000000    
DD193020217880000000436909400000004369094                2016051720160524000000000002500000000000000000000000000002500111023244897EFECTIVO00000004369094TBJA  0006244897105750            0000000000    
DD19302021788000000043664560000000004366                 2016051720160520000000000002500000000000000000000000000002500000000123285EFECTIVO00000004366456CEXE  0000123285105827            0000000000    
DD193020217880000000436923000000004369230                2016051720160520000000000004500000000000000000000000000004500111017245726EFECTIVO00000004369230PZAC  0006245726105834            0000000000    
DD193020217880000000435884900000004358849                2016051720160517000000000005900000000000000000000000000005900111017245736EFECTIVO00000004358849PZBD  0006245736105835            0000000000    
DD19302021788000000043664680000000004366                 2016051720160520000000000002500000000000000000000000000002500000000123644EFECTIVO00000004366468CEXE  0000123644105849            0000000000    
DD19302021788000000043579830000000004357                 2016051720160613000000000009100000000000000000000000000009100000044123859EFECTIVO00000004357983044I  0000123859105901            0000000000    
DD19302021788000000043656580000000004365                 2016051720160520000000000002500000000000000000000000000002500000000124025EFECTIVO00000004365658CEXE  0000124025105912            0000000000    
DD193020217880000000436901400000004369014                2016051720160524000000000003250000000000000000000000000003250111017247295EFECTIVO00000004369014PZAB  0006247295105955            0000000000    
DD193020217880000000436828900000004368289                2016051720160520000000000002300000000000000000000000000002300111017247738EFECTIVO00000004368289PZAB  0006247738110017            0000000000    
DD193020217880000000436925700000004369257                2016051720160601000000000002100000000000000000000000000002100111017248298EFECTIVO00000004369257PZAB  0006248298110044            0000000000    
DD193020217880000000436926100000004369261                2016051720160524000000000007500000000000000000000000000007500111017248491EFECTIVO00000004369261PZAC  0006248491110054            0000000000    
DD193020217880000000436902500000004369025                2016051720160524000000000002500000000000000000000000000002500111023249325EFECTIVO00000004369025TBJB  0006249325110136            0000000000    
DD19302021788000000043612180000000004361                 2016051720160517000000000006900000000000000000000000000006900193011127733EFECTIVO00000004361218811H  0000127733110244            0000000000    
DD19302021788000000043629490000000004362                 2016051720160615000000000009100000000000000000000000000009100295000127799EFECTIVO00000004362949C18B  0000127799110248            0000000000    
DD19302021788000000043654250000000004365                 2016051720160519000000000153349000000000000000000000000153349251000127952EFECTIVO00000004365425PDRG  0000127952110258            0000000000    
DD193020217880000000436930800000004369308                2016051720160520000000000010000000000000000000000000000010000111023251475EFECTIVO00000004369308TBKZ  0006251475110324            0000000000    
DD193020217880000000436923600000004369236                2016051720160520000000000050000000000000000000000000000050000111017251878EFECTIVO00000004369236PZDA  0006251878110344            0000000000    
DD19302021788000000043689290000000004368                 2016051720160517000000000011000000000000000000000000000011000215010129489EFECTIVO00000004368929BRII  0000129489110428            0000000000    
DD193020217880000000436836800000004368368                2016051720160518000000000008000000000000000000000000000008000111017253171EFECTIVO00000004368368PZAB  0006253171110446            0000000000    
DD193020217880000000436928200000004369282                2016051720160520000000000032900000000000000000000000000032900111023253221EFECTIVO00000004369282TBJB  0006253221110448            0000000000    
DD19302021788000000043648820000000004364                 2016051720160519000000000003300000000000000000000000000003300355004130916EFECTIVO00000004364882CRSC  0000130916110551            0000000000    
DD193020217880000000436927100000004369271                2016051720160524000000000003000000000000000000000000000003000111017254574EFECTIVO00000004369271PZDC  0006254574110559            0000000000    
DD193020217880000000436667200000004366672                2016051720160520000000000002500000000000000000000000000002500111023254933EFECTIVO00000004366672TBK5  0006254933110617            0000000000    
DD19302021788000000043680670000000004368                 2016051720160519000000000002980000000000000000000000000002980193000131769EFECTIVO000000043680678LEE  0000131769110642            0000000000    
DD193020217880000000436914100000004369141                2016051720160524000000000001500000000000000000000000000001500111017256962EFECTIVO00000004369141PZAA  0006256962110757            0000000000    
DD193020217880000000435592900000004355929                2016051720160612000000000009100000000000000000000000000009100111017258475EFECTIVO00000004355929PZCA  0006258475110912            0000000000    
DD193020217880000000436894300000004368943                2016051720160518000000000007500000000000000000000000000007500111017258680EFECTIVO00000004368943PZBA  0006258680110922            0000000000    
DD193020217880000000436837700000004368377                2016051720160524000000000008701000000000000000000000000008701111017259143EFECTIVO00000004368377PZAA  0006259143110945            0000000000    
DD193020217880000000436768800000004367688                2016051720160520000000000072519000000000000000000000000072519111017259195EFECTIVO00000004367688PZDB  0006259195110948            0000000000    
DD19302021788000000043690030000000004369                 2016051720160524000000000007500000000000000000000000000007500194064135435EFECTIVO00000004369003764G  0000135435111011            0000000000    
DD193020217880000000436292200000004362922                2016051720160519000000000066900000000000000000000000000066900111017260147EFECTIVO00000004362922PZAB  0006260147111036            0000000000    
DD19302021788000000043440200000000004344                 2016051720160610000000000015150000000000000000000000000015150000026137297EFECTIVO00000004344020026F  0000137297111159            0000000000    
DD193020217880000000436940600000004369406                2016051720160520000000000005000000000000000000000000000005000111023263827EFECTIVO00000004369406TBLU  0006263827111301            0000000000    
DD193020217880000000436940400000004369404                2016051720160524000000000030000000000000000000000000000030000111023263103EFECTIVO00000004369404TBK5  0006263103111308            0000000000    
DD193020217880000000436884800000004368848                2016051720160520000000000002000000000000000000000000000002000111017263971EFECTIVO00000004368848PZAB  0006263971111352            0000000000    
DD19302021788000000043615460000000004361                 2016051720160517000000000003290000000000000000000000000003290000105140000EFECTIVO00000004361546105D  0000140000111440            0000000000    
DD193020217880000000436726900000004367269                2016051720160519000000000001787000000000000000000000000001787111017264992EFECTIVO00000004367269PZAC  0006264992111445            0000000000    
DD193020217880000000436564700000004365647                2016051720160519000000000002300000000000000000000000000002300111017265077EFECTIVO00000004365647PZBC  0006265077111449            0000000000    
DD193020217880000000436941500000004369415                2016051720160520000000000010000000000000000000000000000010000111023265106EFECTIVO00000004369415TBKY  0006265106111449            0000000000    
DD193020217880000000436909500000004369095                2016051720160520000000000002000000000000000000000000000002000111017265635EFECTIVO00000004369095PZBE  0006265635111517            0000000000    
DD19302021788000000043693030000000004369                 2016051720160518000000000035000000000000000000000000000035000193027141941EFECTIVO00000004369303827A  0000141941111634            0000000000    
DD193020217880000000435903800000004359038                2016051720160613000000000015098000000000000000000000000015098111017269424EFECTIVO00000004359038PZAA  0006269424111825            0000000000    
DD193020217880000000436567400000004365674                2016051720160601000000000005000000000000000000000000000005000111023269667EFECTIVO00000004365674TBJB  0006269667111837            0000000000    
DD193020217880000000436714900000004367149                2016051720160615000000000009100000000000000000000000000009100111017271377EFECTIVO00000004367149PZAA  0006271377112000            0000000000    
DD19302021788000000043685290000000004368                 2016051720160520000000000001004000000000000000000000000001004570015146445EFECTIVO00000004368529LESJ  0000146445112048            0000000000    
DD193020217880000000436092000000004360920                2016051720160518000000000008990000000000000000000000000008990111017272347EFECTIVO00000004360920PZAA  0006272347112051            0000000000    
DD193020217880000000436456000000004364560                2016051720160519000000000009192000000000000000000000000009192111017272764EFECTIVO00000004364560PZBB  0006272764112112            0000000000    
DD19302021788000000043683360000000004368                 2016051720160520000000000001888000000000000000000000000001888570015146982EFECTIVO00000004368336LESJ  0000146982112116            0000000000    
DD193020217880000000436682900000004366829                2016051720160519000000000003450000000000000000000000000003450111017273182EFECTIVO00000004366829PZAA  0006273182112134            0000000000    
DD19302021788000000043683290000000004368                 2016051720160520000000000002556000000000000000000000000002556570015147408EFECTIVO00000004368329LESJ  0000147408112143            0000000000    
DD193020217880000000436935600000004369356                2016051720160524000000000003000000000000000000000000000003000111017273748EFECTIVO00000004369356PZAB  0006273748112204            0000000000    
DD19302021788000000043683080000000004368                 2016051720160520000000000001705000000000000000000000000001705570015147736EFECTIVO00000004368308LESJ  0000147736112205            0000000000    
DD193020217880000000436631200000004366312                2016051720160523000000000008800000000000000000000000000008800111017274896EFECTIVO00000004366312PZCB  0006274896112302            0000000000    
DD193020217880000000436941200000004369412                2016051720160524000000000007500000000000000000000000000007500111017275455EFECTIVO00000004369412PZAB  0006275455112331            0000000000    
DD193020217880000000436939500000004369395                2016051720160520000000000004500000000000000000000000000004500111023275490EFECTIVO00000004369395TBXU  0006275490112332            0000000000    
DD193020217880000000436945300000004369453                2016051720160524000000000001500000000000000000000000000001500111017277201EFECTIVO00000004369453PZAA  0006277201112457            0000000000    
DD193020217880000000436843400000004368434                2016051720160524000000000003250000000000000000000000000003250111017277383EFECTIVO00000004368434PZAE  0006277383112507            0000000000    
DD193020217880000000436937600000004369376                2016051720160616000000000015150000000000000000000000000015150111017277707EFECTIVO00000004369376PZBA  0006277707112525            0000000000    
DD193020217880000000436939200000004369392                2016051720160518000000000034083000000000000000000000000034083111023278155EFECTIVO00000004369392TBYP  0006278155112548            0000000000    
DD193020217880000000436839900000004368399                2016051720160517000000000009800000000000000000000000000009800111017278725EFECTIVO00000004368399PZBD  0006278725112619            0000000000    
DD193020217880000000436947100000004369471                2016051720160520000000000004000000000000000000000000000004000111017279133EFECTIVO00000004369471PZBA  0006279133112639            0000000000    
DD193020217880000000436908800000004369088                2016051720160524000000000003500000000000000000000000000003500111017280223EFECTIVO00000004369088PZBA  0006280223112734            0000000000    
DD193020217880000000436914400000004369144                2016051720160524000000000003500000000000000000000000000003500111017281938EFECTIVO00000004369144PZBC  0006281938112902            0000000000    
DD193020217880000000436597400000004365974                2016051720160519000000000027860000000000000000000000000027860111023282883EFECTIVO00000004365974TBXU  0006282883112949            0000000000    
DD19302021788000000043631680000000004363                 2016051720160530000000000004450000000000000000000000000004450193045155917EFECTIVO00000004363168845A  0000155917113003            0000000000    
DD193020217880000000436771600000004367716                2016051720160524000000000003250000000000000000000000000003250111017284283EFECTIVO00000004367716PZDB  0006284283113101            0000000000    
DD193020217880000000436951000000004369510                2016051720160518000000000005000000000000000000000000000005000111017284750EFECTIVO00000004369510PZAA  0006284750113126            0000000000    
DD193020217880000000436936200000004369362                2016051720160520000000000030000000000000000000000000000030000111017285177EFECTIVO00000004369362PZDC  0006285177113145            0000000000    
DD19302021788000000043549780000000004354                 2016051720160612000000000015098000000000000000000000000015098192025157810EFECTIVO00000004354978625C  0000157810113152            0000000000    
DD193020217880000000436519700000004365197                2016051720160519000000000028360000000000000000000000000028360111023287581EFECTIVO00000004365197TBK4  0006287581113347            0000000000    
DD193020217880000000436956000000004369560                2016051720160518000000000011839000000000000000000000000011839111023287870EFECTIVO00000004369560TBKZ  0006287870113402            0000000000    
DD19302021788000000043648100000000004364                 2016051720160517000000000083820000000000000000000000000083820194020160365EFECTIVO00000004364810720A  0000160365113418            0000000000    
DD193020217880000000436943800000004369438                2016051720160519000000000008900000000000000000000000000008900111023288294EFECTIVO00000004369438TBX1  0006288294113427            0000000000    
DD193020217880000000436948600000004369486                2016051720160520000000000005000000000000000000000000000005000111017290873EFECTIVO00000004369486PZBC  0006290873113637            0000000000    
DD193020217880000000436723200000004367232                2016051720160615000000000015098000000000000000000000000015098111017291211EFECTIVO00000004367232PZCB  0006291211113651            0000000000    
DD193020217880000000436916800000004369168                2016051720160520000000000002000000000000000000000000000002000111017291367EFECTIVO00000004369168PZAA  0006291367113659            0000000000    
DD193020217880000000436363100000004363631                2016051720160519000000000009840000000000000000000000000009840111023291399EFECTIVO00000004363631TBX1  0006291399113700            0000000000    
DD193020217880000000436950200000004369502                2016051720160524000000000008522000000000000000000000000008522111017291602EFECTIVO00000004369502PZAD  0006291602113711            0000000000    
DD193020217880000000436945900000004369459                2016051720160519000000000008900000000000000000000000000008900111023291830EFECTIVO00000004369459TBX1  0006291830113723            0000000000    
DD193020217880000000436933900000004369339                2016051720160520000000000007000000000000000000000000000007000111023292552EFECTIVO00000004369339TBYO  0006292552113758            0000000000    
DD193020217880000000436952300000004369523                2016051720160520000000000014850000000000000000000000000014850111023294353EFECTIVO00000004369523TBRL  0006294353113809            0000000000    
DD193020217880000000436951800000004369518                2016051720160519000000000020000000000000000000000000000020000111023293235EFECTIVO00000004369518TBK4  0006293235113831            0000000000    
DD193020217880000000436952900000004369529                2016051720160524000000000008635000000000000000000000000008635111017295699EFECTIVO00000004369529PZCC  0006295699114036            0000000000    
DD193020217880000000436960500000004369605                2016051720160520000000000002000000000000000000000000000002000111023297754EFECTIVO00000004369605TBRL  0006297754114101            0000000000    
DD193020217880000000436953900000004369539                2016051720160520000000000008720000000000000000000000000008720111023297144EFECTIVO00000004369539TBKY  0006297144114148            0000000000    
DD193020217880000000436954700000004369547                2016051720160524000000000008792000000000000000000000000008792111017297276EFECTIVO00000004369547PZCA  0006297276114155            0000000000    
DD193020217880000000436788900000004367889                2016051720160520000000000016750000000000000000000000000016750111023298021EFECTIVO00000004367889TBJB  0006298021114232            0000000000    
DD193020217880000000436821900000004368219                2016051720160531000000000015000000000000000000000000000015000111023298248EFECTIVO00000004368219TBXU  0006298248114244            0000000000    
DD19302021788000000043648480000000004364                 2016051720160519000000000128250000000000000000000000000128250245000170235EFECTIVO00000004364848VADF  0000170235114410            0000000000    
DD193020217880000000436950900000004369509                2016051720160520000000000012300000000000000000000000000012300111023300071EFECTIVO00000004369509TBYO  0006300071114419            0000000000    
DD193020217880000000436929800000004369298                2016051720160524000000000007500000000000000000000000000007500111017302505EFECTIVO00000004369298PZDC  0006302505114623            0000000000    
DD193020217880000000436963600000004369636                2016051720160601000000000002000000000000000000000000000002000111023302548EFECTIVO00000004369636TBXU  0006302548114625            0000000000    
DD193020217880000000436958800000004369588                2016051720160524000000000008800000000000000000000000000008800111017302720EFECTIVO00000004369588PZBE  0006302720114634            0000000000    
DD19302021788000000043662420000000004366                 2016051720160517000000000018000000000000000000000000000018000194012173375EFECTIVO00000004366242712D  0000173375114711            0000000000    
DD19302021788000000043575790000000004357                 2016051720160613000000000009100000000000000000000000000009100194030174747EFECTIVO00000004357579730F  0000174747114832            0000000000    
DD193020217880000000436966800000004369668                2016051720160520000000000003000000000000000000000000000003000111023305589EFECTIVO00000004369668TBJA  0006305589114857            0000000000    
DD193020217880000000436938900000004369389                2016051720160524000000000008800000000000000000000000000008800111017305888EFECTIVO00000004369389PZAA  0006305888114913            0000000000    
DD193020217880000000435776500000004357765                2016051720160613000000000009100000000000000000000000000009100111017305972EFECTIVO00000004357765PZBA  0006305972114918            0000000000    
DD193020217880000000436681700000004366817                2016051720160615000000000015098000000000000000000000000015098111017306424EFECTIVO00000004366817PZCA  0006306424114942            0000000000    
DD193020217880000000436966500000004369665                2016051720160517000000000010900000000000000000000000000010900111023308565EFECTIVO00000004369665TBRK  0006308565115014            0000000000    
DD19302021788000000043651910000000004365                 2016051720160517000000000020000000000000000000000000000020000194034177466EFECTIVO00000004365191734B  0000177466115108            0000000000    
DD193020217880000000436437000000004364370                2016051720160530000000000004450000000000000000000000000004450111017308749EFECTIVO00000004364370PZAA  0006308749115143            0000000000    
DD193020217880000000436770400000004367704                2016051720160518000000000004480000000000000000000000000004480111023309616EFECTIVO00000004367704TBJB  0006309616115229            0000000000    
DD19302021788000000043635680000000004363                 2016051720160530000000000001500000000000000000000000000001500193073178934EFECTIVO00000004363568873C  0000178934115233            0000000000    
DD193020217880000000436964300000004369643                2016051720160520000000000002000000000000000000000000000002000111023310819EFECTIVO00000004369643TBXV  0006310819115329            0000000000    
DD193020217880000000436953800000004369538                2016051720160519000000000020000000000000000000000000000020000111023312469EFECTIVO00000004369538TBLT  0006312469115409            0000000000    
DD193020217880000000436775600000004367756                2016051720160519000000000006500000000000000000000000000006500111023312462EFECTIVO00000004367756TBYP  0006312462115451            0000000000    
DD193020217880000000436962100000004369621                2016051720160519000000000020000000000000000000000000000020000111023314026EFECTIVO00000004369621TBLS  0006314026115528            0000000000    
DD19302021788000000043687130000000004368                 2016051720160518000000000003300000000000000000000000000003300194055182413EFECTIVO00000004368713755R  0000182413115556            0000000000    
DD19302021788000000043678500000000004367                 2016051720160520000000000006500000000000000000000000000006500192023182939EFECTIVO00000004367850623D  0000182939115624            0000000000    
DD193020217880000000436972400000004369724                2016051720160517000000000022000000000000000000000000000022000111017314315EFECTIVO00000004369724PZBB  0006314315115627            0000000000    
DD19302021788000000043697020000000004369                 2016051720160519000000000003900000000000000000000000000003900194055183082EFECTIVO00000004369702755R  0000183082115632            0000000000    
DD19302021788000000043678430000000004367                 2016051720160520000000000006500000000000000000000000000006500192023183547EFECTIVO00000004367843623D  0000183547115657            0000000000    
DD193020217880000000436962500000004369625                2016051720160520000000000002000000000000000000000000000002000111017315250EFECTIVO00000004369625PZAA  0006315250115716            0000000000    
DD19302021788000000043678310000000004367                 2016051720160520000000000006500000000000000000000000000006500192023184031EFECTIVO00000004367831623D  0000184031115722            0000000000    
DD193020217880000000436436100000004364361                2016051720160519000000000023900000000000000000000000000023900111017315522EFECTIVO00000004364361PZDD  0006315522115731            0000000000    
DD193020217880000000436971800000004369718                2016051720160524000000000003247000000000000000000000000003247111017316470EFECTIVO00000004369718PZAA  0006316470115819            0000000000    
DD193020217880000000436459400000004364594                2016051720160519000000000005570000000000000000000000000005570111017317338EFECTIVO00000004364594PZBC  0006317338115903            0000000000    
DD193020217880000000436937400000004369374                2016051720160616000000000015098000000000000000000000000015098111017317520EFECTIVO00000004369374PZCA  0006317520115913            0000000000    
DD193020217880000000436959800000004369598                2016051720160524000000000003250000000000000000000000000003250111017317620EFECTIVO00000004369598PZAA  0006317620115918            0000000000    
DD193020217880000000436944000000004369440                2016051720160520000000000002000000000000000000000000000002000111017317919EFECTIVO00000004369440PZAA  0006317919115934            0000000000    
DD193020217880000000434441800000004344418                2016051720160610000000000015150000000000000000000000000015150111017320447EFECTIVO00000004344418PZCA  0006320447120146            0000000000    
DD193020217880000000436799200000004367992                2016051720160520000000000002000000000000000000000000000002000111017320929EFECTIVO00000004367992PZDA  0006320929120210            0000000000    
DD193020217880000000436956900000004369569                2016051720160524000000000001500000000000000000000000000001500111017321371EFECTIVO00000004369569PZAE  0006321371120232            0000000000    
DD193020217880000000436963900000004369639                2016051720160518000000000006490000000000000000000000000006490111023322033EFECTIVO00000004369639TBXV  0006322033120307            0000000000    
DD19302021788000000043658000000000004365                 2016051720160530000000000004450000000000000000000000000004450193054191489EFECTIVO00000004365800854D  0000191489120430            0000000000    
DD193020217880000000436970400000004369704                2016051720160520000000000010000000000000000000000000000010000111017323901EFECTIVO00000004369704PZBA  0006323901120442            0000000000    
DD193020217880000000436976000000004369760                2016051720160531000000000005050000000000000000000000000005050111023323906EFECTIVO00000004369760TBYO  0006323906120442            0000000000    
DD193020217880000000436977200000004369772                2016051720160524000000000003250000000000000000000000000003250111017325360EFECTIVO00000004369772PZDA  0006325360120554            0000000000    
DD193020217880000000436974600000004369746                2016051720160519000000000003290000000000000000000000000003290111017326252EFECTIVO00000004369746PZDA  0006326252120641            0000000000    
DD193020217880000000436981800000004369818                2016051720160520000000000020000000000000000000000000000020000111017327159EFECTIVO00000004369818PZBA  0006327159120726            0000000000    
DD193020217880000000436929100000004369291                2016051720160524000000000003250000000000000000000000000003250111017327182EFECTIVO00000004369291PZDB  0006327182120727            0000000000    
DD193020217880000000436975200000004369752                2016051720160524000000000003000000000000000000000000000003000111017327708EFECTIVO00000004369752PZDA  0006327708120753            0000000000    
DD193020217880000000436968300000004369683                2016051720160520000000000002000000000000000000000000000002000111017328479EFECTIVO00000004369683PZDC  0006328479120831            0000000000    
DD19302021788000000043668370000000004366                 2016051720160517000000000009960000000000000000000000000009960192026195721EFECTIVO00000004366837626F  0000195721120850            0000000000    
DD193020217880000000436688800000004366888                2016051720160520000000000003900000000000000000000000000003900111017330628EFECTIVO00000004366888PZBB  0006330628121024            0000000000    
DD193020217880000000436978600000004369786                2016051720160524000000000007500000000000000000000000000007500111017330773EFECTIVO00000004369786PZAA  0006330773121030            0000000000    
DD19302021788000000043635690000000004363                 2016051720160517000000000010040000000000000000000000000010040290000197394EFECTIVO00000004363569C36A  0000197394121038            0000000000    
DD193020217880000000436982800000004369828                2016051720160520000000000018900000000000000000000000000018900111023331467EFECTIVO00000004369828TBX1  0006331467121102            0000000000    
DD193020217880000000436984800000004369848                2016051720160520000000000025000000000000000000000000000025000111017332098EFECTIVO00000004369848PZAB  0006332098121134            0000000000    
DD193020217880000000436974500000004369745                2016051720160517000000000013000000000000000000000000000013000111023332806EFECTIVO00000004369745TBYO  0006332806121209            0000000000    
DD193020217880000000436977600000004369776                2016051720160519000000000001690000000000000000000000000001690111017332987EFECTIVO00000004369776PZBA  0006332987121219            0000000000    
DD193020217880000000436982700000004369827                2016051720160520000000000006000000000000000000000000000006000111017333221EFECTIVO00000004369827PZCA  0006333221121230            0000000000    
DD193020217880000000436987400000004369874                2016051720160520000000000025000000000000000000000000000025000111017333813EFECTIVO00000004369874PZAA  0006333813121301            0000000000    
DD193020217880000000436978900000004369789                2016051720160520000000000002000000000000000000000000000002000111017334056EFECTIVO00000004369789PZDA  0006334056121313            0000000000    
DD193020217880000000436963300000004369633                2016051720160524000000000003500000000000000000000000000003500111023334511EFECTIVO00000004369633TBJC  0006334511121337            0000000000    
DD193020217880000000436861500000004368615                2016051720160524000000000007500000000000000000000000000007500111017334827EFECTIVO00000004368615PZAC  0006334827121354            0000000000    
DD193020217880000000436987200000004369872                2016051720160517000000000011000000000000000000000000000011000111023335926EFECTIVO00000004369872TBYO  0006335926121447            0000000000    
DD19302021788000000043660380000000004366                 2016051720160615000000000009100000000000000000000000000009100193097201445EFECTIVO00000004366038897A  0000201445121500            0000000000    
DD193020217880000000436986200000004369862                2016051720160524000000000015000000000000000000000000000015000111023336441EFECTIVO00000004369862TBK5  0006336441121512            0000000000    
DD193020217880000000436988800000004369888                2016051720160520000000000002000000000000000000000000000002000111017337225EFECTIVO00000004369888PZDB  0006337225121553            0000000000    
DD193020217880000000436991200000004369912                2016051720160524000000000007500000000000000000000000000007500111023338870EFECTIVO00000004369912TBXU  0006338870121721            0000000000    
DD193020217880000000436991400000004369914                2016051720160520000000000003420000000000000000000000000003420111023338877EFECTIVO00000004369914TBJA  0006338877121721            0000000000    
DD193020217880000000436898400000004368984                2016051720160519000000000002000000000000000000000000000002000111017339179EFECTIVO00000004368984PZDC  0006339179121737            0000000000    
DD193020217880000000436933000000004369330                2016051720160520000000000002000000000000000000000000000002000111017339660EFECTIVO00000004369330PZAA  0006339660121803            0000000000    
DD193020217880000000436638500000004366385                2016051720160519000000000003000000000000000000000000000003000111017340593EFECTIVO00000004366385PZAB  0006340593121850            0000000000    
DD193020217880000000436989200000004369892                2016051720160517000000000018000000000000000000000000000018000111023341740EFECTIVO00000004369892TBK4  0006341740121951            0000000000    
DD193020217880000000436994200000004369942                2016051720160524000000000030000000000000000000000000000030000111023342237EFECTIVO00000004369942TBK4  0006342237122017            0000000000    
DD19302021788000000043690640000000004369                 2016051720160524000000000003000000000000000000000000000003000000066207335EFECTIVO00000004369064066B  0000207335122040            0000000000    
DD19302021788000000043658930000000004365                 2016051720160520000000000341000000000000000000000000000341000193076207358EFECTIVO00000004365893876G  0000207358122041            0000000000    
DD193020217880000000436986100000004369861                2016051720160517000000000016000000000000000000000000000016000111023342867EFECTIVO00000004369861TBK6  0006342867122050            0000000000    
DD193020217880000000436232300000004362323                2016051720160517000000000005490000000000000000000000000005490111017342926EFECTIVO00000004362323PZDA  0006342926122054            0000000000    
DD193020217880000000436962000000004369620                2016051720160531000000000004450000000000000000000000000004450111017343280EFECTIVO00000004369620PZAF  0006343280122111            0000000000    
DD193020217880000000436990600000004369906                2016051720160518000000000005600000000000000000000000000005600111017343505EFECTIVO00000004369906PZAD  0006343505122122            0000000000    
DD193020217880000000436239000000004362390                2016051720160517000000000001490000000000000000000000000001490111023344570EFECTIVO00000004362390TBLT  0006344570122133            0000000000    
DD193020217880000000436996000000004369960                2016051720160517000000000011000000000000000000000000000011000111023345012EFECTIVO00000004369960TBX0  0006345012122241            0000000000    
DD193020217880000000436202300000004362023                2016051720160517000000000001800000000000000000000000000001800111023346037EFECTIVO00000004362023TBLS  0006346037122247            0000000000    
DD193020217880000000436983400000004369834                2016051720160517000000000004500000000000000000000000000004500111017345740EFECTIVO00000004369834PZDA  0006345740122317            0000000000    
DD193020217880000000436991800000004369918                2016051720160518000000000007800000000000000000000000000007800111023346692EFECTIVO00000004369918TBLS  0006346692122322            0000000000    
DD193020217880000000436236400000004362364                2016051720160517000000000003300000000000000000000000000003300111023347451EFECTIVO00000004362364TBLS  0006347451122401            0000000000    
DD193020217880000000436993000000004369930                2016051720160518000000000012000000000000000000000000000012000111023346833EFECTIVO00000004369930TBK4  0006346833122413            0000000000    
DD193020217880000000436909300000004369093                2016051720160520000000000025859000000000000000000000000025859111017347512EFECTIVO00000004369093PZBC  0006347512122448            0000000000    
DD193020217880000000436994000000004369940                2016051720160520000000000002000000000000000000000000000002000111023347822EFECTIVO00000004369940TBJA  0006347822122503            0000000000    
DD193020217880000000436996200000004369962                2016051720160518000000000018179000000000000000000000000018179111017349248EFECTIVO00000004369962PZBC  0006349248122614            0000000000    
DD19302021788000000043634230000000004363                 2016051720160519000000000099600000000000000000000000000099600194007213920EFECTIVO00000004363423707C  0000213920122728            0000000000    
DD193020217880000000436985000000004369850                2016051720160520000000000055000000000000000000000000000055000111017351753EFECTIVO00000004369850PZCB  0006351753122824            0000000000    
DD193020217880000000436999400000004369994                2016051720160518000000000011000000000000000000000000000011000111023351808EFECTIVO00000004369994TBKY  0006351808122827            0000000000    
DD193020217880000000436999500000004369995                2016051720160601000000000005000000000000000000000000000005000111017352427EFECTIVO00000004369995PZCA  0006352427122902            0000000000    
DD19302021788000000043697060000000004369                 2016051720160517000000000012000000000000000000000000000012000193066215623EFECTIVO00000004369706866D  0000215623122909            0000000000    
DD193020217880000000436973300000004369733                2016051720160517000000000020500000000000000000000000000020500111017353510EFECTIVO00000004369733PZDA  0006353510122956            0000000000    
DD193020217880000000436814000000004368140                2016051720160520000000000003000000000000000000000000000003000111023354491EFECTIVO00000004368140TBLS  0006354491123002            0000000000    
DD193020217880000000436999100000004369991                2016051720160517000000000010000000000000000000000000000010000111023354461EFECTIVO00000004369991TBX0  0006354461123044            0000000000    
DD193020217880000000436676400000004366764                2016051720160517000000000002000000000000000000000000000002000111017354865EFECTIVO00000004366764PZCD  0006354865123104            0000000000    
DD193020217880000000436999000000004369990                2016051720160524000000000003000000000000000000000000000003000111017355087EFECTIVO00000004369990PZCB  0006355087123117            0000000000    
DD19302021788000000043589710000000004358                 2016051720160613000000000015098000000000000000000000000015098194094217946EFECTIVO00000004358971794F  0000217946123134            0000000000    
DD193020217880000000436987300000004369873                2016051720160524000000000007500000000000000000000000000007500111017356233EFECTIVO00000004369873PZCA  0006356233123214            0000000000    
DD193020217880000000436980500000004369805                2016051720160524000000000007875000000000000000000000000007875111017356364EFECTIVO00000004369805PZCA  0006356364123221            0000000000    
DD19302021788000000043675480000000004367                 2016051720160519000000000020920000000000000000000000000020920000058219488EFECTIVO00000004367548PLNG  0000219488123311            0000000000    
DD193020217880000000436698300000004366983                2016051720160523000000000009295000000000000000000000000009295111017357533EFECTIVO00000004366983PZDA  0006357533123318            0000000000    
DD193020217880000000436379500000004363795                2016051720160519000000000011600000000000000000000000000011600111017357845EFECTIVO00000004363795PZAA  0006357845123332            0000000000    
DD193020217880000000436992200000004369922                2016051720160524000000000001500000000000000000000000000001500111017357965EFECTIVO00000004369922PZCA  0006357965123338            0000000000    
DD193020217880000000436988900000004369889                2016051720160524000000000003000000000000000000000000000003000111017358182EFECTIVO00000004369889PZCA  0006358182123349            0000000000    
DD193020217880000000436990900000004369909                2016051720160524000000000007500000000000000000000000000007500111017359068EFECTIVO00000004369909PZCA  0006359068123432            0000000000    
DD19302021788000000043617520000000004361                 2016051720160517000000000028800000000000000000000000000028800194019220830EFECTIVO00000004361752719E  0000220830123433            0000000000    
DD193020217880000000437004200000004370042                2016051720160601000000000004600000000000000000000000000004600111023359150EFECTIVO00000004370042TBKY  0006359150123436            0000000000    
DD193020217880000000436913500000004369135                2016051720160517000000000008500000000000000000000000000008500111017359628EFECTIVO00000004369135PZDA  0006359628123501            0000000000    
DD193020217880000000437003400000004370034                2016051720160520000000000100000000000000000000000000000100000111023359899EFECTIVO00000004370034TBXU  0006359899123514            0000000000    
DD193020217880000000436957800000004369578                2016051720160520000000000043000000000000000000000000000043000111017360152EFECTIVO00000004369578PZAA  0006360152123528            0000000000    
DD19302021788000000043697300000000004369                 2016051720160517000000000005100000000000000000000000000005100193095222465EFECTIVO00000004369730895E  0000222465123613            0000000000    
DD193020217880000000436739000000004367390                2016051720160524000000000003000000000000000000000000000003000111017361994EFECTIVO00000004367390PZDA  0006361994123701            0000000000    
DD193020217880000000437003800000004370038                2016051720160524000000000003000000000000000000000000000003000111017362187EFECTIVO00000004370038PZCB  0006362187123711            0000000000    
DD193020217880000000435528100000004355281                2016051720160612000000000015098000000000000000000000000015098111017363530EFECTIVO00000004355281PZDB  0006363530123819            0000000000    
DD19302021788000000043688810000000004368                 2016051720160519000000000003900000000000000000000000000003900000023224684EFECTIVO00000004368881023E  0000224684123846            0000000000    
DD19302021788000000043618220000000004361                 2016051720160517000000000375820000000000000000000000000375820194057224849EFECTIVO00000004361822CROC  0000224849123856            0000000000    
DD193020217880000000436716100000004367161                2016051720160523000000000003250000000000000000000000000003250111017365043EFECTIVO00000004367161PZDA  0006365043123938            0000000000    
DD193020217880000000437006100000004370061                2016051720160520000000000006000000000000000000000000000006000111023366389EFECTIVO00000004370061TBLS  0006366389123958            0000000000    
DD193020217880000000435836100000004358361                2016051720160613000000000009087000000000000000000000000009087111017366004EFECTIVO00000004358361PZDB  0006366004124024            0000000000    
DD193020217880000000436967600000004369676                2016051720160524000000000015000000000000000000000000000015000111017366160EFECTIVO00000004369676PZAB  0006366160124031            0000000000    
DD19302021788000000043699760000000004369                 2016051720160517000000000011000000000000000000000000000011000194019227803EFECTIVO00000004369976719H  0000227803124216            0000000000    
DD193020217880000000436977400000004369774                2016051720160518000000000051400000000000000000000000000051400111017368687EFECTIVO00000004369774PZDA  0006368687124239            0000000000    
DD193020217880000000437007100000004370071                2016051720160518000000000032000000000000000000000000000032000111017369065EFECTIVO00000004370071PZCA  0006369065124259            0000000000    
DD193020217880000000431349800000004313498                2016051720160603000000000009100000000000000000000000000009100111017369603EFECTIVO00000004313498PZBC  0006369603124330            0000000000    
DD193020217880000000437011900000004370119                2016051720160520000000000003000000000000000000000000000003000111023370748EFECTIVO00000004370119TBK4  0006370748124429            0000000000    
DD193020217880000000437004500000004370045                2016051720160520000000000002000000000000000000000000000002000111017372197EFECTIVO00000004370045PZDA  0006372197124545            0000000000    
DD193020217880000000437012400000004370124                2016051720160601000000000002000000000000000000000000000002000111023372509EFECTIVO00000004370124TBJA  0006372509124601            0000000000    
DD193020217880000000436984900000004369849                2016051720160524000000000003246000000000000000000000000003246111017372712EFECTIVO00000004369849PZAA  0006372712124612            0000000000    
DD193020217880000000437008700000004370087                2016051720160520000000000015000000000000000000000000000015000111017372717EFECTIVO00000004370087PZCD  0006372717124612            0000000000    
DD193020217880000000437005100000004370051                2016051720160524000000000003247000000000000000000000000003247111017373138EFECTIVO00000004370051PZAC  0006373138124633            0000000000    
DD193020217880000000437010400000004370104                2016051720160524000000000001500000000000000000000000000001500111023375272EFECTIVO00000004370104TBK5  0006375272124823            0000000000    
DD193020217880000000437011600000004370116                2016051720160520000000000010000000000000000000000000000010000111023376995EFECTIVO00000004370116TBRK  0006376995124834            0000000000    
DD193020217880000000437011800000004370118                2016051720160520000000000005000000000000000000000000000005000111017375487EFECTIVO00000004370118PZCA  0006375487124835            0000000000    
DD193020217880000000436912100000004369121                2016051720160531000000000010500000000000000000000000000010500111017375759EFECTIVO00000004369121PZBC  0006375759124849            0000000000    
DD193020217880000000436998000000004369980                2016051720160518000000000003000000000000000000000000000003000111017376083EFECTIVO00000004369980PZBB  0006376083124905            0000000000    
DD19302021788000000043640390000000004364                 2016051720160520000000000002500000000000000000000000000002500000166234155EFECTIVO00000004364039166E  0000234155124912            0000000000    
DD193020217880000000436990700000004369907                2016051720160524000000000002500000000000000000000000000002500111023376412EFECTIVO00000004369907TBXU  0006376412124920            0000000000    
DD193020217880000000436509700000004365097                2016051720160615000000000015098000000000000000000000000015098111017376551EFECTIVO00000004365097PZAA  0006376551124929            0000000000    
DD19302021788000000043685440000000004368                 2016051720160524000000000008749000000000000000000000000008749192069234649EFECTIVO00000004368544669H  0000234649124944            0000000000    
DD193020217880000000437002300000004370023                2016051720160518000000000012900000000000000000000000000012900111017377012EFECTIVO00000004370023PZAA  0006377012124954            0000000000    
DD193020217880000000437008900000004370089                2016051720160524000000000003000000000000000000000000000003000111017377488EFECTIVO00000004370089PZBB  0006377488125018            0000000000    
DD19302021788000000043660480000000004366                 2016051720160615000000000015098000000000000000000000000015098245000236229EFECTIVO00000004366048VADI  0000236229125134            0000000000    
DD19302021788000000043660670000000004366                 2016051720160615000000000009100000000000000000000000000009100000074236726EFECTIVO00000004366067074G  0000236726125209            0000000000    
DD193020217880000000437014700000004370147                2016051720160524000000000003250000000000000000000000000003250111017379916EFECTIVO00000004370147PZBA  0006379916125221            0000000000    
DD193020217880000000437018100000004370181                2016051720160520000000000002010000000000000000000000000002010111017380386EFECTIVO00000004370181PZBA  0006380386125248            0000000000    
DD193020217880000000437016000000004370160                2016051720160520000000000002500000000000000000000000000002500111017380538EFECTIVO00000004370160PZCB  0006380538125256            0000000000    
DD193020217880000000437017200000004370172                2016051720160520000000000050000000000000000000000000000050000111023380794EFECTIVO00000004370172TBYQ  0006380794125310            0000000000    
DD19302021788000000043691110000000004369                 2016051720160531000000000004450000000000000000000000000004450193007237628EFECTIVO00000004369111807B  0000237628125315            0000000000    
DD193020217880000000436966900000004369669                2016051720160518000000000044050000000000000000000000000044050111023380907EFECTIVO00000004369669TBK4  0006380907125316            0000000000    
DD19302021788000000043693630000000004369                 2016051720160518000000000081194000000000000000000000000081194193076238196EFECTIVO00000004369363876D  0000238196125356            0000000000    
