0120464993879005PEN20161010001105860100025504                                                                                                           
02MacroBusiness Corporation sac 0000000512103200000005121032          005859718600000000000250000000000000250000000000000000004384062602016100801067521 
02CENTRO EMPRESARIAL APEC DEL PE0000000512247000000005122470          005860601400000000000250000000000000250000000000000000004374064562016100802043462 
02TURISMO LOBATO S.A.C. TURISMO 0000000512763400000005127634          005862961400000000000250000000000000250000000000000000004374069162016101002044270 
02DE GUSTE GROUP SAC            0000000512992700000005129927          005866207400000000000400000000000000400000000000000000004374072432016101002041898 
03000000004000000000011500000000000011500000000000000000                                                                                                
