0120464993879005PEN20161010001105860100025504                                                                                                           
02ROBIN PETER ROMAN PORTELLA    0000000512053000000005120530          005859499700000000000319000000000000319000000000000000004374062102016100802045165 
02Milagros Montanchez           0000000512535200000005125352          005865434900000000000319000000000000319000000000000000004374071592016101002047258 
03000000002000000000006380000000000006380000000000000000                                                                                                
