07350010100000005064652              00000005064652 RUTH JOELLA ZAVALA CUENTAS    20161010133336000000000490000000000000000       000000000000044160000000000   
07350010100000005081190              00000005081190 JOSE SEFERINO RIVAS ORTIZ     20161010165059000000000490000000000000000       000000000016768850000000000   
07350010100000005084244              00000005084244                               20161009124028000000000600000000000000000       000000000006871300000000000   
07350010100000005089178              00000005089178                               20161009190819000000000600000000000000000       000000000008588330000000000   
07350010100000005095030              00000005095030 EMMANUEL QUISPE OCHOA         20161008095928000000000360000000000000000       000000000000887670000000000   
07350010100000005095905              00000005095905                               20161010084524000000001199900000000000000       000000000009671070000000000   
07350010100000005098502              00000005098502 HAROL HENRY IZQUIERDO SALAZAR 20161010201212000000000490000000000000000       000000000019824430000000000   
07350010100000005099514              00000005099514                               20161009101714000000000600000000000000000       000000000000062340000000000   
07350010100000005102222              00000005102222                               20161008104402000000001199900000000000000       000000000001211080000000000   
07350010100000005102298              00000005102298 FRANDAGUII SIERRA CHAVEZ      20161010132013000000000445000000000000000       000000000000036130000000000   
07350010100000005104971              00000005104971 ALEJANDRA PACHECO 185LANDINGMI20161008193418000000000458000000000000000       000000000004743660000000000   
07350010100000005104975              00000005104975 SYLVIA KATHERINE VALLADARES CO20161008011854000000001525000000000000000       000000000000075340000000000   
07350010100000005107352              00000005107352 JEAN CARLOS CARHUARICRA 185LAN20161009084242000000000458000000000000000       000000000000005620000000000   
07350010100000005111033              00000005111033 ELEUTERIO TENORIO DE LA CRUZ  20161008111740000000000270000000000000000       000000000001488570000000000   
07350010100000005111141              00000005111141                               20161010164255000000001199900000000000000       000000000016634560000000000   
07350010100000005112818              00000005112818 LUIS MANUEL ROSAS SAENZ       20161010163710000000000490000000000000000       000000000016534910000000000   
07350010100000005113171              00000005113171 HAROLD ADRIAN PRADO MOGOLLON  20161010164255000000000490000000000000000       000000000016634580000000000   
07350010100000005113363              00000005113363 FERNANDO GUILLERMO CAMPOS HERE20161009172329000000000315000000000000000       000000000008117350000000000   
07350010100000005113455              00000005113455 SNEYDER GARCIA FORERO         20161008104749000000001000000000000000000       000000000001242430000000000   
07350010100000005114557              00000005114557 SOFIA GALARZA UCHUYA 252LANDIN20161009195620000000000208000000000000000       000000000000009800000000000   
07350010100000005115221              00000005115221 LUIS CAPUAAY                  20161008121420000000002493100000000000000       000000000000000000000000000   
07350010100000005115500              00000005115500 LUZ CACERES AYALA             20161010160549000000000660000000000000000       000000000016019400000000000   
07350010100000005115600              00000005115600                               20161008200419000000000600000000000000000       000000000004913670000000000   
07350010100000005115914              00000005115914 MIRTHA DEZA PEREZ             20161008110141000000006590000000000000000       000000000000025010000000000   
07350010100000005116301              00000005116301 MANUEL MONTENEGRO MONTENEGRO  20161008163930000000000150000000000000000       000000000000027700000000000   
07350010100000005116316              00000005116316 MANUEL MONTENEGRO MONTENEGRO  20161008164058000000000150000000000000000       000000000000028580000000000   
07350010100000005117533              00000005117533 BLANCA ESTHER ORIHUELA CARLOS 20161008165514000000005120000000000000000       000000000003737000000000000   
07350010100000005117535              00000005117535 MARITZA ELENA CONTRERAS CUEVA 20161008133947000000011560000000000000000       000000000002522650000000000   
07350010100000005117835              00000005117835                               20161010132701000000001199900000000000000       000000000013827400000000000   
07350010100000005118320              00000005118320 ANTONIO011998HOTMAILCOM       20161010133920000000000750000000000000000       000000000000000000000000000   
07350010100000005118446              00000005118446 LARVISFOREVERGMAILCOM         20161008092324000000000300000000000000000       000000000000000000000000000   
07350010100000005118527              00000005118527 EDISSONSMITH2016OUTLOOKCOM    20161010105115000000000300000000000000000       000000000011278400000000000   
07350010100000005118725              00000005118725 CPS CONSULTING RUNA CONSULTORE20161008115053000000000250000000000000000       000000000000000000000000000   
07350010100000005118742              00000005118742 PAPY36123HOTMAILCOM           20161008092235000000000750000000000000000       000000000000000000000000000   
07350010100000005118768              00000005118768 TRIKAIZE123GMAILCOM           20161008143003000000000300000000000000000       000000000000000000000000000   
07350010100000005118782              00000005118782 RONALD ADOLFO COVARRUBIAS VILL20161008022852000000000899000000000000000       000000000000017320000000000   
07350010100000005118837              00000005118837 MARIA ALEJANDRA BARREZUETA HER20161010134636000000000799000000000000000       000000000014108910000000000   
07350010100000005118927              00000005118927 ENZO ESTRADA                  20161008011216000000000500000000000000000       000000000000071360000000000   
07350010100000005118932              00000005118932 JORGE ENRIQUE LOCATELLI GARCIA20161008010812000000001000000000000000000       000000000000068920000000000   
07350010100000005118940              00000005118940 VENIGUTIERREZ01HOTMAILCOM     20161008142338000000000260000000000000000       000000000000046170000000000   
07350010100000005118947              00000005118947 YSIDRO ABEL PLASENCIA VELARDE 20161008011916000000005000000000000000000       000000000000075560000000000   
07350010100000005118986              00000005118986 MARIELA HURTADO SEBAN         20161009034556000000000390000000000000000       000000000000027560000000000   
07350010100000005119016              00000005119016 JORGE ENRIQUE LOCATELLI GARCIA20161008030100000000001000000000000000000       000000000000036600000000000   
07350010100000005119041              00000005119041 EDWIN RODRIGUEZ BRICENO       20161008061458000000000200000000000000000       000000000000052980000000000   
07350010100000005119042              00000005119042 EDWIN RODRIGUEZ BRICENO       20161008041911000000000200000000000000000       000000000000083510000000000   
07350010100000005119108              00000005119108 ROSELL QUENTA ROQUE           20161008063256000000004250000000000000000       000000000000063760000000000   
07350010100000005119129              00000005119129 JAIME DIAZ DIAZ               20161008065028000000004680000000000000000       000000000000074280000000000   
07350010100000005119147              00000005119147 PIERO CAVASSA                 20161008070429000000000800000000000000000       000000000000082680000000000   
07350010100000005119152              00000005119152 JUAN JULIO RIVASPLATA         20161008070918000000001000000000000000000       000000000000085580000000000   
07350010100000005119159              00000005119159 JAIME DIAZ DIAZ               20161008071325000000010000000000000000000       000000000000088050000000000   
07350010100000005119167              00000005119167                               20161008072842000000000850000000000000000       000000000000097220000000000   
07350010100000005119203              00000005119203 RICARDO CESAR ESPINOZA JIBAJA 20161008075007000000000400000000000000000       000000000000010070000000000   
07350010100000005119210              00000005119210 ANDY GERARDO NUNEZ HIDALGO    20161008075019000000001000000000000000000       000000000000010190000000000   
07350010100000005119215              00000005119215 ALEXIS NAYID CAHUANA SARABIA  20161008080913000000000500000000000000000       000000000000000000000000000   
07350010100000005119218              00000005119218 JHON HIRWIN BALCAZAR RODAS    20161008075327000000000500000000000000000       000000000000012060000000000   
07350010100000005119228              00000005119228 MICHAEL SALAS                 20161008075420000000000200000000000000000       000000000000012600000000000   
07350010100000005119266              00000005119266 FERBLECTOR15HOTMAILCOM        20161008082522000000000300000000000000000       000000000000000000000000000   
07350010100000005119361              00000005119361 JESHUOUTLOOKCOM               20161008084847000000000150000000000000000       000000000000045270000000000   
07350010100000005119391              00000005119391 JHON ALEXANDER ARI CANDIA     20161008085333000000000800000000000000000       000000000000048130000000000   
07350010100000005119399              00000005119399 CARLONCHITHO52HOTMAILCOM      20161008085734000000000260000000000000000       000000000000050540000000000   
07350010100000005119427              00000005119427 SNEYDER GARCIA FORERO         20161008104720000000001000000000000000000       000000000001238560000000000   
07350010100000005119433              00000005119433 JORGE LUIS DEL PIELAGO AGUIRRE20161008090546000000000500000000000000000       000000000000055460000000000   
07350010100000005119486              00000005119486 MARIA C DURAND BARRETO        20161008094729000000005293200000000000000       000000000000080490000000000   
07350010100000005119503              00000005119503 ERNYAGUILARIGMAILCOM          20161008092215000000000258400000000000000       000000000000065350000000000   
07350010100000005119507              00000005119507 MEYERPICON12GMAILCOM          20161008092548000000000259900000000000000       000000000000067480000000000   
07350010100000005119531              00000005119531 FERNANDO GABRIEL BONILLA VALDE20161008100829000000005000000000000000000       000000000000948260000000000   
07350010100000005119537              00000005119537                               20161010130221000000000600000000000000000       000000000013446310000000000   
07350010100000005119549              00000005119549 ALEXANDER SANCHEZ             20161008105843000000002000000000000000000       000000000001328350000000000   
07350010100000005119568              00000005119568                               20161008093446000000000453300000000000000       000000000000072860000000000   
07350010100000005119628              00000005119628 JUAN MANUEL VERA ORTIZ        20161008145321000000001500000000000000000       000000000000000000000000000   
07350010100000005119640              00000005119640 JESUS CAMERO                  20161008095319000000001200000000000000000       000000000000083990000000000   
07350010100000005119666              00000005119666 MATTVIIIXIIIOUTLOOKCOM        20161008120716000000000300000000000000000       000000000001790750000000000   
07350010100000005119684              00000005119684 EDWIN RODRIGUEZ BRICENO       20161008100506000000000303800000000000000       000000000000091060000000000   
07350010100000005119690              00000005119690 CRISTIAN SANDOVAL             20161008100358000000005700000000000000000       000000000000090380000000000   
07350010100000005119700              00000005119700 ROWINA CHAMBI                 20161008100744000000001390000000000000000       000000000000092640000000000   
07350010100000005119714              00000005119714 MELISSA GARAY ESPINOZA        20161008100814000000000100000000000000000       000000000000092940000000000   
07350010100000005119735              00000005119735 GEORGINEO GALARZA ESPINOZA    20161008101322000000005000000000000000000       000000000000096020000000000   
07350010100000005119741              00000005119741 GABY                          20161010112414000000000315000000000000000       000000000011825840000000000   
07350010100000005119744              00000005119744 RICARDO ALIRIO FALLAQUE SOLIS 20161008101435000000000500000000000000000       000000000000096750000000000   
07350010100000005119765              00000005119765 GABY                          20161010112340000000000315000000000000000       000000000011815890000000000   
07350010100000005119789              00000005119789 HENRRY CABALLERO RAZURI       20161008104336000000000600000000000000000       000000000000014160000000000   
07350010100000005119816              00000005119816 JOAQUINLOPEZCANCHOHOTMAILCOM  20161008175307000000000300000000000000000       000000000000035660000000000   
07350010100000005119822              00000005119822 MARIA ELIZABETH ASPILCUETA MEL20161008102721000000000320000000000000000       000000000000004410000000000   
07350010100000005119876              00000005119876 MAC RENGIFO VELA              20161008104403000000000700000000000000000       000000000000014430000000000   
07350010100000005119880              00000005119880 MANGO051HOTMAILCOM            20161008104405000000000300000000000000000       000000000000014450000000000   
07350010100000005119894              00000005119894 ARCANGELDELAMUERTE13HOTMAILCOM20161008123903000000000300000000000000000       000000000002057320000000000   
07350010100000005119902              00000005119902 VEGAAGUIRRE295GMAILCOM        20161008104905000000000260000000000000000       000000000000017450000000000   
07350010100000005119935              00000005119935 PAUL TACURI VARGAS            20161008105740000000001600000000000000000       000000000001319740000000000   
07350010100000005119944              00000005119944 OSCAR SANDOVAL SALAS          20161008113130000000000880000000000000000       000000000000000000000000000   
07350010100000005119971              00000005119971 JUNIOR1AHOTMAILCOM            20161008112650000000000350000000000000000       000000000001566690000000000   
07350010100000005119984              00000005119984 JUNIOR1AHOTMAILCOM            20161008112731000000000350000000000000000       000000000001572860000000000   
07350010100000005119990              00000005119990 YAHAIRA161094OUTLOOKCOM       20161008124247000000000300000000000000000       000000000000000000000000000   
07350010100000005120039              00000005120039 EDWIN RODRIGUEZ BRICENO       20161008111139000000000200000000000000000       000000000000030990000000000   
07350010100000005120040              00000005120040 SILVIA CHACON BYRNE           20161008111048000000000450000000000000000       000000000000030480000000000   
07350010100000005120053              00000005120053 MONTIS EVENTOS EIRL MONTIS EVE20161010165845000000000250000000000000000       000000000000000000000000000   
07350010100000005120078              00000005120078 JOSE SANDRO JURADO SANTILLAN  20161008111711000000001000000000000000000       000000000000034310000000000   
07350010100000005120083              00000005120083 JEREMY SILVA                  20161008111832000000000200000000000000000       000000000000035120000000000   
07350010100000005120088              00000005120088 PEDRO JOSE ANTONIO CASTILLO DI20161008111942000000002000000000000000000       000000000000035820000000000   
07350010100000005120108              00000005120108 NORA DIAZ CASTILLO            20161008120326000000000900000000000000000       000000000001755420000000000   
07350010100000005120110              00000005120110 JULY JANETH GOMEZ ANTEZANA    20161008160353000000022260000000000000000       000000000003420950000000000   
07350010100000005120149              00000005120149 CHORIPAN001HOTMAILCOM         20161008115826000000000189200000000000000       000000000000059060000000000   
07350010100000005120165              00000005120165 JOSSELYN RODRIGUEZ MEDRANO    20161009133751000000003380000000000000000       000000000007163190000000000   
07350010100000005120166              00000005120166 TAKESHIXD12HOTMAILCOM         20161008120059000000000300000000000000000       000000000000060590000000000   
07350010100000005120186              00000005120186 OSCAR MOGOLLON                20161008120034000000000400000000000000000       000000000000060340000000000   
07350010100000005120198              00000005120198 JORGE VERGARA                 20161008121634000000001300000000000000000       000000000001872490000000000   
07350010100000005120255              00000005120255                               20161008134654000000000850000000000000000       000000000002571310000000000   
07350010100000005120257              00000005120257 FRANCISCA SARMIENTO GUTIERREZ 20161008133001000000005120000000000000000       000000000002453660000000000   
07350010100000005120268              00000005120268 CARLOS ANTONIO SOLIS GAYOSO   20161010111718000000002490000000000000000       000000000000062380000000000   
07350010100000005120280              00000005120280 RENZO ALONSO BRAVO BUSTAMANTE 20161008124830000000001500000000000000000       000000000000000000000000000   
07350010100000005120289              00000005120289 MIKE ORTEGA NULL              20161008122229000000003120000000000000000       000000000000073480000000000   
07350010100000005120313              00000005120313 YCVARAGITA FARFAN SALAZAR     20161008124155000000023250000000000000000       000000000002080980000000000   
07350010100000005120370              00000005120370 FRANCO13FRFPHOTMAILCOM        20161008124149000000000300000000000000000       000000000000085090000000000   
07350010100000005120372              00000005120372 MARIELA VICTORIA SAMPEN TABOAD20161010100036000000009831000000000000000       000000000010479940000000000   
07350010100000005120376              00000005120376 ROSAMARY FLORES VELAZCO DE PAC20161009105812000000004960000000000000000       000000000006305920000000000   
07350010100000005120405              00000005120405 SILVIA CHACON BYRNE           20161008121920000000000450000000000000000       000000000000071590000000000   
07350010100000005120460              00000005120460 EVER VAINNEY ABANTO ZEGARRA   20161008123236000000000980000000000000000       000000000000079560000000000   
07350010100000005120470              00000005120470 FLAVIOMEGO123HOTMAILCOM       20161008124343000000000300000000000000000       000000000000000000000000000   
07350010100000005120481              00000005120481 GENYI CHIMPECAM SN            20161008123600000000000250000000000000000       000000000000081600000000000   
07350010100000005120492              00000005120492 PAOLA PAREDES PALACIOS        20161010065844000000005730000000000000000       000000000000070330000000000   
07350010100000005120505              00000005120505 RESIDENZEROHOTMAILCOM         20161008203504000000000260000000000000000       000000000000000000000000000   
07350010100000005120536              00000005120536 LUIS ANTONIO VIZCARRA ALARCON 20161008124652000000029000000000000000000       000000000000088120000000000   
07350010100000005120553              00000005120553 KAROL ROSARIO FIGUEROA TARAZON20161008132021000000000900000000000000000       000000000000008210000000000   
07350010100000005120558              00000005120558 ESTHER BARBA ELIZALDE         20161008141452000000000200000000000000000       000000000000040920000000000   
07350010100000005120593              00000005120593 FRANZ SARMIENTO HUGO          20161008125351000000001070000000000000000       000000000000092310000000000   
07350010100000005120612              00000005120612 FRANZ SARMIENTO               20161008125721000000000200000000000000000       000000000000094410000000000   
07350010100000005120650              00000005120650 ANA LUISA MARROU SARRIA       20161008131201000000001100000000000000000       000000000000067080000000000   
07350010100000005120655              00000005120655 JUAN ROCKEFELLER RAMOS AGUILAR20161009120342000000007380000000000000000       000000000006667830000000000   
07350010100000005120663              00000005120663 FRIDA VALDIVIA                20161008130723000000000599000000000000000       000000000000000430000000000   
07350010100000005120668              00000005120668 JORGE ENRIQUE LOCATELLI GARCIA20161008130751000000002500000000000000000       000000000000000700000000000   
07350010100000005120714              00000005120714 RENATO BAYONA                 20161008131536000000000150000000000000000       000000000000005360000000000   
07350010100000005120726              00000005120726 DARCKWOLF121HOTMAILCOM        20161008132728000000000750000000000000000       000000000000000000000000000   
07350010100000005120736              00000005120736 HERSON WALTER ANORGA DURAN    20161008201145000000005190000000000000000       000000000004953890000000000   
07350010100000005120764              00000005120764 AMY POZU                      20161008132421000000000500000000000000000       000000000000010600000000000   
07350010100000005120782              00000005120782 BENITO071998GMAILCOM          20161008132907000000000150000000000000000       000000000000013470000000000   
07350010100000005120784              00000005120784 KRYSTEL SNCHEZ                20161008132959000000000660000000000000000       000000000000013990000000000   
07350010100000005120788              00000005120788 ALFRED CASTRO VELAZCO         20161008150202000000013982000000000000000       000000000003046720000000000   
07350010100000005120803              00000005120803 KRYSTEL SNCHEZ                20161008133148000000000330000000000000000       000000000000015080000000000   
07350010100000005120807              00000005120807 HUGO IGUE HIGA                20161008133508000000000400000000000000000       000000000000017070000000000   
07350010100000005120808              00000005120808 MIGUEL RAFAEL GARCIA ESCATE   20161008133306000000000500000000000000000       000000000000015860000000000   
07350010100000005120824              00000005120824 AMCTKM987LIVECOM              20161008172749000000000300000000000000000       000000000003945980000000000   
07350010100000005120844              00000005120844 DEENNIS1515HOTMAILCOM         20161008134927000000000260000000000000000       000000000000025670000000000   
07350010100000005120873              00000005120873 JOSE SOCRATES VELEZ ARANA     20161008135139000000000400000000000000000       000000000000026990000000000   
07350010100000005120878              00000005120878 VICTOR RONCAL PRADO           20161008151408000000000150000000000000000       000000000003122290000000000   
07350010100000005120885              00000005120885 JEAN122213OUTLOOKCOM          20161008141423000000000150000000000000000       000000000000000000000000000   
07350010100000005120913              00000005120913 3442886 JHONATAN ZARATE PORTIL20161008135540000000000040000000000000000       000000000000029400000000000   
07350010100000005120957              00000005120957 JAKELIN SANCHEZ ESCUDERO      20161008140433000000000484200000000000000       000000000000034730000000000   
07350010100000005120964              00000005120964 JHON RIVERA LOAYZA            20161008142134000000000520000000000000000       000000000000044940000000000   
07350010100000005120968              00000005120968 EDWIN RODRIGUEZ BRICENO       20161008140824000000000200000000000000000       000000000000037040000000000   
07350010100000005120985              00000005120985 ROLANDO RIVERA MUGARRA        20161008141332000000001100000000000000000       000000000000040120000000000   
07350010100000005121030              00000005121030 BENJAMIN NEYRA MATHEWS        20161008142240000000000300000000000000000       000000000000000000000000000   
07350010100000005121043              00000005121043 EVELYN MIRANDA JAVIER         20161008143854000000000220000000000000000       000000000002909800000000000   
07350010100000005121049              00000005121049 JOSE ANTONIO RICHETTER HOYOS  20161008142444000000000300000000000000000       000000000000000000000000000   
07350010100000005121095              00000005121095 CRISTOBALPETER4GMAILCOM       20161008143614000000000300000000000000000       000000000000053740000000000   
07350010100000005121101              00000005121101 RODRIGOSERRANO08GMAILCOM      20161008200934000000000750000000000000000       000000000000000000000000000   
07350010100000005121116              00000005121116 CRISTOBALPETER4GMAILCOM       20161008143825000000000150000000000000000       000000000000055050000000000   
07350010100000005121117              00000005121117 MARIA ELIZABETH ASPILCUETA MEL20161008143841000000000450000000000000000       000000000000055210000000000   
07350010100000005121119              00000005121119 JORGE                         20161008144051000000001100000000000000000       000000000000056500000000000   
07350010100000005121159              00000005121159 FABIOLLIILLOUTLOOKES          20161008150026000000000260000000000000000       000000000003037290000000000   
07350010100000005121182              00000005121182 CARLOS JESUS CUEVA SANCHEZ    20161009114244000000002000000000000000000       000000000006549670000000000   
07350010100000005121187              00000005121187 SN SNSN                       20161008150252000000000150000000000000000       000000000000069720000000000   
07350010100000005121188              00000005121188 CARLOS JESUS CUEVA SANCHEZ    20161009114312000000002000000000000000000       000000000006552060000000000   
07350010100000005121194              00000005121194 PIERO CAVASSA                 20161008145753000000000600000000000000000       000000000000066730000000000   
07350010100000005121196              00000005121196 CARLOS EVOR VELEZMORO CASTANED20161008150443000000000300000000000000000       000000000000000000000000000   
07350010100000005121206              00000005121206 ANTHONIEDUARDO15HOTMAILCOM    20161008151114000000000260000000000000000       000000000000000000000000000   
07350010100000005121224              00000005121224 ROBERT610HOTMAILCOM           20161008150405000000000300000000000000000       000000000000070450000000000   
07350010100000005121228              00000005121228 URSULA PALOMINO GONZALES      20161008150455000000000400000000000000000       000000000000070950000000000   
07350010100000005121232              00000005121232 ESNAYDERGMHOTMAILCOM          20161008153539000000000260000000000000000       000000000000000000000000000   
07350010100000005121252              00000005121252 DIEGO12ALONSOOUTLOOKCOM       20161008150928000000000300000000000000000       000000000000073680000000000   
07350010100000005121288              00000005121288 DOTAFERRYHOTMAILCOM           20161008152432000000000300000000000000000       000000000003186990000000000   
07350010100000005121298              00000005121298 ADRIAN BECERRA ECHANDIA       20161008151722000000001500000000000000000       000000000000078420000000000   
07350010100000005121303              00000005121303 MARCO ANTONIO MEJIA ESPINOZA  20161008160653000000000300000000000000000       000000000000000000000000000   
07350010100000005121328              00000005121328 YELY DIANA SERRUTO MEDINA     20161008152814000000000690000000000000000       000000000000084940000000000   
07350010100000005121337              00000005121337 JOSE CANALES                  20161008152744000000000138000000000000000       000000000003206290000000000   
07350010100000005121373              00000005121373 KATHARINE GEORGE              20161010203102000000000590000000000000000       000000000019973460000000000   
07350010100000005121392              00000005121392 EDWIN RODRIGUEZ BRICENO       20161008154723000000000200000000000000000       000000000000096430000000000   
07350010100000005121399              00000005121399 LUIS ANTONIO VIZCARRA ALARCON 20161008154059000000002080000000000000000       000000000000092580000000000   
07350010100000005121430              00000005121430 BENJTJHOTMAILCOM              20161008162921000000000260000000000000000       000000000000000000000000000   
07350010100000005121465              00000005121465 CARLA SANCHEZ ROJAS           20161008164357000000015690000000000000000       000000000003665360000000000   
07350010100000005121467              00000005121467 YUKIKEVIN97GMAILCOM           20161008163033000000000260000000000000000       000000000000000000000000000   
07350010100000005121478              00000005121478 ISPIDER1999XDHOTMAILCOM       20161008170543000000000150000000000000000       000000000000000000000000000   
07350010100000005121491              00000005121491 FERNANDO GERARDO TORREBLANCA E20161008160356000000002100000000000000000       000000000003421230000000000   
07350010100000005121500              00000005121500                               20161010182134000000001199900000000000000       000000000000016940000000000   
07350010100000005121504              00000005121504 JAMES JOAQUIN HUERTAS GONZALES20161008190947000000000500000000000000000       000000000000000000000000000   
07350010100000005121518              00000005121518 ROCIO DEL AGUILA              20161008161337000000000207000000000000000       000000000000012160000000000   
07350010100000005121520              00000005121520 OMAR DAVILA                   20161008160921000000000319000000000000000       000000000000009610000000000   
07350010100000005121536              00000005121536 GABRIELA GOMEZ MILLA          20161008162523000000000070000000000000000       000000000000019230000000000   
07350010100000005121542              00000005121542 JUAN ALVA                     20161008165713000000000200000000000000000       000000000000000000000000000   
07350010100000005121550              00000005121550 BENJTJHOTMAILCOM              20161008163132000000000260000000000000000       000000000000000000000000000   
07350010100000005121623              00000005121623 ZARELA POZO MACHACA           20161008170026000000001043500000000000000       000000000003770630000000000   
07350010100000005121654              00000005121654 SERGIO ADALID ROSAS RUIZ      20161008171601000000001130000000000000000       000000000003870880000000000   
07350010100000005121760              00000005121760 ALEX GP                       20161008170256000000001100000000000000000       000000000000041760000000000   
07350010100000005121763              00000005121763 LOCO753159123HOTMAILCOM       20161008170448000000000300000000000000000       000000000000042880000000000   
07350010100000005121767              00000005121767 GEORGINEO GALARZA ESPINOZA    20161008170044000000005000000000000000000       000000000000040440000000000   
07350010100000005121785              00000005121785 GYMHAROLDHOTMAILCOM           20161008172636000000000150000000000000000       000000000000000000000000000   
07350010100000005121862              00000005121862 YURIOMAR14HOTMAILCOM          20161008172858000000000260000000000000000       000000000000057380000000000   
07350010100000005121865              00000005121865 RKGAMINGMEGAGMAILCOM          20161008173231000000000750000000000000000       000000000000059510000000000   
07350010100000005121884              00000005121884 RKGAMINGMEGAGMAILCOM          20161008173540000000000150000000000000000       000000000000061400000000000   
07350010100000005121948              00000005121948 RONALD ROMULO PUMA HUARCA     20161008174652000000000220000000000000000       000000000000068120000000000   
07350010100000005121953              00000005121953 EDUARDO KUBA                  20161008174815000000000650800000000000000       000000000000068950000000000   
07350010100000005121958              00000005121958 MARILIA JANET                 20161008181300000000001400000000000000000       000000000004234270000000000   
07350010100000005121965              00000005121965 EDWIN RODRIGUEZ BRICENO       20161008175025000000000150000000000000000       000000000000070250000000000   
07350010100000005122003              00000005122003 TMAXCONTRATISTASSRLOUTLOOKCOM 20161008181330000000000350000000000000000       000000000000000000000000000   
07350010100000005122021              00000005122021 GOYO336HOTMAILCOM             20161008180422000000000260000000000000000       000000000000078620000000000   
07350010100000005122023              00000005122023 ROCIO ZAMBRANO SARRIN         20161008185141000000001300000000000000000       000000000000007010000000000   
07350010100000005122030              00000005122030 JUAN CARLOS MARCAS RUMAY      20161008181409000000001350000000000000000       000000000000048270000000000   
07350010100000005122061              00000005122061 CARMEN YESSICA ELIAS RODRIGUEZ20161009185840000000010380000000000000000       000000000008545110000000000   
07350010100000005122107              00000005122107 GRISSEL NILDA HUAMAN CUPI     20161008182811000000000650000000000000000       000000000000092910000000000   
07350010100000005122126              00000005122126 ALDOARIASOCHOAHOTMAILCOM      20161008185211000000000260000000000000000       000000000000000000000000000   
07350010100000005122187              00000005122187 GONZALO URIEL ORDONEZ RODRIGUE20161009151450000000002100000000000000000       000000000000040900000000000   
07350010100000005122220              00000005122220 ALLISON BERAUN VILLALOBOS     20161008190210000000000450000000000000000       000000000000013300000000000   
07350010100000005122232              00000005122232 MAYK123BOOMHOTMAILCOM         20161008190308000000000300000000000000000       000000000000013880000000000   
07350010100000005122241              00000005122241 EDGAR VARGAS RIVA             20161008191215000000001000000000000000000       000000000000019340000000000   
07350010100000005122252              00000005122252 MAYK123BOOMHOTMAILCOM         20161008190803000000000150000000000000000       000000000000016830000000000   
07350010100000005122267              00000005122267 DANI CHRISTIAN GOICOCHEA CORRE20161008192847000000000400000000000000000       000000000004712720000000000   
07350010100000005122268              00000005122268 GABY                          20161010112303000000000150000000000000000       000000000011805310000000000   
07350010100000005122297              00000005122297 ROSA TABRA OSORIO             20161008200509000000000569000000000000000       000000000004918740000000000   
07350010100000005122307              00000005122307 DASH GARBAY                   20161008192109000000000630000000000000000       000000000000000000000000000   
07350010100000005122331              00000005122331 FRANCISCO HIDALGO RAMIREZ     20161008192351000000004980000000000000000       000000000000026300000000000   
07350010100000005122334              00000005122334 JESUS SANTA CRUZ SANCHEZ      20161009161447000000005120000000000000000       000000000007828800000000000   
07350010100000005122342              00000005122342 MARTIN JACOBS MANYARI         20161008192648000000000995000000000000000       000000000000028080000000000   
07350010100000005122351              00000005122351 NILLMOZOMHHOTMAILCOM          20161008200546000000000150000000000000000       000000000000000000000000000   
07350010100000005122369              00000005122369 BOYKA31OUTLOOKCOM             20161008200102000000000300000000000000000       000000000000000000000000000   
07350010100000005122388              00000005122388 JORGE PEREZ VIGIL             20161009202453000000000130000000000000000       000000000008925550000000000   
07350010100000005122389              00000005122389 JEFFERSON DIAZ LAZARTE NULL   20161009173727000000005120000000000000000       000000000000000000000000000   
07350010100000005122484              00000005122484 ALEXPORSIEMPRE23HOTMAILCOM    20161008201659000000000150000000000000000       000000000000058180000000000   
07350010100000005122488              00000005122488 GERSONCENHOTMAILCOM           20161008201847000000000260000000000000000       000000000000023020000000000   
07350010100000005122499              00000005122499 SHRNCCRSGMAILCOM              20161008202042000000000300000000000000000       000000000000060420000000000   
07350010100000005122506              00000005122506 SHRNCCRSGMAILCOM              20161008202210000000000150000000000000000       000000000000061300000000000   
07350010100000005122508              00000005122508 EDWIN RODRIGUEZ BRICENO       20161008202504000000000150000000000000000       000000000000063040000000000   
07350010100000005122526              00000005122526 JOSE FERNANDEZ                20161008203958000000011290000000000000000       000000000005092700000000000   
07350010100000005122552              00000005122552 FOXEMINEMHOTMAILCOM           20161008203656000000000300000000000000000       000000000000033900000000000   
07350010100000005122558              00000005122558 GABRIEL GARCIA CHIQUEZ        20161010132841000000000100000000000000000       000000000000000000000000000   
07350010100000005122572              00000005122572 JUAN SALAZAR DE LA CRUZ       20161008204422000000000320000000000000000       000000000000074620000000000   
07350010100000005122579              00000005122579 GIANCARLO VILCHEZ RAMOS       20161009164748000000003880000000000000000       000000000007965130000000000   
07350010100000005122595              00000005122595 WILFREDO AYALA OROYA          20161008211207000000004000000000000000000       000000000000091270000000000   
07350010100000005122600              00000005122600                               20161008205757000000001206800000000000000       000000000000082770000000000   
07350010100000005122604              00000005122604 GISSELLE CUYUBAMBA ESPINOZA   20161008210457000000000100000000000000000       000000000000050700000000000   
07350010100000005122616              00000005122616 SERGIO RAMIREZ ASTE           20161008210126000000009500000000000000000       000000000000084860000000000   
07350010100000005122629              00000005122629 JUAN FALCON                   20161008210728000000001200000000000000000       000000000000088480000000000   
07350010100000005122663              00000005122663 DJRE980HOTMAILCOM             20161009094642000000000300000000000000000       000000000006008240000000000   
07350010100000005122668              00000005122668 MARIA ELIZABETH ASPILCUETA MEL20161008212656000000000650000000000000000       000000000000000160000000000   
07350010100000005122669              00000005122669 MARIA ISELLA PICON            20161008212857000000000500000000000000000       000000000000000000000000000   
07350010100000005122711              00000005122711 JACKELINE PARRAGA             20161008214302000000001397000000000000000       000000000000009820000000000   
07350010100000005122724              00000005122724 IRVIN JUNIOR SALOMON PAREDES  20161008214613000000000200000000000000000       000000000000011730000000000   
07350010100000005122773              00000005122773 MARIA ELIZABETH ASPILCUETA MEL20161008220732000000000320000000000000000       000000000000024520000000000   
07350010100000005122795              00000005122795 JAY JACKSON BARRIGA GURMENDI  20161008222231000000000200000000000000000       000000000000033510000000000   
07350010100000005122796              00000005122796 KHEROKASLOVE22HOTMAILCOM      20161008222125000000000259400000000000000       000000000000096560000000000   
07350010100000005122836              00000005122836 JUAN CARLOS AYALA CHIRA       20161008224108000000001000000000000000000       000000000000044670000000000   
07350010100000005122844              00000005122844 JEAN PIERRE MOLINA            20161009091603000000000272000000000000000       000000000000025630000000000   
07350010100000005122857              00000005122857 USUARIO NUEVO                 20161008225705000000000500000000000000000       000000000000054250000000000   
07350010100000005122873              00000005122873 NELLY GEORGINA VICENTE BELLO  20161008230558000000001600000000000000000       000000000000059570000000000   
07350010100000005122899              00000005122899 JEREMY SILVA                  20161008231529000000000150000000000000000       000000000000065290000000000   
07350010100000005123021              00000005123021 MICHAEL SALAS                 20161009005757000000001500000000000000000       000000000000026770000000000   
07350010100000005123025              00000005123025 CARLA RAMOS PACHO             20161009232919000000013470100000000000000       000000000000037590000000000   
07350010100000005123073              00000005123073 MAR PC                        20161009020123000000000330000000000000000       000000000000064830000000000   
07350010100000005123090              00000005123090 ROBERT CARLOS RIEGA LOPEZ     20161009022415000000000700000000000000000       000000000000078550000000000   
07350010100000005123115              00000005123115 RICARDO MARTIN BERVERISCO MORA20161009034756000000000899000000000000000       000000000000028760000000000   
07350010100000005123142              00000005123142 LICETY S                      20161009153603000000000638000000000000000       000000000000053630000000000   
07350010100000005123158              00000005123158 CARLA JUDITH PADILLA VERA     20161010173049000000000690000000000000000       000000000017502780000000000   
07350010100000005123178              00000005123178 PIERO CAVASSA                 20161009070353000000001800000000000000000       000000000000046320000000000   
07350010100000005123207              00000005123207 DAVID ENRIQUE DIAZ PENA       20161009074603000000000600000000000000000       000000000000071630000000000   
07350010100000005123210              00000005123210 MIRIAM SALINAS SOTO           20161009074658000000001000000000000000000       000000000000072170000000000   
07350010100000005123214              00000005123214 CARLOS SANDOVAL               20161009080215000000000300000000000000000       000000000000081350000000000   
07350010100000005123225              00000005123225 LUIS                          20161009080433000000001100000000000000000       000000000000082730000000000   
07350010100000005123241              00000005123241                               20161009082429000000001000000000000000000       000000000000094690000000000   
07350010100000005123256              00000005123256 EDGAR VARGAS RIVA             20161009084051000000004000000000000000000       000000000000068020000000000   
07350010100000005123257              00000005123257 GOYO336HOTMAILCOM             20161009082202000000000150000000000000000       000000000000093220000000000   
07350010100000005123325              00000005123325 GIMAARAKAKIGMAILCOM           20161009085928000000000550400000000000000       000000000000079180000000000   
07350010100000005123333              00000005123333 EDWIN RODRIGUEZ BRICENO       20161009085308000000000150000000000000000       000000000000011880000000000   
07350010100000005123336              00000005123336                               20161009085529000000000207000000000000000       000000000000013280000000000   
07350010100000005123352              00000005123352 SNAYDERVERAOUTLOOKCOM         20161009090633000000000300000000000000000       000000000000019930000000000   
07350010100000005123363              00000005123363 SNAYDERVERAOUTLOOKCOM         20161009090849000000000150000000000000000       000000000000021290000000000   
07350010100000005123385              00000005123385 DIEGO URENA                   20161009091346000000001000000000000000000       000000000000024260000000000   
07350010100000005123390              00000005123390 ALEXANDER SANCHEZ             20161009093609000000001500000000000000000       000000000005973570000000000   
07350010100000005123412              00000005123412 VICTOR HUIZA MELCHOR          20161009094646000000000900000000000000000       000000000006008370000000000   
07350010100000005123428              00000005123428 MARIANA CASTILLO CACERES      20161009115928000000000390000000000000000       000000000000023680000000000   
07350010100000005123429              00000005123429 MARTIN ALVAREZ                20161009110419000000003000000000000000000       000000000006335500000000000   
07350010100000005123462              00000005123462 DAVID JESUS GOMERO            20161009100559000000000200000000000000000       000000000000000000000000000   
07350010100000005123518              00000005123518 ALVARO PACHECO CASTROMONTE    20161009112334000000000315000000000000000       000000000000000000000000000   
07350010100000005123573              00000005123573 AUGUSTO MELENDEZ AREVALO      20161010143905000000000645300000000000000       000000000014824780000000000   
07350010100000005123587              00000005123587 MIRTHA DEZA PEREZ             20161009102553000000008100000000000000000       000000000000067520000000000   
07350010100000005123645              00000005123645 JOSELYN ANDREA MURGA CUADROS 220161010181546000000000208000000000000000       000000000000013460000000000   
07350010100000005123652              00000005123652 ANDREA FIORELLA PALOMINO VILLA20161009154458000000002380000000000000000       000000000007704070000000000   
07350010100000005123664              00000005123664 LUIS EDUARDO                  20161009104608000000001000000000000000000       000000000000079680000000000   
07350010100000005123670              00000005123670                               20161009104403000000000143100000000000000       000000000000078430000000000   
07350010100000005123695              00000005123695 MIRTHA DEZA PEREZ             20161009105748000000004091000000000000000       000000000000086670000000000   
07350010100000005123697              00000005123697 EDWIN RODRIGUEZ BRICENO       20161009105026000000000150000000000000000       000000000000082260000000000   
07350010100000005123741              00000005123741 AMERGHIN5HOTMAILCOM           20161009152507000000000350000000000000000       000000000007623680000000000   
07350010100000005123763              00000005123763 GERARDO AVALOS ALVA           20161009111303000000000400000000000000000       000000000000095830000000000   
07350010100000005123816              00000005123816 CHRISTIAN GUSTAVO BRUNO BARRED20161009113055000000002100000000000000000       000000000000006550000000000   
07350010100000005123837              00000005123837 YESENIA CANDAMO MINDREAJ 252LA20161009113302000000000208000000000000000       000000000000007820000000000   
07350010100000005123847              00000005123847 KENYI SIMBRON                 20161009113304000000000200000000000000000       000000000000007840000000000   
07350010100000005123848              00000005123848 ALEX CARDENAS                 20161009113242000000000490000000000000000       000000000000007620000000000   
07350010100000005123852              00000005123852 ANTONIO PAREDES SN            20161009113520000000000350000000000000000       000000000000009200000000000   
07350010100000005123872              00000005123872 LIGIA NAMUCHE                 20161009114923000000001520000000000000000       000000000000017630000000000   
07350010100000005123878              00000005123878 WILSON975576758HOTMAILCOM     20161009114042000000000300000000000000000       000000000000012410000000000   
07350010100000005123879              00000005123879 CESAR ALFREDO                 20161009115942000000002600000000000000000       000000000000023820000000000   
07350010100000005123893              00000005123893                               20161009114819000000007000000000000000000       000000000000016990000000000   
07350010100000005123901              00000005123901 MARIANA CASTILLO CACERES      20161009115151000000000599000000000000000       000000000000019110000000000   
07350010100000005123909              00000005123909 CARLO ALEKSANDR DEZA LANDAZURI20161009114921000000000700000000000000000       000000000000017610000000000   
07350010100000005123919              00000005123919 CESAR CAMPOVERDE CORREA       20161009120104000000003150000000000000000       000000000000024640000000000   
07350010100000005123950              00000005123950                               20161009124516000000001815800000000000000       000000000000051150000000000   
07350010100000005124020              00000005124020 EDUARDO GODOY HERRERA         20161009121317000000000380000000000000000       000000000000031970000000000   
07350010100000005124039              00000005124039 JOSE CCAMA                    20161009121941000000000440000000000000000       000000000000035810000000000   
07350010100000005124060              00000005124060 FRANCISCO HIDALGO RAMIREZ     20161009124426000000002730000000000000000       000000000000050660000000000   
07350010100000005124078              00000005124078 AMERGHIN5HOTMAILCOM           20161009152409000000003540000000000000000       000000000007620070000000000   
07350010100000005124080              00000005124080 CLAUDIA MEJIA                 20161009122955000000000310000000000000000       000000000000041940000000000   
07350010100000005124109              00000005124109 GENESIS BONILLA               20161009123629000000003900000000000000000       000000000000045890000000000   
07350010100000005124124              00000005124124 ELPRINCICOSCULLUELA123HOTMAILC20161009124303000000000750000000000000000       000000000000000000000000000   
07350010100000005124185              00000005124185                               20161010110812000000000600000000000000000       000000000011553460000000000   
07350010100000005124188              00000005124188 PAULO RODRIGUEZ               20161009130806000000000350000000000000000       000000000007017010000000000   
07350010100000005124194              00000005124194 JAIMEJUVE27GMAILCOM           20161010145112000000000300000000000000000       000000000000000000000000000   
07350010100000005124200              00000005124200 MIGUEL FATTORINI              20161009130457000000000200000000000000000       000000000000062970000000000   
07350010100000005124205              00000005124205 PABLO                         20161010141655000000016890000000000000000       000000000014525370000000000   
07350010100000005124223              00000005124223 ROBERTO SOTELO                20161009125302000000000330000000000000000       000000000000055810000000000   
07350010100000005124224              00000005124224 KARLA WENDY APAZA ILLANES     20161009134831000000001400000000000000000       000000000007211790000000000   
07350010100000005124245              00000005124245 CARLOS JESUS CUEVA SANCHEZ    20161009132742000000002000000000000000000       000000000007116110000000000   
07350010100000005124247              00000005124247 MARIO PARIHUAMAN BONILLA SN   20161009131014000000000250000000000000000       000000000000066130000000000   
07350010100000005124254              00000005124254 CARLOS JESUS CUEVA SANCHEZ    20161009132814000000002000000000000000000       000000000007118790000000000   
07350010100000005124271              00000005124271 GIANMARCO MORALES INFANTES    20161009130045000000000800000000000000000       000000000000060450000000000   
07350010100000005124305              00000005124305 CARLOS JESUS CUEVA SANCHEZ    20161009132838000000002000000000000000000       000000000007120760000000000   
07350010100000005124312              00000005124312                               20161010165829000000001199900000000000000       000000000016901180000000000   
07350010100000005124315              00000005124315 CARLOS JESUS CUEVA SANCHEZ    20161009132912000000002000000000000000000       000000000007123270000000000   
07350010100000005124365              00000005124365 GEORGINEO GALARZA ESPINOZA    20161009131751000000005011500000000000000       000000000000070700000000000   
07350010100000005124371              00000005124371 JUAN MIGUEL SERQUEN YAIPEN    20161009132142000000000400000000000000000       000000000000036440000000000   
07350010100000005124387              00000005124387 ERICKJU192026HOTMAILCOM       20161009134128000000000260000000000000000       000000000007180910000000000   
07350010100000005124388              00000005124388 JHEYSONBARRIALHOTMAILCOM      20161009134234000000000260000000000000000       000000000007185760000000000   
07350010100000005124390              00000005124390 JEREMY SILVA                  20161009132548000000000150000000000000000       000000000000075470000000000   
07350010100000005124416              00000005124416 JAVIER CABRERA UCEDA          20161009185936000000000210000000000000000       000000000008549260000000000   
07350010100000005124423              00000005124423 FERNANDOBUTILIERHOTMAILCOM    20161009133520000000000260000000000000000       000000000000081190000000000   
07350010100000005124432              00000005124432 ROCIO DEL CARMEN VERA RODRIGUE20161009151238000000003060000000000000000       000000000007570580000000000   
07350010100000005124452              00000005124452 FELIX MARINO ANGELES          20161009181438000000004380000000000000000       000000000008341710000000000   
07350010100000005124479              00000005124479 LILY ALMEYDA RICALES          20161010123042000000001290000000000000000       000000000012952720000000000   
07350010100000005124527              00000005124527 FRANSITO2796HOTMAILCOM        20161009144640000000000300000000000000000       000000000000024000000000000   
07350010100000005124555              00000005124555 ALAN EDHER GARCIA VALVERDE    20161009140817000000000400000000000000000       000000000000000970000000000   
07350010100000005124558              00000005124558 ARMANDO GUERRA                20161009141348000000005500000000000000000       000000000000004280000000000   
07350010100000005124580              00000005124580 CHARO SANTAMARIA VASQUEZ      20161009152818000000011760000000000000000       000000000007636260000000000   
07350010100000005124596              00000005124596 CESAR FERNANDEZ FERNANDEZ     20161009142226000000000730000000000000000       000000000000009450000000000   
07350010100000005124598              00000005124598 JOSE LUIS GRANADOS SULLCARAY  20161009143010000000001800000000000000000       000000000000077510000000000   
07350010100000005124611              00000005124611 TAURO13051HOTMAILCOM          20161009143402000000000300000000000000000       000000000000000000000000000   
07350010100000005124622              00000005124622 NELSON CHOLAN                 20161009142632000000000500000000000000000       000000000000011920000000000   
07350010100000005124641              00000005124641 PETTY MALAVER TORRES DE GUTARR20161010120225000000010480000000000000000       000000000012478950000000000   
07350010100000005124652              00000005124652 CLARA LORETO ZUMARAN AMIEL    20161009145143000000007000000000000000000       000000000007484370000000000   
07350010100000005124658              00000005124658 RAUL WILLIAM ACHAHUANCO GONZAL20161009150404000000001100000000000000000       000000000000097830000000000   
07350010100000005124687              00000005124687 XZCLAUDIAXZ                   20161009145525000000001789100000000000000       000000000000029250000000000   
07350010100000005124688              00000005124688 WFERLOVE99OUTLOOKCOM          20161009203247000000000300000000000000000       000000000000000000000000000   
07350010100000005124709              00000005124709 ELIZABETH CAMPOS ANCAJIMA     20161009152244000000000534000000000000000       000000000007614240000000000   
07350010100000005124716              00000005124716 DAVID VILLALVA TALAVERA       20161009150052000000001200000000000000000       000000000007520890000000000   
07350010100000005124721              00000005124721 JOSE ALEJANDRO REYES SN       20161009150020000000000250000000000000000       000000000000032190000000000   
07350010100000005124732              00000005124732 SM1PRO                        20161009150551000000001789100000000000000       000000000000035510000000000   
07350010100000005124748              00000005124748 RUBENQUIROZHOTMAILCOM         20161009151124000000000260000000000000000       000000000000038840000000000   
07350010100000005124754              00000005124754 CARLO ALEKSANDR DEZA LANDAZURI20161010093851000000005000000000000000000       000000000000003310000000000   
07350010100000005124771              00000005124771 KIOSHY8HOTMAILCOM             20161009151441000000000300000000000000000       000000000000040800000000000   
07350010100000005124780              00000005124780 KIOSHY8HOTMAILCOM             20161009151733000000000300000000000000000       000000000000042530000000000   
07350010100000005124781              00000005124781 ROSALINDA1139OUTLOOKCOM       20161009154914000000000150000000000000000       000000000007721750000000000   
07350010100000005124818              00000005124818 MARIA ISABEL ALTA SANCHEZ     20161009160600000000001000000000000000000       000000000007790200000000000   
07350010100000005124820              00000005124820 CARLO ALEKSANDR DEZA LANDAZURI20161010135126000000002000000000000000000       000000000000054850000000000   
07350010100000005124879              00000005124879 LUIS MONZON                   20161009154746000000000865000000000000000       000000000000024040000000000   
07350010100000005124901              00000005124901 GLADYS TUCTO PINEDO           20161010144525000000004431000000000000000       000000000014908890000000000   
07350010100000005124910              00000005124910 EDUARDO MORENO GARAY          20161009163957000000000980000000000000000       000000000007934020000000000   
07350010100000005124946              00000005124946 DEBRA PEREZ                   20161009173629000000001230000000000000000       000000000008174520000000000   
07350010100000005124967              00000005124967 ELGUASONLOCOHOTMAILCOM        20161009161014000000000300000000000000000       000000000000074140000000000   
07350010100000005124974              00000005124974 ELGUASONLOCOHOTMAILCOM        20161009161122000000000150000000000000000       000000000000074820000000000   
07350010100000005124985              00000005124985 KATERINA LUCERO SANCHEZ VILCHE20161009162102000000000660000000000000000       000000000000080620000000000   
07350010100000005124986              00000005124986 AIMEE BUSTAMANTE SILVA SILVA  20161009162157000000000500000000000000000       000000000000081160000000000   
07350010100000005125015              00000005125015 JUNIOR RENE ADUVIRI MASIAS    20161009165519000000000900000000000000000       000000000007996470000000000   
07350010100000005125018              00000005125018 DOTA2123123HOTMAILCOM         20161009163527000000000300000000000000000       000000000000052630000000000   
07350010100000005125036              00000005125036 GABRIELA VIRGINIA ZARRIA JAICO20161009163131000000000277000000000000000       000000000000086910000000000   
07350010100000005125117              00000005125117 EDUARDO BEJARANO PRIETO       20161009164804000000000500000000000000000       000000000000096840000000000   
07350010100000005125143              00000005125143 LUIS SIRLOPU SAAVEDRA         20161009183333000000000990000000000000000       000000000008429990000000000   
07350010100000005125153              00000005125153 JOHANALI321123HOTMAILCOM      20161009173115000000000300000000000000000       000000000008151830000000000   
07350010100000005125172              00000005125172 COLBERT GUEVARA CASTANEDA     20161009220536000000000330000000000000000       000000000000087350000000000   
07350010100000005125177              00000005125177 CHRYSTIAN CARRASCO LING       20161009185302000000000500000000000000000       000000000000071820000000000   
07350010100000005125207              00000005125207 MARIA DEL PILAR LUGO LOPEZ    20161010165205000000005786000000000000000       000000000016787440000000000   
07350010100000005125218              00000005125218 ANGELA YOJHAIRA GUTIERREZ VEGA20161009172043000000000208000000000000000       000000000000016420000000000   
07350010100000005125223              00000005125223 CAROLINA ROCIO CABRERA BONETT 20161010132124000000015380000000000000000       000000000013743180000000000   
07350010100000005125255              00000005125255 VLADIMIR CARLOS OROZCO RIVERA 20161009190418000000000400000000000000000       000000000008569830000000000   
07350010100000005125277              00000005125277 ANGELA SANCHEZ MALDONADO      20161010125625000000004380000000000000000       000000000000000000000000000   
07350010100000005125290              00000005125290 MITCHEL JESUS YUFRE DUENAS    20161010104048000000009190000000000000000       000000000011109670000000000   
07350010100000005125291              00000005125291 ELIZABETH SANTANA             20161009174226000000000225000000000000000       000000000000029460000000000   
07350010100000005125293              00000005125293 YSIDRO ABEL PLASENCIA VELARDE 20161009174150000000002000000000000000000       000000000000029100000000000   
07350010100000005125295              00000005125295 EDILFERPALOMINOGMAILCOM       20161009174634000000000260000000000000000       000000000000031940000000000   
07350010100000005125306              00000005125306 ELIZABETH SANTANA             20161009174709000000000450000000000000000       000000000000032290000000000   
07350010100000005125307              00000005125307                               20161009174809000000000288000000000000000       000000000000032890000000000   
07350010100000005125330              00000005125330 RGALLEGOSQUISPEGMAILCOM       20161009175444000000000150000000000000000       000000000000036840000000000   
07350010100000005125366              00000005125366 ALFREDO MARTIN JAUREGUI FARFAN20161009181115000000000319000000000000000       000000000000046750000000000   
07350010100000005125375              00000005125375 GENESIS BONILLA               20161009192255000000001140000000000000000       000000000000089750000000000   
07350010100000005125385              00000005125385                               20161010161629000000000249900000000000000       000000000000000000000000000   
07350010100000005125389              00000005125389 DENNIS BRADDY DIAZ GUZMAN     20161009181416000000001000000000000000000       000000000000048550000000000   
07350010100000005125390              00000005125390 PEDRO JOSE ANTONIO CASTILLO DI20161009181333000000002000000000000000000       000000000000048130000000000   
07350010100000005125413              00000005125413 ANGEL ROCKEY DAVIS QUISPE RICC20161009181844000000000300000000000000000       000000000008360540000000000   
07350010100000005125423              00000005125423 FELIX GAMBOA FERREL           20161009182635000000000500000000000000000       000000000000055950000000000   
07350010100000005125486              00000005125486 FERNANDO MARQUEZ SEGOVIA      20161010124618000000003100000000000000000       000000000013201840000000000   
07350010100000005125506              00000005125506 GABRIELA MENDOZA LAPOINT      20161010112715000000010480000000000000000       000000000011875680000000000   
07350010100000005125520              00000005125520 KRYSTEL SNCHEZ                20161009185050000000000330000000000000000       000000000000070500000000000   
07350010100000005125525              00000005125525 AMILCAR FELIX LAZARO CERVANTES20161010181751000000009931000000000000000       000000000018417980000000000   
07350010100000005125529              00000005125529                               20161009193055000000000405000000000000000       000000000008695670000000000   
07350010100000005125532              00000005125532 RENATO ALIAGA VALDERRAMA      20161009194638000000003380000000000000000       000000000000003980000000000   
07350010100000005125545              00000005125545 ANTONIO GARATE                20161009190113000000000290000000000000000       000000000000076730000000000   
07350010100000005125594              00000005125594 CARINA                        20161010135040000000001750000000000000000       000000000014166790000000000   
07350010100000005125645              00000005125645                               20161010193558000000001199900000000000000       000000000000061570000000000   
07350010100000005125672              00000005125672 ANIBAL BENAVENTE              20161010115802000000000590000000000000000       000000000012402550000000000   
07350010100000005125689              00000005125689                               20161009194442000000000090000000000000000       000000000000002810000000000   
07350010100000005125693              00000005125693 ELIZABETH FIGUEROA PARRA      20161009201853000000000330000000000000000       000000000008903400000000000   
07350010100000005125697              00000005125697 KENYA ORBEGOSO SANCHEZ        20161010104053000000001320000000000000000       000000000011111130000000000   
07350010100000005125700              00000005125700 CESAR ZAVALASN                20161009195835000000000150000000000000000       000000000000011150000000000   
07350010100000005125719              00000005125719 CESAR ZAVALASN                20161009200137000000000150000000000000000       000000000000012970000000000   
07350010100000005125726              00000005125726 DEVASHOTMAILCOM               20161009195822000000000150000000000000000       000000000000011020000000000   
07350010100000005125732              00000005125732 DEVASHOTMAILCOM               20161009195941000000000300000000000000000       000000000000011810000000000   
07350010100000005125743              00000005125743 ELIZABETH FIGUEROA PARRA      20161009201956000000000720000000000000000       000000000008907320000000000   
07350010100000005125745              00000005125745 CESAR AUGUSTO PORTOCARRERO BAL20161009200702000000001000000000000000000       000000000008856570000000000   
07350010100000005125773              00000005125773 JUAN SIUCHO                   20161009201942000000001000000000000000000       000000000000023820000000000   
07350010100000005125789              00000005125789 ANDY GALLO ESPINOZA           20161009202550000000000100000000000000000       000000000000027500000000000   
07350010100000005125818              00000005125818 DANIEL EDUARDO MARQUINA CASAVI20161009203606000000000400000000000000000       000000000000033650000000000   
07350010100000005125870              00000005125870 VICTOR MANUEL OLIVEROS OLIVERO20161010140533000000000380000000000000000       000000000014370410000000000   
07350010100000005125880              00000005125880 DANNIA MARCILIO               20161009205158000000002567000000000000000       000000000000043180000000000   
07350010100000005125904              00000005125904 JAVIER TORRES                 20161009210207000000000890000000000000000       000000000000012550000000000   
07350010100000005125908              00000005125908 JUAN SIUCHO                   20161009210128000000001000000000000000000       000000000000048880000000000   
07350010100000005125932              00000005125932 JORGE ENRIQUE LOCATELLI GARCIA20161009211124000000001000000000000000000       000000000000054840000000000   
07350010100000005125938              00000005125938 ELIZABETH RUIZ                20161010182326000000001549000000000000000       000000000018513900000000000   
07350010100000005125945              00000005125945 DANETSUREDANELSHOTMAILCOM     20161010160026000000000300000000000000000       000000000015934470000000000   
07350010100000005125954              00000005125954 JHEREMY20081GMAILCOM          20161009214916000000000300000000000000000       000000000000077560000000000   
07350010100000005125955              00000005125955 RIK CORPORATION SAC ARROYO MED20161010102158000000000250000000000000000       000000000010810430000000000   
07350010100000005125968              00000005125968 CRISTHIANMATADOR2006HOTMAILCOM20161009215147000000000300000000000000000       000000000000079060000000000   
07350010100000005126002              00000005126002 ZELMIRA ROMERO TAMAYO         20161010121736000000005880000000000000000       000000000012734170000000000   
07350010100000005126005              00000005126005 VERONICA OSCATEGUI LOPEZ      20161010154420000000004880000000000000000       000000000015693900000000000   
07350010100000005126006              00000005126006 ANTHONY EDWARD BEJARANO MORALE20161009213511000000000200000000000000000       000000000000069110000000000   
07350010100000005126020              00000005126020 JDRUGARTEGMAILCOM             20161009214612000000000389800000000000000       000000000000075720000000000   
07350010100000005126053              00000005126053 KARYN RIVERA                  20161010131644000000000699000000000000000       000000000000000000000000000   
07350010100000005126183              00000005126183 VICTOR MANUEL LEON GOMEZ      20161010205633000000000930000000000000000       000000000000009930000000000   
07350010100000005126240              00000005126240 JHONN ENRIQUE CACERES LUNA    20161009231005000000000400000000000000000       000000000000026040000000000   
07350010100000005126315              00000005126315 JONATHAN HOYOS                20161010231117000000000300000000000000000       000000000000090770000000000   
07350010100000005126432              00000005126432 USUARIO NUEVO                 20161010004108000000002850000000000000000       000000000000080680000000000   
07350010100000005126478              00000005126478 MARIA LUCIA HIDALGO HIDALGO 2520161010012324000000000658000000000000000       000000000000006040000000000   
07350010100000005126482              00000005126482 MARIA LUCIA HIDALGO HIDALGO 1820161010013022000000000458000000000000000       000000000000010210000000000   
07350010100000005126524              00000005126524                               20161010023846000000000216000000000000000       000000000000051260000000000   
07350010100000005126527              00000005126527 JOSE LUIS PALOMINO PEREZ      20161010024127000000001400000000000000000       000000000000052860000000000   
07350010100000005126528              00000005126528 JOSE LUIS PALOMINO PEREZ      20161010024238000000001400000000000000000       000000000000053580000000000   
07350010100000005126538              00000005126538                               20161010034115000000000484400000000000000       000000000000088750000000000   
07350010100000005126561              00000005126561 JUAN ALBERTO HUMPIRE JAUREGUI 20161010045909000000008365700000000000000       000000000000035490000000000   
07350010100000005126627              00000005126627 PIERO CAVASSA                 20161010070614000000000800000000000000000       000000000000011740000000000   
07350010100000005126653              00000005126653 TRES CORONAS MULTIMEDIOS SAC  20161010072621000000001100000000000000000       000000000000023800000000000   
07350010100000005126669              00000005126669 FREDDY YARMA LAPOINT          20161010073910000000000660000000000000000       000000000000031500000000000   
07350010100000005126707              00000005126707 MARCO MANYARI                 20161010105052000000003000000000000000000       000000000000000000000000000   
07350010100000005126713              00000005126713                               20161010123031000000002400000000000000000       000000000000000000000000000   
07350010100000005126715              00000005126715 CRISTIAMZAIRAGMAILCOM         20161010075950000000000300000000000000000       000000000000043900000000000   
07350010100000005126725              00000005126725 WILSON211999HOTMAILCOM        20161010080304000000000150000000000000000       000000000000045840000000000   
07350010100000005126735              00000005126735 CARLA JUDITH PADILLA VERA     20161010173111000000000699000000000000000       000000000017509580000000000   
07350010100000005126780              00000005126780                               20161010083257000000000067500000000000000       000000000000063770000000000   
07350010100000005126785              00000005126785 JORGE JORGE                   20161010092054000000000500000000000000000       000000000009960980000000000   
07350010100000005126870              00000005126870 EDGAR VARGAS RIVA             20161010090555000000000150000000000000000       000000000000083540000000000   
07350010100000005126896              00000005126896 ABRAHAM98SBAGMAILCOM          20161010085237000000000300000000000000000       000000000009700490000000000   
07350010100000005126897              00000005126897 ROSALIA ESTHER ALCANTARA URTEA20161010121808000000027990000000000000000       000000000012743440000000000   
07350010100000005126903              00000005126903 FERNANDO ROBERTO PARRAGA CARRA20161010085133000000000150000000000000000       000000000000074930000000000   
07350010100000005126909              00000005126909 JOSE MATEO QUISPE MAYTA       20161010094327000000001250000000000000000       000000000010243780000000000   
07350010100000005126914              00000005126914 ROBERT CARLOS RIEGA LOPEZ     20161010085438000000000500000000000000000       000000000000076770000000000   
07350010100000005126917              00000005126917 JOSE ANTONIO DULANTO GUERRA GU20161010201339000000006502000000000000000       000000000000084190000000000   
07350010100000005126934              00000005126934 JOSE MATEO QUISPE MAYTA       20161010094413000000000900000000000000000       000000000010254880000000000   
07350010100000005126953              00000005126953 OLGA DELGADO NULL             20161010102748000000004279000000000000000       000000000010902820000000000   
07350010100000005126971              00000005126971 ROMMELL ENRIQUE LA TORRE VILLA20161010095433000000011096100000000000000       000000000010397260000000000   
07350010100000005126979              00000005126979 POKER26091998GMAILCOM         20161010090416000000000300000000000000000       000000000000082560000000000   
07350010100000005126988              00000005126988                               20161010154930000000000306000000000000000       000000000015769670000000000   
07350010100000005127036              00000005127036 FREDDY1416HOTMAILCOM          20161010092214000000000150000000000000000       000000000000000000000000000   
07350010100000005127057              00000005127057 MARIA MELVA BARBOZA ALARCON   20161010095009000000000298000000000000000       000000000000010090000000000   
07350010100000005127059              00000005127059 JORGE ERNESTO MORALES NAVARRO 20161010092107000000000200000000000000000       000000000000092670000000000   
07350010100000005127080              00000005127080 DANIEL ARANA NUNEZ LANDA      20161010094214000000000500000000000000000       000000000010226650000000000   
07350010100000005127168              00000005127168 USUARIO NUEVO                 20161010093803000000000800000000000000000       000000000000002830000000000   
07350010100000005127232              00000005127232 OSCAR MIGUEL GUTIERREZ ARRASCO20161010110608000000005990000000000000000       000000000011519500000000000   
07350010100000005127234              00000005127234 JORGE JIMENEZ                 20161010094537000000000200000000000000000       000000000000007370000000000   
07350010100000005127283              00000005127283 MARIA MELVA BARBOZA ALARCON   20161010095343000000000390000000000000000       000000000000012220000000000   
07350010100000005127291              00000005127291 MARTINTHEUNICHOTMAILCOM       20161010095748000000000300000000000000000       000000000000014670000000000   
07350010100000005127305              00000005127305 ANA PAULA YUPANQUI RAMIREZ    20161010112147000000000100000000000000000       000000000000065060000000000   
07350010100000005127316              00000005127316 103852085                     20161010102048000000000178900000000000000       000000000010791590000000000   
07350010100000005127333              00000005127333 OMARCALLE28HOTMAILCOM         20161010101324000000000750000000000000000       000000000010676670000000000   
07350010100000005127348              00000005127348 HALAIN PERALTA                20161010100248000000000800000000000000000       000000000000017660000000000   
07350010100000005127351              00000005127351                               20161010105246000000000152000000000000000       000000000000000000000000000   
07350010100000005127365              00000005127365 MAURICIO CARLOS PONCE GOMEZ   20161010100347000000004000000000000000000       000000000000018270000000000   
07350010100000005127392              00000005127392 DENISSE MURGA                 20161010104347000000000500000000000000000       000000000011157420000000000   
07350010100000005127393              00000005127393 SN SN SN                      20161010101506000000000250000000000000000       000000000000025060000000000   
07350010100000005127411              00000005127411 DENIS ROLANDO QUISPE HERRERA  20161010102924000000005969100000000000000       000000000000033640000000000   
07350010100000005127421              00000005127421 ZOELI INDIRA HUAMAN PANCORBO  20161010101244000000001580000000000000000       000000000000023640000000000   
07350010100000005127483              00000005127483 RICARDO VITERI SALAZAR        20161010102332000000001200000000000000000       000000000000030120000000000   
07350010100000005127522              00000005127522 ERIKA BULEJE VARGAS           20161010102839000000000100000000000000000       000000000000033190000000000   
07350010100000005127525              00000005127525 CIRO APESTEGUI                20161010120015000000000500000000000000000       000000000012441640000000000   
07350010100000005127554              00000005127554 JORGE VIVIANO                 20161010103106000000000320000000000000000       000000000000034650000000000   
07350010100000005127570              00000005127570 PERCYPER55121213GMAILCOM      20161010103543000000000150000000000000000       000000000000037420000000000   
07350010100000005127601              00000005127601 MARYORI FIORELLA FERNANDEZ OSO20161010135443000000000450000000000000000       000000000014223960000000000   
07350010100000005127624              00000005127624 JUSTO GERMAN GAMARRA QUINTOS  20161010120237000000004892300000000000000       000000000012482580000000000   
07350010100000005127631              00000005127631 USUARIO NUEVO                 20161010120421000000002490000000000000000       000000000000090610000000000   
07350010100000005127633              00000005127633 ARESCOM IMPORT SAC ARESCOM    20161010104534000000000650000000000000000       000000000000043340000000000   
07350010100000005127671              00000005127671 ORLANDO CUBAS MIRANDA         20161010104817000000001140000000000000000       000000000000044970000000000   
07350010100000005127678              00000005127678 SELMIRA ELOISA SILVA COBENAS  20161010105208000000000320000000000000000       000000000000047270000000000   
07350010100000005127697              00000005127697 CECILIA OCAMPO                20161010124623000000014990000000000000000       000000000013203010000000000   
07350010100000005127699              00000005127699 ANGELICA DICHE                20161010131147000000000599000000000000000       000000000013592930000000000   
07350010100000005127713              00000005127713 RONALD ROMULO PUMA HUARCA     20161010105435000000001500000000000000000       000000000000048750000000000   
07350010100000005127719              00000005127719 MARGIE VILLANUEVA CAYCHO      20161010143456000000000660000000000000000       000000000014770100000000000   
07350010100000005127756              00000005127756 MIGUEL LOPEZ TASSARA          20161010125703000000000000100000000000000       000000000000022230000000000   
07350010100000005127792              00000005127792 FLAVIO ANTONIO                20161010110712000000000500000000000000000       000000000000056320000000000   
07350010100000005127799              00000005127799 CARLOS EDUARDO HERNANDEZ RODRI20161010111016000000001000000000000000000       000000000011588800000000000   
07350010100000005127806              00000005127806 WILLIAM SULCA RIVEROS         20161010110630000000000660000000000000000       000000000000018910000000000   
07350010100000005127811              00000005127811 JOSE LUIS RAMIREZ RETES       20161010110447000000001100000000000000000       000000000000054860000000000   
07350010100000005127821              00000005127821 TATIANA GUICHARD              20161010110823000000000499000000000000000       000000000000057020000000000   
07350010100000005127841              00000005127841 GRISSEL NILDA HUAMAN CUPI     20161010111121000000000650000000000000000       000000000000058810000000000   
07350010100000005127846              00000005127846 DANNY REYES MARIATEGUI        20161010111302000000000499000000000000000       000000000000059820000000000   
07350010100000005127876              00000005127876 DIEGO FREITAS SORIA           20161010111520000000000200000000000000000       000000000000061200000000000   
07350010100000005127894              00000005127894 PROMELKO SRL                  20161010125937000000002000000000000000000       000000000013405980000000000   
07350010100000005127917              00000005127917 ANTONIO JOSE ROMERO MARQUEZ   20161010125301000000007143000000000000000       000000000013304170000000000   
07350010100000005127923              00000005127923 HENRY JAHIR RAMOS SURCO       20161010112123000000000100000000000000000       000000000000064830000000000   
07350010100000005127933              00000005127933 EDWIN VASQUEZ YACTAYO         20161010144211000000003153600000000000000       000000000014865150000000000   
07350010100000005127973              00000005127973 JUAN39HOTMAILCOM              20161010114556000000000300000000000000000       000000000000079560000000000   
07350010100000005127988              00000005127988 NOE QUINTIMARI CHERICENTE     20161010170343000000001100000000000000000       000000000016991910000000000   
07350010100000005128003              00000005128003 JIMMY VALDEZ                  20161010112912000000000300000000000000000       000000000000069520000000000   
07350010100000005128010              00000005128010 LADISLAO PAREJA SN            20161010120203000000000350000000000000000       000000000012472820000000000   
07350010100000005128017              00000005128017 RICHARD DAVID HERNANDEZ LUJAN 20161010113156000000000200000000000000000       000000000000071160000000000   
07350010100000005128029              00000005128029 KEVIN JOEL PAYHUANCA          20161010113919000000005120000000000000000       000000000000075580000000000   
07350010100000005128040              00000005128040 PEDRO RENGIFO AGUINAGA        20161010113412000000000499000000000000000       000000000000035520000000000   
07350010100000005128058              00000005128058 LUISTAXLERHOTMAILCOM          20161010113816000000000260000000000000000       000000000000074950000000000   
07350010100000005128062              00000005128062 LUIS LUIS                     20161010121844000000002600000000000000000       000000000012752940000000000   
07350010100000005128097              00000005128097 ANGELDJ12HOTMAILCOM           20161010120356000000000300000000000000000       000000000000090360000000000   
07350010100000005128145              00000005128145 KAREN STEFANIN CORONEL CARLOS 20161010153931000000003290000000000000000       000000000015625700000000000   
07350010100000005128154              00000005128154 IMPORTANTE EMPRESA            20161010181619000000000250000000000000000       000000000000000000000000000   
07350010100000005128156              00000005128156 MONICA GONZALES               20161010120155000000000998000000000000000       000000000000089150000000000   
07350010100000005128214              00000005128214 EDUARDO ROJAS                 20161010121919000000000200000000000000000       000000000000000000000000000   
07350010100000005128257              00000005128257 JESUS CHANGRA MARROQUIN MARROQ20161010120435000000001300000000000000000       000000000000053740000000000   
07350010100000005128265              00000005128265 LUIS ALBERTO CAMPOS TORRES    20161010124323000000000300000000000000000       000000000013157670000000000   
07350010100000005128299              00000005128299 DORIANCITOJHOTMAILCOM         20161010120635000000000300000000000000000       000000000000091940000000000   
07350010100000005128300              00000005128300 AYDELI YOVANI ACOSTA GUEVARA  20161010122336000000000480000000000000000       000000000000065150000000000   
07350010100000005128323              00000005128323 SAIRA TERRONES DIAZ           20161010172614000000005120000000000000000       000000000017416360000000000   
07350010100000005128349              00000005128349 DANIEL ARANA NUNEZ LANDA      20161010122104000000000900000000000000000       000000000012791490000000000   
07350010100000005128355              00000005128355 MELISSA RIVERA CAMAQUI        20161010150059000000000899000000000000000       000000000000096590000000000   
07350010100000005128385              00000005128385 JAIME DIAZ DIAZ               20161010121843000000005000000000000000000       000000000000099220000000000   
07350010100000005128414              00000005128414 GHIANTS13HOTMAILCOM           20161010124042000000000300000000000000000       000000000000012410000000000   
07350010100000005128481              00000005128481 KATERINA LUCERO SANCHEZ VILCHE20161010123555000000000330000000000000000       000000000000009550000000000   
07350010100000005128507              00000005128507                               20161010123526000000000449900000000000000       000000000000009250000000000   
07350010100000005128513              00000005128513 NIGHELDYCK12HOTMAILCOM        20161010123331000000000300000000000000000       000000000000008110000000000   
07350010100000005128534              00000005128534 ACM220PTHOTMAILCOM            20161010123716000000000257000000000000000       000000000000010350000000000   
07350010100000005128549              00000005128549 PEDRO IPARRAGUIRRE PUMA PUMA  20161010124057000000001030000000000000000       000000000000075550000000000   
07350010100000005128557              00000005128557 ANDY PEDRO ALBERTO ESPINO VEJA20161010130313000000000300000000000000000       000000000000025930000000000   
07350010100000005128576              00000005128576 ARTURO VILDOSOLA SEPULVEDA    20161010130441000000003380000000000000000       000000000013482220000000000   
07350010100000005128596              00000005128596 JOSE MORILLO QUINTANILLA      20161010151944000000000700000000000000000       000000000000070780000000000   
07350010100000005128598              00000005128598 IMPORTANTE EMPRESA IMPORTANTE 20161010134127000000000250000000000000000       000000000014033030000000000   
07350010100000005128633              00000005128633 IMPORTANTE EMPRESA IMPORTANTE 20161010134148000000000250000000000000000       000000000014038430000000000   
07350010100000005128660              00000005128660 KHRISTOPHER SMISCHECK CACERES 20161010180115000000000499000000000000000       000000000000004750000000000   
07350010100000005128662              00000005128662 MIGUEL FATTORINI              20161010125302000000000200000000000000000       000000000000019820000000000   
07350010100000005128674              00000005128674                               20161010125535000000000304600000000000000       000000000000021350000000000   
07350010100000005128687              00000005128687 JORGE ENRIQUE LOCATELLI GARCIA20161010125531000000002500000000000000000       000000000000021300000000000   
07350010100000005128691              00000005128691 ELVIA MILENA CORZO OLIVERA    20161010131043000000000399000000000000000       000000000000030420000000000   
07350010100000005128707              00000005128707 ROGGER PEREZ PEREZ            20161010163811000000000600000000000000000       000000000016553340000000000   
07350010100000005128740              00000005128740 ANA MARIA PAULINI             20161010143550000000016765900000000000000       000000000000081500000000000   
07350010100000005128755              00000005128755 CARLO ALEKSANDR DEZA LANDAZURI20161010130520000000003000000000000000000       000000000000027190000000000   
07350010100000005128794              00000005128794 CIRIUS13OUTLOOKCOM            20161010131020000000000300000000000000000       000000000000030200000000000   
07350010100000005128810              00000005128810 GETZUTBOHOTMAILCOM            20161010131719000000000260000000000000000       000000000000097360000000000   
07350010100000005128823              00000005128823 PAOLA PEREZ RODRIGUEZ NULL    20161010151553000000015224000000000000000       000000000015305450000000000   
07350010100000005128833              00000005128833 CARLOS GALLARDO               20161010132427000000000450000000000000000       000000000000038660000000000   
07350010100000005128913              00000005128913 JOHAN2604HOTMAILCOM           20161010145330000000000260000000000000000       000000000015015460000000000   
07350010100000005128918              00000005128918 OSCAR SANDOVAL                20161010172137000000000480000000000000000       000000000000000000000000000   
07350010100000005128950              00000005128950 STEPHANO GAMERO TELLO         20161010133244000000001000000000000000000       000000000013910000000000000   
07350010100000005128990              00000005128990 MARIA ISABEL MERCADO HERRERA N20161010160332000000007719000000000000000       000000000015983970000000000   
07350010100000005129000              00000005129000                               20161010134153000000000323900000000000000       000000000000049120000000000   
07350010100000005129006              00000005129006 MARIA ISELLA PICON            20161010134049000000000500000000000000000       000000000000000000000000000   
07350010100000005129021              00000005129021 YULIANA EDITH TORRES LUJAN    20161010135442000000004170000000000000000       000000000000019790000000000   
07350010100000005129029              00000005129029 KENNYPASAPERAHOTMAILCOM       20161010134419000000000300000000000000000       000000000000050580000000000   
07350010100000005129063              00000005129063 JORGE LUIS MOSQUEIRA          20161010135329000000000330000000000000000       000000000000056090000000000   
07350010100000005129071              00000005129071 GILBERTJHOELHOTMAILCOM        20161010135032000000000300000000000000000       000000000000054310000000000   
07350010100000005129108              00000005129108 RONALD RAUL RODRIGUEZ VEGA    20161010153513000000013600000000000000000       000000000015566530000000000   
07350010100000005129152              00000005129152 CARLOS PAREDES                20161010140129000000000400000000000000000       000000000000060880000000000   
07350010100000005129173              00000005129173 RODRIGO CORDOVA               20161010140343000000000200000000000000000       000000000000062220000000000   
07350010100000005129190              00000005129190 ROY ZEGARRA AGUIRRE           20161010140703000000000300000000000000000       000000000000064220000000000   
07350010100000005129197              00000005129197 MOCADY8GMAILCOM               20161010140846000000000300000000000000000       000000000000065250000000000   
07350010100000005129201              00000005129201 JHONCIO78GMAILCOM             20161010141500000000000300000000000000000       000000000000069000000000000   
07350010100000005129203              00000005129203 LEONARDO MUNAYA JAIME         20161010141359000000020000000000000000000       000000000014483330000000000   
07350010100000005129277              00000005129277 LUIS FELIPE ROSSEL MALPARTIDA 20161010143450000000001200000000000000000       000000000000080900000000000   
07350010100000005129287              00000005129287 MARIA ISELLA PICON MARIMON    20161010142328000000000500000000000000000       000000000000000000000000000   
07350010100000005129320              00000005129320 JUAN LOPEZ                    20161010142628000000000370000000000000000       000000000000075880000000000   
07350010100000005129354              00000005129354 EDSON NOLE 185LANDINGMIFOTOFOT20161010203444000000000458000000000000000       000000000000096840000000000   
07350010100000005129356              00000005129356 ARTURO VENTOSILLA             20161010143726000000000650000000000000000       000000000000082460000000000   
07350010100000005129358              00000005129358 LUIS FELIPE ROSSEL MALPARTIDA 20161010143818000000000650000000000000000       000000000000082970000000000   
07350010100000005129363              00000005129363 MARGARITA MARGARITA           20161010145559000000000920000000000000000       000000000015047110000000000   
07350010100000005129392              00000005129392 ALAN DAVID SANCHEZ MEREJILDO  20161010143949000000000376500000000000000       000000000000083880000000000   
07350010100000005129428              00000005129428 ROMULO PIZARRO                20161010152840000000000600000000000000000       000000000015478040000000000   
07350010100000005129433              00000005129433 YONBARNGMAILCOM               20161010145003000000000300000000000000000       000000000000052970000000000   
07350010100000005129454              00000005129454 CLENINPAMPAGMAILCOM           20161010145214000000000300000000000000000       000000000000054290000000000   
07350010100000005129505              00000005129505 PIERO CAVASSA                 20161010145233000000000700000000000000000       000000000000091530000000000   
07350010100000005129574              00000005129574 ERIKA A                       20161010160000000000000390000000000000000       000000000015927910000000000   
07350010100000005129637              00000005129637 RICHARD CHAVEZ GIL            20161010151129000000001000000000000000000       000000000000002890000000000   
07350010100000005129660              00000005129660 ERIKA A                       20161010160025000000000390000000000000000       000000000015934410000000000   
07350010100000005129676              00000005129676 JHON LOZANO                   20161010151506000000000400000000000000000       000000000000005060000000000   
07350010100000005129679              00000005129679                               20161010162920000000000850000000000000000       000000000016397380000000000   
07350010100000005129698              00000005129698                               20161010162706000000000800000000000000000       000000000000048260000000000   
07350010100000005129719              00000005129719                               20161010162957000000001000000000000000000       000000000016407270000000000   
07350010100000005129722              00000005129722 CYNTHIA HIDALGO TORRES        20161010164841000000000660000000000000000       000000000016730690000000000   
07350010100000005129759              00000005129759 ELIZABETH MERCEDES HUAMANI CHA20161010173512000000004380000000000000000       000000000017587620000000000   
07350010100000005129776              00000005129776 LUIS FELIPE DE SOUZA MALCA    20161010154831000000000500000000000000000       000000000000025110000000000   
07350010100000005129793              00000005129793 USUARIO NUEVO                 20161010195002000000003000000000000000000       000000000000070010000000000   
07350010100000005129799              00000005129799 ROY ZEGARRA AGUIRRE           20161010153329000000000200000000000000000       000000000000016090000000000   
07350010100000005129813              00000005129813 MARGARITA DELGADO             20161010153746000000000390000000000000000       000000000000018660000000000   
07350010100000005129816              00000005129816 HR CONNECTION HR CONNECTION   20161010154940000000000250000000000000000       000000000015772260000000000   
07350010100000005129855              00000005129855                               20161010205251000000000600000000000000000       000000000020124110000000000   
07350010100000005129862              00000005129862                               20161010154045000000000899000000000000000       000000000000020450000000000   
07350010100000005129872              00000005129872 KIARA ARANA GONZALES          20161010155940000000003500000000000000000       000000000015922690000000000   
07350010100000005129887              00000005129887 ELVISFOREVER04HOTMAILCOM      20161010154519000000000260000000000000000       000000000000023180000000000   
07350010100000005129898              00000005129898 ANTONIO LATORRE VENERO        20161010154501000000000200000000000000000       000000000000023010000000000   
07350010100000005129918              00000005129918 NELZON GARCIA SN              20161010161221000000000500000000000000000       000000000016121420000000000   
07350010100000005129942              00000005129942 JOSE LUIS PALOMINO PEREZ      20161010154833000000001400000000000000000       000000000000025130000000000   
07350010100000005129966              00000005129966 JAYIMI ANDERSON HIGA ZAVALA   20161010180053000000039548900000000000000       000000000018099060000000000   
07350010100000005129969              00000005129969 HANGIE1234562HOTMAILCOM       20161010155953000000000260000000000000000       000000000000094850000000000   
07350010100000005129980              00000005129980 BLANDINA MATEA CALDERON ALDAVE20161010161123000000005120000000000000000       000000000016105020000000000   
07350010100000005129995              00000005129995 YAMPIERSTONE258HOTMAILCOM     20161010160102000000000300000000000000000       000000000000095540000000000   
07350010100000005130008              00000005130008 AYLLINE KAROL BENITES LEGUA   20161010162748000000000630000000000000000       000000000000000000000000000   
07350010100000005130059              00000005130059 JHONATAN310519974HOTMAILCOM   20161010160505000000000300000000000000000       000000000000097970000000000   
07350010100000005130077              00000005130077 AYLLINE KAROL BENITES LEGUA   20161010162956000000000447000000000000000       000000000000000000000000000   
07350010100000005130095              00000005130095 ALDOARIASOCHOAHOTMAILCOM      20161010162648000000000300000000000000000       000000000000000000000000000   
07350010100000005130111              00000005130111 AND4578HOTMAILCOM             20161010161429000000000150000000000000000       000000000000040690000000000   
07350010100000005130164              00000005130164 LUISITO15SHOTMAILCOM          20161010163242000000000259400000000000000       000000000016454350000000000   
07350010100000005130203              00000005130203 DENNIS BRADDY DIAZ GUZMAN     20161010162331000000000500000000000000000       000000000000046100000000000   
07350010100000005130205              00000005130205 3442886 JHONATAN ZARATE PORTIL20161010162343000000000550000000000000000       000000000000046230000000000   
07350010100000005130215              00000005130215 ENZOH893GMAILCOM              20161010164451000000000300000000000000000       000000000016667130000000000   
07350010100000005130249              00000005130249 JANETT PATRICIA CORONADO ALVAR20161010163658000000000790000000000000000       000000000000054180000000000   
07350010100000005130260              00000005130260 DEYVILUISHOTMAILCOM           20161010164216000000000300000000000000000       000000000016623510000000000   
07350010100000005130284              00000005130284 DENISSE VASQUEZ RINCON        20161010164432000000008380000000000000000       000000000016662510000000000   
07350010100000005130314              00000005130314 PIERO CAVASSA                 20161010163642000000001000000000000000000       000000000000054020000000000   
