0120464993879005USD20161010001105860100025512                                                                                                           
02CESAR CHAVEZ                  0000000512360900000005123609          005860809500000000001000000000000001000000000000000000004371657362016100907044946 
02ESTEBAN TRUJILLO              0000000512350300000005123503          005860811900000000002154600000000002154600000000000000004371657382016100902041102 
02Luis Miguel Valderrama Castro 0000000512387000000005123870          005860945100000000000100000000000000100000000000000000004371657402016100902041354 
02Giselle Andrea Nakata Irey    0000000512393000000005123930          005860978000000000000500000000000000500000000000000000004371657422016100902045477 
02jesus jose herrera obregon    0000000512396100000005123961          005860986200000000000300000000000000300000000000000000004371657442016100902048669 
02Mabel Galvez Galvez           0000000512414100000005124141          005861066400000000000080000000000000080000000000000000004371657462016100902043736 
02JAIME PASTOR                  0000000512417500000005124175          005861075700000000000115100000000000115100000000000000004371657482016100902046286 
02Nelson Riva                   0000000512417900000005124179          00586107680000000000100000000000000100000000000000000000437165750201610090204WNET 
02KARELIA  TORRES               0000000512419100000005124191          005861092500000000000734200000000000734200000000000000004371657522016100902046616 
02carlos RIZO PATRON            0000000512426900000005124269          005861106900000000000050000000000000050000000000000000004371657542016100902043031 
02JAIME PASTOR                  0000000512432500000005124325          005861121100000000000115100000000000115100000000000000004371657562016100902047895 
02miguel amaya magui¦o          0000000512436600000005124366          005861136200000000000300000000000000300000000000000000004371657582016100902045774 
02JAIME PASTOR                  0000000512442100000005124421          005861154000000000000115100000000000115100000000000000004371657602016100902040613 
02Bruno Monzon                  0000000512435300000005124353          005861159700000000000060000000000000060000000000000000004371657622016100902046761 
02Nelson Riva                   0000000512465500000005124655          00586122300000000000100000000000000100000000000000000000437165764201610090204WNET 
02christian paredes llontop     0000000512466900000005124669          005861230000000000000300000000000000300000000000000000004371657662016100902044781 
02HUMBERTO FALLA                0000000512454500000005124545          005861268900000000001577400000000001577400000000000000004371657682016100902047253 
02JOSE MARIA SANTISTEBAN ZURITA 0000000512455600000005124556          005861272500000000001010400000000001010400000000000000004371657702016100902046410 
02JENNY SIMONS                  0000000512465000000005124650          005861284300000000001526800000000001526800000000000000002061657722016100901015Q11 
02alfonso andree leon komori    0000000512508000000005125080          00586137060000000000014000000000000014000000000000000000437165774201610090204WNET 
02Nelson Riva                   0000000512513000000005125130          00586139260000000000100000000000000100000000000000000000437165776201610090204WNET 
02Luis Miguel Valderrama Castro 0000000512519700000005125197          005861416400000000000100000000000000100000000000000000004371657782016100902040923 
02Jay Summers                   0000000512596300000005125963          005861738400000000001600000000000001600000000000000000004371657802016100902047625 
02Jay Summers                   0000000512606400000005126064          005861746700000000001400000000000001400000000000000000004371657822016100902046957 
02Jay Summers                   0000000512611000000005126110          005861754200000000001550000000000001550000000000000000004371657842016100902044823 
02Jay Summers                   0000000512619100000005126191          005861762200000000001800000000000001800000000000000000004371657862016100902048143 
02FABRIZIO ROSALES              0000000511733400000005117334          005858111700000000001269600000000001269600000000000000004371656402016100702045866 
02JAIME PASTOR                  0000000511874700000005118747          005858126000000000000160900000000000160900000000000000004371656422016100702046974 
02Marco Espinoza                0000000511886200000005118862          00585814460000000000060000000000000060000000000000000000437165644201610080204WNET 
02JOSE MARIA SANTISTEBAN ZURITA 0000000511899600000005118996          005858219500000000001251400000000001251400000000000000004371656462016100802044254 
02kenyi simbron                 0000000511908500000005119085          005858310300000000000200000000000000200000000000000000004371656482016100802049531 
02JAIME PASTOR                  0000000511928500000005119285          005858445900000000000115100000000000115100000000000000004371656502016100802044042 
02Nelson Riva                   0000000511937500000005119375          00585849140000000000100000000000000100000000000000000000437165652201610080204WNET 
02LUIS PALOMINO                 0000000511934000000005119340          005858508300000000001163400000000001163400000000000000004371656542016100802044820 
02SEBASTIAN PALOMINO            0000000511936700000005119367          005858510800000000001246000000000001246000000000000000004371656562016100802043342 
02JAIME PASTOR                  0000000511957200000005119572          005858604600000000000115100000000000115100000000000000004371656582016100802046538 
02Christian De la CruZ Perez    0000000511983600000005119836          005858797700000000000360000000000000360000000000000000004371656602016100802047939 
02MICHAEL BALVIN                0000000511966300000005119663          005858901800000000001968600000000001968600000000000000004381656622016100801063509 
02Giselle Andrea Nakata Irey    0000000511993000000005119930          005858911500000000000500000000000000500000000000000000004371656642016100802043996 
02Bruno Krajnik                 0000000512653100000005126531          005861783100000000000400000000000000400000000000000000004371657882016101007045802 
02Nelson Riva                   0000000512661500000005126615          00586180870000000000100000000000000100000000000000000000437165790201610100204WNET 
02Luis Miguel Valderrama Castro 0000000512645300000005126453          005861942300000000000100000000000000100000000000000000004371657922016101002049260 
02javier vasquez                0000000512014000000005120140          00585916510000000000107810000000000107810000000000000000437165666201610080204WNET 
02Nelson Riva                   0000000512023100000005120231          00585918990000000000100000000000000100000000000000000000437165668201610080204WNET 
02Bruce ESPADIN MANOTUPA        0000000512024100000005120241          005859203500000000000130000000000000130000000000000000004371656702016100802044174 
02juan diego alegria            0000000512026000000005120260          005859215600000000000058000000000000058000000000000000004371656722016100802043990 
02arturo oyola quispe           0000000512058100000005120581          005859476100000000000100000000000000100000000000000000004371656742016100807048091 
02CESAR CHAVEZ                  0000000512072200000005120722          005859537800000000000400000000000000400000000000000000004371656762016100802047475 
02Luis Miguel Valderrama Castro 0000000512076600000005120766          005859565900000000000100000000000000100000000000000000004371656782016100802044573 
02wenceslao ochoa cuadros       0000000512075900000005120759          005859572300000000000300000000000000300000000000000000004371656802016100802041816 
02alfonso andree leon komori    0000000512093600000005120936          005859663200000000000150000000000000150000000000000000004371656822016100802046848 
02WILMA BARBOSA                 0000000512071600000005120716          005859670700000000001035800000000001035800000000000000002121656842016100801015W11 
02Jesus Bazan                   0000000512097900000005120979          005859687700000000000050000000000000050000000000000000004371656862016100802040803 
02daniel eudes hurtado cotrina  0000000512104800000005121048          005859712800000000000150000000000000150000000000000000004371656882016100802049891 
02ANGEL VALDERRAMA   VALDERRAMA 0000000512109400000005121094          005859768800000000002048200000000002048200000000000000004381656902016100801065029 
02giomar rojas                  0000000512121900000005121219          005859785900000000000100000000000000100000000000000000004371656922016100802040452 
02Luis Miguel Valderrama Castro 0000000512085100000005120851          005859806900000000000100000000000000100000000000000000004371656942016100802045156 
02Emanuel Cardenas              0000000512144800000005121448          005859901900000000002000000000000002000000000000000000004371656962016100807045675 
02LOYDA GONZALES                0000000512096900000005120969          005859926100000000002969600000000002969600000000000000002121656982016100801015W11 
02LUCY RUIZ                     0000000512103700000005121037          005859931100000000001638200000000001638200000000000000002121657002016100801015W11 
02JAIME PASTOR                  0000000512162000000005121620          005859973100000000000115100000000000115100000000000000004371657022016100802047084 
02Hector omar  Modragon palomino0000000512668100000005126681          005862149300000000001321400000000001321400000000000000001241657942016101002013G21 
02Roger Blademir  Jara Ccallo   0000000512667700000005126677          005862228200000000001507700000000001507700000000000000002281657962016101001016C25 
02ABNER SORIA                   0000000512684000000005126840          005862254400000000000932800000000000932800000000000000002121657982016101001015W1B 
02Giselle Andrea Nakata Irey    0000000512184300000005121843          005860097400000000000500000000000000500000000000000000004371657042016100802041509 
02JULIO CESAR SEDANO            0000000512183900000005121839          005860131600000000000799800000000000799800000000000000004381657062016100802065094 
02ANA KARINA GAMERO             0000000512183000000005121830          005860143400000000000799800000000000799800000000000000004381657082016100801060592 
02freed loza la rosa            0000000512211100000005122111          005860248600000000002010000000000002010000000000000000004371657102016100802040446 
02LENDIERR ESCUDERO             0000000512230000000005122300          005860452400000000003034800000000003034800000000000000002131657122016100801015X12 
02JOSE ESCUDERO                 0000000512234500000005122345          005860455200000000001517400000000001517400000000000000002131657142016100801015X12 
02ricardo roque peceros         0000000512252300000005122523          005860513100000000000500000000000000500000000000000000004371657162016100802049397 
02carlos RIZO PATRON            0000000512257700000005122577          005860552900000000000050000000000000050000000000000000004371657182016100802041334 
02giancarlos carbajal cuadros   0000000512254900000005122549          005860587900000000000127000000000000127000000000000000004371657202016100802040165 
02Bruno Monzon                  0000000512290300000005122903          005860600900000000000050000000000000050000000000000000004371657222016100802049859 
02jesus jose herrera obregon    0000000512296400000005122964          005860603800000000000200000000000000200000000000000000004371657242016100802049489 
02Alejandro Quispe              0000000512298900000005122989          005860606400000000000450000000000000450000000000000000004371657262016100907046895 
02SAUL CORONADO                 0000000512299200000005122992          005860607200000000001543900000000001543900000000000000004371657282016100902045585 
02Nelson Riva                   0000000512310700000005123107          00586061530000000000100000000000000100000000000000000000437165730201610090204WNET 
02HERALD MEYER                  0000000512316200000005123162          005860617400000000000860400000000000860400000000000000004371657322016100902041551 
02Nelson Riva                   0000000512344400000005123444          00586071980000000000100000000000000100000000000000000000437165734201610090204WNET 
02JAIRZINHO QUISPE              0000000512706200000005127062          005862508200000000001595400000000001595400000000000000002581658002016101001017611 
02milton gabriel urbina vargas  0000000512699500000005126995          005862568500000000000381400000000000381400000000000000003511658022016101001019R21 
02milton gabriel urbina vargas  0000000512730100000005127301          005862574200000000000084500000000000084500000000000000003511658042016101001019R21 
02MATEO CAMPOS BALDEON          0000000512719700000005127197          005862588100000000001865600000000001865600000000000000004371658062016101007044618 
02DIEGO QUIROZ                  0000000512724300000005127243          005862630500000000001035700000000001035700000000000000001901658082016101002015A27 
02Florentina  Ponce             0000000512699400000005126994          00586266450000000000095700000000000095700000000000000000827165810201610100101MZ14 
02yonel  Gallardo               0000000512692900000005126929          00586267060000000000136420000000000136420000000000000000827165812201610100101MZ14 
02jesus jose herrera obregon    0000000512746700000005127467          005862696900000000000300000000000000300000000000000000004371658142016101002049981 
02MICHELLE BOLANOS              0000000512734200000005127342          005862898000000000001140400000000001140400000000000000003041658162016101001018G24 
02CLAUDIA TUESTA                0000000512746400000005127464          005862898400000000002697400000000002697400000000000000001151658182016101002013723 
02SEGUNDO RENGIFO               0000000512765200000005127652          005863141200000000001284200000000001284200000000000000001171658202016101001013942 
02WILSON SALCEDO                0000000512768500000005127685          005863245600000000000906800000000000906800000000000000001841658222016101001015425 
02JOSE SHUPINGAHUA              0000000512768300000005127683          005863252900000000000906800000000000906800000000000000001841658242016101001015425 
02Silvia  Saldivar              0000000512766600000005127666          005863269500000000000734200000000000734200000000000000004381658262016101001067875 
02PERLA VASQUEZ                 0000000512756700000005127567          00586348760000000000064940000000000064940000000000000000477165828201610100101D912 
02MARIA GONZALES                0000000512715200000005127152          00586349260000000000064940000000000064940000000000000000477165830201610100101D912 
02BELEN VASQUEZ                 0000000512709000000005127090          00586349770000000000064940000000000064940000000000000000477165832201610100101D912 
02HERBERT HUAMAN                0000000512734000000005127340          00586351280000000000092100000000000092100000000000000000396165834201610100101B023 
02DANY VILLALTA SALAS           0000000512323700000005123237          005863550100000000002073000000000002073000000000000000003031658362016101001018F12 
02MIGUEL OCHOA C                0000000512808200000005128082          005863575200000000000200000000000000200000000000000000004371658382016101002047283 
02DANY ISIDRO VILLALTA SALAS    0000000512547800000005125478          005863576800000000001500800000000001500800000000000000003031658402016101001018F12 
02ADOLFO MELLO                  0000000512790600000005127906          005863585000000000000783600000000000783600000000000000003011658422016101001018D5C 
02JAMES ECHEVARRIA              0000000512752900000005127529          005863765300000000001939900000000001939900000000000000002671658442016101001017F54 
02PORFIRIO ZEGARRA              0000000512793200000005127932          005863780700000000002150400000000002150400000000000000000831658462016101002012B13 
02JOVANA ESPINOZA               0000000512667500000005126675          005863790700000000001116200000000001116200000000000000003101658482016101001018M37 
02zair vitron gutierrez         0000000512771400000005127714          005863851300000000001836300000000001836300000000000000001701658502016101001014Q22 
02Jorge Malca                   0000000512839200000005128392          005864068000000000000100000000000000100000000000000000004371658522016101002047546 
02miguel amaya magui¦o          0000000512841100000005128411          005864284800000000000500000000000000500000000000000000004371658542016101002042816 
02Nelson Riva                   0000000512783300000005127833          00586430710000000000100000000000000100000000000000000000437165856201610100204WNET 
02Maria  Justiniani             0000000512792000000005127920          005864325600000000001020900000000001020900000000000000002001658582016101001015K41 
02CESAR CHAVEZ                  0000000512870600000005128706          005864454500000000001000000000000001000000000000000000004371658602016101007046934 
02JAIME PAREDES                 0000000512664200000005126642          005864474900000000000906600000000000906600000000000000004381658622016101001069145 
02JULIO GABR PAZ  PINAT         0000000511762500000005117625          005864475500000000003100000000000003100000000000000000004371658642016101002040370 
02LITA BARTRA                   0000000512868300000005128683          005864600000000000001609800000000001609800000000000000004371658662016101002047475 
02Miguel Angel Mendez Lopez     0000000512883200000005128832          005864616200000000001000000000000001000000000000000000004371658682016101002042337 
02DORIS ELENA MARTINEZ DE VENEGA0000000512785000000005127850          005864705400000000000200000000000000200000000000000000002851658702016101001017X39 
02WALTHER MARATUECH PARODI      0000000512832000000005128320          00586471970000000000199480000000000199480000000000000000387165872201610100101AR25 
02JHONN ALEX ESPEJO LANDEO      0000000512758000000005127580          005864795600000000001352200000000001352200000000000000003241658742016101001019023 
02JULIO HINOSTROZA              0000000512721800000005127218          005864812100000000001116200000000001116200000000000000003141658762016101001018Q23 
02carlos RIZO PATRON            0000000512793400000005127934          005864817300000000000050000000000000050000000000000000004371658782016101002044150 
02MARDONIO  LAGUNA CAQUI        0000000512837000000005128370          00586486180000000000111370000000000111370000000000000000970165880201610100101QY11 
02Nelson Riva                   0000000512903900000005129039          00586490160000000000100000000000000100000000000000000000437165882201610100204WNET 
02ZELMIRA CUBA REBAZA           0000000512848300000005128483          005864911100000000001306100000000001306100000000000000002461658842016101002016U23 
02maria  latorre                0000000512759100000005127591          005864947300000000001828100000000001828100000000000000000831658862016101002012B11 
02Luis Miguel Valderrama Castro 0000000512907300000005129073          005864963400000000000100000000000000100000000000000000004371658882016101002042767 
02Lenon  Baca                   0000000512764900000005127649          005865008000000000001498600000000001498600000000000000002971658902016101001018923 
02JULIO CESAR  ROJAS ELESCANO   0000000512919200000005129192          005865114500000000002341200000000002341200000000000000004371658922016101002041065 
02Nelson Riva                   0000000512938200000005129382          00586534640000000000100000000000000100000000000000000000437165894201610100204WNET 
02Luis Miguel Valderrama Castro 0000000512940300000005129403          005865397700000000000100000000000000100000000000000000004371658962016101002044808 
02MARIA SOLEDAD ARANIBAR YRRARAZ0000000512825200000005128252          005865526600000000001651600000000001651600000000000000002001658982016101001015K47 
02FELICITA GUZMAN PEREZ         0000000512780700000005127807          005865593800000000000882400000000000882400000000000000002411659002016101002016P21 
02magaly  Guillén costas        0000000512909400000005129094          005865689200000000001020900000000001020900000000000000002001659022016101002015K41 
02SEGUNDO HERMOGENES ARAUJO CAMP0000000512935300000005129353          00586571270000000000494700000000000494700000000000000000733165904201610100101KD15 
02delcy  garcia                 0000000512929400000005129294          005865774100000000000846200000000000846200000000000000003061659062016101001018I31 
02Pelaya  Segura cuellar        0000000512930500000005129305          005865843300000000001361300000000001361300000000000000003201659082016101002018W23 
02HUMBERTO GOYCOCHEA            0000000512942600000005129426          005866151800000000006087400000000006087400000000000000004371659102016101002045217 
02JACOBI LIMACHE                0000000512951000000005129510          00586624460000000000230320000000000230320000000000000000939165912201610100101Q313 
02EDUARDO ALVAREZ REVILLA       0000000513007600000005130076          005866298300000000001782400000000001782400000000000000004371659142016101002044979 
02yomalli solange  meza rios    0000000512980100000005129801          005866328100000000000846200000000000846200000000000000002521659162016101001017019 
02Luis Miguel Valderrama Castro 0000000512999700000005129997          005866360900000000000100000000000000100000000000000000004371659182016101002040963 
02ALAN  JHON LEON               0000000512641500000005126415          005866416300000000001274100000000001274100000000000000001071659202016101002012Z23 
02HERNANDO TANTALEAN            0000000512993900000005129939          005866491400000000000669700000000000669700000000000000001391659222016101001013V29 
02JUAN MARTIN                   0000000513005600000005130056          005866595300000000000862000000000000862000000000000000004371659242016101002040068 
02CESAR GUEVARA ALBURQUEQUE     0000000512983800000005129838          005866613200000000003545400000000003545400000000000000004371659262016101002048803 
02PAZ  BARRIENTOS HERRERA       0000000512973700000005129737          005866694100000000000833500000000000833500000000000000002001659282016101001015K41 
02LUISA KATHERINE  PILCO PRADO  0000000512921700000005129217          00586679730000000000165280000000000165280000000000000000383165930201610100101AN22 
02FAVIO ORTEGA                  0000000512965600000005129656          005866798800000000001168800000000001168800000000000000004371659322016101002047908 
02JOSE ROJAS                    0000000512940500000005129405          005867138000000000000797700000000000797700000000000000002001659342016101001015K52 
02DIANA RICALDI                 0000000513057700000005130577          005867208000000000000823400000000000823400000000000000002121659362016101002015W11 
02MARNITH AREVALO               0000000513027800000005130278          005867320900000000001057200000000001057200000000000000003101659382016101001018M46 
02Sandro  Espinoza              0000000512985200000005129852          005867323700000000001590000000000001590000000000000000002031659402016101001015N13 
02JACKELINNE CARRANZA           0000000512810100000005128101          005867338700000000000860400000000000860400000000000000003041659422016101001018G23 
02FELIPE HERRERA                0000000513034700000005130347          005867348900000000001423700000000001423700000000000000004371659442016101002040191 
02AMUY VIAJES S.A.C.            0000000513068800000005130688          00586751820000000000178300000000000178300000000000000000591165946201610100101GF11 
02Francisco  Del Aguila         0000000512971600000005129716          005867655300000000001942000000000001942000000000000000003101659482016101001018M37 
02ALVARO QUIO                   0000000513056600000005130566          00586769710000000000062460000000000062460000000000000000477165950201610100101D911 
02TERESA CORNEJO                0000000513073700000005130737          005867720700000000000821200000000000821200000000000000004371659522016101002044362 
02ZENI DURAND                   0000000513076700000005130767          005867812700000000001151600000000001151600000000000000001801659542016101001015021 
02diego berrospi                0000000513091400000005130914          005867918600000000001000000000000001000000000000000000004371659562016101002040370 
02VICTOR HUARNIZ                0000000513090100000005130901          005868006200000000001449400000000001449400000000000000004371659582016101002049253 
02andres salaverry              0000000513061800000005130618          005868025700000000000100000000000000100000000000000000001251659602016101001013H23 
02francisco bueno               0000000513105700000005131057          005868223700000000000105000000000000105000000000000000004371659622016101002046996 
02SANDRA PAOLA  MICHI ARIRAMA   0000000513062600000005130626          005868379300000000000981500000000000981500000000000000004381659642016101001060833 
02JAVIER CHAVEZ ARRESE          0000000513089200000005130892          005868435800000000000899500000000000899500000000000000004371659662016101002048088 
02EDWARD ESTELA                 0000000512885900000005128859          005868516600000000001166200000000001166200000000000000004371659682016101002046482 
02Nelson Riva                   0000000513122800000005131228          00586856700000000000100000000000000100000000000000000000437165970201610100204WNET 
02BELTRAN LOZANO                0000000513108300000005131083          005868760600000000001452000000000001452000000000000000002131659722016101001015X12 
02JIMMY GUERRERO                0000000513147000000005131470          005869023700000000001140400000000001140400000000000000004371659742016101002041717 
02JOSMELL VERA MOLER            0000000513134800000005131348          005869442200000000000880900000000000880900000000000000004381659762016101001069953 
02SAMUEL GONZALES               0000000513158100000005131581          005869503000000000003297000000000003297000000000000000002121659782016101001015W1B 
02LUZMILA ARMAS                 0000000513160000000005131600          005869506800000000003156800000000003156800000000000000002121659802016101001015W1B 
02JUAN ALE                      0000000513082900000005130829          005869544000000000001018200000000001018200000000000000002061659822016101001015Q1B 
03000000172000000001801246000000001801246000000000000000                                                                                                
