07350010100000004263401              00000004263401                               20160517181945000000001509800000000000000       000000000009018780000000000   
07350010100000004272471              00000004272471                               20160517134331000000000910000000000000000       000000000004613230000000000   
07350010100000004343762              00000004343762                               20160517115344000000000910000000000000000       000000000002952360000000000   
07350010100000004348698              00000004348698 ANDREA RODRIGUEZ              20160517182557000000000299000000000000000       000000000000000000000000000   
07350010100000004351778              00000004351778 MARISA CAVERO                 20160517075418000000000890000000000000000       000000000000096570000000000   
07350010100000004352171              00000004352171 GINA MARIA VELASQUEZ BIAGGI   20160517115955000000000550000000000000000       000000000003048360000000000   
07350010100000004352715              00000004352715 PATRICK                       20160517105415000000000198000000000000000       000000000002030850000000000   
07350010100000004356254              00000004356254 ANA LUCIA MONTALVAN           20160517085205000000000249000000000000000       000000000000000000000000000   
07350010100000004357213              00000004357213 GABRIELA CRUZADO              20160517153000000000000329000000000000000       000000000006050300000000000   
07350010100000004358491              00000004358491 CECYBEL RAMIREZ VINCES RAMIREZ20160517111805000000001049000000000000000       000000000002397580000000000   
07350010100000004359569              00000004359569 RODRIGO JESUS VIEYRA SEMINARIO20160517170701000000000329000000000000000       000000000000028210000000000   
07350010100000004359661              00000004359661 ELIO VARGAS                   20160517160644000000001602000000000000000       000000000006612410000000000   
07350010100000004359779              00000004359779 BERTHA ROSA QUESADA           20160517094632000000001842000000000000000       000000000001058520000000000   
07350010100000004360668              00000004360668 DENNISE GALLEGOS              20160517112824000000003078000000000000000       000000000002562690000000000   
07350010100000004360874              00000004360874 JORGE LUIS MONTOYA            20160517063435000000001304000000000000000       000000000000048750000000000   
07350010100000004361514              00000004361514 EDGARD YOSHIO NAKASONE GUZMAN 20160517104157000000000890000000000000000       000000000001850810000000000   
07350010100000004361647              00000004361647 EDGARD YOSHIO NAKASONE GUZMAN 20160517104019000000000170000000000000000       000000000001826620000000000   
07350010100000004361973              00000004361973 MILAGROS GRANDA MENA          20160517200551000000000199000000000000000       000000000010294360000000000   
07350010100000004361988              00000004361988 IVAN CAR                      20160517173310000000000690000000000000000       000000000008145230000000000   
07350010100000004362035              00000004362035 JHONNY ANTONIO DURAND         20160517102856000000000604000000000000000       000000000000000000000000000   
07350010100000004362047              00000004362047 CARLA CHACON CAMACHO          20160517173618000000000217000000000000000       000000000008204080000000000   
07350010100000004362251              00000004362251 CARLA CHACON CAMACHO          20160517173750000000000206700000000000000       000000000008233260000000000   
07350010100000004362334              00000004362334 MARGIORY SOTO                 20160517204114000000000899000000000000000       000000000000023210000000000   
07350010100000004362936              00000004362936 DIANA ZAPATA APOLO            20160517124231000000001667000000000000000       000000000003690750000000000   
07350010100000004363211              00000004363211 MIRIAM GONZALEZ PALACIOS      20160517122002000000001604000000000000000       000000000003353150000000000   
07350010100000004363215              00000004363215                               20160517131632000000000761700000000000000       000000000000000000000000000   
07350010100000004363244              00000004363244 WENCESLAO FAGGIONI            20160517163609000000000490000000000000000       000000000007098540000000000   
07350010100000004363864              00000004363864 JESUS INONAN                  20160517142358000000000939900000000000000       000000000005179200000000000   
07350010100000004363876              00000004363876 MIGUEL EMILIO CHOY PUN        20160517102724000000008480000000000000000       000000000001630330000000000   
07350010100000004364130              00000004364130 ANGIE PILINCO                 20160517123854000000003868000000000000000       000000000003637410000000000   
07350010100000004364258              00000004364258 ESTRELLA GUIZADO              20160517125222000000000690000000000000000       000000000003841750000000000   
07350010100000004364261              00000004364261 NINO RONALD CASTILLO          20160517124824000000001499000000000000000       000000000000044510000000000   
07350010100000004364670              00000004364670 SHIRLEY VALLENAS BUENO        20160517090925000000000445000000000000000       000000000000625710000000000   
07350010100000004364714              00000004364714 ERNESTO ALEJANDRO QUIROZ      20160517193336000000003054000000000000000       000000000009971220000000000   
07350010100000004364753              00000004364753 EDWIN ORDUNA DONAYRE          20160517173052000000001314200000000000000       000000000008100560000000000   
07350010100000004364789              00000004364789 YVETTE SARELLA NOLTE PARDO FIG20160517153933000000000399000000000000000       000000000006190090000000000   
07350010100000004364945              00000004364945 PATRICIA PASMINO VASQUEZ      20160517101316000000000243300000000000000       000000000001427450000000000   
07350010100000004365062              00000004365062 CARLOS VILCA                  20160517101736000000002326000000000000000       000000000000034720000000000   
07350010100000004365113              00000004365113 FABIOLA CANO AGUILAR          20160517132621000000015480000000000000000       000000000004354570000000000   
07350010100000004365152              00000004365152 TANYA ROCHA                   20160517092740000000001218000000000000000       000000000000830470000000000   
07350010100000004365412              00000004365412 ROCIO MARTINEZ SN             20160517121556000000000750000000000000000       000000000003292410000000000   
07350010100000004365445              00000004365445                               20160517134401000000000910000000000000000       000000000004621020000000000   
07350010100000004365456              00000004365456 JOHN PIERO ROJAS              20160517102751000000001699900000000000000       000000000000097750000000000   
07350010100000004365730              00000004365730 WALTER AMBROSIO CASTILLO      20160517171306000000000399000000000000000       000000000007755180000000000   
07350010100000004365747              00000004365747 ROSARIO CRISTABEL QUINTANA SAN20160517191252000000001209000000000000000       000000000000000000000000000   
07350010100000004365873              00000004365873 ANA VERONICA CASTRO TORRES    20160517121221000000017982000000000000000       000000000003241180000000000   
07350010100000004365987              00000004365987 BAROOCH JOHNSON TORRES ALEJAND20160517154231000000000500000000000000000       000000000006235740000000000   
07350010100000004365996              00000004365996 USUARIO NUEVO                 20160517105256000000000200000000000000000       000000000000000000000000000   
07350010100000004366061              00000004366061 ELVIRA CUCULI CRUZ FRIAS      20160517101330000000003000000000000000000       000000000001430510000000000   
07350010100000004366082              00000004366082 LUIS HERNAN MAMANI            20160517161824000000000186000000000000000       000000000006804690000000000   
07350010100000004366409              00000004366409 FREDDY LOAYZA                 20160517103020000000001628000000000000000       000000000000090190000000000   
07350010100000004366428              00000004366428 CHRISTIAN GIOVANNY OCAMPO ALVA20160517092427000000001000000000000000000       000000000000791140000000000   
07350010100000004366444              00000004366444 LUIS ALBERTO SANCHEZ NINO     20160517191831000000004280000000000000000       000000000009809590000000000   
07350010100000004366472              00000004366472 TATIANA GUICHARD              20160517074138000000007839000000000000000       000000000000088970000000000   
07350010100000004366555              00000004366555 ADA GABRIELA QUISPE           20160517165241000000000819000000000000000       000000000000034960000000000   
07350010100000004366556              00000004366556 MEDIC SALUD SYMBIOSIS GROUP CO20160517095329000000000250000000000000000       000000000001153950000000000   
07350010100000004366632              00000004366632 HENRY BRUNO DEJO              20160517114754000000000939000000000000000       000000000002862220000000000   
07350010100000004366845              00000004366845 FRANCO CHUMACERO VICENTE      20160517183059000000008140000000000000000       000000000009198110000000000   
07350010100000004366854              00000004366854 JHANN6662HOTMAILCOM           20160517143758000000001500000000000000000       000000000005359750000000000   
07350010100000004367068              00000004367068 TEDYMAS123HOTMAILCOM          20160517175045000000000750000000000000000       000000000008481590000000000   
07350010100000004367095              00000004367095 GABRIEL GONZALES              20160517174804000000000846000000000000000       000000000000000000000000000   
07350010100000004367123              00000004367123 GABRIEL GONZALES              20160517174705000000000837000000000000000       000000000000000000000000000   
07350010100000004367150              00000004367150 CONSUELO SILVA                20160517160938000000000390000000000000000       000000000000000000000000000   
07350010100000004367187              00000004367187 PEDRO JESUS BRAVO ESPANA      20160517105557000000001399700000000000000       000000000002057020000000000   
07350010100000004367206              00000004367206 GIOVANNI GIOVANNI GIOVANNI    20160517161800000000000150000000000000000       000000000006797750000000000   
07350010100000004367272              00000004367272 DOMINIQUE DEVROUT BELLIDO     20160517114638000000000448000000000000000       000000000002842240000000000   
07350010100000004367417              00000004367417 PABLO CESAR SALAZAR VEGA      20160517150915000000001640000000000000000       000000000005767270000000000   
07350010100000004367512              00000004367512 MARCELO MEJIA                 20160517110002000000000690000000000000000       000000000002118920000000000   
07350010100000004367625              00000004367625 SUSAN LA ROSA RUIZ            20160517140744000000002399200000000000000       000000000004958720000000000   
07350010100000004367643              00000004367643 NEISVER                       20160517052207000000000399000000000000000       000000000000005270000000000   
07350010100000004367667              00000004367667 WALTER IVAN MEREGILDO SILVERIO20160517124728000000004100000000000000000       000000000000072480000000000   
07350010100000004367809              00000004367809 CESAR IGOR ZAPATA MARGARY     20160517013621000000001194000000000000000       000000000000069810000000000   
07350010100000004367917              00000004367917 OSCAR ENRIQUE MONTERO MACO    20160517053908000000000400000000000000000       000000000000015480000000000   
07350010100000004367956              00000004367956 JAIME JESUS TENORIO YAURI     20160517155413000000002445500000000000000       000000000000078440000000000   
07350010100000004367999              00000004367999                               20160517111231000000000920000000000000000       000000000002311380000000000   
07350010100000004368026              00000004368026 JESUS PAREJA                  20160517071516000000000300000000000000000       000000000000073160000000000   
07350010100000004368037              00000004368037 SILVIA CHACON BYRNE           20160517072817000000000650000000000000000       000000000000080970000000000   
07350010100000004368102              00000004368102 ALFREDO LLACZA CASTRO         20160517075928000000020000000000000000000       000000000000099680000000000   
07350010100000004368167              00000004368167 ELIO URETA                    20160517110120000000008795000000000000000       000000000002139000000000000   
07350010100000004368178              00000004368178 LUIS AUGUSTO ANTONIO TORRES OL20160517082724000000000990000000000000000       000000000000041830000000000   
07350010100000004368228              00000004368228 MIRELLA FARJE RAMIREZ         20160517083749000000000899000000000000000       000000000000022690000000000   
07350010100000004368231              00000004368231 LUIS AUGUSTO ANTONIO TORRES OL20160517083944000000000399000000000000000       000000000000065030000000000   
07350010100000004368264              00000004368264 ALLISON NEYRA                 20160517090707000000000300000000000000000       000000000000601550000000000   
07350010100000004368292              00000004368292 JIAMPERUHOTMAILCOM            20160517085541000000001500000000000000000       000000000000000000000000000   
07350010100000004368314              00000004368314 RUTH                          20160517094042000000000690000000000000000       000000000000984100000000000   
07350010100000004368322              00000004368322 DEYVYORLANDO11HOTMAILCOM      20160517085941000000000750000000000000000       000000000000072400000000000   
07350010100000004368323              00000004368323 FELIX ALFREDO CARMONA         20160517191918000000000170000000000000000       000000000009819060000000000   
07350010100000004368332              00000004368332 FIORELA GOMEZ VILLACREZ       20160517185649000000000929500000000000000       000000000009555520000000000   
07350010100000004368338              00000004368338 FANGQI ZHANG                  20160517100004000000001200000000000000000       000000000001240340000000000   
07350010100000004368347              00000004368347 DEYVYORLANDO11HOTMAILCOM      20160517090304000000000150000000000000000       000000000000079270000000000   
07350010100000004368378              00000004368378 USUARIO NUEVO                 20160517090837000000001000000000000000000       000000000000049260000000000   
07350010100000004368424              00000004368424 JUANAMEDICALHOTMAILCOM        20160517174624000000000880000000000000000       000000000008395820000000000   
07350010100000004368517              00000004368517 LUIS COLLANTES                20160517092850000000001805000000000000000       000000000000053300000000000   
07350010100000004368598              00000004368598 MIGUEL ENRIQUE NORABUENA DIAZ 20160517093443000000000400000000000000000       000000000000000000000000000   
07350010100000004368613              00000004368613 JOSE FERNANDEZ MALUQUIS       20160517093319000000000400000000000000000       000000000000046500000000000   
07350010100000004368654              00000004368654 CENTRO DE PROMOC DE LA EQUIDAD20160517113437000000000850000000000000000       000000000002658850000000000   
07350010100000004368668              00000004368668 DEADZEROALEJOGMAILCOM         20160517094101000000000324700000000000000       000000000000060610000000000   
07350010100000004368691              00000004368691 ODIN DENYS HUAYNALAYA CORONEL 20160517094236000000000500000000000000000       000000000000085420000000000   
07350010100000004368692              00000004368692 JFLAORSA01GMAILCOM            20160517102616000000000150000000000000000       000000000001613870000000000   
07350010100000004368739              00000004368739 MARIA DEL CARMEN QUEVEDO      20160517095154000000001393000000000000000       000000000000017390000000000   
07350010100000004368749              00000004368749 OSHITOPENDEJOHOTMAILCOM       20160517102125000000000323700000000000000       000000000000084850000000000   
07350010100000004368766              00000004368766 MARCO GALVEZ                  20160517100038000000001000000000000000000       000000000000053610000000000   
07350010100000004368795              00000004368795 YSELA JHENY PICON             20160517130736000000001107000000000000000       000000000000000000000000000   
07350010100000004368862              00000004368862 CARLOS BUSTAMANTE CADENILLAS  20160517101147000000002250000000000000000       000000000000079070000000000   
07350010100000004368895              00000004368895 USUARIO NUEVO                 20160517101126000000010000000000000000000       000000000000011420000000000   
07350010100000004368927              00000004368927 SILVIA CHACON BYRNE           20160517101404000000000650000000000000000       000000000000080440000000000   
07350010100000004368944              00000004368944 YI ETXEHANDIA                 20160517114951000000000590000000000000000       000000000002891310000000000   
07350010100000004368993              00000004368993 EMERSON MEDINA PRIETTO        20160517113007000000000300000000000000000       000000000002588550000000000   
07350010100000004368995              00000004368995 DEBORA CALLUPE DEBORA CALLUPE 20160517144933000000000360000000000000000       000000000005508220000000000   
07350010100000004369006              00000004369006 KIOXHITOHOTMAILCOM            20160517102229000000000325000000000000000       000000000000085490000000000   
07350010100000004369053              00000004369053 GIUSEPPE STALIN ASCARATE ZUAZO20160517103110000000000200000000000000000       000000000000090700000000000   
07350010100000004369066              00000004369066 ELVIRA CUCULI CRUZ FRIAS      20160517104111000000002000000000000000000       000000000001838610000000000   
07350010100000004369092              00000004369092 USUARIO NUEVO                 20160517104109000000000200000000000000000       000000000000000000000000000   
07350010100000004369159              00000004369159 LEYENDARCKHOTMAILCOM          20160517104240000000000325000000000000000       000000000000085110000000000   
07350010100000004369170              00000004369170 TAMVI228GMAILCOM              20160517111327000000000324900000000000000       000000000002325450000000000   
07350010100000004369215              00000004369215 RONALD GIANCARLO AUQUI CASTR C20160517134645000000011098000000000000000       000000000004660550000000000   
07350010100000004369243              00000004369243 MIJAIL ULISES CASTILLO TICLLAC20160517105741000000001553000000000000000       000000000000093340000000000   
07350010100000004369275              00000004369275 LUISITO15SHOTMAILCOM          20160517111247000000000324600000000000000       000000000002315070000000000   
07350010100000004369283              00000004369283 BRANDO2829HOTMAILCOM          20160517125249000000000325000000000000000       000000000003848540000000000   
07350010100000004369295              00000004369295 USUARIO NUEVO                 20160517111234000000000200000000000000000       000000000000000000000000000   
07350010100000004369313              00000004369313 EDER JONEL AGREDA NEGREROS    20160517110505000000000867000000000000000       000000000000008330000000000   
07350010100000004369315              00000004369315 EITAN BENZAQUEN GRYNSPAN      20160517112400000000000590000000000000000       000000000000001220000000000   
07350010100000004369345              00000004369345 USUARIO NUEVO                 20160517111612000000000900000000000000000       000000000000062630000000000   
07350010100000004369349              00000004369349 DAVID IBHAR II OLORTEGUI SAAVE20160517112719000000000400000000000000000       000000000000024390000000000   
07350010100000004369351              00000004369351 PIETROCAFFELLIGMAILCOM        20160517150650000000000325000000000000000       000000000005733840000000000   
07350010100000004369359              00000004369359 LILIAN GRUTER LILIAN GRUTER   20160517115304000000000150000000000000000       000000000002941140000000000   
07350010100000004369380              00000004369380 COLEGIO QUIMICO FARMACEUTICO  20160517111429000000001170000000000000000       000000000000000000000000000   
07350010100000004369403              00000004369403 LILIAN GRUTER LILIAN GRUTER   20160517115350000000000150000000000000000       000000000002953780000000000   
07350010100000004369410              00000004369410 MIGUEL ANGEL RAMOS MOSCAIZA   20160517112046000000001407000000000000000       000000000000020460000000000   
07350010100000004369420              00000004369420 NATALIA ASENJO FUENTES        20160517113133000000003000000000000000000       000000000002610630000000000   
07350010100000004369429              00000004369429 LILIAN GRUTER LILIAN GRUTER   20160517115452000000000150000000000000000       000000000002970280000000000   
07350010100000004369433              00000004369433 MIRIAM ELIZABETH QUISPE TELLO 20160517111756000000000450000000000000000       000000000000018760000000000   
07350010100000004369474              00000004369474 LUZ VIOLETA AHUMADA           20160517113205000000003000000000000000000       000000000002618240000000000   
07350010100000004369480              00000004369480 MARINO AYUQUE RODRIGUEZ       20160517114808000000001230000000000000000       000000000002865700000000000   
07350010100000004369506              00000004369506 FENIX1030HOTMAILCOM           20160517112714000000001500000000000000000       000000000000024340000000000   
07350010100000004369511              00000004369511 FRANARTU2000HOTMAILCOM        20160517115002000000000750000000000000000       000000000000038020000000000   
07350010100000004369531              00000004369531 FRANARTU2000HOTMAILCOM        20160517115053000000000150000000000000000       000000000000038530000000000   
07350010100000004369535              00000004369535 SILVIA CHACON BYRNE           20160517113146000000000650000000000000000       000000000000027060000000000   
07350010100000004369549              00000004369549 CANAZAS24HOTMAILCOM           20160517113234000000000300000000000000000       000000000000027540000000000   
07350010100000004369573              00000004369573 MARIA FERNANDA TORRES DELGADO 20160517113916000000001275000000000000000       000000000000080800000000000   
07350010100000004369630              00000004369630 IRMA VELARDE                  20160517114627000000001320000000000000000       000000000000039960000000000   
07350010100000004369653              00000004369653 HAVET CCARHUAYPINA            20160517120112000000001700000000000000000       000000000000000000000000000   
07350010100000004369667              00000004369667 EDUARDO BALTA                 20160517130037000000001500000000000000000       000000000003965260000000000   
07350010100000004369673              00000004369673 XIMENA MOSCOSO BOCANGEL       20160517125438000000000199000000000000000       000000000000028380000000000   
07350010100000004369687              00000004369687 USUARIO NUEVO                 20160517114857000000001000000000000000000       000000000000037370000000000   
07350010100000004369697              00000004369697 JUANCARLOSPEREZQUISPE21HOTMAIL20160517120632000000000150000000000000000       000000000003151290000000000   
07350010100000004369747              00000004369747 RICHARD JUAN CAJUSOL          20160517120302000000002392000000000000000       000000000000033050000000000   
07350010100000004369751              00000004369751 EDWIN CACHO                   20160517140610000000000190000000000000000       000000000004935640000000000   
07350010100000004369763              00000004369763 USUARIO NUEVO                 20160517120509000000001000000000000000000       000000000003128690000000000   
07350010100000004369811              00000004369811 JONATHAN QUIROZ               20160517120536000000001810000000000000000       000000000000047360000000000   
07350010100000004369870              00000004369870 VISUAL INTERNATIONAL SING SAC 20160517123417000000000650000000000000000       000000000003567970000000000   
07350010100000004369921              00000004369921 SAMANTHA SULAY GUERRERO BENITE20160517121927000000001100000000000000000       000000000000020680000000000   
07350010100000004369982              00000004369982 CARLOS VILCA                  20160517173451000000001068600000000000000       000000000000044940000000000   
07350010100000004370028              00000004370028 DIANA NEYRA NEYRA             20160517133522000000000150000000000000000       000000000000074040000000000   
07350010100000004370092              00000004370092 STEPHANO PILPINTO ROJAS       20160517135902000000000300000000000000000       000000000000015420000000000   
07350010100000004370113              00000004370113 RENZO REATEGUI PEREYRA        20160517132852000000001263000000000000000       000000000004394520000000000   
07350010100000004370122              00000004370122 VICTOR ZAVALETA POLO          20160517140234000000001334200000000000000       000000000004885100000000000   
07350010100000004370150              00000004370150 LUZ TARRILLO DELGADO          20160517125453000000000200000000000000000       000000000000092680000000000   
07350010100000004370192              00000004370192 BUURODRIGOHOTMAILCOM          20160517125402000000000325000000000000000       000000000000076420000000000   
07350010100000004370201              00000004370201 MIGUEL ANGEL CIEZA PORTILLO   20160517140205000000000350000000000000000       000000000004877970000000000   
07350010100000004370203              00000004370203 LUIS LABERTO MONTENEGRO ALTAMI20160517131004000000009880000000000000000       000000000004106250000000000   
07350010100000004370226              00000004370226 CARLOS                        20160517141533000000001250000000000000000       000000000005062010000000000   
07350010100000004370263              00000004370263 USUARIO NUEVO                 20160517130430000000001000000000000000000       000000000000082700000000000   
07350010100000004370313              00000004370313 JHONEL RAMIREZ LEYVA          20160517175525000000002440000000000000000       000000000008572230000000000   
07350010100000004370391              00000004370391 ASOCIACION EDUCATIVA EDUCAR AS20160517161526000000000250000000000000000       000000000006752560000000000   
07350010100000004370407              00000004370407 KARINA LEONOR REANO RUIZ      20160517135812000000000500000000000000000       000000000004822740000000000   
07350010100000004370422              00000004370422 LUIS MENACHO                  20160517173634000000000329000000000000000       000000000008209400000000000   
07350010100000004370423              00000004370423 BRAYAN KENNETH HADAHAM RODRIGU20160517132801000000000165000000000000000       000000000000019330000000000   
07350010100000004370428              00000004370428 THECAR12HOTMAILCOM            20160517164405000000000750000000000000000       000000000000000000000000000   
07350010100000004370451              00000004370451 THECAR12HOTMAILCOM            20160517164506000000000300000000000000000       000000000000000000000000000   
07350010100000004370483              00000004370483 DLLNUMBERSGMAILCOM            20160517134031000000000750000000000000000       000000000000085850000000000   
07350010100000004370488              00000004370488 CIRIUS13OUTLOOKCOM            20160517133317000000000325000000000000000       000000000000006670000000000   
07350010100000004370543              00000004370543 MARIA FERNANDA KARINA PONCE RE20160517135853000000000500000000000000000       000000000004832530000000000   
07350010100000004370551              00000004370551 CESAR ALAIN CANOVA            20160517135611000000001081300000000000000       000000000000049240000000000   
07350010100000004370590              00000004370590 CESAR FERNANDO SALDANA CRUZADO20160517135522000000001280000000000000000       000000000000034950000000000   
07350010100000004370638              00000004370638 DLLNUMBERSGMAILCOM            20160517135720000000000150000000000000000       000000000000043420000000000   
07350010100000004370671              00000004370671 WARSPERUGMAILCOM              20160517140734000000000325000000000000000       000000000000077810000000000   
07350010100000004370716              00000004370716 JENIFER                       20160517161415000000000329000000000000000       000000000000000000000000000   
07350010100000004370752              00000004370752 AMARU JOAQUIN MOLLEDA CASTILLO20160517143844000000000230000000000000000       000000000005369730000000000   
07350010100000004370769              00000004370769 WORDONER356GMAILCOM           20160517141809000000000300000000000000000       000000000000016290000000000   
07350010100000004370775              00000004370775 DEIVIDCRISTIANHOTMAILCOM      20160517143912000000000750000000000000000       000000000005376120000000000   
07350010100000004370792              00000004370792                               20160517193734000000000910000000000000000       000000000000000000000000000   
07350010100000004370821              00000004370821 SSAGITTARIOJFHOTMAILCOM       20160517151928000000000325000000000000000       000000000005909230000000000   
07350010100000004370842              00000004370842 LESLIE HORNA HORNA            20160517142714000000000150000000000000000       000000000000032340000000000   
07350010100000004370870              00000004370870 DMSOCL13GMAILCOM              20160517170037000000000325000000000000000       000000000007527630000000000   
07350010100000004370897              00000004370897 BBCH12HOTMAILCOM              20160517162914000000000300000000000000000       000000000006982520000000000   
07350010100000004370918              00000004370918 FANNY CHOQUEHUANCA            20160517144051000000015021400000000000000       000000000000038030000000000   
07350010100000004370959              00000004370959 USUARIO NUEVO                 20160517144409000000035000000000000000000       000000000000090710000000000   
07350010100000004370984              00000004370984 MARITZA ROSSANA VASQUEZ MONZON20160517144814000000000599500000000000000       000000000000050750000000000   
07350010100000004370996              00000004370996 MARCO ANTONIO LOPEZ CERVANTES 20160517145601000000000850000000000000000       000000000000008200000000000   
07350010100000004371004              00000004371004 SLAYERVIP12HOTMAILCOM         20160517145042000000000324300000000000000       000000000000057000000000000   
07350010100000004371008              00000004371008 JESHU020GMAILCOM              20160517170456000000000325000000000000000       000000000007603120000000000   
07350010100000004371034              00000004371034 ANGELA ESTRADA                20160517150256000000001126800000000000000       000000000000099840000000000   
07350010100000004371056              00000004371056 PIERRE GRONERTH               20160517152729000000000330000000000000000       000000000000000000000000000   
07350010100000004371099              00000004371099 JHONARIASLOVEHOTMAILCOM       20160517185228000000000300000000000000000       000000000000091480000000000   
07350010100000004371120              00000004371120 JEREMYMIMICHAHOTMAILCOM       20160517170538000000000325000000000000000       000000000007615840000000000   
07350010100000004371147              00000004371147 MARIA LILY KIDONIS MARCHENA   20160517155556000000011380000000000000000       000000000006441980000000000   
07350010100000004371163              00000004371163 MYLEN AREVALO AREVALO         20160517161018000000000445000000000000000       000000000006668300000000000   
07350010100000004371166              00000004371166 AMELIA CAVERO                 20160517163423000000000900000000000000000       000000000000000000000000000   
07350010100000004371176              00000004371176 CARLOS                        20160517152239000000000505000000000000000       000000000000007180000000000   
07350010100000004371180              00000004371180 RODRIGO FORT                  20160517152005000000001500000000000000000       000000000000069050000000000   
07350010100000004371195              00000004371195 SALVADOR LARCO                20160517151931000000000450000000000000000       000000000005909800000000000   
07350010100000004371224              00000004371224 DUILIO ROJAS                  20160517164015000000001215000000000000000       000000000007169910000000000   
07350010100000004371234              00000004371234 BRISA PEREZ                   20160517154117000000000650000000000000000       000000000000007180000000000   
07350010100000004371261              00000004371261 GABOGYRHOTMAILCOM             20160517153123000000000325000000000000000       000000000000070830000000000   
07350010100000004371268              00000004371268 EVA TAPIA NULL                20160517154355000000000299000000000000000       000000000000034680000000000   
07350010100000004371282              00000004371282 LUIS PENAFIEL SN              20160517153653000000000250000000000000000       000000000006149580000000000   
07350010100000004371310              00000004371310 TOMAS JOSE NALVARTE ABAD      20160517164047000000005000000000000000000       000000000007179380000000000   
07350010100000004371318              00000004371318                               20160517155429000000001509800000000000000       000000000000000000000000000   
07350010100000004371331              00000004371331 DENYS                         20160517153822000000000250000000000000000       000000000000075020000000000   
07350010100000004371381              00000004371381 GARYING21GMAILCOM             20160517154503000000000324700000000000000       000000000000032400000000000   
07350010100000004371431              00000004371431 RODRIGO ALVA CARMELINO        20160517155358000000000499000000000000000       000000000000093280000000000   
07350010100000004371440              00000004371440 MYLEN AREVALO AREVALO         20160517161103000000000445000000000000000       000000000006680840000000000   
07350010100000004371441              00000004371441 ANTHONY KEN LEUD SAKIHARA     20160517155407000000001043000000000000000       000000000000084470000000000   
07350010100000004371452              00000004371452 GYMHAROLDHOTMAILCOM           20160517164443000000000300000000000000000       000000000000000000000000000   
07350010100000004371460              00000004371460 NEXO4578GMAILCOM              20160517155700000000001500000000000000000       000000000000086200000000000   
07350010100000004371465              00000004371465 RODRIGO ALVA CARMELINO        20160517155759000000000499000000000000000       000000000000093290000000000   
07350010100000004371473              00000004371473 OTTO ALBERTO HEREDIA ALVAREZ  20160517162410000000002490000000000000000       000000000006900300000000000   
07350010100000004371474              00000004371474 GYMHAROLDHOTMAILCOM           20160517164624000000000150000000000000000       000000000000000000000000000   
07350010100000004371486              00000004371486 RODRIGOVERAS98HOTMAILCOM      20160517160853000000000599700000000000000       000000000000000000000000000   
07350010100000004371487              00000004371487 RAFAEL ORDINOLA PEDEMONTE     20160517163529000000000499000000000000000       000000000000000000000000000   
07350010100000004371498              00000004371498 ANTHONY KEN LEUD SAKIHARA     20160517160542000000002280000000000000000       000000000000091420000000000   
07350010100000004371554              00000004371554 MEDSTYLE PERUANA SAC MEDSTYLE 20160517162608000000000250000000000000000       000000000006931790000000000   
07350010100000004371605              00000004371605 CRISTHIAN ALBORNOZ ABARCA     20160517163025000000010490000000000000000       000000000000001500000000000   
07350010100000004371637              00000004371637 ANNE CRUZ                     20160517161902000000000890000000000000000       000000000000087730000000000   
07350010100000004371645              00000004371645 ANA PLEJO                     20160517171756000000001200000000000000000       000000000007844630000000000   
07350010100000004371653              00000004371653 CARLOS CHICOMA                20160517173924000000000469000000000000000       000000000008263030000000000   
07350010100000004371657              00000004371657 DERRY QUINTANA                20160517162216000000007044000000000000000       000000000000044240000000000   
07350010100000004371676              00000004371676 FELIX RIVERA                  20160517162906000000001220000000000000000       000000000000050060000000000   
07350010100000004371677              00000004371677 USUARIO NUEVO                 20160517162343000000001000000000000000000       000000000000002230000000000   
07350010100000004371700              00000004371700 BETZABEL LUJAN                20160517175434000000001010000000000000000       000000000008555600000000000   
07350010100000004371729              00000004371729 JOSE AGUSTIN CALLIRGOS RIOS   20160517192609000000005000000000000000000       000000000009892960000000000   
07350010100000004371749              00000004371749 MAYRA NUNEZ                   20160517165834000000001000000000000000000       000000000007491460000000000   
07350010100000004371768              00000004371768 SHADOW066HOTMAILCOM           20160517170736000000000750000000000000000       000000000007651730000000000   
07350010100000004371770              00000004371770 USUARIO NUEVO                 20160517163828000000000300000000000000000       000000000000011080000000000   
07350010100000004371781              00000004371781 CISKO777OUTLOOKCOM            20160517170111000000000325000000000000000       000000000007537670000000000   
07350010100000004371811              00000004371811 SHADOW066HOTMAILCOM           20160517170818000000000150000000000000000       000000000007665570000000000   
07350010100000004371828              00000004371828 ANDERSEN CASTRO               20160517164344000000001399900000000000000       000000000000014240000000000   
07350010100000004371832              00000004371832 JUANJOSEMENDOZA775GMAILCOM    20160517165312000000000325000000000000000       000000000000000000000000000   
07350010100000004371844              00000004371844 ARMANDO ZENTENO QUINTO        20160517175740000000000300000000000000000       000000000000000000000000000   
07350010100000004371864              00000004371864 DONYCESAR2009HOTMAILCOM       20160517165229000000000300000000000000000       000000000000000000000000000   
07350010100000004371868              00000004371868 LOCOYMANIATICOGMAILCOM        20160517164856000000000750000000000000000       000000000000017360000000000   
07350010100000004371897              00000004371897 CANAZAS24HOTMAILCOM           20160517165259000000000150000000000000000       000000000000019780000000000   
07350010100000004371900              00000004371900 CRISTIAN15TKHOTMAILCOM        20160517165408000000000317800000000000000       000000000000085670000000000   
07350010100000004371904              00000004371904 LOCOYMANIATICOGMAILCOM        20160517165137000000000150000000000000000       000000000000018970000000000   
07350010100000004371964              00000004371964 OSWALDO LECCA SN              20160517171344000000000250000000000000000       000000000007767620000000000   
07350010100000004372028              00000004372028 RUBEN DELGADO CUENTAS         20160517171019000000001996000000000000000       000000000000039050000000000   
07350010100000004372111              00000004372111 MIREYA PADILLA PADILLA        20160517171825000000000150000000000000000       000000000000035050000000000   
07350010100000004372174              00000004372174 ANGIE SAY                     20160517190512000000001998000000000000000       000000000009657390000000000   
07350010100000004372259              00000004372259 CARLOS PATINO CARLOS PATINO   20160517175132000000000150000000000000000       000000000008498380000000000   
07350010100000004372284              00000004372284 SUSSAN KELLY                  20160517175949000000007200000000000000000       000000000008655480000000000   
07350010100000004372317              00000004372317 CHUPACABRAS3850OUTLOOKES      20160517175057000000001500000000000000000       000000000000054570000000000   
07350010100000004372373              00000004372373 ERICKAS15HOTMAILCOM           20160517175431000000000325000000000000000       000000000000056710000000000   
07350010100000004372441              00000004372441 DARKWYZARDHOTMAILCOM          20160517182324000000000762300000000000000       000000000000018220000000000   
07350010100000004372467              00000004372467 SIGFRIDLIVEHOTMAILCOM         20160517181109000000000319700000000000000       000000000000066690000000000   
07350010100000004372479              00000004372479 JORGE LUIS ANDIA CAVIDES      20160517184804000000004980000000000000000       000000000009439140000000000   
07350010100000004372516              00000004372516 RODRIGO ALVA CARMELINO        20160517182308000000000499000000000000000       000000000000009260000000000   
07350010100000004372549              00000004372549 ERNESTO AMPUERO GAMARRA       20160517182845000000003896800000000000000       000000000000077250000000000   
07350010100000004372550              00000004372550 DARKWYZARDHOTMAILCOM          20160517182745000000000300000000000000000       000000000000040810000000000   
07350010100000004372712              00000004372712 JJOOHHAANNMMAATTEEUUSSGMAILCOM20160517185638000000000150000000000000000       000000000000093980000000000   
07350010100000004372714              00000004372714 KPOORFN2GMAILCOM              20160517185451000000000750000000000000000       000000000000092910000000000   
07350010100000004372744              00000004372744 MELISA                        20160517190456000000000329000000000000000       000000000000098960000000000   
07350010100000004372757              00000004372757 JOSMAR123456OUTLOOKCOM        20160517190318000000000150000000000000000       000000000000097980000000000   
07350010100000004372764              00000004372764 JOSMAR123456OUTLOOKCOM        20160517190342000000000300000000000000000       000000000000098220000000000   
07350010100000004372781              00000004372781 ALVARO BURGA                  20160517190454000000000500000000000000000       000000000000098940000000000   
07350010100000004372783              00000004372783 KURTPALOMINOGMAILCOM          20160517191247000000000325000000000000000       000000000000040670000000000   
07350010100000004372814              00000004372814 OMARI3HOTMAILCOM              20160517201213000000000200000000000000000       000000000000000000000000000   
07350010100000004372825              00000004372825 RODRIGO ALVA CARMELINO        20160517191408000000000499000000000000000       000000000000063540000000000   
07350010100000004372857              00000004372857 MICHAEL AYLLON GARCIA         20160517192203000000000300000000000000000       000000000000009230000000000   
07350010100000004372866              00000004372866 SEBASTIAN LACA                20160517195605000000000900000000000000000       000000000000029650000000000   
07350010100000004372878              00000004372878 47745349XDGMAILCOM            20160517193451000000000325000000000000000       000000000000087160000000000   
07350010100000004372883              00000004372883 LORD MARTIN SILVA LEYVA       20160517202701000000001198000000000000000       000000000010466390000000000   
07350010100000004372887              00000004372887 COCO2226HOTMAILCOM            20160517192826000000000300000000000000000       000000000000013060000000000   
07350010100000004372908              00000004372908 WALTER JAVIER NOZOE TOVAR     20160517201513000000001100000000000000000       000000000010374450000000000   
07350010100000004372929              00000004372929 ESMIGOOOOLHOTMAILCOM          20160517194303000000000150000000000000000       000000000000007020000000000   
07350010100000004372963              00000004372963 TOMAS PINTO APAZA             20160517200629000000000700000000000000000       000000000010300640000000000   
07350010100000004372989              00000004372989 VIVIANA ALVARADO              20160517204057000000001800000000000000000       000000000010567780000000000   
07350010100000004372996              00000004372996 SMITH3112HOTMAILCOM           20160517202252000000000300000000000000000       000000000000045720000000000   
07350010100000004373000              00000004373000 RODRIGO ALVA CARMELINO        20160517195322000000000499000000000000000       000000000000036480000000000   
07350010100000004373020              00000004373020 SMITH3112HOTMAILCOM           20160517202315000000000300000000000000000       000000000000045950000000000   
07350010100000004373031              00000004373031 FABRIZIO CONDORI CANO         20160517201034000000000200000000000000000       000000000000000000000000000   
07350010100000004373096              00000004373096 SHRNCCRSGMAILCOM              20160517200621000000000323000000000000000       000000000000035810000000000   
07350010100000004373222              00000004373222 RODRIGOBAILON69HOTMAILCOM     20160517203149000000000300000000000000000       000000000000051090000000000   
07350010100000004373248              00000004373248 MAYKOLELLOBOHOTMAILCOM        20160517203950000000000150000000000000000       000000000000055900000000000   
07350010100000004373264              00000004373264                               20160517203920000000000600000000000000000       000000000000025260000000000   
07350010100000004373281              00000004373281 CRISTIAN15TKHOTMAILCOM        20160517204257000000000325000000000000000       000000000000030650000000000   
07350010100000004373319              00000004373319 GETZUTBOHOTMAILCOM            20160517205211000000000880000000000000000       000000000000049600000000000   
07350010100000004373353              00000004373353 YURI RAMON RUIDIAS PEREDA     20160517210807000000002000000000000000000       000000000000005980000000000   
07350010100000004373366              00000004373366 JOSEFAP6OUTLOOKCOM            20160517210227000000000879700000000000000       000000000000070440000000000   
07350010100000004373372              00000004373372 MICHAEL AYLLON GARCIA         20160517210650000000000300000000000000000       000000000000072100000000000   
07350010100000004373406              00000004373406 CARLOS EDUARDO DE LA CRUZ CHOC20160517211739000000000200000000000000000       000000000000059720000000000   
07350010100000004373491              00000004373491 JZKANHEGMAILCOM               20160517213401000000000300000000000000000       000000000000072300000000000   
07350010100000004373498              00000004373498 CAMILA CORZO                  20160517230931000000000490000000000000000       000000000000045710000000000   
07350010100000004373535              00000004373535 USUARIO NUEVO                 20160517214214000000001000000000000000000       000000000000093340000000000   
07350010100000004373536              00000004373536 CLAUDIA MARIA CUESTA VILLAR   20160517214537000000000800000000000000000       000000000000095370000000000   
07350010100000004373634              00000004373634 CHRISTIAN ALFREDO             20160517221525000000000600000000000000000       000000000000075120000000000   
07350010100000004373711              00000004373711 KATTYA GALEAS                 20160517225112000000002018600000000000000       000000000000041590000000000   
07350010100000004373713              00000004373713 ALFREDO LLACZA CASTRO         20160517223344000000030000000000000000000       000000000000024240000000000   
07350010100000004373804              00000004373804 HEBER DENNY TITO MAMANI       20160517231343000000001616200000000000000       000000000000098870000000000   
07350010100000004373807              00000004373807 JOAQUIN FOSSA                 20160517230636000000000862600000000000000       000000000000043960000000000   
07350010100000004373814              00000004373814 ROBERTO FLORES GARCIA         20160517230356000000000041500000000000000       000000000000042360000000000   
07350011000000004345963              00000004345963 JIMMY CHIROQUE RAMOS          20160517133424000000001000000000000000000       000000000004478220000000000   
07350011000000004366814              00000004366814 MARCOS FLORENCIO AQUINO GARCIA20160517105103000000015920000000000000000       000000000001982670000000000   
07350011000000004367702              00000004367702 LUIS CARLOS CUMPA             20160517090403000000001000000000000000000       000000000000038430000000000   
07350011000000004367732              00000004367732 JORGE ENRIQUE LOCATELLI       20160517022335000000000409000000000000000       000000000000098150000000000   
07350011000000004367930              00000004367930 FREDY ANCOCALLO               20160517074155000000000986400000000000000       000000000000026870000000000   
07350011000000004367961              00000004367961 GUIDO JUAREZ                  20160517063405000000000100000000000000000       000000000000048450000000000   
07350011000000004367966              00000004367966 WILLY FULCA MURAYARI          20160517091028000000001046800000000000000       000000000000637880000000000   
07350011000000004367970              00000004367970 CARLOS TAYPE                  20160517102748000000001104400000000000000       000000000001636760000000000   
07350011000000004368127              00000004368127 BECY PINEDO                   20160517111951000000000814800000000000000       000000000002425530000000000   
07350011000000004368230              00000004368230 JOSE CARRASCO MINAYA          20160517083711000000000600000000000000000       000000000000078050000000000   
07350011000000004368288              00000004368288 ANDRES PINTO VELA             20160517121036000000001330400000000000000       000000000003215370000000000   
07350011000000004368295              00000004368295 ARLET ROJAS ADVINCULA         20160517101127000000003990400000000000000       000000000001402220000000000   
07350011000000004368333              00000004368333 KELLY MARLENY FONG CORDOVA    20160517110134000000001199800000000000000       000000000002142530000000000   
07350011000000004368547              00000004368547 GABRIEL TANANTA               20160517113735000000000906800000000000000       000000000002705590000000000   
07350011000000004368738              00000004368738 LEONARDO ABAD                 20160517120825000000002157000000000000000       000000000003181060000000000   
07350011000000004368743              00000004368743 VALERIA ROSPIGLIOSI           20160517112321000000001166300000000000000       000000000002481780000000000   
07350011000000004368750              00000004368750 ALON MELAMED                  20160517104956000000001393500000000000000       000000000001966020000000000   
07350011000000004368756              00000004368756 CARLA SOTO                    20160517152146000000000856600000000000000       000000000005939610000000000   
07350011000000004368842              00000004368842 ADRIAN CHAVEZ                 20160517132037000000001385300000000000000       000000000004269060000000000   
07350011000000004368882              00000004368882 YSIDORA LEON                  20160517153535000000000724500000000000000       000000000006129840000000000   
07350011000000004368883              00000004368883 JORGE PACO                    20160517112817000000001588900000000000000       000000000000078810000000000   
07350011000000004368903              00000004368903 LEONOR TICONA TICONA          20160517110206000000000779400000000000000       000000000002151090000000000   
07350011000000004369001              00000004369001 LUIS FERNANDO LOPEZ SANCHEZ   20160517121952000000001500000000000000000       000000000003350410000000000   
07350011000000004369022              00000004369022 GERARDO AVALOS                20160517121310000000000300000000000000000       000000000000051900000000000   
07350011000000004369059              00000004369059 BEATRIZ BEDOYA                20160517113456000000000933900000000000000       000000000002663650000000000   
07350011000000004369072              00000004369072 MIGUEL ARGANDONA              20160517112246000000001487200000000000000       000000000002471610000000000   
07350011000000004369125              00000004369125 KATHERINE MARLENE ROMERO      20160517130110000000001458400000000000000       000000000003973420000000000   
07350011000000004369365              00000004369365 NILDA FRANCISCA PAJA LARICO   20160517140721000000001231500000000000000       000000000004953040000000000   
07350011000000004369434              00000004369434 KETTY GOMEZ                   20160517130440000000001257800000000000000       000000000004026240000000000   
07350011000000004369479              00000004369479 JUAN MIGUEL CASTRO ARANCIBIA  20160517120211000000001057200000000000000       000000000003084120000000000   
07350011000000004369551              00000004369551 ORLANDO MOYA DELGADO          20160517113417000000000150000000000000000       000000000000028570000000000   
07350011000000004369632              00000004369632 JORGE PAREDES                 20160517163806000000001187000000000000000       000000000007132180000000000   
07350011000000004369644              00000004369644 CARAUNO CANALES               20160517143950000000000724500000000000000       000000000005383980000000000   
07350011000000004369662              00000004369662 WALTER GOYZUETA               20160517123415000000002841900000000000000       000000000003567410000000000   
07350011000000004369675              00000004369675 MARIA DEL CARMEN RENGIFO      20160517121620000000000868400000000000000       000000000003298430000000000   
07350011000000004369679              00000004369679 CARLOS GUILLERMO VASQUEZ JAVES20160517140510000000000100000000000000000       000000000000019100000000000   
07350011000000004369690              00000004369690 PEDRO CHAHUARA                20160517115551000000000050000000000000000       000000000000017160000000000   
07350011000000004369957              00000004369957 MIGUEL CATALAN SAAVEDRA       20160517124900000000000788600000000000000       000000000003790540000000000   
07350011000000004370036              00000004370036 HENRY QUISPE                  20160517170850000000000779400000000000000       000000000007676230000000000   
07350011000000004370067              00000004370067 SABINA LOAYZA HURTADO         20160517144040000000001508200000000000000       000000000005394250000000000   
07350011000000004370085              00000004370085 JOSE RAMIREZ                  20160517124117000000000350000000000000000       000000000000030370000000000   
07350011000000004370098              00000004370098 BORIS EDSON NIETO VENTURA     20160517133419000000001630400000000000000       000000000004477060000000000   
07350011000000004370123              00000004370123 ELIZABETH CORCINO             20160517154300000000001997800000000000000       000000000006243020000000000   
07350011000000004370127              00000004370127 ANDY PEDRO ALBERTO ESPINO VEJA20160517124550000000000100000000000000000       000000000003741610000000000   
07350011000000004370212              00000004370212 LISBETH FIGUEROA              20160517133100000000000767600000000000000       000000000004427940000000000   
07350011000000004370222              00000004370222 BRAULIO RODRIGUEZ             20160517130645000000002455600000000000000       000000000000087970000000000   
07350011000000004370262              00000004370262 EDWIN RODRIGUEZ BRICENO       20160517130150000000000200000000000000000       000000000000081100000000000   
07350011000000004370265              00000004370265 ALEJANDRA VERA                20160517173549000000000856600000000000000       000000000000044160000000000   
07350011000000004370292              00000004370292 JORGE EDUARDO MORI VALENZUELA 20160517144754000000002714600000000000000       000000000005486740000000000   
07350011000000004370296              00000004370296 JHASMANY OLIVERA              20160517152024000000000998900000000000000       000000000005921550000000000   
07350011000000004370343              00000004370343 JORGE ENRIQUE LOCATELLI       20160517131208000000000242400000000000000       000000000000087280000000000   
07350011000000004370344              00000004370344 MICAELA CANDIA                20160517181619000000001936400000000000000       000000000008959460000000000   
07350011000000004370404              00000004370404 LUIS ALBERTO PIRCA            20160517132743000000001458400000000000000       000000000004375770000000000   
07350011000000004370510              00000004370510 JHONY DIAZ                    20160517164051000000001340400000000000000       000000000007180650000000000   
07350011000000004370577              00000004370577 TITO ROLANDO BAILON SALGADO   20160517164037000000001216000000000000000       000000000007176320000000000   
07350011000000004370584              00000004370584 VICTORIA QUISPE               20160517143717000000002469800000000000000       000000000000000000000000000   
07350011000000004370589              00000004370589 JAVIER RICARDO LAZARO RUIZ    20160517135006000000010000000000000000000       000000000000010060000000000   
07350011000000004370619              00000004370619 JOSE ROMERO                   20160517135620000000000100000000000000000       000000000000013800000000000   
07350011000000004370653              00000004370653 SOLANGE CARRION               20160517151848000000000780600000000000000       000000000005900330000000000   
07350011000000004370733              00000004370733 VICTOR RODRIGUEZ              20160517143710000000001143600000000000000       000000000005348700000000000   
07350011000000004370743              00000004370743 LUIS HUATAY ILMAN             20160517144143000000000788600000000000000       000000000000041030000000000   
07350011000000004370748              00000004370748 JOSE VILELA                   20160517174222000000000724500000000000000       000000000008319020000000000   
07350011000000004370771              00000004370771 RAFAEL CASTRO                 20160517145442000000000693600000000000000       000000000005575550000000000   
07350011000000004370773              00000004370773 JOSE ANAYA                    20160517153257000000001410400000000000000       000000000006091880000000000   
07350011000000004370809              00000004370809 JONEL CARMEN                  20160517144945000000001381200000000000000       000000000005511120000000000   
07350011000000004370824              00000004370824 EDWIN RODRIGUEZ BRICENO       20160517142420000000000087500000000000000       000000000000030600000000000   
07350011000000004370859              00000004370859 ROSA SANDOVAL                 20160517143903000000000724500000000000000       000000000005373920000000000   
07350011000000004370892              00000004370892 SARA LEQUERNAQUE              20160517143807000000000724500000000000000       000000000005361950000000000   
07350011000000004370909              00000004370909 JULIO SOLORZANO SUGAHARA      20160517143628000000000801200000000000000       000000000000055920000000000   
07350011000000004370994              00000004370994 GIOVANA MORA VARGAS           20160517152256000000000844200000000000000       000000000005955280000000000   
07350011000000004371093              00000004371093 MICHAEL PAREDES               20160517155950000000000761600000000000000       000000000006501780000000000   
07350011000000004371368              00000004371368 ANTHONY QUISPECAHUANA COAGUILA20160517210317000000001170400000000000000       000000000010706200000000000   
07350011000000004371413              00000004371413 ADRIAN WILLIAM FERRO DAMIAN   20160517160805000000001258900000000000000       000000000006633120000000000   
07350011000000004371442              00000004371442 SANDRA VERGONCINI             20160517163848000000000060000000000000000       000000000007144470000000000   
07350011000000004371575              00000004371575 JOHNNY PINEDO                 20160517165317000000001151600000000000000       000000000007401860000000000   
07350011000000004371683              00000004371683 BRADLEY ALARCON               20160517175131000000001032900000000000000       000000000008498100000000000   
07350011000000004371692              00000004371692 RAFAEL VELA                   20160517175434000000001143600000000000000       000000000008555480000000000   
07350011000000004371738              00000004371738 GUILLERMO MACLEAN             20160517184428000000003225000000000000000       000000000009388610000000000   
07350011000000004371809              00000004371809 CESAR ELIAS                   20160517181225000000001239200000000000000       000000000008890490000000000   
07350011000000004371861              00000004371861 DAVID SANDOVAL                20160517175327000000001104400000000000000       000000000008534430000000000   
07350011000000004371863              00000004371863 JORGE RAFAEL BECERRA ROJAS    20160517173823000000003625000000000000000       000000000008243850000000000   
07350011000000004371873              00000004371873 LUIS ALBERTO BLANCO           20160517202328000000002360800000000000000       000000000010440710000000000   
07350011000000004371925              00000004371925 JULIO NUNEZ                   20160517202139000000001060400000000000000       000000000010426760000000000   
07350011000000004371977              00000004371977 BRUNO HUANCA                  20160517173102000000000844900000000000000       000000000008103960000000000   
07350011000000004372014              00000004372014 RAUL MENDOZA ESPINOZA         20160517181702000000000959700000000000000       000000000008971900000000000   
07350011000000004372027              00000004372027 JULIO ROJAS                   20160517201943000000001060400000000000000       000000000010410930000000000   
07350011000000004372065              00000004372065 EMILIA CASTILLO               20160517181719000000001210300000000000000       000000000008976610000000000   
07350011000000004372094              00000004372094 CAJAMARCA TRAVEL SRLTDA       20160517175206000000002835400000000000000       000000000008509740000000000   
07350011000000004372097              00000004372097 RANDY LLOCLLA                 20160517201746000000001060400000000000000       000000000010395640000000000   
07350011000000004372123              00000004372123 AUBER GONZALES                20160517173230000000000939200000000000000       000000000008131790000000000   
07350011000000004372229              00000004372229 CARLOS MENDOZA                20160517194719000000000934000000000000000       000000000010115530000000000   
07350011000000004372285              00000004372285 ANGEL OJEDA                   20160517175823000000001257800000000000000       000000000008629170000000000   
07350011000000004372291              00000004372291 AMILCAR GONZALES              20160517202512000000001180400000000000000       000000000010453960000000000   
07350011000000004372335              00000004372335 MARIQUITA REATEGUI ALVARADO   20160517182356000000002916800000000000000       000000000009087520000000000   
07350011000000004372408              00000004372408 CEPAVITOURS AGD VIAJES Y TURRE20160517182417000000010667300000000000000       000000000009093340000000000   
07350011000000004372463              00000004372463 ANA CHILPA                    20160517201224000000000974600000000000000       000000000010351280000000000   
07350011000000004372558              00000004372558 HUGO LORA                     20160517200150000000001275500000000000000       000000000010255990000000000   
07350011000000004372576              00000004372576 KARLA MARIELA CHIPANA CHILPA  20160517201421000000000986400000000000000       000000000010367370000000000   
07350011000000004372623              00000004372623 SOFIA MONTERO                 20160517200732000000001045400000000000000       000000000010310240000000000   
07350011000000004372642              00000004372642 JORGE ENRIQUE LOCATELLI       20160517184022000000000393900000000000000       000000000000084220000000000   
07350011000000004372677              00000004372677 INDIRA VANESSA LEON           20160517201447000000000998900000000000000       000000000010370810000000000   
07350011000000004372691              00000004372691 GIANCARLO ESTELA              20160517192334000000001817800000000000000       000000000009866270000000000   
07350011000000004372828              00000004372828 VICTORIA CASTILLO             20160517202345000000000974600000000000000       000000000010442630000000000   
07350011000000004372837              00000004372837 JAVIER RICARDO LAZARO RUIZ    20160517192646000000005000000000000000000       000000000000012060000000000   
07350011000000004372871              00000004372871 LUIS CARLOS CUMPA             20160517192457000000010000000000000000000       000000000000010970000000000   
07350011000000004372916              00000004372916 YESSELA EDITH AMADO MARTEL    20160517194353000000000693600000000000000       000000000010081120000000000   
07350011000000004372985              00000004372985 MAURELIO CHAVEZ               20160517200518000000000856600000000000000       000000000010289190000000000   
07350011000000004373058              00000004373058 ELVA SADITH CAYAO CHAVEZ      20160517203116000000001577200000000000000       000000000010498430000000000   
07350011000000004373083              00000004373083 NILTON VEGAS GARCIA           20160517205308000000003071000000000000000       000000000010645890000000000   
07350011000000004373128              00000004373128 ANGEL PEREZ                   20160517204745000000000880900000000000000       000000000010612670000000000   
07350011000000004373152              00000004373152 JORGE ENRIQUE LOCATELLI       20160517201534000000000242400000000000000       000000000000041340000000000   
07350011000000004373182              00000004373182 ERICK VELASQUEZ               20160517202758000000000050000000000000000       000000000000029320000000000   
07350011000000004373183              00000004373183 SOLEDAD CHUQUI QUISPE SOLEDAD 20160517210235000000003995600000000000000       000000000010702040000000000   
07350011000000004373228              00000004373228 NESTOR ALVAREZ                20160517211347000000003034800000000000000       000000000000076270000000000   
07350011000000004373355              00000004373355 ANGEL JESUS REYES RIVADENEYRA 20160517210115000000000200000000000000000       000000000000068750000000000   
07350011000000004373471              00000004373471 JAIME HUAHUASONCO             20160517223537000000000856600000000000000       000000000000025370000000000   
