07350010100000005890612              00000005890612                               20170307094935000000001199900000000000000       000000000001080760000000000   
07350010100000005934857              00000005934857 VICTOR AVILA                  20170307205642000000000020000000000000000       000000000000082010000000000   
07350010100000005954610              00000005954610                               20170307183259000000001199900000000000000       000000000000095790000000000   
07350010100000005955403              00000005955403                               20170307164746000000000600000000000000000       000000000007434710000000000   
07350010100000005955626              00000005955626                               20170307170031000000000600000000000000000       000000000007654550000000000   
07350010100000005961598              00000005961598                               20170307115043000000001199900000000000000       000000000000054420000000000   
07350010100000005963979              00000005963979 NANCY ZAPATA RONDON           20170307110253000000001116000000000000000       000000000002196430000000000   
07350010100000005964687              00000005964687 LUIS BELTRAN NORIEGA PEREA    20170307130505000000000400000000000000000       000000000004207700000000000   
07350010100000005974211              00000005974211                               20170307174723000000001199900000000000000       000000000008569480000000000   
07350010100000005975836              00000005975836 ANTONELLA ANTONELLA ANTONELLA 20170307151540000000013000000000000000000       000000000006010290000000000   
07350010100000005978145              00000005978145                               20170307114939000000000108000000000000000       000000000000000000000000000   
07350010100000005978560              00000005978560                               20170307174952000000001199900000000000000       000000000008621020000000000   
07350010100000005980060              00000005980060 ELIASQHOTMAILCOM              20170307141409000000000750000000000000000       000000000000000000000000000   
07350010100000005980086              00000005980086 ELIASQHOTMAILCOM              20170307141418000000000300000000000000000       000000000000000000000000000   
07350010100000005980682              00000005980682 HUGO PANTOJA                  20170307144938000000001800000000000000000       000000000005673570000000000   
07350010100000005982353              00000005982353 LOURDES ALEGRIA               20170307175336000000000100000000000000000       000000000008695830000000000   
07350010100000005983144              00000005983144                               20170307110805000000001800000000000000000       000000000002283320000000000   
07350010100000005985146              00000005985146                               20170307173844000000000134400000000000000       000000000000000000000000000   
07350010100000005986994              00000005986994 DIDASCALIO SAN JOSE           20170307182402000000000500000000000000000       000000000000000000000000000   
07350010100000005987796              00000005987796 HILARION HUAMAN               20170307182417000000000790000000000000000       000000000000090570000000000   
07350010100000005990285              00000005990285 IVAN CATACORA ACEVEDO CATACORA20170307150650000000000500000000000000000       000000000005895490000000000   
07350010100000005990862              00000005990862                               20170307173721000000000153000000000000000       000000000000000000000000000   
07350010100000005992523              00000005992523 ULISES FLORES                 20170307180947000000000490000000000000000       000000000009015510000000000   
07350010100000005992605              00000005992605 ULISES                        20170307180857000000000790000000000000000       000000000008999700000000000   
07350010100000005992654              00000005992654                               20170307193818000000001199900000000000000       000000000000000000000000000   
07350010100000005993083              00000005993083                               20170307121404000000000600000000000000000       000000000003395890000000000   
07350010100000005993148              00000005993148 AGUEDA MUNANTE                20170307120239000000000670000000000000000       000000000003204850000000000   
07350010100000005993215              00000005993215                               20170307174137000000001199900000000000000       000000000008454720000000000   
07350010100000005993369              00000005993369                               20170307101818000000001800000000000000000       000000000000098980000000000   
07350010100000005995878              00000005995878                               20170307171723000000003876000000000000000       000000000007969670000000000   
07350010100000005995965              00000005995965 JHONNY JORGE CORDOVA LOPEZ    20170307150228000000002110000000000000000       000000000005839060000000000   
07350010100000005995984              00000005995984 DIEGO RODRIGUEZ               20170307102358000000000500000000000000000       000000000001587930000000000   
07350010100000005996174              00000005996174 VANGUARDIA AUTOMOTRIZ SAC VANL20170307113452000000000885000000000000000       000000000002745370000000000   
07350010100000005997076              00000005997076 FIBRAS MARINAS                20170307103930000000001354600000000000000       000000000001824850000000000   
07350010100000005997082              00000005997082 ROSA KAMIKAWACHI              20170307153545000000000180000000000000000       000000000006278280000000000   
07350010100000005997215              00000005997215 ANA CASTILLO VILCHEZ          20170307100822000000000150000000000000000       000000000001352360000000000   
07350010100000005997587              00000005997587 LOURDES ALEGRIA               20170307175353000000000420000000000000000       000000000008701320000000000   
07350010100000005997817              00000005997817 JUAN ELIUD RAMOS TORREJON     20170307172111000000000349000000000000000       000000000008043690000000000   
07350010100000005997972              00000005997972 RONALD LAVERIANO HUARANGA     20170307124201000000016990000000000000000       000000000003850800000000000   
07350010100000005997999              00000005997999 GIOVANNA ALVARADO             20170307182434000000000349000000000000000       000000000009285540000000000   
07350010100000005998161              00000005998161 INVERSIONES HANSON SAC CASINO 20170307113811000000000885000000000000000       000000000002799710000000000   
07350010100000005998234              00000005998234 ARLE                          20170307112215000000001200000000000000000       000000000002530660000000000   
07350010100000005998290              00000005998290 MARYON LILIBETH MUNOZ ARRIETA 20170307201119000000001800000000000000000       000000000000054790000000000   
07350010100000005998303              00000005998303 ALEXEI MIJAIL MELGAR LIBAQUE  20170307101149000000002000000000000000000       000000000000095090000000000   
07350010100000005998318              00000005998318 GRUPO SUARZ SAC ANDREA SUARZ C20170307100711000000000269000000000000000       000000000001333150000000000   
07350010100000005998365              00000005998365 IGOR ELOY VELA                20170307135315000000000318000000000000000       000000000004920190000000000   
07350010100000005998655              00000005998655 VENTAS                        20170307115211000000008000000000000000000       000000000003027770000000000   
07350010100000005998858              00000005998858 ALDO EDUARDO HUAMAN           20170307180705000000006900000000000000000       000000000008962520000000000   
07350010100000005998907              00000005998907 CELINDA FLORES GOMEZ          20170307165930000000000220000000000000000       000000000007637080000000000   
07350010100000005998957              00000005998957                               20170307095404000000001199900000000000000       000000000000000000000000000   
07350010100000005999093              00000005999093 DALITH PINEDO                 20170307114204000000003500000000000000000       000000000002864720000000000   
07350010100000005999199              00000005999199 YADIRA TANIA CARPIO           20170307112434000000005900000000000000000       000000000002569330000000000   
07350010100000005999363              00000005999363 JORGE ELEODORO COELLO MALDONAD20170307105422000000002490000000000000000       000000000002058450000000000   
07350010100000005999425              00000005999425 ALFREDO CHOLAN CABANILLAS     20170307084739000000000250000000000000000       000000000000044590000000000   
07350010100000005999527              00000005999527 JABIN JABIN                   20170307152706000000001889500000000000000       000000000006165080000000000   
07350010100000005999540              00000005999540 GABRIELA PICO                 20170307141654000000013800000000000000000       000000000005241740000000000   
07350010100000005999597              00000005999597 ISAAC DUHAMEL CASTILLO        20170307091943000000013800000000000000000       000000000000063820000000000   
07350010100000005999678              00000005999678 ROLANDO ROBLES GIRALDO        20170307065616000000000990000000000000000       000000000000077760000000000   
07350010100000005999747              00000005999747 ALEXANMAX26HOTMAILCOM         20170307070136000000000300000000000000000       000000000000080960000000000   
07350010100000005999785              00000005999785 JOSE LUIS SUASNABAR           20170307145902000000004425000000000000000       000000000005796680000000000   
07350010100000005999790              00000005999790 STEEV ROJAS YAPO              20170307110040000000000150000000000000000       000000000002158360000000000   
07350010100000005999861              00000005999861 FIORELLA VANESSA ALLAUCA      20170307185701000000005900000000000000000       000000000009791670000000000   
07350010100000005999924              00000005999924 CARLOS EDUARDO HERNANDEZ RODRI20170307113030000000001000000000000000000       000000000002671500000000000   
07350010100000006000159              00000006000159 MALEBA S MALEBA S             20170307090356000000058014400000000000000       000000000000054350000000000   
07350010100000006000171              00000006000171 JADIRA VIRU LUCHO             20170307145413000000000536000000000000000       000000000000064530000000000   
07350010100000006000269              00000006000269 OMAR ESCOBAR UBARNES          20170307145343000000000688200000000000000       000000000000064230000000000   
07350010100000006000324              00000006000324 ALESSIA DEL PILAR RENGIFO VASQ20170307113839000000000090000000000000000       000000000002808500000000000   
07350010100000006000526              00000006000526                               20170307180018000000001110000000000000000       000000000008828210000000000   
07350010100000006000811              00000006000811                               20170307152415000000001199900000000000000       000000000006126050000000000   
07350010100000006000974              00000006000974 CARNEN MARIA CARNEIRO NULL    20170307131124000000001599000000000000000       000000000004304720000000000   
07350010100000006001028              00000006001028 OPTIMIZACION Y REINGENIERIA EM20170307095258000000000885000000000000000       000000000000000000000000000   
07350010100000006001099              00000006001099 COBALION3001HOTMAILCOM        20170307203137000000000089500000000000000       000000000000000000000000000   
07350010100000006001219              00000006001219 DUVERN VERAMENDI              20170307090327000000001000000000000000000       000000000000054060000000000   
07350010100000006001334              00000006001334 DAYOLETH LUCERO PEREIRA YANEZ 20170307203134000000000649500000000000000       000000000000000000000000000   
07350010100000006001348              00000006001348                               20170307165444000000000600000000000000000       000000000000000000000000000   
07350010100000006001520              00000006001520 GUILLERMO LAOS                20170307072407000000000330000000000000000       000000000000094470000000000   
07350010100000006001541              00000006001541 FERNANDO JIMENEZ              20170307015657000000001000000000000000000       000000000000098160000000000   
07350010100000006001651              00000006001651 BATMANEWAEQWEHOTMAILCOM       20170307070023000000000150000000000000000       000000000000080230000000000   
07350010100000006001695              00000006001695 JULIO ANSELMO RIVERA LOYOLA   20170307013103000000000800000000000000000       000000000000082630000000000   
07350010100000006001732              00000006001732 FERNANDO JIMENEZ              20170307121345000000000500000000000000000       000000000000068250000000000   
07350010100000006001843              00000006001843                               20170307115014000000000600000000000000000       000000000002996280000000000   
07350010100000006001869              00000006001869 ANA CECILIA ARROYO DORREGARAY 20170307085207000000000970000000000000000       000000000000047270000000000   
07350010100000006001959              00000006001959 AITZA RIOJA PINCHI            20170307164105000000000200000000000000000       000000000007318910000000000   
07350010100000006001993              00000006001993 FRANKLIN PLASENCIA AMAYA      20170307065005000000001000000000000000000       000000000000074050000000000   
07350010100000006002015              00000006002015 CHRISTIAN YURI POMA MARROQUIN 20170307070226000000000400000000000000000       000000000000081450000000000   
07350010100000006002049              00000006002049                               20170307072253000000000123000000000000000       000000000000093730000000000   
07350010100000006002117              00000006002117 RONAR DELGADO OBLITAS         20170307091514000000001200000000000000000       000000000000660820000000000   
07350010100000006002118              00000006002118 ROGER PAREDES                 20170307075223000000000050000000000000000       000000000000011430000000000   
07350010100000006002122              00000006002122 EDUARDO MANUEL                20170307075310000000000500000000000000000       000000000000011900000000000   
07350010100000006002128              00000006002128 DENINSONGPGMAILCOM            20170307075805000000000300000000000000000       000000000000014840000000000   
07350010100000006002130              00000006002130 JORGE DEIVIS                  20170307091602000000001200000000000000000       000000000000670090000000000   
07350010100000006002131              00000006002131 MARILUZ                       20170307124429000000000990000000000000000       000000000003889840000000000   
07350010100000006002147              00000006002147 MARCO CHIPOCO ESPINOZA        20170307081147000000001000000000000000000       000000000000023060000000000   
07350010100000006002162              00000006002162 GUILLERMO LAOS                20170307080809000000000270000000000000000       000000000000020880000000000   
07350010100000006002166              00000006002166 INVERSIONES 1311 EIRL FRUTA LO20170307101106000000001097100000000000000       000000000000000000000000000   
07350010100000006002207              00000006002207 MARIELA AGUILAR ORBEZO        20170307082533000000000900000000000000000       000000000000031330000000000   
07350010100000006002252              00000006002252 FIORELA NAIVA BERMUDEZ OTORI  20170307083423000000000600000000000000000       000000000000036620000000000   
07350010100000006002304              00000006002304 JACKELINE                     20170307121608000000004290000000000000000       000000000003430780000000000   
07350010100000006002305              00000006002305 JOSE LUIS ROMERO ZACARIAS     20170307084353000000000189000000000000000       000000000000042330000000000   
07350010100000006002324              00000006002324 JOSE LUIS ROMERO ZACARIAS     20170307084853000000000670000000000000000       000000000000045330000000000   
07350010100000006002332              00000006002332 MIRKO GUZMAN                  20170307085129000000001040000000000000000       000000000000046890000000000   
07350010100000006002366              00000006002366 CESAR GARCIA                  20170307110645000000000200000000000000000       000000000002261110000000000   
07350010100000006002396              00000006002396 ZO MY                         20170307090245000000000999000000000000000       000000000000053640000000000   
07350010100000006002405              00000006002405 RZGAMERESGMAILCOM             20170307113425000000000300000000000000000       000000000002737930000000000   
07350010100000006002406              00000006002406 MARCIO PARCO                  20170307090546000000000150000000000000000       000000000000055460000000000   
07350010100000006002433              00000006002433 SRTA ORDONEZ                  20170307094235000000000670000000000000000       000000000000077540000000000   
07350010100000006002438              00000006002438 JUAN MARTIN QUIROZ CASTANEDA  20170307090809000000000239700000000000000       000000000000056890000000000   
07350010100000006002455              00000006002455 ROCKY RAFAEL ARO HUANCA       20170307104517000000000700000000000000000       000000000001916770000000000   
07350010100000006002476              00000006002476 COMPANIA MINERA LINCUNA SA IMP20170307172140000000000885000000000000000       000000000008053340000000000   
07350010100000006002479              00000006002479                               20170307141346000000000600000000000000000       000000000000040260000000000   
07350010100000006002519              00000006002519 LUIS MIGUEL OROPEZA MIRANDA   20170307105627000000015000000000000000000       000000000002091080000000000   
07350010100000006002526              00000006002526 LUIS MIGUEL OROPEZA MIRANDA   20170307140045000000010000000000000000000       000000000005023340000000000   
07350010100000006002528              00000006002528 GRUPO SUARZ SAC ANDREA SUARZ C20170307100752000000000269000000000000000       000000000001344140000000000   
07350010100000006002540              00000006002540 GUISELA LOAYZA ALVAREZ        20170307193618000000001490000000000000000       000000000010301180000000000   
07350010100000006002546              00000006002546 MIRACLEMMPHOTMAILCOM          20170307092609000000000300000000000000000       000000000000067690000000000   
07350010100000006002598              00000006002598 GRUPO SUARZ SAC ANDREA SUARZ C20170307100634000000000269000000000000000       000000000001323760000000000   
07350010100000006002599              00000006002599 MARIAFE ARRIARAN ARRIARAN     20170307095409000000001050000000000000000       000000000001143760000000000   
07350010100000006002642              00000006002642 ARQUITAGMAILCOM               20170307094447000000000067900000000000000       000000000000078860000000000   
07350010100000006002660              00000006002660 HUMBERTO PEREZ ARBULU         20170307094211000000004000000000000000000       000000000000077290000000000   
07350010100000006002712              00000006002712 DAVID OSCAR AZANERO SALAZAR   20170307101004000000002839000000000000000       000000000001376990000000000   
07350010100000006002714              00000006002714 JTTITOARIASGMAILCOM           20170307143426000000000150000000000000000       000000000000000000000000000   
07350010100000006002750              00000006002750 MILTON CHAVEZ                 20170307100237000000000500000000000000000       000000000000089560000000000   
07350010100000006002790              00000006002790                               20170307095406000000002463800000000000000       000000000000084460000000000   
07350010100000006002792              00000006002792 GRUPO SUARZ SAC ANDREA SUARZ C20170307100611000000000269000000000000000       000000000001318400000000000   
07350010100000006002806              00000006002806 PAMELA CANCHUMANYA            20170307145549000000000780000000000000000       000000000005754670000000000   
07350010100000006002840              00000006002840 DOMICILIO DOMICILIO           20170307130521000000000564700000000000000       000000000004211460000000000   
07350010100000006002901              00000006002901 SONIA ELIZABETH VALDIVIA ALEGR20170307104120000000006000000000000000000       000000000001852990000000000   
07350010100000006002903              00000006002903 MILKO LEON CASTRO             20170307100703000000000580000000000000000       000000000000092230000000000   
07350010100000006002921              00000006002921 GABRIEL LLAJARUNA             20170307101112000000015687900000000000000       000000000000094710000000000   
07350010100000006002969              00000006002969 JUANA POMA                    20170307110937000000000500000000000000000       000000000000029770000000000   
07350010100000006002976              00000006002976 GABRIEL LLAJARUNA             20170307101436000000004780300000000000000       000000000000096760000000000   
07350010100000006003026              00000006003026 JEAN PIERRE PRUVOST DE FALOMPI20170307113419000000000600000000000000000       000000000002736030000000000   
07350010100000006003032              00000006003032 CAROLINA ANGELINO             20170307123523000000002311000000000000000       000000000003746180000000000   
07350010100000006003039              00000006003039 SERGIO ALEXANDER LUJAN BORJAS 20170307123548000000000300000000000000000       000000000000000000000000000   
07350010100000006003071              00000006003071 JOSE MORILLO QUINTANILLA      20170307105104000000001000000000000000000       000000000000018630000000000   
07350010100000006003094              00000006003094 JOHN AREVALO                  20170307110454000000001200000000000000000       000000000002229810000000000   
07350010100000006003108              00000006003108 ROSARIO PILAR CORNEJO ZEA     20170307102959000000002450000000000000000       000000000000005930000000000   
07350010100000006003110              00000006003110 JEAN PIERRE PRUVOST DE FALOMPI20170307113402000000000600000000000000000       000000000002731250000000000   
07350010100000006003115              00000006003115 LUIS REYES                    20170307103108000000001000000000000000000       000000000000006680000000000   
07350010100000006003136              00000006003136 YURI ARMANDO FERREL ESCALANTE 20170307103211000000000500000000000000000       000000000000007300000000000   
07350010100000006003156              00000006003156 GUILLERMO LAOS                20170307103410000000000300000000000000000       000000000000008500000000000   
07350010100000006003199              00000006003199 EDUARDO ROJAS                 20170307143806000000000600000000000000000       000000000000000000000000000   
07350010100000006003298              00000006003298 BRENDA NICOL VILLANUEVA PERALE20170307112447000000000349000000000000000       000000000000038870000000000   
07350010100000006003299              00000006003299                               20170307160349000000000650000000000000000       000000000006699060000000000   
07350010100000006003303              00000006003303 CENTRO ESTETICO INTERNACIONAL 20170307171708000000000403600000000000000       000000000000050270000000000   
07350010100000006003309              00000006003309                               20170307105214000000002830000000000000000       000000000000019330000000000   
07350010100000006003319              00000006003319 RENZO JOSE GRANADINO SPELUCIN 20170307104947000000004000000000000000000       000000000001985600000000000   
07350010100000006003380              00000006003380 FRANCO13FRFPHOTMAILCOM        20170307105519000000000750000000000000000       000000000000021190000000000   
07350010100000006003422              00000006003422 ANTONIO VASQUEZ               20170307111652000000000500000000000000000       000000000000000000000000000   
07350010100000006003464              00000006003464 LEANDRO ALEXIS BEJARANO CARRAN20170307110247000000000200000000000000000       000000000000025660000000000   
07350010100000006003523              00000006003523 CARLOS ENRIQUE CAPUNAY UCEDA  20170307110959000000000490000000000000000       000000000000029980000000000   
07350010100000006003531              00000006003531 ROSA MARY PORTALES CEBALLOS   20170307115716000000002631300000000000000       000000000003114950000000000   
07350010100000006003562              00000006003562 BRENDA NICOL VILLANUEVA PERALE20170307112404000000000199000000000000000       000000000000038440000000000   
07350010100000006003571              00000006003571                               20170307185008000000000699800000000000000       000000000009690100000000000   
07350010100000006003580              00000006003580 ELVIS PAUL CANCHANYA CERRON   20170307111429000000000500000000000000000       000000000000000000000000000   
07350010100000006003593              00000006003593 MARIA                         20170307113123000000000810000000000000000       000000000002686790000000000   
07350010100000006003617              00000006003617 KENKY TAKEDA LUJAN            20170307111648000000000990000000000000000       000000000000034080000000000   
07350010100000006003618              00000006003618                               20170307184356000000000900000000000000000       000000000000002360000000000   
07350010100000006003635              00000006003635                               20170307112557000000000180000000000000000       000000000000039560000000000   
07350010100000006003648              00000006003648 RLANDO                        20170307154235000000000500000000000000000       000000000006370830000000000   
07350010100000006003663              00000006003663 JOSE ALONSO DE LA CRUZ COLQUE 20170307115726000000000320000000000000000       000000000003117950000000000   
07350010100000006003689              00000006003689 JOSE ALONSO DE LA CRUZ COLQUE 20170307115646000000000320000000000000000       000000000003106500000000000   
07350010100000006003701              00000006003701 ROSA ELENA SANCHEZ RODRIGUEZ  20170307155622000000002190000000000000000       000000000006588740000000000   
07350010100000006003734              00000006003734 VALERIA LUANA PEDROZA AQUIJE  20170307115245000000001200000000000000000       000000000003036970000000000   
07350010100000006003735              00000006003735 LIZ KATERINE CHUYE SANDOVAL   20170307114912000000000200000000000000000       000000000000000000000000000   
07350010100000006003795              00000006003795 ESPERANZA ANTAYHUA            20170307124631000000000900000000000000000       000000000000087900000000000   
07350010100000006003801              00000006003801 ANA MARIA SARMIENTO           20170307132555000000000690300000000000000       000000000004531550000000000   
07350010100000006003850              00000006003850 JONATHAN ANGEL RAMIREZ RODRIGU20170307113859000000001000000000000000000       000000000000047390000000000   
07350010100000006003889              00000006003889 NESTOR FERNANDO OJEDA CHAMPI  20170307114107000000000244000000000000000       000000000000048670000000000   
07350010100000006003920              00000006003920 CRISTIAN CRISTIAN             20170307114624000000000200000000000000000       000000000000051830000000000   
07350010100000006003968              00000006003968 MAGIAOSCURA03HOTMAILCOM       20170307123357000000000300000000000000000       000000000000000000000000000   
07350010100000006003975              00000006003975                               20170307123251000000000530000000000000000       000000000003705290000000000   
07350010100000006003977              00000006003977 JUAN MARTIN QUIROZ CASTANEDA  20170307114806000000000200000000000000000       000000000000052860000000000   
07350010100000006004012              00000006004012 12364299 JUNIOR CUBA TACSI    20170307115502000000001000000000000000000       000000000000057010000000000   
07350010100000006004034              00000006004034 JOSE M GALVEZ                 20170307120009000000000590000000000000000       000000000000060090000000000   
07350010100000006004064              00000006004064 PIERO PIZARRO CASAFRANCA      20170307120225000000003000000000000000000       000000000000061440000000000   
07350010100000006004083              00000006004083 GUILLERMO LAOS                20170307115855000000000200000000000000000       000000000000059350000000000   
07350010100000006004107              00000006004107 VICTOR ALBERTO GOMEZ MATTA    20170307120245000000000300000000000000000       000000000000061650000000000   
07350010100000006004211              00000006004211                               20170307121115000000000306000000000000000       000000000000066740000000000   
07350010100000006004245              00000006004245 11876380 MIGUEL VILCHEZ BURGA 20170307121334000000000260000000000000000       000000000000068140000000000   
07350010100000006004271              00000006004271 3478063 LUIS PUCHURI TORRES   20170307142406000000000200000000000000000       000000000000046460000000000   
07350010100000006004283              00000006004283 LUIS PELAEZ                   20170307122420000000005000000000000000000       000000000003565910000000000   
07350010100000006004350              00000006004350 JOSE LAZO                     20170307122354000000000500000000000000000       000000000000074330000000000   
07350010100000006004368              00000006004368 RAUL ALEXANDER JULIAN GARCIA  20170307130738000000024199800000000000000       000000000004247340000000000   
07350010100000006004380              00000006004380 LUIS FERNANDO GARCIA RIVAS    20170307122607000000001520000000000000000       000000000000075670000000000   
07350010100000006004389              00000006004389 JEAN CARLOS CARDENAS CHUQUIURE20170307124805000000000200000000000000000       000000000000000000000000000   
07350010100000006004412              00000006004412                               20170307122913000000000263400000000000000       000000000000077520000000000   
07350010100000006004419              00000006004419 ULISES RUIZ                   20170307122914000000000150000000000000000       000000000000000000000000000   
07350010100000006004457              00000006004457 RP CONSORCIO PERUANO SAC MOREY20170307134244000000000847100000000000000       000000000004772760000000000   
07350010100000006004481              00000006004481 CESAR FABIAN SANCHEZ GUEVARA  20170307123711000000000200000000000000000       000000000000082310000000000   
07350010100000006004504              00000006004504 ULISES RUIZ                   20170307123633000000000150000000000000000       000000000000000000000000000   
07350010100000006004564              00000006004564 SERGIO ALEXANDER LUJAN BORJAS 20170307124335000000000200000000000000000       000000000000000000000000000   
07350010100000006004585              00000006004585 KARINA NIEVES                 20170307130812000000001560000000000000000       000000000000000000000000000   
07350010100000006004637              00000006004637 MARCELO FRANCISCO REATEGUI BEN20170307130123000000000500000000000000000       000000000004151200000000000   
07350010100000006004715              00000006004715 JORGE ARMANDO MATIENZO PLACIDO20170307130024000000000500000000000000000       000000000000096240000000000   
07350010100000006004751              00000006004751 DANI CHRISTIAN GOICOCHEA CORRE20170307140627000000000500000000000000000       000000000005100130000000000   
07350010100000006004767              00000006004767                               20170307130604000000000099000000000000000       000000000000099640000000000   
07350010100000006004801              00000006004801 DENY ROLANDO RAMOS DE LA CRUZ 20170307131023000000000500000000000000000       000000000000002220000000000   
07350010100000006004835              00000006004835 CALEB ROMULO QUISIPE SANTIAGO 20170307131245000000000150000000000000000       000000000000003650000000000   
07350010100000006004874              00000006004874 JEREMY SILVA                  20170307131636000000000200000000000000000       000000000000005960000000000   
07350010100000006004879              00000006004879 ANGEL ALFREDO TORRES EYZAGUIRR20170307131829000000000530000000000000000       000000000000007080000000000   
07350010100000006004886              00000006004886 LUIS FERNANDO PRADA GOMEZ     20170307131812000000000500000000000000000       000000000000006920000000000   
07350010100000006004926              00000006004926 EDITH LLANTO P EFECTIVO 3PM   20170307132320000000000860000000000000000       000000000000010000000000000   
07350010100000006004934              00000006004934 JORGE RAVELLO RAMOS           20170307135047000000000250000000000000000       000000000000000000000000000   
07350010100000006004940              00000006004940 ROBERTO CARLOS ZAVALA SANCHEZ 20170307182752000000000200000000000000000       000000000000000000000000000   
07350010100000006004973              00000006004973 GUSTAVO CABREJOS              20170307132701000000000600000000000000000       000000000000012210000000000   
07350010100000006004991              00000006004991 JORGE ALBERTO INFANTES VELIZ  20170307132811000000002500000000000000000       000000000000012900000000000   
07350010100000006005003              00000006005003 OSCAR ENRIQUE MONTERO MACO    20170307133045000000000400000000000000000       000000000000014440000000000   
07350010100000006005064              00000006005064 MIGUEL SOTO                   20170307141142000000000650000000000000000       000000000000039010000000000   
07350010100000006005088              00000006005088 DIEGO FREITAS SORIA           20170307133940000000000400000000000000000       000000000000019800000000000   
07350010100000006005126              00000006005126 HARRY ILICH LEVEAU VASQUEZ    20170307134726000000000085000000000000000       000000000000024460000000000   
07350010100000006005132              00000006005132                               20170307143921000000013450000000000000000       000000000005538610000000000   
07350010100000006005149              00000006005149 HUGO RIOS PIHUE               20170307134729000000013000000000000000000       000000000000024490000000000   
07350010100000006005168              00000006005168 RICHARD CUEVA                 20170307140408000000000700000000000000000       000000000000000000000000000   
07350010100000006005194              00000006005194 RAFAEL ALBERTO SANCHEZ ALCALDE20170307134950000000000200000000000000000       000000000000025900000000000   
07350010100000006005205              00000006005205 MARIA JUDITH MOQUILLAZA ASCAMA20170307135415000000000450000000000000000       000000000000028540000000000   
07350010100000006005214              00000006005214 JESUS EDUARDO CARBAJAL MIRANDA20170307135903000000000230000000000000000       000000000000000000000000000   
07350010100000006005276              00000006005276 YHURI CARREAZO                20170307140121000000000380000000000000000       000000000000032800000000000   
07350010100000006005302              00000006005302 RENZO JOSE GRANADINO SPELUCIN 20170307140433000000000800000000000000000       000000000000000000000000000   
07350010100000006005309              00000006005309 KENKY TAKEDA LUJAN            20170307140334000000000900000000000000000       000000000000034130000000000   
07350010100000006005346              00000006005346 15730282 ANGEL CORRALES       20170307142444000000000200000000000000000       000000000000000000000000000   
07350010100000006005367              00000006005367                               20170307141024000000000432000000000000000       000000000000000000000000000   
07350010100000006005368              00000006005368 RUBEN ALEX CARDENAS VASQUEZ   20170307140939000000000600000000000000000       000000000000037790000000000   
07350010100000006005374              00000006005374 JEREMY SILVA                  20170307141008000000000300000000000000000       000000000000038080000000000   
07350010100000006005426              00000006005426 ROSA RIVAS                    20170307153514000000001420000000000000000       000000000006271660000000000   
07350010100000006005480              00000006005480 MAURO RAMOS                   20170307145745000000002700000000000000000       000000000005779980000000000   
07350010100000006005531              00000006005531 ALVARO BRUNO GARCIA PARRA     20170307142645000000000500000000000000000       000000000000048050000000000   
07350010100000006005560              00000006005560 WALTER RIVERA TRUENQUE        20170307142921000000000300000000000000000       000000000000049610000000000   
07350010100000006005612              00000006005612 JUAN CARLOS SANCHEZ AREVALO   20170307143442000000002000000000000000000       000000000000052820000000000   
07350010100000006005621              00000006005621 PAMELA PAREDES                20170307152448000000000588000000000000000       000000000000082880000000000   
07350010100000006005624              00000006005624 EDILUS CASTRO DIAZ            20170307143923000000003000000000000000000       000000000000055630000000000   
07350010100000006005630              00000006005630 JUAN RAMON TABOADA SALAZAR    20170307171154000000000400000000000000000       000000000007863950000000000   
07350010100000006005637              00000006005637 MANUEL GARCIA                 20170307143834000000002700000000000000000       000000000000055130000000000   
07350010100000006005658              00000006005658 YANINA DE LOS MILAGROS VELASQU20170307173244000000001990000000000000000       000000000008274150000000000   
07350010100000006005665              00000006005665 ELENA                         20170307145547000000000650000000000000000       000000000005754450000000000   
07350010100000006005735              00000006005735 BRYBRYAN12335HOTMAILCOM       20170307151239000000000150000000000000000       000000000000075590000000000   
07350010100000006005763              00000006005763 DUVERN VERAMENDI              20170307144917000000001000000000000000000       000000000000061570000000000   
07350010100000006005785              00000006005785 RONALD JANAMPA ZAMBRANO       20170307154436000000000200000000000000000       000000000000094760000000000   
07350010100000006005794              00000006005794 MARITAECHEGARAY MARITAECHEGARA20170307153113000000000100000000000000000       000000000000086730000000000   
07350010100000006005824              00000006005824 ZANDRA CARRILLO               20170307151642000000000598000000000000000       000000000000078010000000000   
07350010100000006005900              00000006005900                               20170307172656000000000357800000000000000       000000000000056160000000000   
07350010100000006005922              00000006005922 EDSON ROSADO                  20170307151119000000000300000000000000000       000000000000074780000000000   
07350010100000006005930              00000006005930 AUGUSTO ANTONIO ZEGARRA NARAZA20170307151432000000000400000000000000000       000000000000076720000000000   
07350010100000006005938              00000006005938 BRAYAN TAMAYO LAY             20170307151704000000004200000000000000000       000000000000078240000000000   
07350010100000006005948              00000006005948 MELISSA ARANEDA GUILLEN       20170307152104000000000690000000000000000       000000000000080630000000000   
07350010100000006005965              00000006005965 11609155 DANTE ESCUDERO       20170307152200000000001000000000000000000       000000000000081200000000000   
07350010100000006005996              00000006005996 GERARDO MANUEL LOAYZA CHAVEZ  20170307172846000000001990000000000000000       000000000008195520000000000   
07350010100000006006040              00000006006040 MARLENY ROSADO                20170307174107000000005009600000000000000       000000000008444060000000000   
07350010100000006006064              00000006006064 JEAN MARKO VARGAS FIGUEROA    20170307153323000000000500000000000000000       000000000000088030000000000   
07350010100000006006068              00000006006068 FRANCITOMEJORAMIGO123HOTMAILCO20170307171459000000000750000000000000000       000000000000048990000000000   
07350010100000006006069              00000006006069 WALTER EDUARDO YNCHE DELGADO  20170307153257000000000200000000000000000       000000000000087770000000000   
07350010100000006006082              00000006006082 FRANCITOMEJORAMIGO123HOTMAILCO20170307171612000000000300000000000000000       000000000000049710000000000   
07350010100000006006090              00000006006090 FRANCITOMEJORAMIGO123HOTMAILCO20170307171731000000000300000000000000000       000000000000050510000000000   
07350010100000006006104              00000006006104 ABRAHAM ALEJANDRO GABRIEL TAPI20170307183358000000000740000000000000000       000000000000096380000000000   
07350010100000006006112              00000006006112 ALBERTO ORDUNA                20170307154237000000000110000000000000000       000000000000093570000000000   
07350010100000006006125              00000006006125 LUIS REYES                    20170307154021000000003000000000000000000       000000000000092210000000000   
07350010100000006006146              00000006006146 CESAR ROLANDO CORDOVA VELIZ   20170307154604000000000150000000000000000       000000000000095630000000000   
07350010100000006006301              00000006006301 KAT MI                        20170307160157000000000350000000000000000       000000000000005170000000000   
07350010100000006006317              00000006006317 ANGEL GARCIA URRUTIA          20170307160229000000000200000000000000000       000000000000005490000000000   
07350010100000006006319              00000006006319 PABLO FELIX LINARES GIRALDO   20170307165053000000000250000000000000000       000000000000000000000000000   
07350010100000006006337              00000006006337 MARIO CASTANEDA ALARCON       20170307162223000000001650000000000000000       000000000000000000000000000   
07350010100000006006360              00000006006360 ROXANA TAFUR CALLE            20170307160801000000000320000000000000000       000000000000008800000000000   
07350010100000006006388              00000006006388 SRTA MERCEDES ALBURQUEQUE     20170307170435000000001050000000000000000       000000000007730630000000000   
07350010100000006006401              00000006006401 BRAYAN TAMAYO LAY             20170307161135000000004000000000000000000       000000000000010950000000000   
07350010100000006006403              00000006006403 JORGE ENRIQUE GONZALEZ ANDERSO20170307163552000000000173100000000000000       000000000000025520000000000   
07350010100000006006513              00000006006513 ANGEL GARCIA URRUTIA          20170307162157000000000200000000000000000       000000000000017170000000000   
07350010100000006006565              00000006006565 JUAN ALONSO                   20170307164037000000000900000000000000000       000000000007309260000000000   
07350010100000006006566              00000006006566 JAREDPAOLO45GMAILCOM          20170307162803000000000150000000000000000       000000000000020830000000000   
07350010100000006006590              00000006006590 FELIPE CHAVEZ DE LOS SANTOS   20170307163240000000001400000000000000000       000000000000023600000000000   
07350010100000006006610              00000006006610                               20170307163431000000000100000000000000000       000000000000024710000000000   
07350010100000006006631              00000006006631 SR FERNANDO                   20170307165224000000001350000000000000000       000000000007515750000000000   
07350010100000006006702              00000006006702 PEDROVIDAURREGMAILCOM         20170307164351000000000344600000000000000       000000000000030300000000000   
07350010100000006006738              00000006006738 MIGUEL ANGEL ZAPATA JASAHUI   20170307165901000000000800000000000000000       000000000007628670000000000   
07350010100000006006762              00000006006762 ANGEL GARCIA URRUTIA          20170307164837000000000200000000000000000       000000000000033170000000000   
07350010100000006006824              00000006006824 JOSE MORILLO QUINTANILLA      20170307165704000000001000000000000000000       000000000000038240000000000   
07350010100000006006845              00000006006845 BRIAN ALEXANDER GENTA ATARAMA 20170307170140000000000300000000000000000       000000000000040980000000000   
07350010100000006006887              00000006006887 RICARDO RICARDO RICARDO       20170307174044000000001050000000000000000       000000000008435830000000000   
07350010100000006006919              00000006006919 GERARDO REBAZA                20170307180351000000002560000000000000000       000000000008899300000000000   
07350010100000006006947              00000006006947 SERGIO ROMERO                 20170307174347000000000340000000000000000       000000000008497820000000000   
07350010100000006006953              00000006006953 DUVERN VERAMENDI              20170307171236000000001000000000000000000       000000000000047560000000000   
07350010100000006006957              00000006006957 DANIELA SAAVEDRA SEGURA       20170307181136000000003000000000000000000       000000000009048780000000000   
07350010100000006006959              00000006006959 11876380 MIGUEL VILCHEZ BURGA 20170307171422000000000200000000000000000       000000000000048620000000000   
07350010100000006006967              00000006006967 DENIS ROLANDO QUISPE HERRERA  20170307174727000000000500000000000000000       000000000000068470000000000   
07350010100000006006978              00000006006978 SANDRA                        20170307175732000000000329000000000000000       000000000008774300000000000   
07350010100000006006986              00000006006986 VICTOR JAVIER GARCIA VARGAS   20170307171536000000003815300000000000000       000000000000049350000000000   
07350010100000006007031              00000006007031 VICTOR FRANZ ALCANTARA        20170307184134000000028110000000000000000       000000000009560100000000000   
07350010100000006007120              00000006007120 JUAN RAMON HERNANDEZ PENA     20170307173716000000000010000000000000000       000000000000062350000000000   
07350010100000006007126              00000006007126 KATHERINE MEZA CARHUAPOMA     20170307174050000000000601000000000000000       000000000000064490000000000   
07350010100000006007128              00000006007128 CATHERINE                     20170307173758000000000329000000000000000       000000000000062770000000000   
07350010100000006007134              00000006007134 BRIAN GENTA ATARAMA           20170307173524000000000400000000000000000       000000000000061230000000000   
07350010100000006007135              00000006007135                               20170307173537000000000400000000000000000       000000000000061370000000000   
07350010100000006007155              00000006007155 ROSA BERTHA RIVERA PRETEL     20170307174015000000007532700000000000000       000000000000064140000000000   
07350010100000006007160              00000006007160 CARLOS FELIPE CARDENAS VALER  20170307175203000000000200000000000000000       000000000000000000000000000   
07350010100000006007208              00000006007208 DUVERN VERAMENDI              20170307174526000000001000000000000000000       000000000000067260000000000   
07350010100000006007220              00000006007220 MIGUEL ANGEL FRIAS GUERRERO   20170307183323000000000700000000000000000       000000000009429990000000000   
07350010100000006007243              00000006007243 KUESHEAGMAILCOM               20170307175145000000000150000000000000000       000000000000071050000000000   
07350010100000006007253              00000006007253 ALFREDO LLACZA CASTRO         20170307175309000000010000000000000000000       000000000000071880000000000   
07350010100000006007254              00000006007254 OLIVER GUTIERREZ              20170307175102000000001580000000000000000       000000000000070620000000000   
07350010100000006007256              00000006007256 BRANDO DIAZ GARCIA            20170307190040000000000400000000000000000       000000000009842480000000000   
07350010100000006007269              00000006007269 JORGE AYALA GALINDO           20170307175207000000000800000000000000000       000000000000071260000000000   
07350010100000006007310              00000006007310 EDUARDO KUBA YAGUI            20170307175712000000000400000000000000000       000000000000074320000000000   
07350010100000006007370              00000006007370 JALVARO2004HOTMAILCOM         20170307180758000000000260000000000000000       000000000000080770000000000   
07350010100000006007374              00000006007374 OSCAR ESVEN TRONCOS FEBRE     20170307183113000000000480000000000000000       000000000009395180000000000   
07350010100000006007386              00000006007386 JALVARO2004HOTMAILCOM         20170307180953000000000260000000000000000       000000000000081930000000000   
07350010100000006007400              00000006007400 BRAYAN TAMAYO LAY             20170307180931000000003400000000000000000       000000000000081710000000000   
07350010100000006007413              00000006007413 JHONATAN CRUZ BELLO           20170307193607000000003449200000000000000       000000000000033660000000000   
07350010100000006007423              00000006007423 SUSANA TAPIA TAPIA            20170307183346000000001050000000000000000       000000000000000000000000000   
07350010100000006007470              00000006007470 JOSE INIGO                    20170307195800000000010000000000000000000       000000000000046800000000000   
07350010100000006007514              00000006007514 CINTHIA DEBBIE OSTOS TORIBIO  20170307182428000000004490000000000000000       000000000000090680000000000   
07350010100000006007564              00000006007564 SILVANA LEON DIAZ             20170307185347000000004780000000000000000       000000000009746130000000000   
07350010100000006007586              00000006007586                               20170307184632000000001199600000000000000       000000000000003920000000000   
07350010100000006007621              00000006007621 BRAYAN TAMAYO LAY             20170307183839000000008000000000000000000       000000000000099190000000000   
07350010100000006007634              00000006007634 JORGE MONTOYA                 20170307184454000000001650000000000000000       000000000000002930000000000   
07350010100000006007667              00000006007667 CARLA MONICA GIRANO MENDOZA   20170307191114000000001000000000000000000       000000000000000000000000000   
07350010100000006007669              00000006007669 DIEGO FLORES SANTANDER        20170307191647000000000350000000000000000       000000000000000000000000000   
07350010100000006007709              00000006007709 MARCO ANTONIO ASANA GARAY     20170307200335000000003890000000000000000       000000000000000000000000000   
07350010100000006007721              00000006007721 15873774 RICARDO RENJIFO RAMOS20170307195824000000001000000000000000000       000000000000000000000000000   
07350010100000006007743              00000006007743 HECTOR GONZALEZ VASQUEZ       20170307192558000000043480000000000000000       000000000010174770000000000   
07350010100000006007763              00000006007763 MAYRA KIYUMI MEZA VALDEIGLESIA20170307192219000000000100000000000000000       000000000000000000000000000   
07350010100000006007771              00000006007771 ROSELDA ROSELDA               20170307200856000000000400000000000000000       000000000000000000000000000   
07350010100000006007777              00000006007777                               20170307194525000000000760000000000000000       000000000010407570000000000   
07350010100000006007793              00000006007793                               20170307194717000000000760000000000000000       000000000010429060000000000   
07350010100000006007877              00000006007877                               20170307194457000000000760000000000000000       000000000010402270000000000   
07350010100000006007885              00000006007885 HAROLD ROSALES HUERTA         20170307193732000000000650000000000000000       000000000000000000000000000   
07350010100000006007892              00000006007892 LUIS ALFONSO CERNA SIFUENTES  20170307192540000000002000000000000000000       000000000000027390000000000   
07350010100000006007897              00000006007897 DANIEL LEO LOPEZ ROMERO       20170307193002000000000735000000000000000       000000000000030010000000000   
07350010100000006007898              00000006007898 RENZO JOSE GRANADINO SPELUCIN 20170307192745000000010000000000000000000       000000000000028650000000000   
07350010100000006007905              00000006007905 SR ELMER REYES                20170307195307000000001800000000000000000       000000000000000000000000000   
07350010100000006007944              00000006007944 MARITA ZAMORA NULL            20170307194540000000002190000000000000000       000000000000039400000000000   
07350010100000006007964              00000006007964 NICOLAS MARTINEZ              20170307200257000000001080000000000000000       000000000000049770000000000   
07350010100000006007977              00000006007977                               20170307210233000000000650000000000000000       000000000000085530000000000   
07350010100000006008002              00000006008002 JHONATAN PANDURO PORFIRIO     20170307200050000000000200000000000000000       000000000000000000000000000   
07350010100000006008026              00000006008026 JOSEPH URIBE CHIPANA          20170307195235000000000500000000000000000       000000000000043550000000000   
07350010100000006008036              00000006008036 JOSEPH2000LIVECOM             20170307203318000000003000000000000000000       000000000010877310000000000   
07350010100000006008086              00000006008086 LUIS ALFONSO CERNA SIFUENTES  20170307200453000000002000000000000000000       000000000000050930000000000   
07350010100000006008116              00000006008116 CHESKO WAN                    20170307205911000000000100000000000000000       000000000000083510000000000   
07350010100000006008129              00000006008129 LUZ HUERTO SANTILLAN          20170307203603000000004880000000000000000       000000000000069630000000000   
07350010100000006008201              00000006008201 LUIS ALFONSO CERNA SIFUENTES  20170307202700000000002000000000000000000       000000000000064190000000000   
07350010100000006008238              00000006008238                               20170307203742000000001900000000000000000       000000000000070620000000000   
07350010100000006008259              00000006008259                               20170307204835000000000099000000000000000       000000000000077150000000000   
07350010100000006008274              00000006008274 EDDY CARRASCO GUERRA          20170307210843000000000500000000000000000       000000000000000000000000000   
07350010100000006008300              00000006008300 FOXUNO666HOTMAILCOM           20170307205734000000000150000000000000000       000000000000082530000000000   
07350010100000006008334              00000006008334 JEAN MARKO VARGAS FIGUEROA    20170307205925000000000500000000000000000       000000000000083650000000000   
07350010100000006008365              00000006008365 ALVARO ANTONIO CASTRO FALCON  20170307210334000000001000000000000000000       000000000000086130000000000   
07350010100000006008384              00000006008384 NICKLIBRA01HOTMAILCOM         20170307215617000000001500000000000000000       000000000000000000000000000   
07350010100000006008400              00000006008400 GEYZEM MANUEL ZEGARRA BACA    20170307211434000000000500000000000000000       000000000000092730000000000   
07350010100000006008437              00000006008437 DUVERN VERAMENDI              20170307211856000000001000000000000000000       000000000000095360000000000   
07350010100000006008544              00000006008544 LUIS ALFONSO CERNA SIFUENTES  20170307214441000000002000000000000000000       000000000000010800000000000   
07350010100000006008558              00000006008558 DELIA KATHERINE MERINO RUIZ   20170307214633000000000290000000000000000       000000000000011920000000000   
07350010100000006008571              00000006008571 DELIA KATHERINE MERINO RUIZ   20170307214721000000000290000000000000000       000000000000012410000000000   
07350010100000006008581              00000006008581 SN SN                         20170307214840000000000800000000000000000       000000000000013200000000000   
07350010100000006008616              00000006008616 DELIA KATHERINE MERINO RUIZ   20170307215758000000000290000000000000000       000000000000018780000000000   
07350010100000006008621              00000006008621 DELIA KATHERINE MERINO RUIZ   20170307215721000000000290000000000000000       000000000000018410000000000   
07350010100000006008724              00000006008724 JEYSON TOMAYLLA LAURA         20170307222157000000000200000000000000000       000000000000033170000000000   
07350010100000006008769              00000006008769                               20170307224023000000000229600000000000000       000000000000044220000000000   
07350010100000006008815              00000006008815 BRAYAN TAMAYO LAY             20170307224423000000002500000000000000000       000000000000046620000000000   
07350010100000006008884              00000006008884 CARLOS ORIHUELA TRAVERSO      20170307230526000000002000000000000000000       000000000000059260000000000   
07350010100000006008886              00000006008886 LUIS ALFONSO CERNA SIFUENTES  20170307230230000000002000000000000000000       000000000000057500000000000   
07350010100000006008934              00000006008934 ENRIQUE JUAREZ AYALA          20170307231859000000000530000000000000000       000000000000067380000000000   
07350011000000005935575              00000005935575 GEORGE MALPARTIDA             20170307205900000000000010000000000000000       000000000000083390000000000   
07350011000000005999622              00000005999622 ALEJANDRA CASIRAGHI           20170307110533000000001900000000000000000       000000000002240920000000000   
07350011000000006000795              00000006000795 RUBEN PELAYO LEYVA CRUZ       20170307092549000000000300000000000000000       000000000000067490000000000   
07350011000000006001705              00000006001705 TOBIAS MENDOZA AMES           20170307072448000000000790000000000000000       000000000000094880000000000   
07350011000000006002116              00000006002116 MILADI CAMPOS                 20170307094500000000000925300000000000000       000000000001021570000000000   
07350011000000006002227              00000006002227 CARLOS GUEVARA ZARATE         20170307082720000000001500000000000000000       000000000000032400000000000   
07350011000000006002443              00000006002443 JHON CCAMA                    20170307111849000000001240300000000000000       000000000002471610000000000   
07350011000000006002452              00000006002452 JULIO REVOLLEDO               20170307145336000000001296600000000000000       000000000005725290000000000   
07350011000000006002504              00000006002504 LEE RUDY CAPARACHIN ROQUE     20170307091914000000000200000000000000000       000000000000063540000000000   
07350011000000006002510              00000006002510 JOSE SALAZAR                  20170307110717000000001126000000000000000       000000000002270110000000000   
07350011000000006002518              00000006002518 ERICK VELASQUEZ               20170307092151000000000050000000000000000       000000000000065110000000000   
07350011000000006002566              00000006002566 LEE RUDY CAPARACHIN ROQUE     20170307093201000000000200000000000000000       000000000000071210000000000   
07350011000000006002593              00000006002593 LIZET MOGROVEJO               20170307100223000000003080300000000000000       000000000000089420000000000   
07350011000000006002754              00000006002754 JUAN OLIVEIRA                 20170307112210000000000579100000000000000       000000000002529410000000000   
07350011000000006002785              00000006002785 WEI LIU                       20170307141004000000001202200000000000000       000000000005149740000000000   
07350011000000006002813              00000006002813 ARMANDO SZEJER                20170307100155000000000500000000000000000       000000000000089150000000000   
07350011000000006002824              00000006002824 ALVARO BELLIDO                20170307121633000000000854600000000000000       000000000003437380000000000   
07350011000000006002873              00000006002873 LUIS PUMA                     20170307100824000000000500000000000000000       000000000000093030000000000   
07350011000000006002950              00000006002950 FIORELA HERRERA LIBON         20170307101312000000000100000000000000000       000000000000095920000000000   
07350011000000006003007              00000006003007 LEONARDO GABRIEL SANCHEZ      20170307114907000000001808400000000000000       000000000002977740000000000   
07350011000000006003183              00000006003183 ALDO MANZANARES               20170307112724000000003127200000000000000       000000000002619360000000000   
07350011000000006003294              00000006003294 PATRICIA ISABEL ACUNA MONTALVO20170307121928000000001312800000000000000       000000000003486870000000000   
07350011000000006003301              00000006003301 GABRIEL CHU                   20170307131609000000001739200000000000000       000000000004379880000000000   
07350011000000006003334              00000006003334 MILAGROS MARTINEZ             20170307123643000000005015900000000000000       000000000003767280000000000   
07350011000000006003506              00000006003506 ALEXANDER DINEL MORILLO SOPAN 20170307110752000000001250000000000000000       000000000000028710000000000   
07350011000000006003628              00000006003628 POLET GAVI PEREZ AQUINO       20170307134305000000002031300000000000000       000000000004777990000000000   
07350011000000006003686              00000006003686 EDWIN HIDALGO                 20170307114148000000000986800000000000000       000000000002860370000000000   
07350011000000006003769              00000006003769 VITMAR CONDOR                 20170307151647000000001833800000000000000       000000000006025590000000000   
07350011000000006003979              00000006003979 CARLOS BISSO                  20170307114906000000008000000000000000000       000000000000053460000000000   
07350011000000006003984              00000006003984 GABRIELA MILAGROS VELASQUEZ GA20170307115031000000000200000000000000000       000000000000054310000000000   
07350011000000006003988              00000006003988 KETY BERNDT                   20170307121310000000000983800000000000000       000000000003379990000000000   
07350011000000006003999              00000006003999 RUTH MAYHUA                   20170307141717000000000869800000000000000       000000000005247470000000000   
07350011000000006004043              00000006004043 JESUS RUIZ ISUIZA             20170307115546000000000200000000000000000       000000000000057460000000000   
07350011000000006004119              00000006004119 FABIO SALINAS RIVERA          20170307135214000000001472700000000000000       000000000004906030000000000   
07350011000000006004242              00000006004242 EVELYN ROBLES                 20170307123753000000000793600000000000000       000000000003784930000000000   
07350011000000006004278              00000006004278 EVELYN ROBLES                 20170307123855000000000581200000000000000       000000000003801190000000000   
07350011000000006004295              00000006004295 EVELYN ROBLES                 20170307123925000000000581200000000000000       000000000003808220000000000   
07350011000000006004312              00000006004312 JOEL ALVAREZ                  20170307123011000000002000000000000000000       000000000000078110000000000   
07350011000000006004313              00000006004313 EVELYN ROBLES                 20170307123958000000000581200000000000000       000000000003817280000000000   
07350011000000006004345              00000006004345 EVELYN ROBLES                 20170307124023000000000793600000000000000       000000000003823720000000000   
07350011000000006004527              00000006004527 FREDDY GARCIA                 20170307123854000000000100000000000000000       000000000000083340000000000   
07350011000000006004560              00000006004560 CARLOS GUEVARA ZARATE         20170307124112000000002300000000000000000       000000000000084720000000000   
07350011000000006004568              00000006004568 MARINA CCAHUANA ALVIS         20170307161643000000000712800000000000000       000000000006905230000000000   
07350011000000006004741              00000006004741 CAJAMARCA TRAVEL SRLTDA       20170307134557000000002930600000000000000       000000000004818370000000000   
07350011000000006004804              00000006004804 LEE RUDY CAPARACHIN ROQUE     20170307131027000000000300000000000000000       000000000000002270000000000   
07350011000000006004826              00000006004826 ROBERTH CHD ALCALDE           20170307160333000000001567600000000000000       000000000006695420000000000   
07350011000000006004876              00000006004876 DEIDIAN CRUZ                  20170307132651000000001381900000000000000       000000000000012110000000000   
07350011000000006004904              00000006004904 EVELIN TANGOA                 20170307150121000000000794500000000000000       000000000005825840000000000   
07350011000000006004905              00000006004905 FERNANDO QUISPE               20170307191535000000001440400000000000000       000000000010043980000000000   
07350011000000006004914              00000006004914 LLERMETH MELENDEZ             20170307184938000000001013400000000000000       000000000000000000000000000   
07350011000000006004960              00000006004960 DENNIS NAVARRO                20170307145527000000001116500000000000000       000000000005750360000000000   
07350011000000006004994              00000006004994 CAJAMARCA TRAVEL SRLTDA       20170307134821000000000978500000000000000       000000000004852670000000000   
07350011000000006005128              00000006005128 LUIS JARA ORNAY               20170307134351000000000050000000000000000       000000000000022310000000000   
07350011000000006005134              00000006005134 WILLY MORALES                 20170307134431000000000090000000000000000       000000000000022710000000000   
07350011000000006005254              00000006005254 MIGUEL PALOMINO               20170307143343000000001837500000000000000       000000000005464920000000000   
07350011000000006005291              00000006005291 CARLOS PUGA                   20170307173313000000000889200000000000000       000000000000059930000000000   
07350011000000006005443              00000006005443 JACQUELINE DAYSI URRUTIA FUENT20170307142318000000001605800000000000000       000000000005328370000000000   
07350011000000006005453              00000006005453 MARTIN TOCHIKI                20170307160355000000003377400000000000000       000000000000006350000000000   
07350011000000006005483              00000006005483 WILLY MORALES                 20170307142340000000000450000000000000000       000000000000046200000000000   
07350011000000006005569              00000006005569 VALERIA GOMES DOS SANTOS      20170307153736000000005144200000000000000       000000000006302540000000000   
07350011000000006005573              00000006005573 NOLBERTO SOLANO               20170307145843000000000400000000000000000       000000000005792510000000000   
07350011000000006005952              00000006005952 CARLOS AREVALO VELASQUEZ      20170307163051000000001349000000000000000       000000000007138820000000000   
07350011000000006006085              00000006006085 TATIANA HUAMAN CARBBAJAL      20170307163448000000000915400000000000000       000000000007209490000000000   
07350011000000006006207              00000006006207 IRMA TELLO                    20170307155102000000000907000000000000000       000000000006512090000000000   
07350011000000006006251              00000006006251 ROBERT WILLIAM PORTILLO VELASC20170307180736000000001890000000000000000       000000000008973540000000000   
07350011000000006006318              00000006006318 GISELA BAZAN                  20170307183240000000001979600000000000000       000000000009418220000000000   
07350011000000006006323              00000006006323 ANGELICA MERCEDES COLLANTES AN20170307162505000000000864400000000000000       000000000007042350000000000   
07350011000000006006466              00000006006466 ROGER CIRILO PAREDES          20170307161814000000000100000000000000000       000000000000014940000000000   
07350011000000006006523              00000006006523 ALEJANDRO DUILIO LUCARDI      20170307173909000000002474600000000000000       000000000008403590000000000   
07350011000000006006588              00000006006588 EDGARD MARTIN VEGA DE LA CRUZ 20170307162917000000011004900000000000000       000000000000021570000000000   
07350011000000006006622              00000006006622 SOCRATES OLIVERA              20170307175901000000001361300000000000000       000000000008803270000000000   
07350011000000006006793              00000006006793 PATRICIA LOPEZ VEREAU         20170307181826000000004833900000000000000       000000000009175240000000000   
07350011000000006006846              00000006006846 HECTOR BEJARANO               20170307194724000000001205700000000000000       000000000010430170000000000   
07350011000000006006893              00000006006893 PHAOLA CONDE                  20170307180744000000001891000000000000000       000000000008975860000000000   
07350011000000006006906              00000006006906 JULIA CHAU                    20170307190736000000006784600000000000000       000000000009937790000000000   
07350011000000006006966              00000006006966 GONZALO TENORIO               20170307171427000000000300000000000000000       000000000000048670000000000   
07350011000000006006972              00000006006972 YRACEMA DIAZ                  20170307193838000000002593200000000000000       000000000010326900000000000   
07350011000000006006984              00000006006984 ROGER CIRILO PAREDES          20170307171559000000000352400000000000000       000000000000049580000000000   
07350011000000006007034              00000006007034 ANTONIO JESUS HERNANI MAQUERA 20170307175327000000001228000000000000000       000000000008692760000000000   
07350011000000006007156              00000006007156 MARCO ORDONEZ ANAYA           20170307173824000000001000000000000000000       000000000000063030000000000   
07350011000000006007173              00000006007173 CEPAVITOURS AGD VIAJES Y TURRE20170307182759000000009897900000000000000       000000000009341050000000000   
07350011000000006007184              00000006007184 COLUMBA DEL CARPIO            20170307204104000000001332000000000000000       000000000010938430000000000   
07350011000000006007185              00000006007185 SEBASTIAN DIAZ CORNEJO        20170307183406000000000148600000000000000       000000000000096460000000000   
07350011000000006007426              00000006007426 JOSE LUIS RODRIGUEZ PASCO     20170307193045000000001975200000000000000       000000000000030440000000000   
07350011000000006007430              00000006007430 MARIANA GALVEZ CHIRINOS       20170307201053000000001277400000000000000       000000000010680310000000000   
07350011000000006007513              00000006007513 YVIS ODALIS BERMUDEZ RIOS     20170307192702000000005459400000000000000       000000000010187430000000000   
07350011000000006007646              00000006007646 LISHET MACHARE                20170307184647000000001875800000000000000       000000000009640520000000000   
07350011000000006007694              00000006007694 MIGUEL OCAMPO                 20170307201643000000002259400000000000000       000000000010735810000000000   
07350011000000006007704              00000006007704 PERCY PENA                    20170307192148000000003471500000000000000       000000000010123130000000000   
07350011000000006007732              00000006007732 JESSICA PAZ RONCEROS          20170307193121000000000704400000000000000       000000000010240850000000000   
07350011000000006007769              00000006007769 GIOVANY ZUNIGA                20170307204110000000000759800000000000000       000000000010939290000000000   
07350011000000006007907              00000006007907 MIGUEL GALLEGOS               20170307194630000000000888000000000000000       000000000010419740000000000   
07350011000000006007921              00000006007921 OMAR QUINONEZ                 20170307193239000000000050000000000000000       000000000000031590000000000   
07350011000000006008091              00000006008091 CARLOS GUEVARA ZARATE         20170307200513000000000050000000000000000       000000000000051130000000000   
07350011000000006008269              00000006008269 AGUSTIN AGUILAR               20170307210113000000003968600000000000000       000000000011088800000000000   
07350011000000006008693              00000006008693 ANGEL GARCIA ALVA             20170307221410000000009000000000000000000       000000000000028490000000000   
