CC19312026578C201704190000002600000000037544643045T12V02                                                                                                                                                
DD193120265780000000626595400000006265954                2017041920170504000000000150000000000000000000000000000150000111023065247EFECTIVO00000006265954TBKE  0006065247002224            0000000000    
DD193120265780000000626620500000006266205                2017041920170504000000000001000000000000000000000000000001000111023069908EFECTIVO6266205       BM61  0006069908045519            0000000000    
DD193120265780000000626622400000006266224                2017041920170504000000000001000000000000000000000000000001000111023070076EFECTIVO6266224       BM91  0006070076050032            0000000000    
DD193120265780000000626625000000006266250                2017041920170504000000000008000000000000000000000000000008000111023070852EFECTIVO00000006266250TBJ1  0006070852052007            0000000000    
DD193120265780000000626626500000006266265                2017041920170504000000000007000000000000000000000000000007000111023070902EFECTIVO00000006266265TBJ0  0006070902052112            0000000000    
DD193120265780000000626641100000006266411                2017041920170504000000000002000000000000000000000000000002000111023072591EFECTIVO6266411       BM66  0006072591055536            0000000000    
DD193120265780000000626664800000006266648                2017041920170504000000000000700000000000000000000000000000700111023087883EFECTIVO6266648       BM1D  0006087883073240            0000000000    
DD193120265780000000626667900000006266679                2017041920170419000000000005883000000000000000000000000005883111023096967EFECTIVO00000006266679TBJA  0006096967080000            0000000000    
DD193120265780000000626674800000006266748                2017041920170504000000000002000000000000000000000000000002000111023097356EFECTIVO00000006266748TBJU  0006097356080058            0000000000    
DD193120265780000000626676500000006266765                2017041920170504000000000010000000000000000000000000000010000111023098588EFECTIVO00000006266765TBKY  0006098588080357            0000000000    
DD193120265780000000626676100000006266761                2017041920170424000000000002500000000000000000000000000002500111023098919EFECTIVO00000006266761TBJU  0006098919080442            0000000000    
DD193120265780000000626665700000006266657                2017041920170419000000000008191000000000000000000000000008191111023099029EFECTIVO00000006266657TBRU  0006099029080457            0000000000    
DD193120265780000000626647000000006266470                2017041920170504000000000001000000000000000000000000000001000111023100336EFECTIVO6266470       BM83  0006100336080755            0000000000    
DD193120265780000000626676900000006266769                2017041920170504000000000008000000000000000000000000000008000111023100615EFECTIVO00000006266769TBX0  0006100615080829            0000000000    
DD193120265780000000626681300000006266813                2017041920170504000000000001000000000000000000000000000001000111023105078EFECTIVO6266813       BM1J  0006105078081730            0000000000    
DD193120265780000000626680600000006266806                2017041920170504000000000000500000000000000000000000000000500111017110178EFECTIVO00000006266806PZAA  0006110178082635            0000000000    
DD193120265780000000626605300000006266053                2017041920170504000000000025000000000000000000000000000025000111023112518EFECTIVO6266053       BM78  0006112518083038            0000000000    
DD193120265780000000626685000000006266850                2017041920170419000000000011438000000000000000000000000011438111023132644EFECTIVO00000006266850TBOC  0006132644085901            0000000000    
DD19312026578000000062664440000000006266                 2017041920170419000000000020514000000000000000000000000020514390001014261EFECTIVO00000006266444Q01B  0000014261090235            0000000000    
DD193120265780000000626681400000006266814                2017041920170419000000000011196000000000000000000000000011196111017136790EFECTIVO00000006266814PZBD  0006136790090409            0000000000    
DD193120265780000000626684600000006266846                2017041920170419000000000011196000000000000000000000000011196111017143206EFECTIVO00000006266846PZBA  0006143206091108            0000000000    
DD193120265780000000626709200000006267092                2017041920170419000000000006180000000000000000000000000006180111023144682EFECTIVO6267092       BM84  0006144682091238            0000000000    
DD19312026578000000062667640000000006266                 2017041920170419000000000006768000000000000000000000000006768000075022257EFECTIVO00000006266764075D  0000022257091503            0000000000    
DD19312026578000000062668490000000006266                 2017041920170419000000000008806000000000000000000000000008806480001022629EFECTIVO000000062668497JUE  0000022629091535            0000000000    
DD19312026578000000062670500000000006267                 2017041920170419000000000012774000000000000000000000000012774194024028231EFECTIVO00000006267050724C  0000028231092401            0000000000    
DD193120265780000000626734400000006267344                2017041920170419000000000020190000000000000000000000000020190111023174575EFECTIVO00000006267344TBLI  0006174575094102            0000000000    
DD19312026578000000062667470000000006266                 2017041920170419000000000011728000000000000000000000000011728575000046290EFECTIVO00000006266747CCMB  0000046290094731            0000000000    
DD19312026578000000062673540000000006267                 2017041920170419000000000011901000000000000000000000000011901375000046647EFECTIVO00000006267354CC1F  0000046647094759            0000000000    
DD19312026578000000062668270000000006266                 2017041920170419000000000015090000000000000000000000000015090192081046699EFECTIVO00000006266827681H  0000046699094802            0000000000    
DD19312026578000000062667590000000006266                 2017041920170419000000000008580000000000000000000000000008580000105049577EFECTIVO00000006266759105D  0000049577095133            0000000000    
DD19312026578000000062670720000000006267                 2017041920170419000000000015016000000000000000000000000015016365000051555EFECTIVO00000006267072VAOD  0000051555095401            0000000000    
DD19312026578000000062670370000000006267                 2017041920170419000000000016566000000000000000000000000016566194065055580EFECTIVO00000006267037765F  0000055580095847            0000000000    
DD19312026578000000062667660000000006266                 2017041920170419000000000006157000000000000000000000000006157535000059096EFECTIVO00000006266766CC5D  0000059096100252            0000000000    
DD193120265780000000626763800000006267638                2017041920170504000000000002000000000000000000000000000002000111023218927EFECTIVO00000006267638TBOD  0006218927101805            0000000000    
DD193120265780000000626764600000006267646                2017041920170504000000000003000000000000000000000000000003000111023218891EFECTIVO6267646       BM1V  0006218891101806            0000000000    
DD193120265780000000626699000000006266990                2017041920170419000000000006180000000000000000000000000006180111017238208EFECTIVO00000006266990PZDA  0006238208103332            0000000000    
DD19312026578000000062676030000000006267                 2017041920170419000000000007330000000000000000000000000007330403000090286EFECTIVO00000006267603J00A  0000090286103824            0000000000    
DD19312026578000000062675590000000006267                 2017041920170419000000000005886000000000000000000000000005886215000090690EFECTIVO00000006267559CCAI  0000090690103851            0000000000    
DD19312026578000000062678990000000006267                 2017041920170504000000000003000000000000000000000000000003000285009095855EFECTIVO00000006267899URBA  0000095855104430            0000000000    
DD19312026578000000062677170000000006267                 2017041920170419000000000006157000000000000000000000000006157194061096895EFECTIVO00000006267717761C  0000096895104536            0000000000    
DD193120265780000000626784000000006267840                2017041920170504000000000002000000000000000000000000000002000111023255198EFECTIVO00000006267840TBOC  0006255198104652            0000000000    
DD193120265780000000626786700000006267867                2017041920170419000000000023532000000000000000000000000023532111023260614EFECTIVO00000006267867TBJU  0006260614105109            0000000000    
DD193120265780000000626791200000006267912                2017041920170504000000000000600000000000000000000000000000600111023261697EFECTIVO00000006267912TBY4  0006261697105157            0000000000    
DD193120265780000000626747000000006267470                2017041920170419000000000013718000000000000000000000000013718111017262065EFECTIVO00000006267470PZDB  0006262065105218            0000000000    
DD19312026578000000062668710000000006266                 2017041920170419000000000011196000000000000000000000000011196585000115257EFECTIVO00000006266871C32D  0000115257110447            0000000000    
DD19312026578000000062668340000000006266                 2017041920170419000000000012344000000000000000000000000012344000033115747EFECTIVO00000006266834033B  0000115747110519            0000000000    
DD19312026578000000062664950000000006266                 2017041920170419000000000009838000000000000000000000000009838390000115979EFECTIVO00000006266495LEQB  0000115979110537            0000000000    
DD193120265780000000626709400000006267094                2017041920170419000000000006180000000000000000000000000006180111017280319EFECTIVO00000006267094PZAA  0006280319110632            0000000000    
DD19312026578000000062678570000000006267                 2017041920170419000000000009588000000000000000000000000009588192035117178EFECTIVO00000006267857635I  0000117178110657            0000000000    
DD19312026578000000062676370000000006267                 2017041920170419000000000017222000000000000000000000000017222194015118577EFECTIVO00000006267637715E  0000118577110829            0000000000    
DD19312026578000000062675500000000006267                 2017041920170419000000000007330000000000000000000000000007330403000128922EFECTIVO00000006267550J00C  0000128922111954            0000000000    
DD19312026578000000062670850000000006267                 2017041920170419000000000012400000000000000000000000000012400193060132893EFECTIVO00000006267085860C  0000132893112423            0000000000    
DD193120265780000000626800000000006268000                2017041920170419000000000016432000000000000000000000000016432111023303349EFECTIVO00000006268000TBY4  0006303349112442            0000000000    
DD193120265780000000626686400000006266864                2017041920170420000000000168382000000000000000000000000168382111008304989EFECTIVO00000006266864TNG9  0006304989112600            0000000000    
DD19312026578000000062682090000000006268                 2017041920170419000000000018612000000000000000000000000018612400000135502EFECTIVO00000006268209C27A  0000135502112720            0000000000    
DD19312026578000000062678440000000006267                 2017041920170419000000000024522000000000000000000000000024522505000136919EFECTIVO00000006267844CCUA  0000136919112856            0000000000    
DD193120265780000000626810600000006268106                2017041920170504000000000050000000000000000000000000000050000111023309146EFECTIVO6268106       BM78  0006309146112916            0000000000    
DD193120265780000000626835800000006268358                2017041920170504000000000040000000000000000000000000000040000111023309579EFECTIVO00000006268358TBLI  0006309579112937            0000000000    
DD19312026578000000062678280000000006267                 2017041920170419000000000009092000000000000000000000000009092390002138055EFECTIVO00000006267828Q02D  0000138055113008            0000000000    
DD193120265780000000626837300000006268373                2017041920170504000000000001000000000000000000000000000001000111023310540EFECTIVO00000006268373TBRV  0006310540113023            0000000000    
DD19312026578000000062607210000000006260                 2017041920170421000000000069800000000000000000000000000069800193039138672EFECTIVO00000006260721839A  0000138672113053            0000000000    
DD19312026578000000062607270000000006260                 2017041920170421000000000069800000000000000000000000000069800193039138926EFECTIVO00000006260727839A  0000138926113111            0000000000    
DD193120265780000000626564400000006265644                2017041920170504000000000001000000000000000000000000000001000111023312642EFECTIVO00000006265644TBYP  0006312642113159            0000000000    
DD19312026578000000062678940000000006267                 2017041920170419000000000005886000000000000000000000000005886215002144141EFECTIVO00000006267894YM2C  0000144141113703            0000000000    
DD19312026578000000062678740000000006267                 2017041920170419000000000005886000000000000000000000000005886215002144458EFECTIVO00000006267874YM2C  0000144458113723            0000000000    
DD19312026578000000062682170000000006268                 2017041920170419000000000029076000000000000000000000000029076475009145465EFECTIVO00000006268217PI9H  0000145465113827            0000000000    
DD19312026578000000062676640000000006267                 2017041920170419000000000027352000000000000000000000000027352390002152033EFECTIVO00000006267664Q02D  0000152033114540            0000000000    
DD193120265780000000626776300000006267763                2017041920170419000000000026816000000000000000000000000026816111023339299EFECTIVO00000006267763TBX1  0006339299115310            0000000000    
DD19312026578000000062671480000000006267                 2017041920170419000000000012400000000000000000000000000012400193060163007EFECTIVO00000006267148860C  0000163007115735            0000000000    
DD193120265780000000626853800000006268538                2017041920170504000000000021500000000000000000000000000021500111023345193EFECTIVO      6268538 TBJV  0006345193115749            0000000000    
DD19312026578000000062624260000000006262                 2017041920170504000000000001000000000000000000000000000001000000113163492EFECTIVO00000006262426113E  0000163492115807            0000000000    
DD193120265780000000626866000000006268660                2017041920170504000000000000900000000000000000000000000000900111023346590EFECTIVO00000006268660TBYO  0006346590115853            0000000000    
DD19312026578000000062677340000000006267                 2017041920170419000000000009824000000000000000000000000009824480002164861EFECTIVO00000006267734PU2B  0000164861115938            0000000000    
DD19312026578000000062676940000000006267                 2017041920170419000000000008806000000000000000000000000008806480002165177EFECTIVO00000006267694PU2B  0000165177115959            0000000000    
DD193120265780000000626865200000006268652                2017041920170504000000000004500000000000000000000000000004500111023348425EFECTIVO00000006268652TBJA  0006348425120024            0000000000    
DD19312026578000000062681800000000006268                 2017041920170419000000000026660000000000000000000000000026660000047166369EFECTIVO00000006268180047C  0000166369120123            0000000000    
DD19312026578000000062678090000000006267                 2017041920170419000000000006386000000000000000000000000006386000082169223EFECTIVO00000006267809082A  0000169223120442            0000000000    
DD193120265780000000626873900000006268739                2017041920170504000000000001000000000000000000000000000001000111023355463EFECTIVO6268739       BM69  0006355463120603            0000000000    
DD19312026578000000062673530000000006267                 2017041920170419000000000083716000000000000000000000000083716000007175572EFECTIVO00000006267353007B  0000175572121211            0000000000    
DD19312026578000000062674640000000006267                 2017041920170419000000000009218000000000000000000000000009218550000176753EFECTIVO00000006267464TOPB  0000176753121319            0000000000    
DD193120265780000000626881600000006268816                2017041920170504000000000002000000000000000000000000000002000111023364817EFECTIVO00000006268816TBX0  0006364817121319            0000000000    
DD19312026578000000062672900000000006267                 2017041920170419000000000006874000000000000000000000000006874355002178753EFECTIVO00000006267290Y02D  0000178753121538            0000000000    
DD19312026578000000062676010000000006267                 2017041920170419000000000018066000000000000000000000000018066245002179190EFECTIVO00000006267601ATHD  0000179190121610            0000000000    
DD19312026578000000062687070000000006268                 2017041920170424000000000001800000000000000000000000000001800194064180796EFECTIVO00000006268707764E  0000180796121751            0000000000    
DD193120265780000000626886100000006268861                2017041920170504000000000001500000000000000000000000000001500111023372202EFECTIVO6268861       BM1T  0006372202121912            0000000000    
DD193120265780000000626888100000006268881                2017041920170504000000000000900000000000000000000000000000900111023373392EFECTIVO6268881       BM92  0006373392122009            0000000000    
DD193120265780000000626775900000006267759                2017041920170419000000000014025000000000000000000000000014025111023375239EFECTIVO00000006267759TBOC  0006375239122131            0000000000    
DD19312026578000000062677080000000006267                 2017041920170419000000000006838000000000000000000000000006838192009186298EFECTIVO00000006267708609A  0000186298122404            0000000000    
DD19312026578000000062677480000000006267                 2017041920170419000000000009638000000000000000000000000009638000067190450EFECTIVO00000006267748067E  0000190450122825            0000000000    
DD193120265780000000626890900000006268909                2017041920170504000000000001000000000000000000000000000001000111023384424EFECTIVO00000006268909TBRV  0006384424122842            0000000000    
DD19312026578000000062674820000000006267                 2017041920170419000000000012966000000000000000000000000012966390000191426EFECTIVO00000006267482LEQA  0000191426122936            0000000000    
DD193120265780000000626899300000006268993                2017041920170504000000000001400000000000000000000000000001400111023385674EFECTIVO00000006268993TBXK  0006385674122937            0000000000    
DD193120265780000000626885700000006268857                2017041920170504000000000002000000000000000000000000000002000111023386313EFECTIVO00000006268857TBJA  0006386313123012            0000000000    
DD19312026578000000062676760000000006267                 2017041920170419000000000019892000000000000000000000000019892390000191963EFECTIVO00000006267676LEQA  0000191963123013            0000000000    
DD19312026578000000062677940000000006267                 2017041920170419000000000053739000000000000000000000000053739390000192386EFECTIVO00000006267794LEQA  0000192386123042            0000000000    
DD193120265780000000626913800000006269138                2017041920170504000000000002000000000000000000000000000002000111023398847EFECTIVO00000006269138TBJW  0006398847124011            0000000000    
DD193120265780000000626923900000006269239                2017041920170504000000000010000000000000000000000000000010000111023413455EFECTIVO6269239       BM31  0006413455125149            0000000000    
DD193120265780000000626817400000006268174                2017041920170419000000000027352000000000000000000000000027352111023418723EFECTIVO00000006268174TBJA  0006418723125607            0000000000    
DD193120265780000000626826400000006268264                2017041920170419000000000015476000000000000000000000000015476111023421121EFECTIVO00000006268264TBJA  0006421121125804            0000000000    
DD19312026578000000062673880000000006267                 2017041920170419000000000018114000000000000000000000000018114245000215805EFECTIVO00000006267388VADA  0000215805125908            0000000000    
DD19312026578000000062692060000000006269                 2017041920170419000000000008163000000000000000000000000008163194042217589EFECTIVO00000006269206742F  0000217589130117            0000000000    
DD19312026578000000062690940000000006269                 2017041920170419000000000008515000000000000000000000000008515285003217996EFECTIVO00000006269094DCUG  0000217996130148            0000000000    
DD19312026578000000062678430000000006267                 2017041920170419000000000018540000000000000000000000000018540480002218235EFECTIVO00000006267843PU2C  0000218235130205            0000000000    
DD19312026578000000062690930000000006269                 2017041920170419000000000015208000000000000000000000000015208193097218643EFECTIVO00000006269093897A  0000218643130228            0000000000    
DD19312026578000000062684180000000006268                 2017041920170419000000000027200000000000000000000000000027200480002218658EFECTIVO00000006268418PU2C  0000218658130230            0000000000    
DD19312026578000000062672680000000006267                 2017041920170419000000000009541000000000000000000000000009541355002219512EFECTIVO00000006267268Y02B  0000219512130334            0000000000    
DD19312026578000000062677900000000006267                 2017041920170504000000000060000000000000000000000000000060000000000220608EFECTIVO00000006267790CJAG  0000220608130503            0000000000    
DD193120265780000000626944900000006269449                2017041920170424000000000010000000000000000000000000000010000111023435716EFECTIVO00000006269449TBJA  0006435716130950            0000000000    
DD19312026578000000062692670000000006269                 2017041920170419000000000006838000000000000000000000000006838390001225185EFECTIVO00000006269267Q01A  0000225185131105            0000000000    
DD193120265780000000626745300000006267453                2017041920170419000000000011078000000000000000000000000011078111008438621EFECTIVO00000006267453TNH1  0006438621131205            0000000000    
DD193120265780000000626948500000006269485                2017041920170504000000000001000000000000000000000000000001000111023439317EFECTIVO6269485       BM79  0006439317131240            0000000000    
DD193120265780000000626949000000006269490                2017041920170420000000000031341000000000000000000000000031341111023443089EFECTIVO00000006269490TBJ0  0006443089131543            0000000000    
DD193120265780000000626918800000006269188                2017041920170424000000000002000000000000000000000000000002000111023444973EFECTIVO00000006269188TBJA  0006444973131719            0000000000    
DD19312026578000000062692640000000006269                 2017041920170419000000000015090000000000000000000000000015090194062232935EFECTIVO00000006269264762A  0000232935132043            0000000000    
DD193120265780000000626957500000006269575                2017041920170504000000000000500000000000000000000000000000500111017449282EFECTIVO00000006269575PZBA  0006449282132053            0000000000    
DD193120265780000000626958900000006269589                2017041920170504000000000049500000000000000000000000000049500111023452739EFECTIVO6269589       BM83  0006452739132346            0000000000    
DD19312026578000000062693000000000006269                 2017041920170419000000000011668000000000000000000000000011668194008235765EFECTIVO00000006269300708C  0000235765132421            0000000000    
DD19312026578000000062684920000000006268                 2017041920170419000000000009714000000000000000000000000009714000029236233EFECTIVO00000006268492029G  0000236233132458            0000000000    
DD193120265780000000626964700000006269647                2017041920170504000000000005000000000000000000000000000005000111023460505EFECTIVO6269647       BM89  0006460505133039            0000000000    
DD19312026578000000062696350000000006269                 2017041920170504000000000008000000000000000000000000000008000000000241033EFECTIVO00000006269635CJAG  0000241033133136            0000000000    
DD193120265780000000626975500000006269755                2017041920170504000000000001100000000000000000000000000001100111023467683EFECTIVO00000006269755TBJ0  0006467683133711            0000000000    
DD193120265780000000626974100000006269741                2017041920170504000000000002000000000000000000000000000002000111023468370EFECTIVO00000006269741TBJU  0006468370133748            0000000000    
DD193120265780000000626974400000006269744                2017041920170504000000000002000000000000000000000000000002000111017471773EFECTIVO00000006269744PZAA  0006471773134054            0000000000    
DD193120265780000000626940300000006269403                2017041920170504000000000003000000000000000000000000000003000111023474681EFECTIVO00000006269403TBXK  0006474681134338            0000000000    
DD193120265780000000626982400000006269824                2017041920170504000000000010000000000000000000000000000010000111023478516EFECTIVO6269824       BM64  0006478516134715            0000000000    
DD193120265780000000626986000000006269860                2017041920170504000000000001500000000000000000000000000001500111023479834EFECTIVO6269860       BM1J  0006479834134831            0000000000    
DD19312026578000000062682490000000006268                 2017041920170419000000000015400000000000000000000000000015400192008254596EFECTIVO00000006268249608H  0000254596135048            0000000000    
DD193120265780000000626860600000006268606                2017041920170419000000000007859000000000000000000000000007859111017483543EFECTIVO00000006268606PZDD  0006483543135215            0000000000    
DD19312026578000000062682120000000006268                 2017041920170419000000000009369000000000000000000000000009369000059255992EFECTIVO00000006268212059B  0000255992135248            0000000000    
DD193120265780000000626985500000006269855                2017041920170504000000000000500000000000000000000000000000500111023485256EFECTIVO00000006269855TBY4  0006485256135354            0000000000    
DD193120265780000000626857700000006268577                2017041920170419000000000007172000000000000000000000000007172111017485764EFECTIVO00000006268577PZAB  0006485764135430            0000000000    
DD193120265780000000626993100000006269931                2017041920170419000000000010820000000000000000000000000010820111023491306EFECTIVO00000006269931TBY4  0006491306140003            0000000000    
DD193120265780000000626995400000006269954                2017041920170504000000000002000000000000000000000000000002000111023492148EFECTIVO00000006269954TBOC  0006492148140055            0000000000    
DD19312026578000000062686260000000006268                 2017041920170419000000000011529000000000000000000000000011529193035262719EFECTIVO00000006268626835B  0000262719140245            0000000000    
DD19312026578000000062683380000000006268                 2017041920170419000000000005886000000000000000000000000005886215000264397EFECTIVO00000006268338LEAD  0000264397140527            0000000000    
DD193120265780000000627000900000006270009                2017041920170505000000000001000000000000000000000000000001000111023501712EFECTIVO00000006270009TBRU  0006501712141103            0000000000    
DD193120265780000000627002200000006270022                2017041920170419000000000010030000000000000000000000000010030111023504276EFECTIVO00000006270022TBKY  0006504276141346            0000000000    
DD193120265780000000627005900000006270059                2017041920170505000000000020000000000000000000000000000020000111023506243EFECTIVO00000006270059TBKE  0006506243141547            0000000000    
DD193120265780000000626899700000006268997                2017041920170419000000000007980000000000000000000000000007980111023511636EFECTIVO00000006268997TBYP  0006511636142136            0000000000    
DD19312026578000000062672090000000006267                 2017041920170419000000000026360000000000000000000000000026360192029275629EFECTIVO00000006267209629B  0000275629142150            0000000000    
DD19312026578000000062696790000000006269                 2017041920170419000000000024708000000000000000000000000024708194056277930EFECTIVO00000006269679756D  0000277930142524            0000000000    
DD19312026578000000062687960000000006268                 2017041920170419000000000012892000000000000000000000000012892194050280025EFECTIVO00000006268796750D  0000280025142838            0000000000    
DD19312026578000000062679670000000006267                 2017041920170419000000000011432000000000000000000000000011432215005282211EFECTIVO00000006267967A05J  0000282211143141            0000000000    
DD193120265780000000627016500000006270165                2017041920170505000000000002000000000000000000000000000002000111023521161EFECTIVO00000006270165TBLI  0006521161143210            0000000000    
DD193120265780000000627010000000006270100                2017041920170419000000000013320000000000000000000000000013320111023524976EFECTIVO00000006270100TBX0  0006524976143617            0000000000    
DD193120265780000000627022000000006270220                2017041920170505000000000003000000000000000000000000000003000111023527729EFECTIVO00000006270220TBJA  0006527729143907            0000000000    
DD193120265780000000626751000000006267510                2017041920170504000000000000600000000000000000000000000000600111017532405EFECTIVO00000006267510PZDB  0006532405144346            0000000000    
DD193120265780000000627030800000006270308                2017041920170505000000000001000000000000000000000000000001000111023541063EFECTIVO00000006270308TBKE  0006541063145232            0000000000    
DD193120265780000000626916100000006269161                2017041920170419000000000008125000000000000000000000000008125111017542282EFECTIVO00000006269161PZAB  0006542282145350            0000000000    
DD19312026578000000062698590000000006269                 2017041920170419000000000005883000000000000000000000000005883305000299041EFECTIVO00000006269859LCHI  0000299041145547            0000000000    
DD19312026578000000062691560000000006269                 2017041920170419000000000010838000000000000000000000000010838390002300032EFECTIVO00000006269156Q02A  0000300032145722            0000000000    
DD193120265780000000627040100000006270401                2017041920170505000000000010000000000000000000000000000010000111023548357EFECTIVO6270401       BM1Y  0006548357150028            0000000000    
DD19312026578000000062687700000000006268                 2017041920170419000000000008411000000000000000000000000008411000148304061EFECTIVO00000006268770148D  0000304061150338            0000000000    
DD19312026578000000062702570000000006270                 2017041920170505000000000004000000000000000000000000000004000194015304413EFECTIVO00000006270257715B  0000304413150412            0000000000    
DD193120265780000000627001400000006270014                2017041920170419000000000011967000000000000000000000000011967111017553041EFECTIVO00000006270014PZAB  0006553041150538            0000000000    
DD19312026578000000062690570000000006269                 2017041920170419000000000016758000000000000000000000000016758250000305613EFECTIVO00000006269057C10C  0000305613150611            0000000000    
DD193120265780000000627043500000006270435                2017041920170505000000000100000000000000000000000000000100000111023554164EFECTIVO00000006270435TBKE  0006554164150653            0000000000    
DD19312026578000000062702560000000006270                 2017041920170419000000000057200000000000000000000000000057200193039308042EFECTIVO00000006270256839F  0000308042151008            0000000000    
DD193120265780000000627047700000006270477                2017041920170505000000000008000000000000000000000000000008000111023562530EFECTIVO6270477       BM68  0006562530151552            0000000000    
DD193120265780000000627051500000006270515                2017041920170505000000000001500000000000000000000000000001500111023566630EFECTIVO00000006270515TBKE  0006566630152014            0000000000    
DD19312026578000000062700950000000006270                 2017041920170419000000000006838000000000000000000000000006838000004315452EFECTIVO00000006270095ZLPA  0000315452152116            0000000000    
DD19312026578000000062700690000000006270                 2017041920170419000000000006838000000000000000000000000006838000004315996EFECTIVO00000006270069ZLPA  0000315996152209            0000000000    
DD193120265780000000627057700000006270577                2017041920170505000000000002900000000000000000000000000002900111023571659EFECTIVO00000006270577TBYO  0006571659152531            0000000000    
DD19312026578000000062696900000000006269                 2017041920170419000000000007172000000000000000000000000007172550000323100EFECTIVO00000006269690LERH  0000323100153320            0000000000    
DD19312026578000000062705730000000006270                 2017041920170419000000000006830000000000000000000000000006830585000328082EFECTIVO00000006270573C32E  0000328082154053            0000000000    
DD193120265780000000627067400000006270674                2017041920170424000000000001500000000000000000000000000001500111023587927EFECTIVO00000006270674TBJ0  0006587927154213            0000000000    
DD193120265780000000627070400000006270704                2017041920170419000000000016178000000000000000000000000016178111023590529EFECTIVO00000006270704TBKY  0006590529154441            0000000000    
DD19312026578000000062705560000000006270                 2017041920170419000000000024208000000000000000000000000024208305001333096EFECTIVO00000006270556H01H  0000333096154725            0000000000    
DD193120265780000000627073200000006270732                2017041920170505000000000000500000000000000000000000000000500111023594047EFECTIVO6270732       BM1I  0006594047154755            0000000000    
DD193120265780000000627076100000006270761                2017041920170505000000000000640000000000000000000000000000640111023595814EFECTIVO00000006270761TBYO  0006595814154925            0000000000    
DD19312026578000000062702810000000006270                 2017041920170419000000000011638000000000000000000000000011638000087335912EFECTIVO00000006270281087H  0000335912155109            0000000000    
DD193120265780000000627064400000006270644                2017041920170505000000000002000000000000000000000000000002000111023601460EFECTIVO00000006270644TBJA  0006601460155430            0000000000    
DD19312026578000000062705190000000006270                 2017041920170419000000000012228000000000000000000000000012228475005338495EFECTIVO00000006270519P05D  0000338495155444            0000000000    
DD19312026578000000062704990000000006270                 2017041920170419000000000007946000000000000000000000000007946194073339486EFECTIVO00000006270499773C  0000339486155606            0000000000    
DD193120265780000000627082200000006270822                2017041920170505000000000003000000000000000000000000000003000111023603455EFECTIVO00000006270822TBYO  0006603455155612            0000000000    
DD193120265780000000627082400000006270824                2017041920170420000000000003874000000000000000000000000003874111023607565EFECTIVO00000006270824TBKE  0006607565155948            0000000000    
DD19312026578000000062704150000000006270                 2017041920170419000000000031913000000000000000000000000031913285000342663EFECTIVO00000006270415CUZG  0000342663160010            0000000000    
DD19312026578000000062700780000000006270                 2017041920170419000000000012960000000000000000000000000012960193000353031EFECTIVO000000062700788PLG  0000353031161340            0000000000    
DD19312026578000000062706000000000006270                 2017041920170419000000000005886000000000000000000000000005886215011357676EFECTIVO00000006270600A11F  0000357676161923            0000000000    
DD19312026578000000062709060000000006270                 2017041920170505000000000004000000000000000000000000000004000193056358627EFECTIVO00000006270906856E  0000358627162033            0000000000    
DD193120265780000000627103200000006271032                2017041920170505000000000001000000000000000000000000000001000111023637091EFECTIVO00000006271032TBJ0  0006637091162434            0000000000    
DD19312026578000000062708550000000006270                 2017041920170419000000000034036000000000000000000000000034036000054362900EFECTIVO00000006270855054C  0000362900162520            0000000000    
DD193120265780000000627056800000006270568                2017041920170419000000000007801000000000000000000000000007801111023645266EFECTIVO0000006270568 BM31  0006645266163109            0000000000    
DD193120265780000000626483000000006264830                2017041920170419000000000018336000000000000000000000000018336111023649044EFECTIVO00000006264830TBXK  0006649044163405            0000000000    
DD193120265780000000627114700000006271147                2017041920170420000000000005053000000000000000000000000005053111023652920EFECTIVO00000006271147TBYO  0006652920163703            0000000000    
DD19312026578000000062707310000000006270                 2017041920170419000000000005946000000000000000000000000005946390000374804EFECTIVO00000006270731LEQB  0000374804163847            0000000000    
DD19312026578000000062709980000000006270                 2017041920170419000000000030303000000000000000000000000030303193074379728EFECTIVO00000006270998874E  0000379728164428            0000000000    
DD19312026578000000062708530000000006270                 2017041920170419000000000025578000000000000000000000000025578193074383009EFECTIVO00000006270853874E  0000383009164737            0000000000    
DD19312026578000000062710790000000006271                 2017041920170419000000000011682000000000000000000000000011682000108383351EFECTIVO00000006271079108B  0000383351164758            0000000000    
DD193120265780000000627043400000006270434                2017041920170419000000000006296000000000000000000000000006296111023668763EFECTIVO00000006270434TBJ0  0006668763164917            0000000000    
DD193120265780000000627028900000006270289                2017041920170419000000000058941000000000000000000000000058941111023672111EFECTIVO00000006270289TBJU  0006672111165152            0000000000    
DD19312026578000000062708070000000006270                 2017041920170419000000000012428000000000000000000000000012428000033387384EFECTIVO00000006270807033B  0000387384165237            0000000000    
DD193120265780000000627114500000006271145                2017041920170505000000000000500000000000000000000000000000500111017673596EFECTIVO00000006271145PZDC  0006673596165300            0000000000    
DD19312026578000000062709070000000006270                 2017041920170419000000000006180000000000000000000000000006180193048387839EFECTIVO00000006270907848F  0000387839165309            0000000000    
DD193120265780000000627131400000006271314                2017041920170505000000000001500000000000000000000000000001500111023674964EFECTIVO6271314       BM69  0006674964165402            0000000000    
DD193120265780000000627129400000006271294                2017041920170505000000000004300000000000000000000000000004300111023681050EFECTIVO00000006271294TBJ0  0006681050165838            0000000000    
DD193120265780000000627113900000006271139                2017041920170419000000000014674000000000000000000000000014674111023682193EFECTIVO00000006271139TBJV  0006682193165932            0000000000    
DD19312026578000000062712770000000006271                 2017041920170419000000000014590000000000000000000000000014590000098394233EFECTIVO00000006271277098C  0000394233170010            0000000000    
DD193120265780000000627131500000006271315                2017041920170505000000000008000000000000000000000000000008000111023683097EFECTIVO00000006271315TBYO  0006683097170012            0000000000    
DD19312026578000000062711940000000006271                 2017041920170419000000000015353000000000000000000000000015353193023397102EFECTIVO00000006271194823B  0000397102170300            0000000000    
DD19312026578000000062708390000000006270                 2017041920170419000000000068491000000000000000000000000068491000082397610EFECTIVO00000006270839082D  0000397610170333            0000000000    
DD19312026578000000062710490000000006271                 2017041920170419000000000006830000000000000000000000000006830192054401622EFECTIVO00000006271049654A  0000401622170758            0000000000    
DD193120265780000000627047000000006270470                2017041920170419000000000016624000000000000000000000000016624111008694340EFECTIVO00000006270470TN83  0006694340170831            0000000000    
DD193120265780000000627062700000006270627                2017041920170419000000000009278000000000000000000000000009278111008694383EFECTIVO00000006270627TNJ0  0006694383170833            0000000000    
DD193120265780000000627143300000006271433                2017041920170505000000000002500000000000000000000000000002500111023698738EFECTIVO6271433       BM94  0006698738171140            0000000000    
DD19312026578000000062710240000000006271                 2017041920170419000000000009946000000000000000000000000009946192028407434EFECTIVO00000006271024628C  0000407434171355            0000000000    
DD19312026578000000062712260000000006271                 2017041920170419000000000010021000000000000000000000000010021215010422440EFECTIVO00000006271226BRIE  0000422440172933            0000000000    
DD19312026578000000062710080000000006271                 2017041920170419000000000006010000000000000000000000000006010192054427363EFECTIVO00000006271008654A  0000427363173423            0000000000    
DD19312026578000000062712310000000006271                 2017041920170419000000000011306000000000000000000000000011306550000430839EFECTIVO00000006271231TOPB  0000430839173744            0000000000    
DD193120265780000000627161100000006271611                2017041920170419000000000011901000000000000000000000000011901111023736903EFECTIVO00000006271611TBY4  0006736903173807            0000000000    
DD193120265780000000627142300000006271423                2017041920170419000000000006177000000000000000000000000006177111017737317EFECTIVO00000006271423PZDB  0006737317173827            0000000000    
DD19312026578000000062710560000000006271                 2017041920170419000000000011078000000000000000000000000011078480000432272EFECTIVO00000006271056PLLA  0000432272173913            0000000000    
DD19312026578000000062709940000000006270                 2017041920170419000000000012373000000000000000000000000012373505000434642EFECTIVO00000006270994CCUE  0000434642174129            0000000000    
DD193120265780000000627169600000006271696                2017041920170419000000000022974000000000000000000000000022974111023744116EFECTIVO00000006271696TBY4  0006744116174256            0000000000    
DD19312026578000000062707360000000006270                 2017041920170419000000000012360000000000000000000000000012360480002440145EFECTIVO00000006270736PU2B  0000440145174655            0000000000    
DD193120265780000000627176100000006271761                2017041920170505000000000001000000000000000000000000000001000111023762639EFECTIVO00000006271761TBKF  0006762639175516            0000000000    
DD193120265780000000627167800000006271678                2017041920170419000000000018774000000000000000000000000018774111023766553EFECTIVO00000006271678TBX0  0006766553175753            0000000000    
DD193120265780000000627171000000006271710                2017041920170419000000000064131000000000000000000000000064131111023777011EFECTIVO00000006271710TBKY  0006777011180455            0000000000    
DD193120265780000000627184400000006271844                2017041920170505000000000001000000000000000000000000000001000111023777769EFECTIVO00000006271844TBYP  0006777769180524            0000000000    
DD193120265780000000627184200000006271842                2017041920170505000000000002700000000000000000000000000002700111023779437EFECTIVO00000006271842TBKY  0006779437180633            0000000000    
DD193120265780000000627185600000006271856                2017041920170505000000000012000000000000000000000000000012000111023779790EFECTIVO6271856       BM40  0006779790180647            0000000000    
DD193120265780000000627198900000006271989                2017041920170505000000000015000000000000000000000000000015000111023808799EFECTIVO6271989       BM57  0006808799182551            0000000000    
DD193120265780000000627200100000006272001                2017041920170505000000000001000000000000000000000000000001000111023810533EFECTIVO00000006272001TBY4  0006810533182659            0000000000    
DD193120265780000000627194400000006271944                2017041920170424000000000001500000000000000000000000000001500111023811021EFECTIVO00000006271944TBKE  0006811021182721            0000000000    
DD193120265780000000627199300000006271993                2017041920170419000000000007488000000000000000000000000007488111023816413EFECTIVO00000006271993TBJU  0006816413183055            0000000000    
DD193120265780000000627187400000006271874                2017041920170420000000000014854000000000000000000000000014854111008834947EFECTIVO00000006271874TNF4  0006834947184348            0000000000    
DD193120265780000000627192500000006271925                2017041920170419000000000005886000000000000000000000000005886111017839425EFECTIVO00000006271925PZAA  0006839425184658            0000000000    
DD193120265780000000627206400000006272064                2017041920170419000000000079818000000000000000000000000079818111023849898EFECTIVO00000006272064TBJA  0006849898185430            0000000000    
DD193120265780000000627194900000006271949                2017041920170419000000000028360000000000000000000000000028360111023854098EFECTIVO00000006271949TBL0  0006854098185734            0000000000    
DD193120265780000000627219000000006272190                2017041920170424000000000002000000000000000000000000000002000111023862682EFECTIVO00000006272190TBJ0  0009862682190402            0000000000    
DD193120265780000000627204200000006272042                2017041920170419000000000009977000000000000000000000000009977111023867633EFECTIVO00000006272042TBKF  0009867633190742            0000000000    
DD193120265780000000626494000000006264940                2017041920170419000000000025437000000000000000000000000025437111023869277EFECTIVO00000006264940TBY4  0009869277190856            0000000000    
DD193120265780000000627225500000006272255                2017041920170505000000000010000000000000000000000000000010000111023879451EFECTIVO6272255       BM78  0009879451191638            0000000000    
DD193120265780000000627222800000006272228                2017041920170424000000000002000000000000000000000000000002000111017880557EFECTIVO00000006272228PZAB  0009880557191732            0000000000    
DD193120265780000000627229500000006272295                2017041920170419000000000016958000000000000000000000000016958111023893926EFECTIVO00000006272295TBJU  0009893926192801            0000000000    
DD193120265780000000627231900000006272319                2017041920170424000000000005000000000000000000000000000005000111023898605EFECTIVO00000006272319TBY4  0009898605193151            0000000000    
DD193120265780000000627235000000006272350                2017041920170505000000000001000000000000000000000000000001000111023903273EFECTIVO6272350       BM1B  0009903273193542            0000000000    
DD193120265780000000627236300000006272363                2017041920170419000000000041758000000000000000000000000041758111023905278EFECTIVO00000006272363TBKY  0009905278193720            0000000000    
DD193120265780000000627234500000006272345                2017041920170419000000000009190000000000000000000000000009190111023910205EFECTIVO00000006272345TBXK  0009910205194125            0000000000    
DD193120265780000000627241000000006272410                2017041920170424000000000001500000000000000000000000000001500111023913736EFECTIVO00000006272410TBLJ  0009913736194431            0000000000    
DD193120265780000000627222400000006272224                2017041920170420000000000013792000000000000000000000000013792111017913831EFECTIVO00000006272224PZAA  0009913831194438            0000000000    
DD193120265780000000627231700000006272317                2017041920170424000000000001500000000000000000000000000001500111017915182EFECTIVO00000006272317PZDA  0009915182194548            0000000000    
DD193120265780000000627067100000006270671                2017041920170419000000000022332000000000000000000000000022332111023925607EFECTIVO00000006270671TBKF  0009925607195508            0000000000    
DD193120265780000000627242400000006272424                2017041920170420000000000013438000000000000000000000000013438111017931423EFECTIVO00000006272424PZDB  0009931423200037            0000000000    
DD193120265780000000627249100000006272491                2017041920170505000000000004000000000000000000000000000004000111023933067EFECTIVO00000006272491TBJU  0009933067200209            0000000000    
DD193120265780000000627264700000006272647                2017041920170505000000000030000000000000000000000000000030000111023967539EFECTIVO6272647       BM94  0009967539203904            0000000000    
DD193120265780000000627264000000006272640                2017041920170505000000000001000000000000000000000000000001000111023969833EFECTIVO00000006272640TBJ0  0009969833204156            0000000000    
DD193120265780000000626297700000006262977                2017041820170418000000000015798000000000000000000000000015798111023017435EFECTIVO00000006262977TBY4  0009017435211210            0000000000    
DD193120265780000000626525000000006265250                2017041820170423000000000001500000000000000000000000000001500111023020278EFECTIVO00000006265250TBYO  0009020278211652            0000000000    
DD193120265780000000626501400000006265014                2017041820170418000000000009057000000000000000000000000009057111017023772EFECTIVO00000006265014PZDA  0009023772212302            0000000000    
DD193120265780000000626531500000006265315                2017041820170504000000000015000000000000000000000000000015000111023029875EFECTIVO00000006265315TBKY  0009029875213455            0000000000    
DD193120265780000000626533200000006265332                2017041820170419000000000169159000000000000000000000000169159111023030991EFECTIVO6265332       BM70  0009030991213716            0000000000    
DD193120265780000000626535200000006265352                2017041820170504000000000001500000000000000000000000000001500111023031553EFECTIVO00000006265352TBRU  0009031553213828            0000000000    
DD193120265780000000626540300000006265403                2017041820170504000000000010420000000000000000000000000010420111023036493EFECTIVO00000006265403TBX0  0009036493214857            0000000000    
DD193120265780000000626563100000006265631                2017041820170419000000000010768000000000000000000000000010768111023051744EFECTIVO00000006265631TBX0  0009051744223454            0000000000    
DD193120265780000000626570100000006265701                2017041820170504000000000001000000000000000000000000000001000111023055854EFECTIVO00000006265701TBKY  0009055854225401            0000000000    
DD193120265780000000626571200000006265712                2017041820170504000000000001000000000000000000000000000001000111023055878EFECTIVO6265712       BM31  0009055878225410            0000000000    
DD193120265780000000626573800000006265738                2017041820170504000000000020000000000000000000000000000020000111023057462EFECTIVO      6265738 TBX0  0009057462230244            0000000000    
DD193120265780000000626573000000006265730                2017041820170419000000000026398000000000000000000000000026398111023057480EFECTIVO00000006265730TBX0  0009057480230251            0000000000    
DD193120265780000000626580300000006265803                2017041820170504000000000000500000000000000000000000000000500111023060547EFECTIVO6265803       BM1O  0009060547232337            0000000000    
