0120464993879005USD20170307001105860100025512                                                                                                           
02hector calderon diaz          0000000600354000000006003540          006805679200000000000744900000000000744900000000000000004371886432017030702048661 
02EDWIN SARABIA                 0000000600207400000006002074          006805634800000000000889200000000000889200000000000000002121886412017030701015W1B 
02SILVIA  PINEDO                0000000600351000000006003510          006805622700000000004762100000000004762100000000000000004371886392017030702041908 
02VICTORIA LUISA LIRA MORI      0000000600260800000006002608          006805504300000000000905700000000000905700000000000000001101886372017030701013223 
02Miguel wenceslao ochoa cuadros0000000600339100000006003391          006805469300000000001000000000000001000000000000000000004371886352017030702042763 
02Guillermo  Del Águila Lopez   0000000600288600000006002886          00680543970000000000117310000000000117310000000000000000477188633201703070101D911 
02JOSE GONZALES RUIZ            0000000600302700000006003027          00680536450000000000152050000000000152050000000000000000387188631201703070101AR25 
02DORIS ELENA MARTINEZ DE VENEGA0000000600278000000006002780          006805299500000000000300000000000000300000000000000000002871886292017030701017Z23 
02juan diego alegria            0000000600320700000006003207          006805235400000000000118000000000000118000000000000000004371886272017030702043885 
02MANUEL ERNESTO MARTINEZ TASAYC0000000600279300000006002793          00680515850000000000195900000000000195900000000000000000010188625201703070101JQ13 
02LUIS FERNANDO REATEGUI LAZARTE0000000600265200000006002652          006805047300000000000999100000000000999100000000000000002631886232017030701017B12 
02PERCY  OSORIO CCAHUANA        0000000600282600000006002826          006804867400000000001296600000000001296600000000000000002201886212017030701016452 
02nicolas adriel chipana evarist0000000600230800000006002308          00680478040000000001026250000000001026250000000000000000729188618201703070201K914 
02juan diego alegria            0000000600736500000006007365          006810455800000000000119000000000000119000000000000000004371887552017030702045645 
02FLY TOURS PERU EIRL  **       0000000600726200000006007262          00681034370000000000168860000000000168860000000000000000437188753201703070204WNET 
02VICTOR BRAVO POSTIGO          0000000600618000000006006180          006810054100000000001564700000000001564700000000000000004371887512017030702048551 
02Jhon Paul Infantes Veliz      0000000600858500000006008585          006812178200000000001000000000000001000000000000000000004371887672017030707046612 
02christian Zabaleta Maza       0000000600821200000006008212          006811909000000000000061400000000000061400000000000000004371887652017030702044756 
02Fabio Vásquez                 0000000600652900000006006529          006809317400000000000700000000000000700000000000000000003551887272017030701019V21 
02Vanessa Lázaro Loarte         0000000600636600000006006366          00680900150000000000015000000000000015000000000000000000437188725201703070204WNET 
02ERIKA NUNEZ                   0000000600410800000006004108          006808944900000000023360000000000023360000000000000000002011887222017030702015L26 
02Luis Eduardo Rodríguez Sánchez0000000600557000000006005570          006808770200000000000060000000000000060000000000000000004371887202017030702044896 
02Katia  Valer                  0000000600544200000006005442          006808676800000000002013900000000002013900000000000000001841887182017030701015422 
02JOELY FRISANCHO               0000000600200900000006002009          006806497300000000001240300000000001240300000000000000001081886602017030701013021 
02Edgar  Rojas                  0000000600401500000006004015          006806490000000000002256600000000002256600000000000000002141886582017030701015Y11 
02GIANFRANCO MARRACHE           0000000600318200000006003182          006806290300000000000581200000000000581200000000000000004371886562017030702044129 
02Eddy Coba                     0000000600403100000006004031          00680624680000000000080000000000000080000000000000000000437188654201703070204WNET 
02Ana Vilca                     0000000600338500000006003385          00680620450000000001454000000000001454000000000000000000524188651201703070201EK14 
02ALEX PARI                     0000000600275700000006002757          006806153400000000001388800000000001388800000000000000004371886492017030702041627 
02DIEGO ALARCON                 0000000600217100000006002171          006806153000000000001220600000000001220600000000000000004371886472017030702041273 
02Eulogia Salas                 0000000600253100000006002531          006805855300000000000629300000000000629300000000000000002181886452017030701016223 
02Nelson Riva                   0000000600274200000006002742          00680463800000000000009000000000000009000000000000000000437188616201703070204WNET 
02JUAN MATOS PASCARELLA         0000000600233600000006002336          00680445510000000000824660000000000824660000000000000000713188614201703070201JT16 
02MISHELL LINO                  0000000600237800000006002378          006803996500000000000716800000000000716800000000000000004371886122017030702041225 
02Jhon Paul Infantes Veliz      0000000600203600000006002036          006803702400000000001000000000000001000000000000000000004371886102017030707044908 
02JAIME PASTOR                  0000000600197500000006001975          006803677600000000000059100000000000059100000000000000004371886082017030702048256 
02fernando alba                 0000000600192700000006001927          00680366740000000000050000000000000050000000000000000000437188606201703070204WNET 
02PEDRO GARCIA                  0000000600159900000006001599          00680365040000000000080000000000000080000000000000000000437188604201703070204WNET 
02YOSHIRO TRAVEZANO             0000000600046200000006000462          006803643200000000001037000000000001037000000000000000004371886022017030702046801 
02freed loza la rosa            0000000600147000000006001470          00680361970000000000119000000000000119000000000000000000437188600201703060204WNET 
02Andres Garcia                 0000000595102000000005951020          006803527800000000000100000000000000100000000000000000004371885982017030602041722 
02MARIA TERESA RAMIREZ OTAROLA S0000000600540000000006005400          006808545700000000001393600000000001393600000000000000004371887162017030702048451 
02guillermo pisconte sanchez    0000000600594400000006005944          006808469900000000002478000000000002478000000000000000004371887142017030702042453 
02SANDRA MENDOZA                0000000600583500000006005835          00680839480000000000072950000000000072950000000000000000712188712201703070101JS13 
02paul duarte yupanqui          0000000600579800000006005798          006808255200000000000333700000000000333700000000000000004371887102017030702046980 
02GRACIELA HIDALGO              0000000600306900000006003069          00680824720000000000172760000000000172760000000000000000050188708201703070101NM11 
02Edgar Alva                    0000000600558600000006005586          006808147600000000001000000000000001000000000000000000001101887062017030701013223 
02Fernando Mu¦oz Mena           0000000600559600000006005596          00680803840000000000006640000000000006640000000000000000437188704201703070204WNET 
02Leonidas Barreto Yupanqui     0000000600555100000006005551          00680798840000000000005000000000000005000000000000000000437188702201703070204WNET 
02William Rios                  0000000600546100000006005461          00680791360000000000050000000000000050000000000000000000437188700201703070204WNET 
02ruth  chuyacama               0000000600460500000006004605          006807905000000000001332400000000001332400000000000000000831886982017030701012B13 
02luis galvez                   0000000600458000000006004580          006807837000000000001000000000000001000000000000000000001501886962017030701014624 
02DAVID CHERO                   0000000600425000000006004250          006807780500000000001155000000000001155000000000000000003241886942017030702019021 
02DIANA EMPERATRIZ LABAN LEIVA  0000000600384000000006003840          006807684400000000001140200000000001140200000000000000003141886922017030702018Q21 
02juan diego alegria            0000000600524000000006005240          006807681000000000000325000000000000325000000000000000004371886902017030702041505 
02Oscar Gomez                   0000000600519300000006005193          00680762850000000000005000000000000005000000000000000000437188688201703070204WNET 
02LUTGARDA NELLY ESPINOZA VALDIV0000000600510000000006005100          00680756510000000000155760000000000155760000000000000000514188686201703070101EA11 
02shirley  saavedra             0000000600396300000006003963          00680753340000000000260210000000000260210000000000000000442188684201703070101CA11 
02JEAN PIERRE MARIO GUZMAN MARTI0000000600464700000006004647          00680742150000000000242930000000000242930000000000000000628188682201703070101HG13 
02CARLOS BADA MANCILLA          0000000600381700000006003817          006807215400000000002261200000000002261200000000000000001901886802017030707015A29 
02Ana maria  isuiza valles      0000000600396100000006003961          00680717190000000000154510000000000154510000000000000000437188678201703070204WNET 
02Bruce ESPADIN MANOTUPA        0000000600467800000006004678          006807075000000000000100000000000000100000000000000000004371886762017030702049355 
02Gonzalo garcés Villalobos     0000000600467500000006004675          006807047600000000001200000000000001200000000000000000004371886742017030707046635 
02nilton verastegui             0000000600464200000006004642          00680700610000000000012590000000000012590000000000000000437188672201703070204WNET 
02PABLO DANIEL  OLIVARES ROCA   0000000600457700000006004577          00680699010000000000124940000000000124940000000000000000418188670201703070701BM11 
02Renzo Mu¦iz                   0000000600454000000006004540          006806924400000000002000000000000002000000000000000000004371886682017030707049231 
02Segundo Javier  Neira Ontaneda0000000600419100000006004191          00680685130000000000060000000000000060000000000000000000486188666201703070101DI94 
02ELBA MONTERO ENCINAS          0000000600399800000006003998          006806821600000000001076800000000001076800000000000000001411886642017030701013X21 
02Jorge Raraz Tinoco            0000000600432800000006004328          006806670500000000000150000000000000150000000000000000004371886622017030707043687 
02christian Zabaleta Maza       0000000600729400000006007294          006811136700000000000061400000000000061400000000000000004371887572017030702043345 
02Bruce ESPADIN MANOTUPA        0000000600814300000006008143          00681175880000000000010000000000000010000000000000000000437188763201703070204WNET 
02ESTUARDO ESTRADA              0000000600773700000006007737          006811481900000000001089200000000001089200000000000000002121887612017030701015W11 
02Jhon Paul Infantes Veliz      0000000600790300000006007903          006811439600000000000500000000000000500000000000000000004371887592017030707041171 
02EDISON INGA                   0000000600654000000006006540          00680994390000000000132710000000000132710000000000000000733188749201703070201KD11 
02Kevin Rommel Amer Retamozo Mun0000000600155600000006001556          006809931300000000000500000000000000500000000000000000001081887472017030701013021 
02JACKELINE GOMEZ SILVA         0000000600598800000006005988          006809917200000000004645900000000004645900000000000000001501887452017030701014623 
02JAIME PASTOR                  0000000600703300000006007033          00680985600000000000007660000000000007660000000000000000437188743201703070204WNET 
02CARLOS FERIA                  0000000600698800000006006988          006809851700000000000869600000000000869600000000000000004371887412017030702041687 
02ELIZABETH GUILLINTA           0000000600613200000006006132          006809796300000000001153600000000001153600000000000000002631887392017030702017B11 
02nicolas adriel chipana evarist0000000600666400000006006664          006809513600000000000529000000000000529000000000000000003561887372017030702019W22 
02MIRIAM  ESCOBAL MENDOZA       0000000600533400000006005334          006809484800000000003165100000000003165100000000000000002291887352017030701016D23 
02MARIE GENNET ROELANDTS        0000000600647400000006006474          006809477700000000001131400000000001131400000000000000003411887332017030701019H21 
02ELIA ZARATE                   0000000600658200000006006582          006809360000000000001076800000000001076800000000000000001761887312017030701014W21 
02SMAILING  MOYA                0000000600623100000006006231          006809340900000000001277400000000001277400000000000000001101887292017030702013222 
03000000084000000001407265000000001407265000000000000000                                                                                                
