0120464993879005PEN20170307001105860100025504                                                                                                           
0213876395 Rolf Alpiste Teran   0000000600281500000006002815          006804681700000000000200000000000000200000000000000000004375102922017030702048473 
02                              0000000600268300000006002683          006804670200000000000300000000000000300000000000000000004375102902017030702048953 
02MILENE CAMPA#A                0000000600235200000006002352          00680466250000000000135000000000000135000000000000000000437510288201703070204WNET 
02                              0000000598805100000005988051          006804616500000000000600000000000000600000000000000000003235102862017030701018Z21 
02diego vilchez zoeger          0000000600276400000006002764          006804609000000000000940000000000000940000000000000000004375102842017030702046142 
02tsukune_34-az tsukune_34-az   0000000600264000000006002640          006804599800000000000900000000000000900000000000000000001055102822017030701012X22 
02Martin Gerardo Martinez Bustam0000000600274900000006002749          006804599300000000000500000000000000500000000000000000004375102802017030702047444 
02Diego Romani Montes           0000000600273400000006002734          006804561100000000000510000000000000510000000000000000008175102782017030701068T%C 
02                              0000000593342100000005933421          006804515000000000000600000000000000600000000000000000008175102722017030701068Y%Q 
02jhon jairo torres almeyda     0000000600269300000006002693          00680450230000000000055000000000000055000000000000000000437510270201703070204WNET 
02Juan Julio Rivasplata         0000000600268600000006002686          00680449430000000000200000000000000200000000000000000000437510268201703070204WNET 
02                              0000000600144500000006001445          00680448290000000000040000000000000040000000000000000000437510266201703070204WNET 
02                              0000000599625200000005996252          006804453100000000001552500000000001552500000000000000008175102642017030701069R%B 
02Nestor Omar Ruiz Reynoso      0000000600262300000006002623          006804413800000000000200000000000000200000000000000000004375102622017030707042113 
02eric noriega                  0000000600258700000006002587          006804357700000000000600000000000000600000000000000000004375102602017030702043714 
02FREDDY ISIDRO                 0000000600258500000006002585          006804338400000000000200000000000000200000000000000000004375102582017030702044435 
02Juan Diego Medina Rivero      0000000600246800000006002468          006804129200000000000150000000000000150000000000000000004375102562017030702049917 
02Jorge Luis Huaytan Fasabi     0000000600233300000006002333          006804086600000000001890000000000001890000000000000000004375102542017030702047186 
02eduardo gonzalo aguirre masson0000000600232900000006002329          006804066300000000004450300000000004450300000000000000001195102522017030701013B12 
02                              0000000600239400000006002394          006804047600000000000350000000000000350000000000000000004375102502017030702040188 
02Ivan Celso Palomino Huayta    0000000600237500000006002375          006803970200000000000246200000000000246200000000000000004375102482017030702043561 
02Karl Barrantes                0000000600224200000006002242          00680388390000000000030000000000000030000000000000000000437510246201703070704WNET 
02                              0000000600072200000006000722          006803852500000000001199900000000001199900000000000000008175102442017030701068X%Q 
02Maggi Martell                 0000000600078500000006000785          00680384870000000000010000000000000010000000000000000000437510242201703070204WNET 
02Efrain Armas Quenty           0000000600217300000006002173          00680381380000000000020000000000000020000000000000000000437510240201703070204WNET 
02Luis Alfonso Cerna Sifuentes  0000000600218600000006002186          006803813700000000002000000000000002000000000000000000004375102382017030707048628 
02Miguelona Vaca                0000000600212600000006002126          00680380850000000000020000000000000020000000000000000000437510236201703070704WNET 
02RONAL AUGUSTO DURAN SALVADOR  0000000600215000000006002150          00680379420000000000039850000000000039850000000000000000437510234201703070204WNET 
02Ricardo Garcia                0000000600213200000006002132          006803770400000000002000000000000002000000000000000000004375102322017030702042878 
02Victor Sanchez Sagastegui     0000000599706700000005997067          006803758000000000000349000000000000349000000000000000004375102302017030702040260 
02Marco Antonio Manyari Masias  0000000600210700000006002107          006803750700000000000400000000000000400000000000000000004375102282017030702043482 
02CARLOS FRANCISCO TORRES ARANGO0000000600208100000006002081          006803732300000000000270000000000000270000000000000000004375102262017030702048340 
02Angel Quintana                0000000600205500000006002055          006803719600000000063000000000000063000000000000000000004375102232017030702043362 
02Marco Antonio Manyari Masias  0000000600206100000006002061          006803717600000000000264800000000000264800000000000000004375102212017030702047719 
02gino lozano pe¦a              0000000600199400000006001994          00680368430000000000300000000000000300000000000000000000437510219201703070204WNET 
02Paolo Alexander Saavedra Mayor0000000600197800000006001978          006803678600000000000500000000000000500000000000000000004375102172017030702043806 
02Jean Izquierdo                0000000600197000000006001970          00680367580000000000185000000000000185000000000000000000437510215201703070204WNET 
02Paolo Ravello Ortiz           0000000600195200000006001952          006803672400000000000300000000000000300000000000000000004375102132017030707047340 
02Michael Rodrigo Apaza         0000000600191300000006001913          006803664600000000000450000000000000450000000000000000004375102112017030702044708 
0212469581 ARMANDO SILVA GARAY  0000000600177600000006001776          006803659100000000000200000000000000200000000000000000004375102092017030702040730 
0212469581 ARMANDO SILVA GARAY  0000000600175200000006001752          006803657700000000000400000000000000400000000000000000004375102072017030702049479 
02                              0000000600173900000006001739          006803657300000000000109000000000000109000000000000000004375102052017030702048106 
02williams contreras            0000000600171800000006001718          006803655400000000000190000000000000190000000000000000004375102032017030702047774 
02williams contreras            0000000600168000000006001680          006803654100000000000190000000000000190000000000000000004375102012017030702049000 
02molotov_2999@hotmail.com      0000000600154200000006001542          00680363290000000000016360000000000016360000000000000000437510199201703070704WNET 
02Jean Pierre Servat Cisneros   0000000600151400000006001514          006803626400000000000400000000000000400000000000000000004375101972017030602048263 
02Anita Romero Rodriguez        0000000600148500000006001485          00680362550000000000077000000000000077000000000000000000437510195201703060204WNET 
02JUAN MINCHOLA CASTA#EDA       0000000600144600000006001446          00680361390000000000060030000000000060030000000000000000437510193201703060204WNET 
02carlos rafael cabell solano   0000000600144200000006001442          00680361210000000000020000000000000020000000000000000000437510191201703060204WNET 
02Romily Nieto Choccata         0000000600135500000006001355          00680359590000000000030000000000000030000000000000000000437510189201703060204WNET 
02kevin flores taype            0000000600129900000006001299          006803582800000000000500000000000000500000000000000000004375101872017030602041236 
02Pedro Alexis Abarca Abarca    0000000600127600000006001276          006803576400000000000331600000000000331600000000000000004375101852017030602041164 
02Abel Canasas                  0000000600126100000006001261          006803574300000000000150000000000000150000000000000000004375101832017030602042240 
02Julio Vera .                  0000000599645700000005996457          006803569800000000000590000000000000590000000000000000004375101812017030607045527 
02Sol Gil Jauregui              0000000600111900000006001119          00680356930000000000014000000000000014000000000000000000437510179201703060204WNET 
02Julio Vera .                  0000000599646700000005996467          006803567100000000000590000000000000590000000000000000004375101772017030607044634 
02José Cárdenas Camacho         0000000600122300000006001223          00680356660000000000053000000000000053000000000000000000437510175201703060204WNET 
02PATRICIA CHUMBE ESCUDERO      0000000600117700000006001177          00680355420000000000070520000000000070520000000000000000437510173201703060204WNET 
02                              0000000600118900000006001189          006803551000000000002800000000000002800000000000000000004375101712017030602043271 
02CLAUDIA CECILIA RAMIREZ YSUIZA0000000600100800000006001008          00680355040000000000009000000000000009000000000000000000437510169201703060204WNET 
02rafael ortiz                  0000000600111700000006001117          00680352940000000000050000000000000050000000000000000000437510167201703060204WNET 
02Javier Muro Rebolledo         0000000600805900000006008059          006811723300000000000300000000000000300000000000000000004375109782017030702042035 
02Jovani Car Tandazo Co         0000000600757200000006007572          006811771200000000003140000000000003140000000000000000008175109802017030701069M%V 
02                              0000000600814600000006008146          006811817000000000000153000000000000153000000000000000004375109842017030702049765 
02rosilda rosilda               0000000600779600000006007796          006811789900000000000400000000000000400000000000000000008175109822017030701069L%E 
02alfonso andree leon komori    0000000600794100000006007941          006811629300000000000500000000000000500000000000000000004375109762017030702040514 
02jhandy_01_13@hotmail.com      0000000600795900000006007959          006811583500000000000750000000000000750000000000000000008175109742017030701068Y%F 
02Rolando Salazar Rojas         0000000600795700000006007957          006811531300000000002500000000000002500000000000000000004375109722017030702045905 
02                              0000000600791300000006007913          00681148900000000000163500000000000163500000000000000000437510970201703070204WNET 
02Doris Marina Bardales del agui0000000600472900000006004729          006811454800000000005000000000000005000000000000000000004375109682017030702046629 
02Erick Arango                  0000000600774000000006007740          00681142000000000000080000000000000080000000000000000000437510966201703070204WNET 
02Jesus Berrio                  0000000600790900000006007909          00681141960000000004000000000000004000000000000000000000437510963201703070704WNET 
02Jhonathan Alonzo Rojas Guillen0000000600709700000006007097          006811375700000000000400000000000000400000000000000000004375109612017030702047359 
02                              0000000600144900000006001449          006811355700000000000100000000000000100000000000000000008175109592017030701069I%J 
02tkm_canabis@outlook.es        0000000600786200000006007862          006811324000000000000300000000000000300000000000000000008175109572017030701069A%O 
02Jorge Alex Champa Bernable    0000000600784200000006007842          00681124630000000000028000000000000028000000000000000000437510955201703070204WNET 
02smiker mori                   0000000600782800000006007828          006811208100000000000200000000000000200000000000000000008175109532017030701069I%T 
02Luis Vera Chacon              0000000600765000000006007650          00681111470000000000070000000000000070000000000000000000437510951201703070204WNET 
02Nicole Landeo Cruzado         0000000600776000000006007760          006811090500000000000260000000000000260000000000000000008175109492017030701069I%K 
02Luis Alfonso Cerna Sifuentes  0000000600774900000006007749          006811037800000000002000000000000002000000000000000000004375109472017030707042812 
02Jesus Berrio                  0000000600772400000006007724          00681100410000000006000000000000006000000000000000000000437510944201703070704WNET 
02Jonathan Pando Utrilla        0000000600766500000006007665          006810965100000000001467100000000001467100000000000000004375109422017030702047610 
02Abel Armando Casta¦eda Miranda0000000600765300000006007653          006810962000000000000547100000000000547100000000000000004375109402017030702043453 
02yuri vega                     0000000600762900000006007629          00681095840000000000050000000000000050000000000000000000437510938201703070204WNET 
02SRTA LESLIE ABANTO            0000000600761200000006007612          006810938600000000000200000000000000200000000000000000004375109362017030702043804 
02vasquez_99denis@hotmail.com   0000000600350400000006003504          00681092390000000000030000000000000030000000000000000000437510934201703070204WNET 
02                              0000000600763900000006007639          006810897100000000000321500000000000321500000000000000008175109322017030701069L%D 
02Germán Arturo Medina Adrianzén0000000600761100000006007611          006810820700000000000500000000000000500000000000000000004375109302017030702046329 
02jenkins jemus canales oblitas 0000000600605200000006006052          00680859080000000000040000000000000040000000000000000000437510732201703070204WNET 
02katty.delacruz.pari@gmail.com 0000000600603200000006006032          006808560500000000000517400000000000517400000000000000004375107302017030702041137 
02Carlos Alberto Mesta Mesta    0000000600602200000006006022          006808548600000000001000000000000001000000000000000000004375107282017030702044707 
02Jorge Bustamante              0000000600599900000006005999          006808503900000000000150000000000000150000000000000000004375107262017030702045147 
02Fernando Bertetti Bertetti    0000000600403700000006004037          00680850070000000000105000000000000105000000000000000000369510724201703070101A923 
02elizabeth milagros            0000000600554800000006005548          006808479500000000000920000000000000920000000000000000001575107222017030701014D21 
02Manuel  garcia                0000000600596400000006005964          006808469200000000005800000000000005800000000000000000004375107202017030702040626 
02Ing Mosquera                  0000000600554300000006005543          00680846010000000000218000000000000218000000000000000000659510718201703070201IB11 
02luis alberto ortiz cumpa      0000000600593600000006005936          006808427300000000002890000000000002890000000000000000004375107162017030702041132 
02                              0000000596682300000005966823          006808411900000000000600000000000000600000000000000000002745107142017030701017M21 
02CLINICA MEDICA LOS OLIVOS CLIN0000000600418100000006004181          00680836240000000000026900000000000026900000000000000000437510712201703070204WNET 
02Alan Edher Garcia Valverde    0000000600584500000006005845          006808340400000000001000000000000001000000000000000000004375107102017030702046160 
023471043 Robin David Solano Cru0000000600584600000006005846          006808334900000000001000000000000001000000000000000000004375107082017030707040901 
0215786937 Luís Villanueva      0000000600538300000006005383          006808317200000000000200000000000000200000000000000000008175107062017030701069Q%U 
02MIGUEL                        0000000600512000000006005120          006808305300000000002420000000000002420000000000000000001765107042017030702014W21 
02franklin espiritu paniagua    0000000600582000000006005820          00680829340000000000040000000000000040000000000000000000437510702201703070204WNET 
02                              0000000600577200000006005772          00680828020000000000079000000000000079000000000000000000437510700201703070204WNET 
02JOSE LUIS ZAVALA SOLANO       0000000600578800000006005788          006808215700000000000350000000000000350000000000000000008175106982017030701069K%R 
02Jose Luiz Ttito Cusihuaman    0000000600571600000006005716          006808200000000000000200000000000000200000000000000000008175106962017030701068K%T 
02                              0000000600469700000006004697          006808182000000000001559500000000001559500000000000000001755106942017030701014V34 
02Agustina atiquipa medina      0000000595407200000005954072          006808177300000000000558000000000000558000000000000000003405106922017030701019G23 
02Ethel Rossy Prudencio         0000000599949500000005999495          00680815430000000000442500000000000442500000000000000000437510690201703070204WNET 
02PIGMALION CONSULTORES SA Pigma0000000600569900000006005699          006808143400000000000319000000000000319000000000000000004375106882017030702044232 
02yeison pe¦a                   0000000600554200000006005542          006808132200000000005000000000000005000000000000000000004375106862017030707049231 
02André Soria Meza              0000000600562500000006005625          00680806500000000000020000000000000020000000000000000000437510684201703070204WNET 
02Arturo mendoza salazar        0000000592743800000005927438          006808050600000000001050000000000001050000000000000000002865106822017030702017Y12 
02Tito Chavez                   0000000600560100000006005601          006808045200000000000200000000000000200000000000000000004375106802017030702042283 
02Ines       Cabrera            0000000600557800000006005578          00680803210000000000118250000000000118250000000000000000437510678201703070204WNET 
02Julio Cesar Garnica Gilt      0000000600356300000006003563          006808016900000000002080000000000002080000000000000000002295106762017030702016D22 
02Roddy Vargas                  0000000600556300000006005563          006808005900000000000240000000000000240000000000000000004375106742017030702046240 
02Germán Arturo Medina Adrianzén0000000600556800000006005568          006807995700000000001000000000000001000000000000000000004375106722017030702045166 
02DANIEL ALBERTO TELLO PISANO   0000000600628600000006006286          006809887600000000001400000000000001400000000000000000001785108612017030701014Y21 
02Josue Daza Sopla              0000000600679500000006006795          006809916900000000001270000000000001270000000000000000003145108632017030701018Q22 
0212470600 Josue Mendoza        0000000600670300000006006703          006809978000000000001300000000000001300000000000000000003455108652017030701019L14 
02Miguelona Vaca                0000000600643800000006006438          00680937620000000000040000000000000040000000000000000000437510825201703070704WNET 
02Arnold Arrunategui            0000000600650400000006006504          006809379600000000000329000000000000329000000000000000008175108272017030701069V%K 
02Alan Marquez Llerna           0000000600680400000006006804          006809540800000000000390000000000000390000000000000000008175108352017030701069A%S 
02Marcial Alfredo Rios Herrera  0000000600684900000006006849          006809605400000000000300000000000000300000000000000000004375108372017030702048197 
02CARLOS P EFECTIVO 4:30PM      0000000600640200000006006402          006809419800000000002800000000000002800000000000000000008175108332017030701068S%K 
02jenkins jemus canales oblitas 0000000600669200000006006692          00680940490000000000020000000000000020000000000000000000437510831201703070204WNET 
02Juliana Bringas               0000000600671300000006006713          006809404100000000000770000000000000770000000000000000004375108292017030702040067 
02Marco Antonio Manyari Masias  0000000600700000000006007000          006809830900000000000400000000000000400000000000000000004375108552017030702047835 
02Dora ramirez huayanay         0000000600696900000006006969          00680983060000000000075000000000000075000000000000000000437510853201703070204WNET 
02Paolo Ravello Ortiz           0000000600700600000006007006          006809826800000000001700000000000001700000000000000000004375108512017030707043796 
02shirley delgado diaz          0000000600462600000006004626          006809874000000000000550000000000000550000000000000000008175108592017030701068X%J 
02SR.FRISCO DAVILA              0000000600614300000006006143          00680985420000000000256000000000000256000000000000000000999510857201703070101T1F2 
02Meilin Vidal                  0000000600688900000006006889          006809773200000000000320000000000000320000000000000000001645108492017030701014K23 
02bryaneldragon_23@outlook.com  0000000599758500000005997585          006809700100000000000150000000000000150000000000000000008175108472017030701069K%L 
02GRUPO JHS SAC GRUPO JHS SAC   0000000600611400000006006114          006809678900000000000672600000000000672600000000000000001755108452017030701014V35 
02SRA. EVA                      0000000600649400000006006494          006809667100000000000950000000000000950000000000000000001565108432017030701014C21 
02Karen Lam Wong                0000000600688500000006006885          006809649900000000000320000000000000320000000000000000004375108412017030702045893 
02ever yampier anastacio yarlequ0000000600684300000006006843          00680963520000000000030000000000000030000000000000000000437510839201703070204WNET 
02ROSA YA#ES ** P EFECTIVO 3PM  0000000600326900000006003269          00680562650000000000020000000000000020000000000000000000437510386201703070204WNET 
02carlos alberto castillo ciudad0000000600346100000006003461          006805603900000000000300000000000000300000000000000000008175103842017030701069H%A 
02NATALY                        0000000600331300000006003313          006805597200000000003100000000000003100000000000000000004375103822017030702047326 
02                              0000000600345500000006003455          00680558280000000000069990000000000069990000000000000000437510380201703070204WNET 
02                              0000000598929100000005989291          006805577000000000000600000000000000600000000000000000002605103782017030701017824 
02ROBERTO GAMARRA               0000000600310700000006003107          006805566100000000000442500000000000442500000000000000001815103762017030701015122 
02Renato Monier Winstanley      0000000600345700000006003457          006805551600000000000295400000000000295400000000000000004375103742017030702042511 
02Jonathan Cesar                0000000600341700000006003417          006805548900000000000100000000000000100000000000000000004375103722017030702040317 
02nora rocio zevallos valverde  0000000600334700000006003347          00680552890000000000035000000000000035000000000000000000616510370201703070101H413 
02diego vilchez zoeger          0000000600341900000006003419          006805513700000000001000000000000001000000000000000000004375103682017030702049956 
02Dante Edgardo Leyva Garcia    0000000600336800000006003368          006805421000000000002200000000000002200000000000000000004375103662017030702041759 
02Jonathan Sifuentes            0000000600333200000006003332          00680540730000000000030000000000000030000000000000000000437510364201703070704WNET 
02JOSE LUIS ZAVALA SOLANO       0000000600335100000006003351          006805404500000000000400000000000000400000000000000000008175103622017030701068M%Q 
02flavia olazabal               0000000600302300000006003023          00680539600000000000186450000000000186450000000000000000437510360201703070204WNET 
02sergio darlyn canales huasasqu0000000600252100000006002521          006805394900000000000200000000000000200000000000000000001785103582017030701014Y23 
02                              0000000600317500000006003175          006805376100000000000333300000000000333300000000000000001965103562017030701015G22 
02miguel  mejia null            0000000599911600000005999116          006805369700000000000349000000000000349000000000000000001135103542017030701013523 
02                              0000000599930900000005999309          006805354900000000004250000000000004250000000000000000001135103522017030701013523 
02Rodrigo Daniel Uriarte Changan0000000600323700000006003237          00680534860000000000100000000000000100000000000000000000437510350201703070204WNET 
02                              0000000597455600000005974556          006805310000000000001199900000000001199900000000000000002845103482017030701017W12 
02Alex Martín Gutierrez Montes  0000000600287200000006002872          006805296400000000000731500000000000731500000000000000008175103462017030701069B%Z 
02                              0000000600304800000006003048          006805263200000000000250000000000000250000000000000000004375103442017030702040608 
02Joel Mendoza                  0000000600316500000006003165          006805255800000000000300000000000000300000000000000000004375103422017030702042479 
02Mauricio Gonzalez Torres      0000000600314700000006003147          006805172300000000000250000000000000250000000000000000004375103402017030702042731 
02Douglas Henry Klinge Ameri    0000000600311900000006003119          006805161400000000000300000000000000300000000000000000001365103382017030701013S22 
02williams contreras            0000000600313300000006003133          006805159500000000000380000000000000380000000000000000004375103362017030702041387 
02Guillermo augusto  Mercado  Ba0000000600293100000006002931          006805119500000000000400000000000000400000000000000000008175103342017030701069Q%J 
02gustavo carlos                0000000600308700000006003087          00680511320000000000286440000000000286440000000000000000437510332201703070704WNET 
02Paul Bendezu                  0000000600309100000006003091          006805078500000000000190000000000000190000000000000000004375103302017030702045967 
02                              0000000600280700000006002807          00680507260000000000088500000000000088500000000000000000760510326201703070101L412 
02Anapaula Salinas Gonzales     0000000600018600000006000186          00680506160000000000658000000000000658000000000000000000554510324201703070101FE12 
02LVM INGENIEROS SAC LVM INGENIE0000000600033900000006000339          006805050600000000000885000000000000885000000000000000004375103222017030702042875 
02JOSE ALEJANDRO ALAMO MORE     0000000600260100000006002601          00680500330000000000020500000000000020500000000000000000437510320201703070204WNET 
02Daily Ramos Guillena          0000000600300000000006003000          00680499640000000000080000000000000080000000000000000000591510318201703070101GF11 
02                              0000000595965200000005959652          006804988700000000000600000000000000600000000000000000001775103162017030701014X24 
02                              0000000600219900000006002199          006804979500000000001350000000000001350000000000000000002215103142017030701016521 
02jose luis aquino alata        0000000600301300000006003013          006804959600000000000200000000000000200000000000000000004375103122017030702043971 
02claudia Prieto Asalde         0000000600299000000006002990          006804944400000000000400000000000000400000000000000000004375103102017030702041819 
02zerox.389.038@gmail.com       0000000600202000000006002020          006804901000000000000517400000000000517400000000000000008175103082017030701069B%N 
02Isaac Revilla                 0000000600296200000006002962          00680489290000000000016000000000000016000000000000000000437510306201703070204WNET 
02                              0000000598889300000005988893          006804875200000000000600000000000000600000000000000000008175103042017030701069Q%J 
02SRTA NANCY                    0000000600276100000006002761          00680486050000000000105000000000000105000000000000000000437510302201703070204WNET 
02williams contreras            0000000600289000000006002890          006804793900000000000190000000000000190000000000000000004375103002017030702047544 
02Jorge Luis Huaytan Fasabi     0000000600288300000006002883          006804780200000000002500000000000002500000000000000000004375102982017030702045726 
02Diego Livaque Aedo            0000000600280800000006002808          006804747200000000000200000000000000200000000000000000008175102962017030701069N%U 
02                              0000000600206600000006002066          00680471360000000000119000000000000119000000000000000000360510294201703070101A025 
02ronald tacanga zavaleta       0000000600515100000006005151          006807626800000000000200000000000000200000000000000000004375106182017030702041418 
02Enrique Fernandez Varela      0000000600055400000006000554          006807622500000000000150000000000000150000000000000000004375106162017030702045466 
02BRYAND ERNESTO  HINOSTROZA ESP0000000600014100000006000141          006807602700000000002490000000000002490000000000000000001125106142017030701013424 
02                              0000000599375300000005993753          00680758840000000000005950000000000005950000000000000000418510612201703070101BM11 
02Luis Alonso Albarracin Dorador0000000600515200000006005152          00680757950000000000020000000000000020000000000000000000437510610201703070204WNET 
02Pedro Alexis Abarca Abarca    0000000600511400000006005114          006807564700000000000344000000000000344000000000000000004375106082017030702048119 
02MARIA                         0000000600430900000006004309          00680752990000000000180000000000000180000000000000000000778510606201703070101LM13 
02LINDA RUTH RETIZ  NATIVIDAD   0000000600617400000006006174          006812167500000000006170000000000006170000000000000000008175110022017030701068V%X 
02jesus francisco alvarez galarz0000000600842600000006008426          006812146100000000001000000000000001000000000000000000004375109982017030702045411 
0213876395 Rolf Alpiste Teran   0000000600849500000006008495          006812144800000000000200000000000000200000000000000000004375109962017030702041104 
02Diego jorge wilfredo Delgado m0000000600845000000006008450          006812122500000000000278500000000000278500000000000000004375109942017030702045770 
02Antonia Santisteban Cole      0000000600842000000006008420          006812105700000000000400000000000000400000000000000000004375109922017030702045299 
023420908 Alberto Alejandro Pina0000000600789600000006007896          006811999100000000000500000000000000500000000000000000008175109902017030701069U%H 
02angela callan                 0000000600822600000006008226          00681197490000000000010000000000000010000000000000000000437510988201703070204WNET 
02lrojas.incamotors lrojas.incam0000000600815900000006008159          006811858800000000000100000000000000100000000000000000004375109862017030702048704 
02SILVIA                        0000000600378400000006003784          006806645400000000000600000000000000600000000000000000004375105102017030702048777 
02vladimir peralta              0000000600429300000006004293          00680661630000000000080900000000000080900000000000000000437510508201703070204WNET 
02Carlos Alberto Mesta Mesta    0000000600425600000006004256          006806556400000000002000000000000002000000000000000000004375105062017030702042200 
02Pedro Eman Arevalo Av         0000000600408900000006004089          00680651650000000000628900000000000628900000000000000000437510504201703070204WNET 
02                              0000000600417600000006004176          006806512800000000000249900000000000249900000000000000004375105022017030702041475 
02SR. GAMONAL                   0000000600355800000006003558          006806504000000000001550000000000001550000000000000000008175105002017030701068W%H 
02Erika                         0000000600416000000006004160          00680649510000000000050000000000000050000000000000000000437510498201703070204WNET 
02dadier_007@hotmail.com        0000000600387500000006003875          006806484600000000000300000000000000300000000000000000008175104962017030701068J%M 
02Bryan Garay Salinas           0000000600276600000006002766          006806477200000000000140000000000000140000000000000000008175104942017030701069F%V 
02SAUL FERNANDEZ DAVILA VAN HEME0000000600390200000006003902          006806465000000000000890000000000000890000000000000000003565104922017030701019W23 
02Bryan Garay Salinas           0000000600275500000006002755          006806463100000000000140000000000000140000000000000000008175104902017030701068X%H 
02                              0000000600274100000006002741          006806347700000000002210000000000002210000000000000000004375104862017030702040261 
02                              0000000600293900000006002939          006806348200000000002210000000000002210000000000000000004375104882017030702040702 
02Junior Vasquez                0000000600406600000006004066          006806337200000000001000000000000001000000000000000000004375104842017030702045198 
02Luisa Lizarraga Lizarraga     0000000599948300000005999483          00680630540000000000304500000000000304500000000000000000787510482201703070101LV13 
02HYC INVESTMENTS  HYC INVESTMEN0000000600398500000006003985          006806292700000000000395300000000000395300000000000000004375104802017030702046401 
02SALAZAR BRIONES SOLLANGE SUSAN0000000600331100000006003311          006806283200000000000750000000000000750000000000000000001255104782017030702013H23 
02Anthony Ruiz Quevedo          0000000600404000000006004040          006806247100000000000200000000000000200000000000000000004375104762017030702048270 
02GARIF ROCHA                   0000000600064400000006000644          006806239000000000000290000000000000290000000000000000008175104742017030701069E%J 
02edu-adyamir-9@hotmail.com     0000000600359400000006003594          006806238000000000000300000000000000300000000000000000008175104722017030701069D%Y 
02wendy ayllón                  0000000599054100000005990541          00680623270000000000010000000000000010000000000000000000851510470201703070101NN1B 
02edu-adyamir-9@hotmail.com     0000000600360600000006003606          006806220100000000000150000000000000150000000000000000008175104682017030701068M%X 
02Carlos Adao Cajamarca Chavez  0000000600397100000006003971          006806203000000000000200000000000000200000000000000000004375104662017030702045499 
02Science and Technology Trainin0000000599993800000005999938          00680932660000000000088500000000000088500000000000000000480510823201703070201DC13 
02Gian Saenz                    0000000600665900000006006659          006809321800000000000600000000000000600000000000000000004375108212017030702047261 
02GLADIS FILOMENA ALARCON CANDIA0000000600082600000006000826          006809304800000000009400000000000009400000000000000000001405108192017030701013W24 
02GLADIS FILOMENA ALARCON CANDIA0000000600084900000006000849          006809297800000000009400000000000009400000000000000000001405108172017030701013W24 
02Science and Technology Trainin0000000599966200000005999662          00680928800000000000088500000000000088500000000000000000480510815201703070201DC13 
02juan pablo calderon garay     0000000600538100000006005381          006809262200000000005658000000000005658000000000000000002185108132017030701016222 
02Luis Angel  Salazar Garcia    0000000600090300000006000903          006810675200000000000250000000000000250000000000000000008175109182017030701069H%G 
02Juan Manuel Huarcaya Avila    0000000600753700000006007537          006810712000000000000500000000000000500000000000000000004375109222017030702047527 
02soi_dani@hotmail.com          0000000600749400000006007494          006810688700000000000340000000000000340000000000000000008175109202017030701068M%W 
02MEDISONIC                     0000000600752300000006007523          006810774600000000001150000000000001150000000000000000004375109282017030702041596 
02Edgard G-t                    0000000599711400000005997114          006810747700000000000210000000000000210000000000000000008175109262017030701068Z%S 
02CDI                           0000000600746000000006007460          006810721200000000001150000000000001150000000000000000004375109242017030702046156 
02Cynthia López de Chirinos     0000000598480200000005984802          00681044920000000000024300000000000024300000000000000000847510905201703070101NJ13 
02KAREN REVATTA RAMIREZ         0000000600032600000006000326          006810640400000000000590000000000000590000000000000000003165109162017030701018S23 
02                              0000000598497900000005984979          006810634300000000000600000000000000600000000000000000008175109142017030701068L%U 
02PEDRO HERNAN CURASSI ZUASNABAR0000000600141900000006001419          006810573300000000010980000000000010980000000000000000002355109112017030701016J46 
02blichard_richard@hotmail.com  0000000600642300000006006423          006810569000000000001500000000000001500000000000000000003015109092017030701018D58 
02deustin rivadeneira           0000000600742200000006007422          006810557800000000008000000000000008000000000000000000004375109072017030702046513 
02ALBERTO EDUARDO SOTO SALAS    0000000600717600000006007176          00681014670000000000300000000000000300000000000000000000437510877201703070204WNET 
02JHON NEPER GARCIA SOSA        0000000600623600000006006236          006810146200000000002000000000000002000000000000000000003015108752017030701018D42 
02Abel Canasas                  0000000600716600000006007166          006810127500000000000200000000000000200000000000000000004375108732017030702044627 
02Carlos Daniel Humberto Zubiate0000000600020000000006000200          006810103400000000000600000000000000600000000000000000008175108712017030701069B%Y 
02Gilberto Galindo Galvez       0000000600712200000006007122          006810094700000000000320000000000000320000000000000000004375108692017030702044985 
02DAVID MARTINEZ                0000000600614200000006006142          00681005720000000000109760000000000109760000000000000000628510867201703070101HG12 
02Walter garces                 0000000600726700000006007267          006810404500000000000500000000000000500000000000000000004375109032017030707041971 
02ricardo pelaezzamalloa        0000000600066200000006000662          006810384000000000000742200000000000742200000000000000002005109012017030701015K4B 
02                              0000000594242800000005942428          00680617960000000000060000000000000060000000000000000000387510464201703070101AR22 
02Luis Antonio Tineo Carmona    0000000600393700000006003937          006806168200000000000300000000000000300000000000000000004375104622017030702043614 
02FIORELA ESCOBEDO MAS          0000000599832700000005998327          006806158300000000001259700000000001259700000000000000008175104602017030701069D%I 
02NADIA CASTILLO FLORES         0000000600312800000006003128          006806153800000000001000000000000001000000000000000000004375104582017030702041954 
02joaquin santiago coronado elli0000000600389000000006003890          00680613530000000001897350000000001897350000000000000000437510455201703070204WNET 
02YAKUMAR SAC                   0000000600307300000006003073          006806116400000000001100000000000001100000000000000000003335104532017030701019932 
02jenrry torres tunque          0000000600392800000006003928          00680611540000000000100000000000000100000000000000000000437510451201703070204WNET 
02miryam isabel Larrea Galvez   0000000599511100000005995111          006806084800000000000590000000000000590000000000000000001275104492017030707013J35 
02                              0000000598489600000005984896          006806065100000000000600000000000000600000000000000000008175104472017030701068U%U 
02miryam isabel Larrea Galvez   0000000599512300000005995123          006806058500000000000590000000000000590000000000000000001275104452017030707013J35 
02Ronald Ramirez Acosta         0000000600368800000006003688          006806056300000000000500000000000000500000000000000000008175104432017030701068O%B 
02                              0000000598498000000005984980          006806006600000000000600000000000000600000000000000000002185104412017030701016221 
02Juan Julio Rivasplata         0000000600378600000006003786          00680596140000000001000000000000001000000000000000000000437510438201703070204WNET 
02Marjorie De La Torre Robles   0000000600341500000006003415          006805950900000000000632000000000000632000000000000000008175104362017030701068T%O 
02RAQUEL                        0000000600348400000006003484          006805949600000000001200000000000001200000000000000000004375104342017030702046925 
02Fredy Alfonso Rojas Grau      0000000600375200000006003752          00680593500000000000030000000000000030000000000000000000437510432201703070204WNET 
02harryrap21@hotmail.com        0000000600375300000006003753          006805918000000000001500000000000001500000000000000000008175104302017030701069H%M 
02Saul MIlciades Silva Cachay   0000000600363900000006003639          00680590740000000000115000000000000115000000000000000000437510428201703070204WNET 
02                              0000000597744100000005977441          006805894000000000000600000000000000600000000000000000008175104262017030701068N%S 
02harryrap21@hotmail.com        0000000600368400000006003684          006805887500000000001500000000000001500000000000000000008175104242017030701068J%Q 
02SRA. POCHA CRUZ               0000000600364100000006003641          006805874900000000000620000000000000620000000000000000001935104222017030701015D22 
02fails like                    0000000600337500000006003375          006805865900000000000380000000000000380000000000000000008175104202017030701069A%B 
02ESTUDIO ZEVALLOS COLL         0000000600362500000006003625          006805865200000000001100000000000001100000000000000000004375104182017030702046353 
02NANCY SALAS                   0000000600086900000006000869          00680586310000000000039900000000000039900000000000000000437510416201703070204WNET 
02gerardo antonio chu sasaki    0000000600367500000006003675          00680586260000000000200000000000000200000000000000000000437510414201703070704WNET 
02Hubert Rojas                  0000000600370000000006003700          00680586110000000000070000000000000070000000000000000000437510412201703070204WNET 
02miguelolore@hotmail.com       0000000600120900000006001209          006805839000000000000150000000000000150000000000000000008175104102017030701069I%O 
02German Diaz                   0000000600365400000006003654          00680583800000000000199800000000000199800000000000000000437510408201703070204WNET 
02ever yampier anastacio yarlequ0000000600366700000006003667          00680582940000000000049910000000000049910000000000000000437510406201703070204WNET 
02Andres Alejandro Alca Arzapalo0000000600342500000006003425          006805823100000000000500000000000000500000000000000000008175104042017030701068T%L 
02deustin rivadeneira           0000000600363800000006003638          006805818500000000004000000000000004000000000000000000004375104022017030702040178 
02Ronald A. Sopla Cubas         0000000600327900000006003279          00680581310000000000100000000000000100000000000000000000437510400201703070204WNET 
02Franz Castillo Placido        0000000600353900000006003539          00680580340000000000589000000000000589000000000000000000437510398201703070204WNET 
02Erick Rojas                   0000000600362200000006003622          00680578870000000000070000000000000070000000000000000000437510396201703070204WNET 
02Lucia Choque                  0000000600279700000006002797          006805785800000000002321500000000002321500000000000000008175103942017030701068M%T 
02Alberto Jose Camaiora Chiappe 0000000600360900000006003609          006805772100000000006000000000000006000000000000000000004375103922017030707044095 
02Fabien Aristondo              0000000600361300000006003613          006805756300000000000200000000000000200000000000000000008175103902017030701069G%L 
02Luis Manuel Gaspard Chirinos  0000000599975100000005999751          00680572360000000000060000000000000060000000000000000000751510388201703070101KV13 
02Henry Alba                    0000000600647500000006006475          006809256800000000001350000000000001350000000000000000001205108112017030701013C22 
02Yetna Juscamaita              0000000599925300000005999253          006809207000000000003100000000000003100000000000000000002025108092017030702015M23 
02Felipe                        0000000600627700000006006277          006809201500000000001350000000000001350000000000000000003245108072017030701019022 
02Elizabeth Asmat               0000000600652600000006006526          006809193800000000001200000000000001200000000000000000008175108052017030701068K%E 
02edissa villena pierola        0000000600410400000006004104          006809170500000000008083000000000008083000000000000000000945108032017030701012M13 
02Hugo Julio Garcia Vargas      0000000600611600000006006116          006809136600000000000220000000000000220000000000000000008175108012017030701069B%S 
02                              0000000600645700000006006457          00680910360000000000029700000000000029700000000000000000437510799201703070204WNET 
02Martín Levano vergara         0000000599461600000005994616          00680910230000000000059000000000000059000000000000000000524510797201703070101EK11 
02                              0000000600306400000006003064          006809068900000000000492000000000000492000000000000000008175107952017030701068J%I 
02                              0000000599090900000005990909          006809061300000000000600000000000000600000000000000000001365107932017030701013S23 
02LUBCOM S.A.C. LUBCOM          0000000600442900000006004429          006809054000000000000885000000000000885000000000000000004375107912017030702046893 
02JIMY CLAUDIO                  0000000600582800000006005828          006809050100000000000900000000000000900000000000000000004375107892017030702043285 
02Vicente Antonio Anchiraico Mir0000000600641700000006006417          006809026400000000000400000000000000400000000000000000004375107872017030702046536 
02LUIS ALFREDO NUNURA  CANOVA   0000000600624300000006006243          00680901970000000000100000000000000100000000000000000000939510785201703070101Q311 
02Joel Vega Moscoso             0000000600637900000006006379          006809001800000000000400000000000000400000000000000000004375107832017030702048434 
02Cs Beaver Sac Cs Beaver Sac   0000000600574600000006005746          006808938500000000000885000000000000885000000000000000001075107812017030701012Z22 
02Manuel Ruiz                   0000000600628800000006006288          00680893460000000000040000000000000040000000000000000000437510779201703070204WNET 
02Leyvis Jose Torres            0000000600629100000006006291          006808914400000000001000000000000001000000000000000000004375107772017030702044462 
02Romarico Roman Ramirez        0000000600606100000006006061          006808906600000000001790000000000001790000000000000000008175107752017030701068Z%U 
0213876395 Rolf Alpiste Teran   0000000600626400000006006264          006808859000000000000200000000000000200000000000000000004375107732017030702043948 
02FIORELLA VASQUEZ null         0000000600478100000006004781          006808843700000000002329000000000002329000000000000000001565107712017030701014C22 
02Youseef hannah Saba Ode       0000000600603700000006006037          00680879360000000002800000000000002800000000000000000000879510768201703070101OF12 
02Sergio Zavala Matute          0000000600619500000006006195          00680877600000000000100000000000000100000000000000000000437510764201703070204WNET 
02Cristhian Vera Alfaro         0000000600618900000006006189          00680876000000000000030000000000000030000000000000000000437510762201703070204WNET 
02JORGE MIGUEL LUNA UGAS        0000000600610300000006006103          006808759900000000000300000000000000300000000000000000008175107602017030701069M%V 
02ALBERTO EDUARDO SOTO SALAS    0000000600616200000006006162          00680874080000000000300000000000000300000000000000000000437510758201703070204WNET 
02Daissy Milian                 0000000599460700000005994607          006808729600000000001390300000000001390300000000000000002855107562017030701017X31 
02Juan Olivares Rojas           0000000600604700000006006047          00680872740000000000030000000000000030000000000000000000437510754201703070204WNET 
02Luis Antonio Tineo Carmona    0000000600604100000006006041          006808692400000000000200000000000000200000000000000000004375107522017030702043456 
023604769 edward elias verastegu0000000600613500000006006135          006808690000000000000500000000000000500000000000000000004375107502017030702040578 
02Edgardo Azabache Cerpa        0000000600596800000006005968          006808687200000000000290000000000000290000000000000000001105107482017030701013221 
02LUIS ALBERTO                  0000000600572900000006005729          00680868630000000000015000000000000015000000000000000000437510746201703070204WNET 
02MARCOS MARCOS                 0000000600609600000006006096          006808661700000000002531300000000002531300000000000000008175107442017030701068W%G 
02SOLUCIONES ALIMENTICIAS S.A.C 0000000600431700000006004317          00680865660000000000026900000000000026900000000000000000484510742201703070101DG11 
02                              0000000600016400000006000164          006808645100000000000500000000000000500000000000000000001565107402017030701014C21 
02David Luis Sandoval Yupanqui  0000000600610100000006006101          00680864100000000000100000000000000100000000000000000000437510738201703070204WNET 
02                              0000000600120100000006001201          00680862940000000000119990000000000119990000000000000000484510736201703070101DG11 
02mary elena cabrejos villalta  0000000600404200000006004042          00680862500000000000917500000000000917500000000000000000791510734201703070101LZ12 
02german guerra sernaque        0000000600546600000006005466          006807909200000000000200000000000000200000000000000000004375106702017030702043028 
02judith ruelas roque           0000000600457500000006004575          006807890400000000028370000000000028370000000000000000004375106672017030702043661 
02raybert ramirez               0000000596645800000005966458          00680788860000000000015000000000000015000000000000000000437510665201703070204WNET 
02judith ruelas roque           0000000598447600000005984476          006807865300000000020480000000000020480000000000000000004375106622017030702044010 
02Gian Saenz                    0000000600540600000006005406          006807860000000000000500000000000000500000000000000000004375106602017030702045052 
02Patrick Francessco  García Tor0000000600468200000006004682          006807845600000000002350000000000002350000000000000000004375106582017030707048093 
02ALBERTO EDUARDO SOTO SALAS    0000000600539000000006005390          00680783590000000000366800000000000366800000000000000000437510656201703070204WNET 
02                              0000000600517700000006005177          006807824000000000000252200000000000252200000000000000004375106542017030702049849 
02Abel Armando Casta¦eda Miranda0000000600534400000006005344          006807806400000000000400000000000000400000000000000000004375106522017030702047175 
02newtemplar5@hotmail.com       0000000600497600000006004976          006807794800000000000300000000000000300000000000000000008175106502017030701069P%V 
02GINO ARTURO FERNANDEZ CANORIO 0000000600534200000006005342          00680779470000000000050000000000000050000000000000000000437510648201703070204WNET 
02jamesfran0202@gmail.com       0000000600222200000006002222          006807761800000000000150000000000000150000000000000000008175106462017030701068P%M 
02Silvia Tello sanchez          0000000599846100000005998461          00680775760000000001719150000000001719150000000000000000716510643201703070101JW12 
02Roberto Carlos Gutierrez Manti0000000600528500000006005285          00680775200000000000020000000000000020000000000000000000437510641201703070204WNET 
0213133139 Erickson Alexis Soto 0000000600524800000006005248          00680774150000000000540000000000000540000000000000000000437510639201703070204WNET 
02Julio Cesar Cardenas Mu¦oz    0000000600503000000006005030          006807738300000000022710000000000022710000000000000000003105106362017030701018M3B 
02PAOLO GARCIA                  0000000600525500000006005255          006807727100000000000670000000000000670000000000000000004375106342017030702043380 
02Eduardo Avalos Lear           0000000600527500000006005275          00680771650000000000030000000000000030000000000000000000437510632201703070204WNET 
02                              0000000600222300000006002223          00680768610000000000259000000000000259000000000000000000508510630201703070101E413 
02                              0000000598939200000005989392          006807679900000000000600000000000000600000000000000000008175106282017030701069D%L 
02neyser98-29@hotmail.com       0000000600507700000006005077          006807675300000000000750000000000000750000000000000000008175106242017030701068X%M 
023604769 edward elias verastegu0000000600524500000006005245          006807676700000000000660000000000000660000000000000000004375106262017030702047179 
02luis santiago campos carranza 0000000600520200000006005202          00680764620000000000050000000000000050000000000000000000437510622201703070204WNET 
02Wilmer Sernaque sernaque      0000000600364000000006003640          00680764540000000000065990000000000065990000000000000000364510620201703070101A425 
02francisco9_cr7-pv@outlook.com 0000000600713900000006007139          006810364100000000000150000000000000150000000000000000008175108992017030701069P%G 
02fvpastor@hotmail.com          0000000600706300000006007063          006810348700000000000300000000000000300000000000000000008175108972017030701068Z%H 
02IRMA YOLANDA CHUQUIZUTA VALQUI0000000600458200000006004582          006810311500000000001490000000000001490000000000000000008175108952017030701068X%L 
02Jaime Vicente Monrroy         0000000600707100000006007071          006810285000000000001100000000000001100000000000000000002325108932017030701016G23 
02Mariella Schaeffer null       0000000600136100000006001361          006810154000000000002180000000000002180000000000000000001105108792017030701013223 
02Lorena Carmen Degollar Huertas0000000600583300000006005833          006810246500000000001050000000000001050000000000000000008175108912017030701069B%D 
02lizet benites                 0000000600155400000006001554          006810231600000000000100000000000000100000000000000000002725108892017030701017K12 
02NILTON ARONI FLORES           0000000600722600000006007226          00681022420000000000040000000000000040000000000000000000437510887201703070204WNET 
02franklincarrera156@gmail.com  0000000600721800000006007218          006810223000000000000750000000000000750000000000000000008175108852017030701069R%Y 
02                              0000000600717500000006007175          006810202200000000000180000000000000180000000000000000008175108832017030701068M%Y 
02miguel angel alcantara cordova0000000600589900000006005899          006810199000000000001000000000000001000000000000000000008175108812017030701068P%V 
02                              0000000600503200000006005032          006807503500000000002700000000000002700000000000000000008175106042017030701069K%V 
02PALMIRA BETANIA MENDOCILLA DON0000000600463200000006004632          00680746600000000000045000000000000045000000000000000000872510602201703070101O813 
02Edwin Rodriguez Brice¦o       0000000600505200000006005052          006807461200000000000350000000000000350000000000000000004375106002017030702043983 
02Miguelona Vaca                0000000600346200000006003462          00680742590000000000020000000000000020000000000000000000437510598201703070704WNET 
02KARINA SILVA ANDIA            0000000600465600000006004656          006807423600000000002200000000000002200000000000000000004375105962017030702046971 
02PAUL LEON CERRON              0000000600288900000006002889          006807395300000000002000000000000002000000000000000000004375105942017030702047999 
02MARIA FLORES                  0000000600478000000006004780          006807390100000000000900000000000000900000000000000000004375105922017030702041102 
02Freddy santiago lopez         0000000600453900000006004539          006807389900000000001100000000000001100000000000000000002915105902017030701018323 
02Anibal Abarca Mercado         0000000600393100000006003931          006807382600000000000209000000000000209000000000000000004375105882017030702042504 
02jose maria valdez pantoja     0000000600491600000006004916          006807376000000000001000000000000001000000000000000000008175105862017030701069D%V 
02Giancarlo Miguel López Velásqu0000000600487200000006004872          006807347000000000000400000000000000400000000000000000008175105842017030701069P%T 
02kevin martin pérez navarro    0000000600490800000006004908          006807334500000000000400000000000000400000000000000000008175105822017030701069D%E 
02Luis Alejandro Soto Flores nul0000000600159600000006001596          006807312500000000009590000000000009590000000000000000001395105802017030701013V24 
02                              0000000600096400000006000964          00680730610000000000044100000000000044100000000000000000360510578201703070101A026 
02Hugo Ruben Sarabia Pandia     0000000600483700000006004837          006807285500000000000500000000000000500000000000000000008175105762017030701068U%H 
02jesus antonio ambrosio veli   0000000600485100000006004851          006807271500000000000200000000000000200000000000000000008175105742017030701068L%B 
02Autopartes Hanka SAC Autoparte0000000600484900000006004849          006807250900000000000885000000000000885000000000000000004375105722017030702048010 
02Diego jorge wilfredo Delgado m0000000600484400000006004844          006807248400000000001100000000000001100000000000000000004375105702017030702044706 
02oscar juan apolinario astete  0000000600326800000006003268          006807213800000000000500000000000000500000000000000000008175105682017030701069C%M 
02eliana tellez choque          0000000600470500000006004705          006807212500000000001992000000000001992000000000000000008175105662017030701068Q%O 
02ADRIAN SISNIEGAS RODRIGUEZ    0000000600475300000006004753          00680716710000000000031630000000000031630000000000000000437510564201703070204WNET 
02Edgar Villena                 0000000599995400000005999954          006807153900000000009004200000000009004200000000000000001415105622017030701013X23 
02Frank Picho                   0000000600470700000006004707          00680712570000000000035000000000000035000000000000000000437510560201703070204WNET 
02jose luis urbano vera         0000000599503700000005995037          006807113000000000000150000000000000150000000000000000008175105582017030701068X%T 
02JUAN JOSE ESCUDERO MELENDEZ   0000000600312700000006003127          006807112700000000002220000000000002220000000000000000003015105562017030701018D43 
02Hiemerth Navarrete            0000000600452600000006004526          006807105100000000004000000000000004000000000000000000004375105542017030702041518 
02WENDOLIN                      0000000600435200000006004352          006807070200000000001400000000000001400000000000000000004375105522017030702045970 
02PATRICK ALFREDO ALTAMIRANO SUA0000000600469100000006004691          006807066300000000002610000000000002610000000000000000004375105502017030702048431 
02                              0000000600364300000006003643          006807039800000000001850000000000001850000000000000000008175105482017030701069E%C 
02brian walter claudio romero   0000000600420200000006004202          00680701640000000000020000000000000020000000000000000000787510546201703070101LV14 
02brian walter claudio romero   0000000600421900000006004219          00680701250000000000015000000000000015000000000000000000787510544201703070101LV14 
02Claudio Navarrete             0000000600461700000006004617          00680698960000000000030000000000000030000000000000000000437510542201703070204WNET 
02Paul Cam                      0000000600299100000006002991          00680698150000000000150000000000000150000000000000000000616510540201703070101H412 
02John Cardenas                 0000000600438600000006004386          006806932500000000000220000000000000220000000000000000004375105382017030702048524 
02                              0000000600447400000006004474          00680692970000000000221000000000000221000000000000000000437510536201703070204WNET 
02jhohan castillo montiveros    0000000600365900000006003659          006806909000000000000200000000000000200000000000000000008175105342017030701068R%Y 
02PAUL ALEXANDER TALLEDO CORDOVA0000000600454400000006004544          006806894600000000002000000000000002000000000000000000004375105322017030702046262 
02Jorge Luis Huaytan Fasabi     0000000600446800000006004468          006806840100000000001500000000000001500000000000000000004375105302017030702048562 
02Laura Montoya Martínez        0000000599013700000005990137          006806810300000000000243000000000000243000000000000000008175105282017030701069L%V 
02Mercedes Vidalón Vidalón      0000000599640700000005996407          006806773400000000001050000000000001050000000000000000001225105262017030702013E25 
02SN SN                         0000000600433200000006004332          00680674240000000000060000000000000060000000000000000000437510524201703070204WNET 
02RICARDO PAUL ESPINOZA ESLI    0000000600437300000006004373          006806734800000000000210000000000000210000000000000000004375105222017030702045422 
02                              0000000600435700000006004357          006806726400000000000849000000000000849000000000000000004375105202017030702046573 
02                              0000000600036200000006000362          006806725900000000000249900000000000249900000000000000001195105182017030701013B11 
02                              0000000600035100000006000351          006806721000000000000249900000000000249900000000000000001195105162017030701013B11 
02                              0000000600247800000006002478          006806667700000000000600000000000000600000000000000000008175105142017030701068X%U 
02Marivel Rocio Quiroz Huerta   0000000600432700000006004327          00680665640000000000500000000000000500000000000000000000437510512201703070204WNET 
03000000408000000007642606000000007642606000000000000000                                                                                                
