0120464993879005USD20170419001105860100025512                                                                                                           
02Alberto Soto                  0000000626846400000006268464          007092980700000000003000000000000003000000000000000000001091952172017041901013125 
02ELEN ALVINA VASQUES DE ALVARES0000000626890700000006268907          007092913800000000001296600000000001296600000000000000003241952152017041901019022 
02duber fernandez               0000000626861100000006268611          007092668200000000004066000000000004066000000000000000004371952132017041902043481 
02MAMANUEL TIQUIAHUANCA         0000000626784700000006267847          007092586000000000001366000000000001366000000000000000003101952112017041901018M31 
02Nicolas Valderrama            0000000626531000000006265310          007092486100000000001500000000000001500000000000000000001781952092017041901014Y23 
02Renzo Mu¦iz                   0000000626844400000006268444          007092328900000000000600000000000000600000000000000000004371952072017041907042413 
02KAROLA CAMPOSANO              0000000626703000000006267030          007092317800000000001371800000000001371800000000000000001441952052017041901014026 
02MANUEL GARCIAMOREY            0000000626811500000006268115          007091967200000000000909200000000000909200000000000000003011952032017041901018D49 
02ZULIANITA GOMEZ               0000000626808700000006268087          007091918500000000000854600000000000854600000000000000003061952012017041901018I3D 
02CAROLA  REATEGUI SANDOVAL     0000000626801300000006268013          00709189340000000000063860000000000063860000000000000000960195199201704190101QO13 
02EDUAR GUEVARA                 0000000626791600000006267916          00709187950000000000059460000000000059460000000000000000439195197201704190101C71C 
02REYNALDO CENTENO              0000000626782700000006267827          007091791100000000001177200000000001177200000000000000003201951952017041901018W21 
02LUIS FELIPE GIL  RENTERIA     0000000626788800000006267888          007091676000000000000615700000000000615700000000000000002731951932017041901017L22 
02ODON OBREGON                  0000000626794600000006267946          00709162020000000000040000000000000040000000000000000000437195191201704190204WNET 
02David Yoshiyama               0000000626772400000006267724          007091566200000000002000000000000002000000000000000000003521951892017041901019S21 
02henry quispe palma            0000000627125600000006271256          007095714300000000000050000000000000050000000000000000004371953152017041902040267 
02Oscar Socualaya Rodriguez     0000000626292500000006262925          007095688500000000000050000000000000050000000000000000002321953132017041901016G26 
02Miguel wenceslao ochoa cuadros0000000627115900000006271159          007095581400000000000300000000000000300000000000000000004371953112017041902040799 
02Frank Rueda                   0000000627116100000006271161          00709557180000000000100000000000000100000000000000000000437195309201704190204WNET 
02REBECA ANDIA                  0000000627074600000006270746          007095483900000000000683800000000000683800000000000000003041953072017041901018G23 
02WALTER EDWIN ANYAYPAMA OCON   0000000627088500000006270885          007095474400000000002137000000000002137000000000000000004371953052017041902046912 
02TITO  LA TORRE                0000000626815900000006268159          007095309500000000000880600000000000880600000000000000004371953032017041902043863 
02Hideki Florian Loli           0000000627094200000006270942          007095286500000000000050000000000000050000000000000000004371953012017041902043917 
02LUIS ORTIZ CARRANZA           0000000626994800000006269948          007095184000000000004274000000000004274000000000000000004371952992017041902049355 
02KETTY AMAYO                   0000000627078200000006270782          00709516630000000000078620000000000078620000000000000000437195297201704190204WNET 
02renato nu¦ez                  0000000627070000000006270700          00709513310000000000020000000000000020000000000000000000876195295201704190101OC11 
02YESSICA CONTRERAS             0000000626970600000006269706          00709512760000000000176580000000000176580000000000000000437195293201704190204WNET 
02martin veramendi rivera       0000000627009000000006270090          00709511710000000001059070000000001059070000000000000000970195290201704190201QY14 
02leoncio evaristo parra chuquil0000000627022400000006270224          007095098300000000001690900000000001690900000000000000001151952882017041901013725 
02JIMMY FERNANDO CAMPOS MINAYA  0000000626953300000006269533          007094964200000000001143800000000001143800000000000000003011952862017041901018D56 
02MARTHA EXPRESS SERVICE EIRL  *0000000627025000000006270250          007094891300000000007981800000000007981800000000000000003531952842017041901019T21 
02JORGE EDUARDO URDAY BUSTAMANTE0000000625668400000006256684          007094796900000000000150000000000000150000000000000000004371952822017041902041664 
02eduard engels padilla bocanegr0000000626318100000006263181          00709477130000000000100000000000000100000000000000000000437195280201704190204WNET 
02BIANCA VASQUEZ                0000000626966500000006269665          00709474870000000000086920000000000086920000000000000000050195278201704190101NM11 
02gerald hugo almonacid rios    0000000626542600000006265426          00709474370000000000100000000000000100000000000000000000437195276201704190204WNET 
02JULIO NAVARRO                 0000000626927800000006269278          00709469730000000000058860000000000058860000000000000000439195274201704190101C71C 
02VICTOR  HERRERA               0000000626936600000006269366          007094489900000000000638600000000000638600000000000000002861952722017041901017Y12 
02OSCAR MEDINA                  0000000626987900000006269879          00709439300000000000123600000000000123600000000000000000778195270201704190101LM12 
02MARIA JIMENA HARO CUBA        0000000626973300000006269733          00709438190000000000061800000000000061800000000000000000778195268201704190101LM12 
02DORA  CHUNG                   0000000626947800000006269478          007094242800000000001201400000000001201400000000000000001411952662017041901013X23 
02MURILLO TALAVERA              0000000626970300000006269703          007094237700000000013780400000000013780400000000000000001641952632017041902014K23 
02YULIANA RODRIGUEZ             0000000626990900000006269909          007094199800000000001367600000000001367600000000000000002541952612017041901017223 
02EDUARDO MUNOZ                 0000000626841700000006268417          007094053100000000000586400000000000586400000000000000002451952592017041901016T15 
02rocio  surco                  0000000626835400000006268354          007094044000000000001223600000000001223600000000000000003451952572017041901019L14 
02WILLIAMS BRINGAS              0000000626823600000006268236          007094013500000000001236000000000001236000000000000000002531952552017041901017111 
02JANET CHAVEZ MAYSER           0000000626983900000006269839          00709398570000000000499370000000000499370000000000000000368195253201704190101A831 
02JIMMY MORALES NU#EZ           0000000626988700000006269887          00709396980000000000148000000000000148000000000000000000437195251201704190204WNET 
02jaime melchor lopez           0000000626807900000006268079          007093912200000000000200000000000000200000000000000000001081952492017041901013021 
02Bruce ESPADIN MANOTUPA        0000000626972000000006269720          00709385330000000000010000000000000010000000000000000000437195247201704190204WNET 
02OLIVIER RICHARD               0000000626957000000006269570          00709378200000000000257420000000000257420000000000000000426195245201704190101BU12 
02Mario Castro                  0000000626971600000006269716          007093773500000000004000000000000004000000000000000000004371952432017041907045191 
02Luis Eduardo Rodríguez Sánchez0000000626965900000006269659          007093767500000000000100000000000000100000000000000000004371952412017041902041543 
02benjamin de la cruz madera    0000000626960100000006269601          00709366610000000000040000000000000040000000000000000000437195239201704190204WNET 
02orlando rivera                0000000626953900000006269539          007093617400000000000050000000000000050000000000000000004371952372017041907049170 
02ELSA CANCHAYA                 0000000626830700000006268307          007093302400000000000610300000000000610300000000000000002351952352017041901016J42 
02ELSA  CANCHAYA                0000000626845900000006268459          007093292800000000000610300000000000610300000000000000002351952332017041901016J42 
02MARIO PEREZ                   0000000626770100000006267701          007093171900000000000780100000000000780100000000000000002321952312017041901016G22 
02Dennis Hopkins Rodríguez      0000000626891300000006268913          007093127900000000000300000000000000300000000000000000004371952292017041902045304 
02LUCKY SALAS                   0000000626798200000006267982          007093112700000000000982400000000000982400000000000000002121952272017041901015W1B 
02DAVID ROJAS                   0000000626740100000006267401          007093111700000000001289200000000001289200000000000000003011952252017041902018D45 
02MARTIN SEMINARIO              0000000626802500000006268025          007093106400000000001172800000000001172800000000000000002731952232017041901017L23 
02jorge luis mendez pereira     0000000626901800000006269018          007093085300000000001446900000000001446900000000000000004371952212017041902046223 
02milton urbina                 0000000626790100000006267901          007093071100000000001243700000000001243700000000000000004371952192017041902042249 
02CARLOS RENGIFO                0000000626768300000006267683          007091291200000000000880600000000000880600000000000000004371951872017041902048186 
02Jay Summers                   0000000626594800000006265948          00708989190000000000100000000000000100000000000000000000437195150201704190204WNET 
02Franklin Farfán               0000000626547100000006265471          007089892900000000010000000000000010000000000000000000004371951522017041902042484 
02JIMMY MORALES NU#EZ           0000000626682200000006266822          00709019480000000000294000000000000294000000000000000000437195171201704190204WNET 
02CESAR CHAVEZ                  0000000626680000000006266800          00709018810000000000030000000000000030000000000000000000437195169201704190704WNET 
02LILIANA COURT                 0000000626600100000006266001          007089903500000000000819100000000000819100000000000000004371951572017041902045756 
02Alvaro Francesco Sáenz Sialer 0000000626568500000006265685          00708989900000000000040000000000000040000000000000000000437195155201704190204WNET 
02Jay Summers                   0000000626609900000006266099          00708991620000000000080000000000000080000000000000000000437195161201704190204WNET 
02Jay Summers                   0000000626606400000006266064          00708990800000000000100000000000000100000000000000000000437195159201704190204WNET 
02JIMMY MORALES NU#EZ           0000000626513000000006265130          00709007820000000000250000000000000250000000000000000000437195163201704190204WNET 
02JIMMY MORALES NU#EZ           0000000626654900000006266549          00709009310000000000183000000000000183000000000000000000437195165201704190204WNET 
02Gonzalo Campos                0000000626655600000006266556          007090093800000000000200000000000000200000000000000000004371951672017041902044425 
02AURISTELA GONZALEZ            0000000626721200000006267212          007090587200000000001166800000000001166800000000000000004371951732017041902045332 
02Jorge  Alva                   0000000626662900000006266629          007090822000000000001436000000000001436000000000000000002531951832017041901017113 
02JORGE RUIZ MONCADA            0000000626725700000006267257          007090875500000000000989800000000000989800000000000000002421951852017041901016Q13 
02JERSON SALAS DAVILA           0000000626699300000006266993          007090677800000000001144600000000001144600000000000000003241951752017041901019022 
02JUAN ALCANTARA                0000000626714500000006267145          00709072350000000000080980000000000080980000000000000000439195179201704190101C71C 
02ling  flores                  0000000626692900000006266929          007090705800000000000852800000000000852800000000000000002991951772017041901018B11 
02Jesus Bazan                   0000000626557700000006265577          007090750500000000000100000000000000100000000000000000004371951812017041902040904 
02Antonio Carlos                0000000627221200000006272212          007097384100000000000200000000000000200000000000000000004371953492017041902041103 
02JAIME MAMANI                  0000000627064800000006270648          007096968100000000001568000000000001568000000000000000004371953472017041902043664 
02MARIO ALOR                    0000000627006400000006270064          00709670390000000000086440000000000086440000000000000000921195345201704190101PL11 
02JAIME PASTOR                  0000000627177900000006271779          007096584500000000000120500000000000120500000000000000004371953432017041902042450 
02GEORGINA PERALES              0000000627139100000006271391          007096532200000000001971600000000001971600000000000000003011953412017041901018D56 
02LEONARDO DELGADO              0000000627152000000006271520          007096528600000000001333800000000001333800000000000000003011953392017041901018D56 
02JEYNER RABANL                 0000000627142000000006271420          007096445300000000001885200000000001885200000000000000002331953372017041901016H13 
02JEYNER RABANAL                0000000627145000000006271450          007096440200000000001366000000000001366000000000000000002331953352017041901016H13 
02MURILLO TALAVERA JENIFER      0000000626983100000006269831          00709643230000000000798180000000000798180000000000000000437195333201704190204WNET 
02jack burga torres             0000000627162400000006271624          007096381300000000004876800000000004876800000000000000004371953312017041902043944 
02Dennis Hopkins Rodríguez      0000000627159300000006271593          007096312000000000000200000000000000200000000000000000004371953292017041902045281 
02OLIVIER RICHARD               0000000627144000000006271440          00709622970000000000037300000000000037300000000000000000426195327201704190101BU13 
02JUAN MANUEL MACEDO GARCIA     0000000627138800000006271388          00709617510000000000068300000000000068300000000000000000797195325201704190101M512 
02Pedro Alexis Abarca Abarca    0000000627145200000006271452          007096009200000000000150000000000000150000000000000000004371953232017041902040844 
02ELVIS  SALAZAR                0000000627119200000006271192          007095931900000000001511800000000001511800000000000000002481953212017041901016W11 
02LUIS VALDEZ                   0000000626908500000006269085          007095907200000000001391000000000001391000000000000000003061953192017041901018I4C 
02LUIS ELADIO RODRIUEZ          0000000627097100000006270971          007095897200000000000809800000000000809800000000000000002121953172017041901015W11 
02luis angel matos flores       0000000627219600000006272196          00709743050000000000020000000000000020000000000000000000437195351201704190204WNET 
02freed loza la rosa            0000000627240800000006272408          00709760220000000000147000000000000147000000000000000000437195353201704190204WNET 
02Gustavo Gomez Rios            0000000627260500000006272605          007097824800000000000117000000000000117000000000000000004371953592017041902045070 
02Jesus Bazan                   0000000627250700000006272507          00709769010000000000008000000000000008000000000000000000437195357201704190204WNET 
02Gino Zapata                   0000000625560600000006255606          007097655200000000006980000000000006980000000000000000004371953552017041902046183 
03000000104000000001671075000000001671075000000000000000                                                                                                
