0120464993879005PEN20170418001105860100025504                                                                                                           
0217749107 Victor Cielo acosta  0000000626148300000006261483          00708442500000000000050000000000000050000000000000000000437541788201704180204WNET 
02Christian Manuel Urcia        0000000626145000000006261450          007084417500000000001000000000000001000000000000000000004375417862017041802040373 
02Luis Valenzuela               0000000626147600000006261476          007084415100000000000150000000000000150000000000000000004375417842017041807048727 
02Giancarlo Juarez              0000000626141900000006261419          00708437360000000000030000000000000030000000000000000000437541782201704180204WNET 
02                              0000000612808100000006128081          007084342200000000004929500000000004929500000000000000002505417802017041801016Y21 
02David Málaga                  0000000626133700000006261337          007084338400000000000500000000000000500000000000000000001625417782017041801014I31 
02                              0000000623845700000006238457          007084336800000000001199900000000001199900000000000000008175417762017041801068R%U 
02                              0000000626002000000006260020          007084335800000000001800000000000001800000000000000000004375417742017041802041619 
02Edwin Joel Miranda Ramirez    0000000626135500000006261355          007084306000000000000363400000000000363400000000000000004375417722017041802046487 
02SRTA CLAUDIA  PUERTAS / SE IND0000000625929500000006259295          007084290100000000000780000000000000780000000000000000001425417702017041801013Y24 
02juan miguel cochas allauca    0000000626131300000006261313          00708428990000000000020000000000000020000000000000000000437541768201704180204WNET 
02conclasse_15_20@hotmail.com   0000000626127200000006261272          007084283900000000000907500000000000907500000000000000008175417662017041801069I%A 
02Alvaro pita                   0000000626027000000006260270          007084283600000000000500000000000000500000000000000000001785417642017041801014Y23 
02Rivera Gallo                  0000000626129500000006261295          007084243300000000000200000000000000200000000000000000004375417622017041802045174 
02playboxvrbigright@gmail.com   0000000626121200000006261212          00708423300000000000501140000000000501140000000000000000598541760201704180101GM1C 
02Edwin Rodriguez Brice¦o       0000000625944700000006259447          007084227500000000000270000000000000270000000000000000004375417582017041802041778 
02Fredy Junior Fernández Gómez  0000000626128400000006261284          00708420330000000000024550000000000024550000000000000000437541756201704180204WNET 
02juan pachas hernandez         0000000626092000000006260920          00708415730000000000020000000000000020000000000000000000437541754201704180704WNET 
02Tito Chavez                   0000000626111500000006261115          007084148500000000000150000000000000150000000000000000004375417522017041802043294 
02cesar tapia puelles           0000000626100600000006261006          007084112600000000003528200000000003528200000000000000004375417502017041807045281 
02Andres Orlando Moncada Chienda0000000626120200000006261202          00708408600000000000030090000000000030090000000000000000437541748201704180204WNET 
02Emerson Flores                0000000625911300000006259113          007084068900000000003290000000000003290000000000000000001375417462017041801013T23 
02jasmane junior garcia castillo0000000626113200000006261132          007084010100000000000850000000000000850000000000000000008175417442017041801069U%Z 
02Teresa del Rosario Gago Huayna0000000624868100000006248681          007084001400000000004783000000000004783000000000000000004375417422017041802047631 
02Richard Caceres Jaimes        0000000626109400000006261094          00708399740000000000040000000000000040000000000000000000437541740201704180204WNET 
02Agencia La granja Sac         0000000626100400000006261004          007083979300000000002478000000000002478000000000000000004375417382017041802049167 
02DIEGO GASTELO VALLES          0000000626106800000006261068          007083968500000000000200000000000000200000000000000000004375417362017041802048142 
02Ana Jara                      0000000626088000000006260880          007083930300000000000300000000000000300000000000000000003085417342017041801018K11 
0212250233 Jesus Veli           0000000626099500000006260995          007083899200000000000200000000000000200000000000000000008175417322017041801068L%W 
02SR. MANUEL                    0000000625948900000006259489          00708389010000000000234000000000000234000000000000000000437541730201704180204WNET 
02Nik Bejarano                  0000000626097800000006260978          007083883700000000000890000000000000890000000000000000004375417282017041802042103 
02JHONY PANANA SAAVEDRA         0000000626054800000006260548          00708386350000000000022500000000000022500000000000000000729541726201704180101K912 
02Juan Gonzalez Jimenez         0000000626090400000006260904          007083802600000000001000000000000001000000000000000000004375417242017041807042780 
02Reyna Herrera                 0000000623483100000006234831          00708370780000000000227000000000000227000000000000000000933541722201704180101PX11 
02SR:_TOMASS                    0000000625969000000006259690          007083663700000000000940000000000000940000000000000000002865417202017041801017Y12 
02Myriam Quispe Anccasi         0000000626083100000006260831          007083659800000000000650000000000000650000000000000000008175417182017041801068M%D 
023471358 Carlos Erick Vega Lope0000000626082400000006260824          007083656400000000000300000000000000300000000000000000008175417162017041801069V%J 
02Enrique Espinoza Salazar      0000000626069100000006260691          007083623200000000000700000000000000700000000000000000008175417142017041801068Y%Z 
02                              0000000625793500000006257935          007083570100000000001199900000000001199900000000000000008175417122017041801068K%K 
02SERGIO TITO CORDOVA CARRANZA  0000000626066300000006260663          007083550800000000007000000000000007000000000000000000004375417102017041802044699 
02Diego Carlos                  0000000626074000000006260740          007083534100000000000150000000000000150000000000000000004375417082017041802040487 
02Jhon Aguirre Neira            0000000626070600000006260706          007083503300000000000500000000000000500000000000000000001855417062017041801015523 
02Hildefonso Guerrero Neira     0000000626068100000006260681          007083499600000000000300000000000000300000000000000000008175417042017041801068M%J 
02Reyna mechato elisene guadalup0000000626017000000006260170          007083475200000000000600000000000000600000000000000000008175417022017041801069E%P 
02luffyonepiece183@gmail.com    0000000625531300000006255313          007083445800000000000150000000000000150000000000000000008175417002017041801069S%L 
02fantaszma@hotmail.com         0000000626054100000006260541          007083432800000000000150000000000000150000000000000000008175416982017041801069K%M 
02Edinson Jhancarlos Chacon Delg0000000626067700000006260677          007083401100000000000780000000000000780000000000000000004375416962017041802041732 
02Michael Zambrano Yangali      0000000626062400000006260624          007083381300000000000200000000000000200000000000000000004375416942017041802044955 
02Andy Bazan                    0000000626058500000006260585          007083381200000000000750000000000000750000000000000000004375416922017041802044938 
02SERGIO ALEJANDRO BALUARTE CARO0000000626051400000006260514          007083303700000000000500000000000000500000000000000000008175416902017041801069I%A 
02marleny marleny               0000000625909900000006259099          00708327500000000000538640000000000538640000000000000000667541688201704180101IJ13 
02Anthony Ruiz Quevedo          0000000626058400000006260584          00708327340000000000046000000000000046000000000000000000437541686201704180204WNET 
02Eduardo Mello Gonzalez        0000000626050800000006260508          00708326750000000000020000000000000020000000000000000000437541684201704180204WNET 
02edgar edgar                   0000000625904300000006259043          00708325610000000000177960000000000177960000000000000000667541682201704180101IJ13 
02Jesus Arenas                  0000000626055100000006260551          007083249900000000001000000000000001000000000000000000002585416802017041801017611 
02briss briss                   0000000625902000000006259020          00708324970000000000116950000000000116950000000000000000667541678201704180101IJ13 
02manuel rosado                 0000000625899000000006258990          00708324340000000000365380000000000365380000000000000000667541676201704180101IJ13 
02                              0000000625861200000006258612          007083240000000000000600000000000000600000000000000000004375416742017041802044539 
02Carlos Trujillo Jorge         0000000625596100000006255961          007083234400000000000250000000000000250000000000000000008175416722017041801068N%N 
02Javier Muro Rebolledo         0000000626049000000006260490          00708318930000000000042500000000000042500000000000000000437541670201704180204WNET 
02Jesús Manuel Loayza Qquellón  0000000626035400000006260354          007083165100000000000300000000000000300000000000000000008175416682017041801068W%A 
02juan andres laynes rey        0000000626046000000006260460          007083140800000000004235500000000004235500000000000000004375416662017041802044164 
02gerardo antonio chu sasaki    0000000626045200000006260452          00708313660000000000300000000000000300000000000000000000437541664201704180704WNET 
02carlos alberto castillo ciudad0000000626041100000006260411          007083089000000000001500000000000001500000000000000000008175416622017041801068V%G 
02PATRICK ALFREDO ALTAMIRANO SUA0000000626042000000006260420          007083074200000000007000000000000007000000000000000000004375416602017041802045956 
02Julio Meza Arte Dise¦o        0000000626031100000006260311          00708307310000000000030000000000000030000000000000000000841541658201704180101ND11 
02paola quispe toscano          0000000626033000000006260330          007082992900000000000300000000000000300000000000000000001865416562017041801015623 
02Jimmy Francisco Zegarra del Ro0000000626035500000006260355          007082975400000000016000000000000016000000000000000000004375416532017041807049326 
02WILLIAM ALBERTO GUTIERREZ CHIR0000000625818800000006258188          007082962700000000000580000000000000580000000000000000004375416512017041802045873 
02Ingrid Geraldinn Leon Llanos  0000000625997000000006259970          007082943700000000001395000000000001395000000000000000002865416492017041801017Y12 
02Katty Elizabeth Prado         0000000625127300000006251273          007082906000000000000570000000000000570000000000000000008175416472017041801068Q%F 
02bekito_elturbo@hotmail.com    0000000626026400000006260264          007082830300000000000150000000000000150000000000000000008175416452017041801068Y%N 
02Gloria Maria Hurtado          0000000625986100000006259861          007082828700000000001100000000000001100000000000000000001605416432017041801014G25 
02Carlos Amaro Mendoza Mazuelos 0000000626024500000006260245          00708280150000000000500000000000000500000000000000000000437541641201704180204WNET 
02Daniel Eduardo Marquina Casavi0000000626022300000006260223          007082768400000000000400000000000000400000000000000000004375416392017041802045548 
02Diego Chavez                  0000000625734500000006257345          007082754500000000001000000000000001000000000000000000004375416372017041802043117 
02ELOY ZAPATA RUMICHE           0000000626199300000006261993          007086216100000000002108000000000002108000000000000000008175420222017041801069C%Y 
02carlos ubaldo torreblanca paez0000000626290300000006262903          007086202700000000005000000000000005000000000000000000004375420202017041807041330 
02Pedro Antonio Cevallos Yacila 0000000626290200000006262902          00708620120000000000880000000000000880000000000000000000437542018201704180704WNET 
02lidia lucinda panaifo ortiz   0000000626227100000006262271          007086200800000000001000000000000001000000000000000000008175420162017041801068N%P 
02d_iegolopez@hotmail.com       0000000626267100000006262671          007086185200000000000300000000000000300000000000000000008175420142017041801069J%U 
02Cesar Sichez                  0000000626285600000006262856          00708614740000000000050000000000000050000000000000000000437542012201704180204WNET 
02                              0000000626265900000006262659          00708614670000000000088500000000000088500000000000000000921542010201704180101PL13 
02Lucero Nisizaka               0000000625484200000006254842          007086125200000000000500000000000000500000000000000000008175420082017041801068M%D 
02Fausto Carbonero Eugenio      0000000626281400000006262814          007086102100000000000300000000000000300000000000000000004375420062017041802049816 
02Elias Durand Huaman           0000000626279500000006262795          007086069900000000000350000000000000350000000000000000008175420042017041801069G%M 
02Lisett Tineo Valdiviezo       0000000626114200000006261142          007086045000000000000422000000000000422000000000000000008175420022017041801069Q%F 
02                              0000000626112200000006261122          00708596950000000000038090000000000038090000000000000000437542000201704180204WNET 
02maycoltkm177400137@hotmail.com0000000626266900000006262669          007085951400000000000150000000000000150000000000000000008175419982017041801069T%N 
02ANA INES FLORES BARRIGA       0000000626260000000006262600          007085911800000000000500000000000000500000000000000000001025419962017041801012U24 
02GIULIANA DANITZA ZANUZZI BATTI0000000626183700000006261837          00708586140000000000202900000000000202900000000000000000792541994201704180201A84B 
02german guerra sernaque        0000000626514000000006265140          007089484300000000000200000000000000200000000000000000004375423522017041802045745 
02RAUL DAVILA ESCURRA           0000000626509300000006265093          00708946790000000000039000000000000039000000000000000000437542350201704180204WNET 
02Kesler Saín Pardavé Unchupaico0000000626509900000006265099          007089455600000000000150000000000000150000000000000000004375423482017041802046252 
02                              0000000626508300000006265083          00708944560000000000060000000000000060000000000000000000437542346201704180204WNET 
02GENARO CASTILLO QUISPE        0000000626506600000006265066          007089436100000000001050000000000001050000000000000000004375423442017041802042475 
02MEZA ESPINOZA, SHULLEER       0000000626469900000006264699          007089435000000000001500000000000001500000000000000000008175423422017041801069O%O 
02Juan Carlos Calderon Angeles  0000000626508200000006265082          007089423000000000002000000000000002000000000000000000008175423402017041801068P%Q 
02Giancarlos Caldas Aguirre     0000000626504300000006265043          007089420500000000000200000000000000200000000000000000008175423382017041801069U%A 
02rudbeck slim avalos tuero     0000000626503000000006265030          007089370500000000000370000000000000370000000000000000004375423362017041802045687 
02                              0000000626381400000006263814          007089349900000000000885000000000000885000000000000000004375423342017041802045873 
02Luis Alberto Sakibaru Mauricio0000000626497700000006264977          007089332100000000000600000000000000600000000000000000004375423322017041802047618 
02                              0000000626495300000006264953          007089303800000000001000000000000001000000000000000000004375423302017041802046776 
02LUIS OTOYA LANDAZURI          0000000626495100000006264951          00708929120000000001801000000000001801000000000000000000437542327201704180204WNET 
02Shirley Rojas                 0000000626486900000006264869          007089263800000000000300000000000000300000000000000000008175423252017041801069S%B 
02Rocío Milagros                0000000626485300000006264853          007089247300000000000490000000000000490000000000000000008175423232017041801069S%L 
02juan carlos salinas valencia  0000000626486300000006264863          007089227300000000000200000000000000200000000000000000004375423212017041802044839 
02gino lozano pe¦a              0000000626487900000006264879          00708922490000000000300000000000000300000000000000000000437542319201704180204WNET 
02Luis Guillermo Vivas          0000000626485200000006264852          00708921580000000000044000000000000044000000000000000000437542317201704180704WNET 
02jenfrancis_1573@hotmail.com   0000000626486000000006264860          007089205400000000000300000000000000300000000000000000008175423152017041801068Y%H 
02fiori_0208@hotmail.com        0000000626465400000006264654          007089192400000000000140000000000000140000000000000000008175423132017041801069I%Q 
02gregory_ern_make@hotmail.com  0000000626476000000006264760          007089096800000000000150000000000000150000000000000000008175423112017041801069C%E 
02diego vilchez zoeger          0000000626473900000006264739          007089084900000000000910000000000000910000000000000000004375423092017041802040821 
02Cristina Moncloa              0000000625741700000006257417          007089076200000000000070000000000000070000000000000000008175423072017041801069E%F 
02MALAGA HOYOS INES LIBIA ANTONI0000000626398400000006263984          007089050500000000000850000000000000850000000000000000008175423052017041801068K%I 
02Luis Milciades Lezama Cancino 0000000626461300000006264613          007089028700000000002000000000000002000000000000000000008175423032017041801069J%U 
02Francisco La Madrid Duany     0000000625668500000006256685          007089016300000000000093000000000000093000000000000000008175423012017041801068S%W 
02Francisco La Madrid Duany     0000000625667500000006256675          007089003600000000000740000000000000740000000000000000008175422992017041801069E%P 
02Francisco La Madrid Duany     0000000625665900000006256659          007088994500000000000369000000000000369000000000000000008175422972017041801068R%Q 
02Carlos Alberto Mesta Mesta    0000000626464700000006264647          007088989500000000003000000000000003000000000000000000004375422952017041802040534 
02Oscar Donayre Ponce           0000000626459000000006264590          007088951200000000014990000000000014990000000000000000004375422922017041802044934 
02                              0000000625414200000006254142          007088875200000000000600000000000000600000000000000000008175422902017041801068O%D 
02deustin rivadeneira           0000000626453700000006264537          007088866500000000005000000000000005000000000000000000004375422882017041802041656 
02William Yue Hin Wong Aguilar  0000000626443300000006264433          007088796500000000000500000000000000500000000000000000004375422862017041802043286 
02Abel Armando Casta¦eda Miranda0000000626440300000006264403          00708879400000000000060000000000000060000000000000000000437542284201704180204WNET 
02Jose Alberto Manrique Reyes   0000000626329100000006263291          007088761800000000000599000000000000599000000000000000008175422822017041801069I%K 
02Victor Manuel Taboada Borja   0000000626448500000006264485          00708866010000000000057410000000000057410000000000000000437542280201704180204WNET 
02bramequi@hotmail.com          0000000626446300000006264463          007088625200000000000150000000000000150000000000000000008175422782017041801068P%U 
02Katherine Fernandez Roldan Fer0000000626444400000006264444          007088602500000000001000000000000001000000000000000000004375422762017041802046963 
02FRANCISCO EDISON AGUIRRE YATO 0000000626419000000006264190          007088595100000000000690000000000000690000000000000000008175422742017041801069Q%V 
02italo Esteban torres Valdivia 0000000626441400000006264414          007088580700000000000290000000000000290000000000000000008175422722017041801068W%H 
02NESTOR FABIAN FARFANCORNEJO   0000000626439000000006264390          007088535600000000000100000000000000100000000000000000004375422702017041802040234 
02jaime enciso                  0000000626125700000006261257          007088518300000000000830000000000000830000000000000000008175422682017041801068J%Z 
02                              0000000625657500000006256575          007088508600000000002800000000000002800000000000000000004375422662017041802045316 
02CESAR                         0000000626432000000006264320          00708850470000000000100000000000000100000000000000000000437542264201704180204WNET 
02NILTON ARONI FLORES           0000000626437000000006264370          00708846350000000000020000000000000020000000000000000000437542262201704180204WNET 
02Jose David Muro Rebolledo     0000000626432100000006264321          00708845590000000000042500000000000042500000000000000000437542260201704180204WNET 
02Alvaro Lamas                  0000000626431800000006264318          007088449400000000000190000000000000190000000000000000004375422582017041802041489 
02                              0000000623087800000006230878          007088441900000000000600000000000000600000000000000000002745422562017041801017M22 
02MAGDA MEDALIT SANTOS SIPAN nul0000000626412000000006264120          007088439300000000001668000000000001668000000000000000004375422542017041802040950 
02Juan Manuel Huarcaya Avila    0000000626432700000006264327          00708842060000000000040000000000000040000000000000000000437542252201704180204WNET 
02jorge armando matienzo placido0000000626408800000006264088          00708835720000000000020000000000000020000000000000000000437542250201704180204WNET 
02ROCIO PAJARES                 0000000626316800000006263168          007088346800000000002200000000000002200000000000000000004375422482017041802040508 
02luis santiago campos carranza 0000000626428000000006264280          00708833210000000000085000000000000085000000000000000000437542246201704180204WNET 
02Jean Carlos Sulca Quintana    0000000626426700000006264267          007088327700000000000600000000000000600000000000000000008175422442017041801068M%G 
02Jose Carlos Monroy Munayco    0000000626404200000006264042          007088275400000000001160100000000001160100000000000000008175422422017041801068V%H 
02JORGE MIGUEL LUNA UGAS        0000000625885600000006258856          007088227000000000001000000000000001000000000000000000008175422382017041801069J%Q 
02Carol Diana  Palomino Chura nu0000000626275400000006262754          00708822600000000000286600000000000286600000000000000000857542236201704180101NT11 
02Diana Carolina Santos Martinez0000000626422000000006264220          007088239500000000000200000000000000200000000000000000004375422402017041802044165 
02enrike.darksoul@gmail.com     0000000626418400000006264184          007088201900000000000300000000000000300000000000000000008175422342017041801068S%L 
0213809843 Luis Alberto Guadalup0000000626345400000006263454          007088176900000000000200000000000000200000000000000000008175422322017041801068Q%I 
02                              0000000626062500000006260625          007088172300000000000600000000000000600000000000000000001935422302017041801015D21 
02Miguel Angel Castro Rodan     0000000626418500000006264185          00708817060000000000020000000000000020000000000000000000437542228201704180204WNET 
02Ylcio Sanchez Cubas           0000000625734200000006257342          007088091800000000005949500000000005949500000000000000002995422262017041801018B12 
02Jaime Martin Avila Tumay      0000000626413000000006264130          00708804690000000000200000000000000200000000000000000000437542224201704180204WNET 
02                              0000000626019000000006260190          00708802450000000000180000000000000180000000000000000000383542222201704180101AN21 
02Brayham rojas alvarez         0000000625952200000006259522          007088019100000000024989900000000024989900000000000000003215422192017041802018X23 
02RONY CONDE#A                  0000000626396600000006263966          00708799290000000000206000000000000206000000000000000000437542217201704180704WNET 
02JESICA DELGADO                0000000626399400000006263994          007087980400000000001610000000000001610000000000000000001965422152017041801015G23 
02Dennis Jonel Pesantes Cardenas0000000626382500000006263825          007087596200000000000250000000000000250000000000000000008175421702017041801068U%S 
02Jorge Rojas                   0000000625918100000006259181          007087591100000000001200000000000001200000000000000000003555421682017041801019V22 
02Alexandder De Feudis Kockova  0000000626334700000006263347          007087582700000000002000000000000002000000000000000000004375421662017041802049935 
02oscar jaime lopez martinez    0000000626140800000006261408          007087574300000000010113100000000010113100000000000000002155421632017041801015Z24 
02SRTA. ROXANA                  0000000626274100000006262741          007087514400000000004950000000000004950000000000000000004375421612017041802043873 
02Juan Aldave                   0000000626382400000006263824          007087508000000000000320000000000000320000000000000000004375421572017041807046019 
02                              0000000625856400000006258564          007087499800000000001199900000000001199900000000000000001165421552017041801013822 
02enrike.darksoul@gmail.com     0000000626378500000006263785          007087508500000000000150000000000000150000000000000000008175421592017041801069L%X 
02                              0000000626375700000006263757          00708748890000000000128000000000000128000000000000000000437542153201704180204WNET 
02Maria Salazar                 0000000626316600000006263166          00708745960000000000120000000000000120000000000000000000437542151201704180204WNET 
02ANGELICA CASTRO * P EFECTIVO  0000000626359500000006263595          007087427800000000000800000000000000800000000000000000003285421492017041801019413 
02altrejh@gmail.com             0000000626340900000006263409          007087378200000000000150000000000000150000000000000000008175421472017041801068N%Q 
02soi_dani@hotmail.com          0000000626374600000006263746          007087369900000000000140000000000000140000000000000000008175421452017041801069T%G 
02Kathy                         0000000626337000000006263370          007087356200000000000490000000000000490000000000000000004375421432017041802046512 
02jose ochante huarcaya         0000000626370100000006263701          007087312800000000000300000000000000300000000000000000004375421412017041802041737 
02ruben lizana marcas           0000000626324900000006263249          007087308100000000001550000000000001550000000000000000008175421392017041801068W%F 
02ISRAEL                        0000000626342700000006263427          007087295600000000001600000000000001600000000000000000001465421372017041801014224 
02Maria Teresa Arnedo           0000000625526600000006255266          00708728680000000000310000000000000310000000000000000000797542135201704180101M512 
02Giancarlo Juarez              0000000626367900000006263679          00708724220000000000040000000000000040000000000000000000437542133201704180204WNET 
02Luis Arturo Cavero Sanchez    0000000626229400000006262294          007087227400000000000170000000000000170000000000000000001845421312017041801015424 
02                              0000000621908500000006219085          00708722490000000000060000000000000060000000000000000000970542129201704180101QY14 
02miguel angel cerquin cabrera  0000000626346000000006263460          007087209100000000000500000000000000500000000000000000008175421272017041801069J%T 
02Ulises Gutierrez              0000000626201200000006262012          007087178200000000000299000000000000299000000000000000001795421252017041801014Z21 
02                              0000000626082300000006260823          00708716740000000000304000000000000304000000000000000000437542123201704180704WNET 
02diego_churata@hotmail.com     0000000626361200000006263612          007087135200000000000150000000000000150000000000000000008175421212017041801069F%N 
02lifev daniela alarcon sanchez 0000000625831800000006258318          00708713460000000000648000000000000648000000000000000000437542119201704180204WNET 
02CHARO HURTADO GARCIA          0000000626336500000006263365          00708704920000000000210000000000000210000000000000000000518542117201704180101EE12 
02aldo cornelio                 0000000626354900000006263549          007087039900000000001000000000000001000000000000000000004375421152017041807043415 
02                              0000000626093300000006260933          007087030300000000002300600000000002300600000000000000003015421132017041801018D59 
02rita mendoza                  0000000626198500000006261985          007087026800000000002869300000000002869300000000000000008175421112017041801069M%D 
02LUIS EDUARDO GOMEZ MORENO     0000000626352400000006263524          007087001700000000001000000000000001000000000000000000001945421092017041801015E35 
02                              0000000626309600000006263096          007086985300000000007290000000000007290000000000000000002005421072017041801015K52 
02Julia Rimari                  0000000626341200000006263412          007086975200000000000918000000000000918000000000000000008175421052017041801068M%I 
02Aldo Jota                     0000000626348100000006263481          007086962900000000000520000000000000520000000000000000004375421032017041807046462 
02OSCAR CARRION ANDIA           0000000626308600000006263086          00708696160000000000110000000000000110000000000000000000482542101201704180101DE12 
02Olimpo Carpio Alvaravo        0000000624732500000006247325          007086955600000000000700000000000000700000000000000000004375420992017041802048600 
02cahuanagerardo@gmail.com      0000000626333400000006263334          007086949600000000000300000000000000300000000000000000008175420972017041801068X%I 
02cahuanagerardo@gmail.com      0000000626336700000006263367          007086933400000000000750000000000000750000000000000000008175420952017041801069R%M 
02LILIANA  ECHEGARAY LINARES    0000000626168200000006261682          007086890600000000004417300000000004417300000000000000002635420932017041801017B14 
02                              0000000626230300000006262303          007086838400000000004010000000000004010000000000000000002525420912017041802017014 
02daniel olivos guevara         0000000626252300000006262523          007086807100000000000570000000000000570000000000000000000815420892017041801012911 
02Katia Centurion               0000000625505500000006255055          007086789400000000002940000000000002940000000000000000003145420872017041801018Q22 
02ana luisa arakaki  yagui      0000000626323400000006263234          007086782700000000147380000000000147380000000000000000001905420842017041802015A32 
02Anthony Ruiz Quevedo          0000000626329800000006263298          00708673380000000000050000000000000050000000000000000000437542082201704180204WNET 
02lidia lucinda panaifo ortiz   0000000626301800000006263018          007086725100000000001050000000000001050000000000000000008175420802017041801069T%T 
02Omar Vilchez                  0000000626326000000006263260          007086692600000000000630000000000000630000000000000000004375420782017041802042830 
02christian223456@hotmail.com   0000000626316400000006263164          007086677700000000000300000000000000300000000000000000008175420762017041801069O%R 
02Hector Luis Garay Sosa        0000000626326800000006263268          00708666850000000000165000000000000165000000000000000000437542074201704180204WNET 
02GABRIELA                      0000000626323700000006263237          00708666440000000000360000000000000360000000000000000000437542072201704180204WNET 
02carlos ubaldo torreblanca paez0000000626326700000006263267          007086655400000000005000000000000005000000000000000000004375420702017041807040398 
02SR HENRY                      0000000626313600000006263136          007086654800000000001100000000000001100000000000000000001195420682017041801013B11 
02yans8360@gmail.com            0000000626318800000006263188          007086631400000000000300000000000000300000000000000000008175420662017041801068Q%A 
02VENTAS VENTAS VENTAS          0000000626149400000006261494          007086606600000000001800000000000001800000000000000000001845420642017041801015423 
02Marcelo Martin Huamani Tenorio0000000626084000000006260840          007086594900000000000450000000000000450000000000000000008175420622017041801069D%H 
02ROGER CHAVEZ MATOS            0000000626320900000006263209          00708658240000000000075000000000000075000000000000000000437542060201704180204WNET 
02Rocio Roman Pastor            0000000626319200000006263192          007086560000000000000345000000000000345000000000000000008175420582017041801069K%S 
02kelly yurivilca solano        0000000625605600000006256056          007086529800000000001800000000000001800000000000000000003285420562017041801019411 
0215786937 Luís Villanueva      0000000626305500000006263055          007086527200000000000200000000000000200000000000000000008175420542017041801069Q%N 
02Augusto Modesto SalasNu¦ez    0000000626299900000006262999          00708652160000000000050000000000000050000000000000000000791542052201704180101LZ13 
02Carol Lourdes Chang Silva     0000000625535900000006255359          00708649770000000000433000000000000433000000000000000000615542050201704180101H313 
02Daniel Aguirre Rodriguez      0000000625855600000006258556          007086476600000000000639000000000000639000000000000000003175420482017041801018T24 
02Addi Falcon Beltran           0000000626306700000006263067          007086448200000000001000000000000001000000000000000000008175420462017041801069I%J 
02                              0000000626292200000006262922          00708644310000000000052000000000000052000000000000000000437542044201704180204WNET 
02Michael Zambrano Yangali      0000000626309700000006263097          007086416300000000000200000000000000200000000000000000004375420422017041802046043 
02edith bastidas                0000000625438500000006254385          007086363300000000001590000000000001590000000000000000008175420402017041801068W%N 
02LEON RODA RODA                0000000625302100000006253021          00708635420000000000135000000000000135000000000000000000939542038201704180101Q311 
02edith bastidas                0000000625440100000006254401          007086354000000000001790000000000001790000000000000000008175420362017041801068O%G 
02diego alonso reyes valle romer0000000626303000000006263030          007086344900000000000350000000000000350000000000000000004375420342017041802048417 
02Adrian Gustavo Horna Inostroza0000000626302700000006263027          00708634340000000000245740000000000245740000000000000000437542032201704180204WNET 
02edith bastidas                0000000625440700000006254407          007086343000000000000899000000000000899000000000000000008175420302017041801069O%Q 
02edith bastidas                0000000625434000000006254340          007086321500000000000699000000000000699000000000000000008175420282017041801068R%Q 
02Elsa Macchiavello mayta       0000000624851000000006248510          007086309800000000000632000000000000632000000000000000001295420262017041801013L23 
02Luis Alberto Forero Herrera   0000000626283400000006262834          00708630550000000000030000000000000030000000000000000000437542024201704180204WNET 
02Jose Yanagui Castillo         0000000626519400000006265194          007089531500000000000800000000000000800000000000000000004375423622017041802041730 
02Diego Sau¦e                   0000000626518600000006265186          007089526700000000000150000000000000150000000000000000004375423602017041802043318 
02Gustavo Geldres               0000000626516200000006265162          007089520800000000000150000000000000150000000000000000004375423582017041802049788 
02Jonathan Ayasta               0000000626512900000006265129          007089486600000000001000000000000001000000000000000000004375423542017041802040937 
02Jesus Felix Becerra Cabos     0000000625988200000006259882          00708227560000000000035000000000000035000000000000000000437541606201704180204WNET 
02Marco Antonio Manyari Masias  0000000625992300000006259923          007082293000000000000500000000000000500000000000000000004375416082017041802048366 
02elvis llamoca salhua          0000000625939300000006259393          007082254100000000000150000000000000150000000000000000008175416042017041801068Y%W 
02                              0000000625816300000006258163          007082229600000000000500000000000000500000000000000000004375416022017041807041565 
02Evelyn Seclen                 0000000625981000000006259810          00708219150000000000240000000000000240000000000000000000437541596201704180204WNET 
02LUCERO DEL CARMEN VALENZUELA S0000000625979400000006259794          00708217500000000000118300000000000118300000000000000000437541592201704180204WNET 
02Renzo Gustavo Quispe Lude¦a   0000000625852700000006258527          00708217960000000000300000000000000300000000000000000000002541594201704180101MA13 
02Carmen Luisa Felipa Ramirez   0000000625932600000006259326          007082214300000000001580000000000001580000000000000000008175416002017041801069E%B 
02Stephany Lavado Salazar       0000000625982300000006259823          00708219390000000000013000000000000013000000000000000000437541598201704180204WNET 
02playboxgamingcenter@gmail.com 0000000625983700000006259837          00708241630000000000478190000000000478190000000000000000598541616201704180101GM1C 
02                              0000000625943600000006259436          007082381800000000000885000000000000885000000000000000001795416142017041801014Z24 
02José Alonso Santana           0000000625997600000006259976          007082360000000000000500000000000000500000000000000000004375416122017041802047164 
02Alonso Segura                 0000000625988300000006259883          00708230400000000000030000000000000030000000000000000000437541610201704180204WNET 
02                              0000000626004500000006260045          00708261140000000000035000000000000035000000000000000000437541633201704180204WNET 
02                              0000000625834500000006258345          00708259160000000000038000000000000038000000000000000000999541631201704180201T1F3 
02                              0000000625805800000006258058          00708257800000000000025800000000000025800000000000000000999541629201704180201T1F3 
02javiercitoslash@gmail.com     0000000626004400000006260044          007082636900000000000150000000000000150000000000000000008175416352017041801069U%M 
02MIGUEL ANGEL RAMOS LA TORRE   0000000625928500000006259285          00708244490000000000196000000000000196000000000000000000372541622201704180101AC21 
02harol dustin pric jimenez guer0000000625988500000006259885          007082440100000000000188000000000000188000000000000000008175416202017041801068V%D 
02MIGUEL ANGEL RAMOS LA TORRE   0000000625935300000006259353          00708242910000000000098000000000000098000000000000000000372541618201704180101AC21 
02URSULA PATRICIA  BEHR ARGUMEDO0000000625978400000006259784          007082515300000000011058000000000011058000000000000000001425416262017041801013Y22 
02Francisco Amoretti            0000000626005900000006260059          00708251470000000000800000000000000800000000000000000000437541624201704180204WNET 
02Juan Julio Rivasplata Huaman  0000000625950100000006259501          00708165760000000000200000000000000200000000000000000000437541543201704180204WNET 
02german guerra sernaque        0000000625954100000006259541          007081703800000000000500000000000000500000000000000000004375415482017041802041481 
02Alan Edher Garcia Valverde    0000000625952900000006259529          007081677800000000012000000000000012000000000000000000004375415452017041802044018 
02Mariela Huaman                0000000625729200000006257292          007081557400000000000420000000000000420000000000000000008175415382017041801069G%W 
02GERARDO CONCAS                0000000625766700000006257667          00708161270000000004448000000000004448000000000000000000437541540201704180204WNET 
02Cristhian Chumacero Tello     0000000625948400000006259484          007081757400000000000200000000000000200000000000000000008175415502017041801069M%P 
02Fabiola Patricia Perasso Mulle0000000625959100000006259591          00708180730000000000400000000000000400000000000000000000437541552201704180204WNET 
02brian oblitas                 0000000625937200000006259372          007081828800000000000200000000000000200000000000000000000065415562017041801010612 
02Antonio SALORD                0000000625957200000006259572          007081816200000000001000000000000001000000000000000000004375415542017041802040133 
02jcflog_84@hotmail.com         0000000625366300000006253663          007081840900000000000499500000000000499500000000000000002655415582017041801017D25 
02JACK FERDUCCI BORDA RIOS      0000000625962400000006259624          007081879600000000000940000000000000940000000000000000004375415602017041807046788 
02oscar alex garcia puchuri     0000000625915300000006259153          00708198710000000000466590000000000466590000000000000000857541566201704180101NT11 
02PAOLA MARTINEZ ROJAS          0000000625965400000006259654          00708195270000000000125000000000000125000000000000000000437541564201704180204WNET 
02Wilfredo Alonso Mestanza Vasqu0000000625965800000006259658          007082024700000000000600000000000000600000000000000000004375415722017041802044781 
02                              0000000625959200000006259592          00708201930000000000019990000000000019990000000000000000437541568201704180204WNET 
02Abel Armando Casta¦eda Miranda0000000625968500000006259685          00708202400000000000100000000000000100000000000000000000437541570201704180204WNET 
02CLAUDIA RUT CHANAMé AGUILA    0000000625903600000006259036          007081932000000000001100000000000001100000000000000000002145415622017041801015Y11 
02                              0000000625946000000006259460          007082123400000000000885000000000000885000000000000000008175415782017041801068L%T 
02johnny cesar gutierrez rojas  0000000625977200000006259772          00708211660000000000020000000000000020000000000000000000437541576201704180204WNET 
02Luis Angel Calderon Bohorquez 0000000625980400000006259804          007082138700000000000600000000000000600000000000000000004375415802017041802048739 
02Jair Rufino Rugel             0000000625922000000006259220          007082139500000000000200000000000000200000000000000000008175415822017041801069K%W 
02Jesus Johnnathan Alfonso De la0000000625981100000006259811          00708214720000000000020000000000000020000000000000000000437541584201704180204WNET 
02daniel prado                  0000000625968900000006259689          007082149700000000000200000000000000200000000000000000008175415862017041801068J%U 
02JOSE LUIS ZAVALA SOLANO       0000000625980500000006259805          007082158100000000000500000000000000500000000000000000008175415902017041801068M%S 
02Ivan Celso Palomino Huayta    0000000625980300000006259803          007082157100000000000200000000000000200000000000000000004375415882017041802045087 
02diego vilchez zoeger          0000000625976300000006259763          00708210260000000000100000000000000100000000000000000000437541574201704180204WNET 
02LUIS EDUARDO GOMEZ MORENO     0000000625931400000006259314          007081472900000000001000000000000001000000000000000000001945415242017041801015E35 
02Giovanni Jose Tenorio Ramirez 0000000625934800000006259348          007081468300000000004000000000000004000000000000000000001565415222017041801014C21 
02                              0000000625937100000006259371          007081449500000000000386700000000000386700000000000000004375415202017041802041098 
0211645696 RICARDO RIOS LOPEZ   0000000625939100000006259391          00708148620000000000071720000000000071720000000000000000437541526201704180204WNET 
02Edinson Cainicela Icochea     0000000625809300000006258093          007081486500000000000400000000000000400000000000000000004375415282017041802046553 
02Saulo Ruben Pizarro Collazos  0000000625880700000006258807          007081486700000000000400000000000000400000000000000000008175415302017041801069I%Y 
02Blanca Arnulfo Garcia         0000000625939900000006259399          00708154770000000000050000000000000050000000000000000000437541536201704180204WNET 
02ever yampier anastacio yarlequ0000000625941700000006259417          00708153580000000000050000000000000050000000000000000000437541534201704180204WNET 
02                              0000000625706900000006257069          007081518100000000002820000000000002820000000000000000001205415322017041802013C21 
02ROBERTH ALEXANDER CRUZ HERMIDA0000000625923700000006259237          00708128030000000000050000000000000050000000000000000000437541500201704180204WNET 
02alex junior olaya burga       0000000625909100000006259091          007081282900000000000670000000000000670000000000000000001955415022017041801015F21 
02Caylen  Giraldo               0000000625748600000006257486          00708128300000000000100000000000000100000000000000000000437541504201704180204WNET 
02dante silva ya¦ez             0000000625923800000006259238          00708128450000000000200000000000000200000000000000000000437541506201704180204WNET 
02Juan Miguel Peralta Alarcon   0000000625489400000006254894          007081298300000000000360000000000000360000000000000000004375415082017041802047484 
02Manuel Espinoza               0000000625924100000006259241          007081319800000000000300000000000000300000000000000000004375415102017041802040739 
02diego vilchez zoeger          0000000625928300000006259283          00708132030000000000084000000000000084000000000000000000437541512201704180204WNET 
0211657828 Rodrigo Puelles      0000000625919500000006259195          007081243100000000000400000000000000400000000000000000004375414982017041802048865 
02Jonathan Ayasta               0000000625917600000006259176          007081237100000000001000000000000001000000000000000000004375414942017041802047452 
02jhon jairo torres almeyda     0000000625919000000006259190          00708123800000000000039000000000000039000000000000000000437541496201704180204WNET 
02Luis Miguel Quispe Dávila     0000000625907000000006259070          007081363600000000000200000000000000200000000000000000004375415182017041802046999 
02Abel Canasas                  0000000625929700000006259297          007081362900000000000500000000000000500000000000000000004375415162017041802045949 
02Karl Barrantes                0000000625925200000006259252          007081329400000000000300000000000000300000000000000000004375415142017041802048668 
02sxsroxfor@gmail.com           0000000625803100000006258031          007080619500000000000170700000000000170700000000000000008175414382017041701068L%O 
02ALEXIS ERNESTO ANTUNEZ PURIS  0000000625915800000006259158          007081224100000000000500000000000000500000000000000000004375414922017041802041769 
02Sergio Fiol Seoane            0000000625914500000006259145          007081219300000000002000000000000002000000000000000000004375414902017041802042110 
02Rosa Blanca Manola Pacheco Rod0000000625913200000006259132          00708121100000000000050000000000000050000000000000000000437541486201704180204WNET 
02Fabrizio Rosales              0000000625911800000006259118          007081211200000000000200000000000000200000000000000000004375414882017041802046108 
0216943957 Giovanna Vasquez Rome0000000625914200000006259142          007081210300000000000200000000000000200000000000000000004375414842017041802043617 
02Jean Pierre Servat Cisneros   0000000625910300000006259103          007081181000000000000800000000000000800000000000000000004375414802017041802041467 
02JOHANNES SAMUEL AIGNER        0000000625909400000006259094          007081191100000000000670000000000000670000000000000000004375414822017041802042523 
02Juan Julio Rivasplata Huaman  0000000625895800000006258958          00708113830000000000500000000000000500000000000000000000437541478201704180204WNET 
02                              0000000625893600000006258936          007081056100000000000400000000000000400000000000000000004375414702017041802043064 
02William Acosta                0000000625894700000006258947          007081063500000000000300000000000000300000000000000000004375414722017041802049414 
0213768737 Sergio Nano          0000000625889800000006258898          007081031900000000002000000000000002000000000000000000004375414682017041802048876 
02gino lozano pe¦a              0000000625887300000006258873          00708102270000000000300000000000000300000000000000000000437541466201704180204WNET 
02BETSABE CALLE CRUZ            0000000625881500000006258815          00708100040000000000020000000000000020000000000000000000437541462201704180204WNET 
02Andres Garcia                 0000000625827100000006258271          007081009200000000000200000000000000200000000000000000004375414642017041802045616 
0211953012 JORGE CHAVEZ         0000000625855200000006258552          007080830100000000000223800000000000223800000000000000004375414582017041802046475 
02Adrian Humberto Alayza Aguila 0000000625870200000006258702          007080980000000000001000000000000001000000000000000000004375414602017041802046797 
02Christian Manuel Urcia        0000000625835600000006258356          007080794300000000001800000000000001800000000000000000004375414402017041802049302 
02Wilmer Stewar Vilela Ghersi   0000000625821900000006258219          00708079660000000000029040000000000029040000000000000000437541442201704180204WNET 
0212120642 RONAL DURAN SALVADOR 0000000625832100000006258321          00708079700000000000100000000000000100000000000000000000437541444201704180204WNET 
02german guerra sernaque        0000000625837400000006258374          007080799100000000000440000000000000440000000000000000004375414462017041802047269 
02Mauricio Gonzalez Torres      0000000625840200000006258402          007080804000000000000200000000000000200000000000000000004375414502017041802048681 
02Robert Angel Castro Zacarias  0000000625839100000006258391          00708080290000000000200000000000000200000000000000000000437541448201704180204WNET 
02Angel Omar Bautista Romero    0000000625843300000006258433          007080812400000000001100000000000001100000000000000000004375414542017041802040672 
02Paolo Ravello Ortiz           0000000625843100000006258431          007080811200000000005000000000000005000000000000000000004375414522017041807040876 
02Maria Quineche Orahulio       0000000625841900000006258419          00708082510000000000300000000000000300000000000000000000437541456201704180704WNET 
02Fernando Martín Custodio Enequ0000000625894500000006258945          00708106600000000000020000000000000020000000000000000000437541474201704180204WNET 
02german guerra sernaque        0000000625900800000006259008          007081103600000000000500000000000000500000000000000000004375414762017041802047555 
02                              0000000623334200000006233342          007085803400000000000600000000000000600000000000000000008175419922017041801069O%U 
02Wilder Hidalgo Laderas        0000000626137000000006261370          007085800800000000001000000000000001000000000000000000008175419902017041801069K%O 
02german guerra sernaque        0000000626258200000006262582          007085797500000000000400000000000000400000000000000000004375419882017041802045494 
02Alex Reyes null               0000000625774000000006257740          00708579650000000000122000000000000122000000000000000000437541986201704180204WNET 
02orlando garay                 0000000626217700000006262177          00708577380000000000020000000000000020000000000000000000437541984201704180204WNET 
02claudio espinoza pereda       0000000626254900000006262549          007085755000000000001010000000000001010000000000000000004375419822017041802041536 
02JOSE LUIS ZAVALA SOLANO       0000000626253100000006262531          007085731100000000000500000000000000500000000000000000008175419802017041801068U%U 
02Maria Medina loza             0000000625781000000006257810          007085714400000000000387000000000000387000000000000000003195419782017041801018V22 
02jose20000196@outlook.com      0000000626242900000006262429          00708562290000000000111260000000000111260000000000000000437541976201704180204WNET 
02Maxler Lopez                  0000000626199500000006261995          007085622100000000000355200000000000355200000000000000004375419742017041802048530 
02Christian Nima Rosario        0000000626054200000006260542          00708561650000000000024000000000000024000000000000000000437541972201704180204WNET 
02rommel_cc_@hotmail.com        0000000626242800000006262428          007085602700000000000150000000000000150000000000000000008175419702017041801068U%J 
02CECILIA VILLANUEVA ALVARADO   0000000626238900000006262389          007085580400000000000850000000000000850000000000000000001625419682017041801014I32 
02daniel eduardo hernandez varga0000000625339000000006253390          007085580200000000006990000000000006990000000000000000001075419662017041801012Z23 
02                              0000000623334800000006233348          007085564500000000000600000000000000600000000000000000004375419642017041802041908 
02rommel_cc_@hotmail.com        0000000626239100000006262391          007085546400000000000750000000000000750000000000000000008175419622017041801068M%D 
02Luis Zevallos                 0000000626238500000006262385          007085525400000000000231000000000000231000000000000000004375419602017041802042940 
02RONALD ESPINOZA ESPIRITU      0000000625460800000006254608          007085522500000000003990000000000003990000000000000000002845419582017041801017W13 
02MADELEINE BROWN               0000000626231900000006262319          00708550620000000000047600000000000047600000000000000000437541956201704180204WNET 
02SR CESAR                      0000000626212400000006262124          00708549130000000000033000000000000033000000000000000000437541954201704180204WNET 
02Alex americo Huerta valencia  0000000626235900000006262359          007085488900000000000200000000000000200000000000000000004375419522017041802047721 
02GINO GABRIEL CARRASCO NOVOA   0000000625850300000006258503          00708547010000000000100000000000000100000000000000000000437541950201704180204WNET 
02JOSE WILSON OC EGUIZABAL      0000000626234200000006262342          007085460700000000001500000000000001500000000000000000004375419482017041802047158 
02SRT:VARINIA MORENO            0000000626229700000006262297          00708541730000000000202000000000000202000000000000000000437541946201704180204WNET 
02PAO SMITH                     0000000626229600000006262296          007085399200000000000590000000000000590000000000000000001205419442017041801013C23 
02PAO SMITH                     0000000626226800000006262268          007085393400000000000590000000000000590000000000000000001205419422017041801013C23 
02jose saravia                  0000000626228200000006262282          00708539140000000000100000000000000100000000000000000000437541940201704180204WNET 
02CHRYTSOL AMAYA                0000000626006700000006260067          007085376900000000000780000000000000780000000000000000003355419382017041801019B22 
02Enrique Fernandez Varela      0000000626228000000006262280          007085370500000000000150000000000000150000000000000000004375419362017041802044668 
02Jose Manue Linares ap         0000000625929900000006259299          00708536730000000000029900000000000029900000000000000000659541934201704180201IB11 
02ARIANNA ALEJANDRA AREVALO ROJA0000000626123900000006261239          007085361600000000000700000000000000700000000000000000004375419322017041802047410 
02fredy arocutipa pinedo        0000000626225400000006262254          007085332600000000006725100000000006725100000000000000004375419302017041802049401 
02FERNANDO                      0000000626214700000006262147          007085329300000000000800000000000000800000000000000000000935419282017041801012L11 
0216824904 Gerald Alexis Flores 0000000626222800000006262228          007085310900000000000200000000000000200000000000000000004375419262017041802040266 
02SRT:JAQUELIN                  0000000626216900000006262169          007085301200000000001070000000000001070000000000000000001635419222017041801014J26 
02Andres Alejandro Alca Arzapalo0000000626215800000006262158          007085230500000000000200000000000000200000000000000000008175419202017041801069E%E 
02elfelfin2@gmail.com           0000000625630600000006256306          007085208400000000000150000000000000150000000000000000008175419182017041801069N%L 
02Jorge Luis Huaytan Fasabi     0000000626209400000006262094          007085177600000000000200000000000000200000000000000000004375419162017041802048486 
02                              0000000626209600000006262096          00708516140000000000057900000000000057900000000000000000437541914201704180204WNET 
02CESAR AUGUSTO CAYETANO        0000000626210900000006262109          007085145600000000000670000000000000670000000000000000004375419122017041802045765 
02Jhonnatan Enrique Diaz Rutte  0000000626210400000006262104          00708513260000000000200000000000000200000000000000000000437541910201704180204WNET 
02antony vladimir uribe arroyo  0000000626210000000006262100          007085128000000000000300000000000000300000000000000000004375419082017041802048704 
02sergio sacramento guzman      0000000626211300000006262113          00708511850000000000050000000000000050000000000000000000437541906201704180204WNET 
02juan carlos salinas valencia  0000000626206200000006262062          007085111400000000000200000000000000200000000000000000004375419042017041802046328 
02Paolo Flores                  0000000626208000000006262080          007085099800000000000275000000000000275000000000000000004375419022017041802046837 
02Eber Torres                   0000000626205700000006262057          007085083500000000000460000000000000460000000000000000004375419002017041807048607 
02tapeomtapa123@gmail.com       0000000626206800000006262068          007085077700000000000150000000000000150000000000000000008175418982017041801069Q%D 
02Jose Yanagui Castillo         0000000626168900000006261689          007085064000000000000200000000000000200000000000000000004375418962017041802048112 
02Darwin Ruben Fuentes Barriga  0000000626203700000006262037          00708505670000000000050000000000000050000000000000000000437541894201704180204WNET 
02Vanny Chang                   0000000626203400000006262034          007085054100000000000500000000000000500000000000000000004375418922017041802049538 
02albertoabadestrella4@gmail.com0000000626201800000006262018          007085040100000000000300000000000000300000000000000000008175418902017041801068N%A 
02Manuel Chavez                 0000000626200900000006262009          007085037400000000000300000000000000300000000000000000004375418882017041802043562 
02Jose Luis Martin Ortega Casas 0000000626199600000006261996          007085023200000000003500000000000003500000000000000000004375418862017041802048594 
02johann miguel martel vargas   0000000626197700000006261977          00708500220000000000050000000000000050000000000000000000437541884201704180204WNET 
02Carmen Susana Sarmiento Egoavi0000000626188600000006261886          007084989600000000000320000000000000320000000000000000004375418822017041802045785 
02Luis Enrique Cordova Sandoval 0000000626194900000006261949          00708496670000000000080000000000000080000000000000000000437541880201704180204WNET 
02José Taboada Borja            0000000626194700000006261947          00708496060000000000140000000000000140000000000000000000437541878201704180204WNET 
02jose ochante huarcaya         0000000626193000000006261930          007084953800000000000200000000000000200000000000000000004375418762017041802042726 
02Carlos Emanuel Elgegren Oyarce0000000626192400000006261924          007084939200000000000200000000000000200000000000000000004375418742017041802046018 
02deustin rivadeneira           0000000626191500000006261915          007084935700000000003000000000000003000000000000000000004375418722017041802042013 
02italo Esteban torres Valdivia 0000000626187500000006261875          007084927100000000001200000000000001200000000000000000008175418702017041801068O%S 
02José Enrique Dubois Martinez  0000000626159500000006261595          007084923500000000002000000000000002000000000000000000002825418682017041801017U11 
02Giancarlo Padilla             0000000626191100000006261911          007084911200000000000150000000000000150000000000000000004375418662017041802048843 
02Sergey Anderson Huerta Flores 0000000626183200000006261832          007084902200000000000700000000000000700000000000000000008175418642017041801069O%F 
02sonia mamani                  0000000626167100000006261671          007084901900000000001589000000000001589000000000000000002205418622017041801016447 
02Bruno Robles                  0000000626188300000006261883          00708489710000000000100000000000000100000000000000000000437541860201704180204WNET 
02                              0000000623330200000006233302          007084896000000000001199900000000001199900000000000000002915418582017041801018322 
02SRTA DANIELA                  0000000626143700000006261437          00708487970000000000091000000000000091000000000000000000791541856201704180101LZ12 
02Dante Edgardo Leyva Garcia    0000000626186500000006261865          007084867400000000000500000000000000500000000000000000004375418542017041802046152 
02Victor Eche Velasco           0000000626181300000006261813          007084839900000000000400000000000000400000000000000000004375418522017041802044419 
02Jose Luis Gonzales Muro       0000000626178800000006261788          00708482830000000000080000000000000080000000000000000000437541850201704180204WNET 
02Manuel Ruiz                   0000000626181400000006261814          00708482160000000000042000000000000042000000000000000000437541848201704180204WNET 
02GACITUA MENDEZ JAMIN HAZIEL   0000000625929800000006259298          007084800700000000000650000000000000650000000000000000001515418462017041801014724 
02Pedro Bonilla                 0000000626180000000006261800          00708478960000000000060000000000000060000000000000000000437541844201704180204WNET 
02Joel Vega Moscoso             0000000626173500000006261735          007084781800000000000200000000000000200000000000000000004375418422017041802048946 
02Carlo Delgado                 0000000626174300000006261743          007084781500000000000200000000000000200000000000000000008175418402017041801069S%X 
02Jhonatan David Alarcon Gregori0000000626171200000006261712          00708477190000000000075000000000000075000000000000000000437541838201704180204WNET 
02Oscar Alberto Leturia Diaz    0000000626173700000006261737          007084759500000000001200000000000001200000000000000000008175418362017041801069A%I 
02                              0000000626175200000006261752          007084749700000000000450000000000000450000000000000000004375418342017041802040372 
02Arturo Fernando Bayeto Carlos 0000000626174900000006261749          00708474310000000000040000000000000040000000000000000000437541832201704180204WNET 
02                              0000000626074300000006260743          007084742200000000000885000000000000885000000000000000004375418302017041802042383 
0215306548 Jaime Leonidas Olcese0000000626173800000006261738          007084739100000000000200000000000000200000000000000000004375418282017041802049277 
02Walter Moises Leon Vejarano   0000000626174100000006261741          00708473380000000000040350000000000040350000000000000000437541826201704180204WNET 
02Maria Atuncar                 0000000624649000000006246490          007084708900000000001887000000000001887000000000000000000545418242017041801011I12 
02Ti Jonny                      0000000626083300000006260833          007084675500000000001300000000000001300000000000000000002845418222017041801017W16 
02claudio espinoza pereda       0000000626167700000006261677          007084668100000000000700000000000000700000000000000000004375418202017041802042137 
02                              0000000615101100000006151011          007084660300000000000600000000000000600000000000000000008175418182017041801069H%L 
02Marco antonio Macedo corpus   0000000626166000000006261660          00708463790000000000300000000000000300000000000000000000437541816201704180204WNET 
02kenyi simbrob                 0000000626163300000006261633          007084600100000000002000000000000002000000000000000000004375418142017041802047549 
02Alexander Vladimir Guzman Atac0000000626160100000006261601          007084594400000000000600000000000000600000000000000000004375418122017041807041194 
02                              0000000626159200000006261592          007084558800000000002250000000000002250000000000000000004375418102017041802049685 
02Eduardo Willis Samamé         0000000625906900000006259069          00708453180000000000015000000000000015000000000000000000437541808201704180204WNET 
02VC INGPROSAC                  0000000626152200000006261522          007084528800000000002200000000000002200000000000000000004375418062017041802040634 
02Jorge Luis Piscoya García     0000000626053700000006260537          007084511400000000000400000000000000400000000000000000008175418042017041801068U%G 
02                              0000000625989600000006259896          00708450920000000000206500000000000206500000000000000000437541802201704180204WNET 
02JHON NEPER GARCIA SOSA        0000000626153800000006261538          007084507500000000010000000000000010000000000000000000003015417992017041801018D42 
02Carlos Adao Cajamarca Chavez  0000000626154300000006261543          007084498700000000000500000000000000500000000000000000004375417972017041802040864 
02Edinson Jhancarlos Chacon Delg0000000626154400000006261544          007084494500000000000500000000000000500000000000000000004375417952017041802047005 
02Roney Fernando Vilca Meza     0000000626151100000006261511          007084490300000000001000000000000001000000000000000000004375417932017041802043546 
02LAOS  AS LAOS  AS             0000000625618900000006256189          007084489900000000177132400000000177132400000000000000004375417902017041802043274 
02Nataly Alejandro Lujan        0000000625107100000006251071          007087971600000000000929300000000000929300000000000000008175422132017041801069O%H 
02SRTA.ANALI                    0000000626406200000006264062          00708794730000000000130000000000000130000000000000000000437542211201704180204WNET 
02Flor Behtsi Asparren Brocos   0000000625722500000006257225          007087901100000000000994000000000000994000000000000000008175422072017041801069P%C 
02Alfredo Graf Y Y              0000000625549700000006255497          007087912900000000009620000000000009620000000000000000004375422092017041802043083 
02joel saravia null             0000000624997000000006249970          007087875800000000000990000000000000990000000000000000001075422052017041801012Z23 
02julio Francisco Fernandez Mart0000000626401000000006264010          00708785580000000000030000000000000030000000000000000000437542203201704180204WNET 
02Anguinson       Tito Baca     0000000626399900000006263999          007087854200000000002419200000000002419200000000000000004375422012017041802048731 
02                              0000000626136100000006261361          00708783220000000000104990000000000104990000000000000000437542199201704180204WNET 
02Juan Daniel Torres Marquina   0000000626384200000006263842          007087804000000000001100000000000001100000000000000000008175421972017041801068L%M 
02                              0000000626395700000006263957          00708780220000000000011310000000000011310000000000000000013542195201704180101PD13 
02Edinson Rafael Miranda Avila  0000000626342400000006263424          007087800200000000000600000000000000600000000000000000008175421932017041801069Q%M 
02madarxcasador@gmail.com       0000000626399600000006263996          007087783300000000000300000000000000300000000000000000008175421912017041801069B%Q 
02SR. RAUL PALOMINO             0000000626366700000006263667          00708775680000000000088000000000000088000000000000000000383542189201704180101AN21 
02Kammy Wong                    0000000626396300000006263963          007087753300000000000325000000000000325000000000000000004375421872017041802048443 
02jorge luis chavez cabrera     0000000625126500000006251265          007087725000000000000279400000000000279400000000000000008175421852017041801069Q%H 
02Nohely Sandra                 0000000626394500000006263945          00708772410000000000032500000000000032500000000000000000437542183201704180204WNET 
0211657828 Rodrigo Puelles      0000000626397000000006263970          007087720800000000000400000000000000400000000000000000004375421812017041802046258 
02David Gerardo Estela          0000000626153200000006261532          007087709300000000015040000000000015040000000000000000003205421782017041802018W21 
02Christian Manuel Urcia        0000000626394000000006263940          007087678600000000002200000000000002200000000000000000004375421762017041807041042 
02tomas cabrejo                 0000000626330600000006263306          007087674100000000006902800000000006902800000000000000002855421742017041801017X42 
02HENRY GLEN MEDRANO MERGOZA    0000000625907100000006259071          007087634200000000001000000000000001000000000000000000001015421722017041801012T21 
03000000455000000010188215000000010188215000000000000000                                                                                                
