0120464993879005USD20170418001105860100025512                                                                                                           
02pierre gonzales abril         0000000626277900000006262779          007086062900000000000200000000000000200000000000000000004371950632017041802044283 
02ALEJANDRO  GARCIA DAVILA      0000000626242500000006262425          007086006100000000000997200000000000997200000000000000002331950612017041801016H13 
02CAROL ZARI                    0000000626140900000006261409          007085980200000000007605700000000007605700000000000000003191950592017041801018V22 
02GIULIO DE TOMMASO             0000000626127000000006261270          00708560030000000000148380000000000148380000000000000000752195057201704180101KW11 
02ROMULO PERCY PERALTA          0000000626084400000006260844          00708558400000000000114320000000000114320000000000000000764195055201704180101L811 
02Luis Miguel Valderrama Castro 0000000626170100000006261701          007085521300000000000200000000000000200000000000000000004371950532017041802049375 
02CHRISTIAN SANCHEZ             0000000626233900000006262339          007085464500000000001688700000000001688700000000000000004371950512017041802040377 
02jenny  guanilo                0000000626052200000006260522          007085448600000000001946700000000001946700000000000000004371950492017041802045894 
02leoncio evaristo parra chuquil0000000626181200000006261812          007085357000000000004248000000000004248000000000000000000931950472017041801012L11 
02Christian Cangahuala          0000000626220200000006262202          007085259700000000000050000000000000050000000000000000004371950452017041807043129 
02Alberto Soto                  0000000626127700000006261277          007085254100000000004000000000000004000000000000000000001091950432017041801013123 
02HERMOGENES CHUPILLON          0000000626024800000006260248          007085176300000000000869200000000000869200000000000000003041950412017041801018G24 
02RODOLFO DELGADO               0000000626174000000006261740          007085155700000000001296600000000001296600000000000000002201950392017041801016445 
02Luis Eduardo Rodríguez Sánchez0000000626201900000006262019          00708506210000000000010000000000000010000000000000000000437195037201704180204WNET 
02MILAGROS MABEL MEDINA RATACHE 0000000626132800000006261328          007085043900000000001044900000000001044900000000000000003381950352017041801019E22 
02Alonso Calmet                 0000000626192100000006261921          007084922400000000000050000000000000050000000000000000004371950332017041802049358 
02wilfredo junior capcha ramos  0000000626180500000006261805          007084897600000000000100000000000000100000000000000000001971950312017041801015H24 
02ricardo roque peceros         0000000626186900000006261869          00708488510000000000350000000000000350000000000000000000437195029201704180704WNET 
02FLOR ELIZABETH COZ RODRIGUEZ  0000000626107400000006261074          007084868000000000001666800000000001666800000000000000003181950272017041801018U21 
02LEYLA VARGAS SANGAMA          0000000626102600000006261026          007084852200000000001666800000000001666800000000000000003181950252017041801018U21 
02EDGAR PUYO GONZALES           0000000626115000000006261150          007084842500000000000778800000000000778800000000000000003181950232017041801018U21 
02JULIO CESAR ALEGRIA MORI      0000000626121100000006261211          007084834600000000000778800000000000778800000000000000003181950212017041801018U21 
02Jay Summers                   0000000626184700000006261847          00708483300000000000100000000000000100000000000000000000437195019201704180204WNET 
02JOHN RUDY HUAMAN SINCHI       0000000626125900000006261259          007084825600000000000778800000000000778800000000000000003181950172017041801018U21 
02RUSBEL FLORES BALTAZAR        0000000626129700000006261297          007084810800000000000778800000000000778800000000000000003181950152017041801018U21 
02benjamin de la cruz madera    0000000626169500000006261695          00708469320000000000050000000000000050000000000000000000437195013201704180204WNET 
02marco de la torre ugarte      0000000625575900000006255759          007084605600000000008593700000000008593700000000000000001311950112017041801013N22 
02Eduardo Omar Benites Alatrista0000000626137400000006261374          007084324000000000000200000000000000200000000000000000004371950092017041807040503 
02Clorinda  Barrionuevo         0000000625968700000006259687          00708428200000000000123680000000000123680000000000000000827195007201704180101MZ15 
02XAVIER DENOEL                 0000000625987500000006259875          007084104200000000000958800000000000958800000000000000003101950052017041801018M37 
02CARLOS TORRES                 0000000626031300000006260313          007084072100000000001249400000000001249400000000000000002461950032017041801016U24 
02RAMIRO CULQUI                 0000000626012900000006260129          007084062000000000001119600000000001119600000000000000002461950012017041801016U24 
02RAMIRO CULQUI                 0000000626019800000006260198          007084053300000000001249400000000001249400000000000000002461949992017041801016U24 
02LUCIENE RAMIREZ               0000000626051900000006260519          007083992400000000000799200000000000799200000000000000003011949972017041801018D58 
02Maria Doris violeta  Mego Diaz0000000625898800000006258988          007083941900000000001523600000000001523600000000000000001571949952017041801014D22 
02Hideki Florian Loli           0000000626104500000006261045          007083929400000000000100000000000000100000000000000000004371949932017041802041467 
02Luis Alberto  Chero Salvador  0000000626050700000006260507          007083818400000000001736400000000001736400000000000000002851949912017041801017X42 
02BLANCA VELASCO QUISPE         0000000625995300000006259953          007083811000000000000828300000000000828300000000000000002181949892017041801016221 
02Anibal Abarca Mercado         0000000626092100000006260921          00708378730000000000010640000000000010640000000000000000437194987201704180204WNET 
02Renzo Mu¦iz                   0000000626083800000006260838          007083664800000000000800000000000000800000000000000000004371949852017041807049183 
02giancarlo javier vidalon      0000000626042600000006260426          00708354010000000000020000000000000020000000000000000000851194983201704180101NN11 
02Anthony  Zavaleta             0000000626034300000006260343          007083513900000000000977800000000000977800000000000000003241949812017041801019022 
02karen angulo                  0000000626060000000006260600          007083439100000000000200000000000000200000000000000000004371949792017041802040104 
02EFRAIN CRISTIAN ASTOLA        0000000625970700000006259707          007083314600000000003023400000000003023400000000000000001351949772017041801013R23 
02hector alanocca capatinta     0000000626054000000006260540          00708322170000000000020000000000000020000000000000000000437194975201704180204WNET 
02juan figueroa                 0000000626046900000006260469          00708314730000000000105000000000000105000000000000000000437194973201704180204WNET 
02Doris Sandra Sanchez          0000000625984100000006259841          007083127500000000000050000000000000050000000000000000001251949712017041801013H24 
02andres salaverry              0000000625981600000006259816          007083121100000000000050000000000000050000000000000000001251949692017041801013H24 
02Gonzalo Campos                0000000625906200000006259062          00708120240000000000010000000000000010000000000000000000437194945201704180204WNET 
02jorge zapata                  0000000625914800000006259148          00708123120000000000020000000000000020000000000000000000437194947201704180204WNET 
02edgar ruiz                    0000000625899200000006258992          00708109490000000000100000000000000100000000000000000000437194943201704180204WNET 
02FREDY PALOMINO                0000000625877800000006258778          007081092300000000001249400000000001249400000000000000004371949412017041802040163 
02Miguel wenceslao ochoa cuadros0000000625838900000006258389          007080802300000000001000000000000001000000000000000000004371949372017041802044793 
02nilton verastegui             0000000625771400000006257714          00708102580000000000035350000000000035350000000000000000437194939201704180204WNET 
02Arturo Santa María Peralta    0000000625939400000006259394          00708150310000000000025000000000000025000000000000000000437194953201704180204WNET 
02jesus de la cruz              0000000625832600000006258326          00708139060000000000020000000000000020000000000000000000437194951201704180204WNET 
02Juan carlos Alfaro            0000000625930100000006259301          00708134770000000000020000000000000020000000000000000000437194949201704180204WNET 
02CARLOS JIMENEZ                0000000625909700000006259097          007081780700000000000994600000000000994600000000000000003271949552017041801019324 
02carlos elias vasquez abanto   0000000625953300000006259533          007081782600000000000298400000000000298400000000000000004371949572017041802042135 
02ROBERTO JAVIER SALAS URQUIZO  0000000625886400000006258864          007082575200000000001037000000000001037000000000000000003571949672017041801019X22 
02Sebastiano carasi             0000000625994800000006259948          007082321800000000000200000000000000200000000000000000004371949632017041802046106 
02ANA MACHUCA                   0000000625948700000006259487          00708239860000000000107680000000000107680000000000000000827194965201704180101MZ16 
02juan diego alegria            0000000625978500000006259785          007082206800000000000117000000000000117000000000000000004371949612017041802041101 
02Jhon Paul Infantes Veliz      0000000625985300000006259853          007082205100000000000250000000000000250000000000000000004371949592017041802049384 
02Gustavo Gomez Rios            0000000626508100000006265081          007089428400000000000147000000000000147000000000000000004371951442017041802049312 
02OBED SOCRATES DIONISIO DEL PIN0000000626502200000006265022          007089417000000000000944000000000000944000000000000000004371951422017041802047803 
02jonathan rengifo castro       0000000625815500000006258155          00708929220000000000008000000000000008000000000000000000437195140201704180204WNET 
02freed loza la rosa            0000000626484200000006264842          00708921560000000000059000000000000059000000000000000000437195138201704180204WNET 
02Jay Summers                   0000000626485600000006264856          00708920720000000000180000000000000180000000000000000000437195136201704180204WNET 
02JUAN JOSE RAMOS VERA          0000000626479700000006264797          007089140400000000000100000000000000100000000000000000004371951342017041802045538 
02Jay Summers                   0000000626464000000006264640          00708892450000000000210000000000000210000000000000000000437195132201704180204WNET 
02Andres Urday                  0000000626449700000006264497          007088695000000000000800000000000000800000000000000000004371951302017041807046883 
02FLY TOURS PERU EIRL  **       0000000626441100000006264411          00708867120000000000298580000000000298580000000000000000437195128201704180204WNET 
02Jay Summers                   0000000626408400000006264084          00708824960000000000190000000000000190000000000000000000437195122201704180204WNET 
02JOSE BRAVO ARTICA             0000000626325800000006263258          007088346900000000001617800000000001617800000000000000004371951262017041802040782 
02luis sairitupa                0000000626423600000006264236          007088297900000000003304000000000003304000000000000000004371951242017041802047656 
02CLAUDIA ARAYA                 0000000626355900000006263559          007087785800000000000869600000000000869600000000000000002451951092017041801016T15 
02JORGE LUIS  ESCOBEDO          0000000626363400000006263634          007087899100000000001119600000000001119600000000000000002491951162017041801016X43 
02Franklin Farfán               0000000626405200000006264052          007087878300000000015000000000000015000000000000000000004371951132017041802040284 
02DEYSI ADELA SAMAR QUINTANILLA 0000000626320600000006263206          007087810300000000001896200000000001896200000000000000000231951112017041801010N13 
02Luis Olmos Tena               0000000623907800000006239078          00708797550000000000050000000000000050000000000000000000289195118201704180101811C 
02MARCO GIRON RIVERA            0000000626415300000006264153          007088149100000000001414300000000001414300000000000000004371951202017041802049855 
02OLIVIER RICHARD               0000000626346500000006263465          00708762490000000000291630000000000291630000000000000000426195107201704180101BU13 
02americo ibarra                0000000626340300000006263403          007087589500000000000719800000000000719800000000000000001751951052017041801014V31 
02DORIS MARILIA QUISPE APAZA    0000000626340100000006263401          007087486600000000000635000000000000635000000000000000003031951032017041801018F12 
02DANIEL LOPEZ ZAVALETA         0000000626357600000006263576          007087435400000000001499800000000001499800000000000000001481951012017041807014423 
02VIOLETA QUISPE                0000000626295900000006262959          007087434200000000000877900000000000877900000000000000002001950992017041801015K47 
02MIGUEL ANGEL CABEZAS          0000000626361100000006263611          007087415300000000002687600000000002687600000000000000004371950972017041802041279 
02paul duarte yupanqui          0000000626366500000006263665          007087400500000000000145700000000000145700000000000000004371950952017041802048836 
02MURILLO TALAVERA JENIFER      0000000626365400000006263654          00708725880000000000124000000000000124000000000000000000437195093201704180204WNET 
02HOMERO CHUQUIPIONDO RIOS      0000000626309300000006263093          007087130100000000000869200000000000869200000000000000003181950912017041801018U24 
02Jay Summers                   0000000626348900000006263489          00708694360000000000200000000000000200000000000000000000437195089201704180204WNET 
02MILENA  SILVA                 0000000626132700000006261327          007086940600000000002967600000000002967600000000000000004371950872017041802040095 
02CARLOS ENRIQUE SCHULER BARINOT0000000626265800000006262658          007086899100000000001277400000000001277400000000000000001381950852017041801013U22 
02CARLOS ENRIQUE SCHULER BARINOT0000000626269900000006262699          007086891600000000000696200000000000696200000000000000001381950832017041801013U22 
02ODON OBREGON                  0000000626343200000006263432          00708688200000000000050000000000000050000000000000000000437195081201704180204WNET 
02MIJAIL MENDOZA                0000000626232500000006262325          007086818300000000001343800000000001343800000000000000004371950792017041802047987 
02ARMANDO PEREZ PAREDES         0000000626333300000006263333          00708674210000000000170150000000000170150000000000000000442195077201704180201CA1C 
02RICHARD BAR                   0000000626002900000006260029          007086660200000000001453800000000001453800000000000000003011950752017041801018D59 
02paul duarte yupanqui          0000000626325900000006263259          007086645200000000000047900000000000047900000000000000004371950732017041802040172 
02paul duarte yupanqui          0000000626243700000006262437          007086536000000000000384900000000000384900000000000000004371950712017041802044622 
02Nilto  Quino                  0000000626241900000006262419          007086379000000000001549600000000001549600000000000000001251950692017041802013H21 
02ANGELICA MABEL BURGA TEQUEN   0000000626267600000006262676          007086345000000000003235600000000003235600000000000000001401950672017041801013W24 
02luis sairitupa                0000000626285900000006262859          007086312500000000002077000000000002077000000000000000004371950652017041802042709 
02Bruno Monzon                  0000000626513700000006265137          007089491800000000000053100000000000053100000000000000004371951462017041802047449 
03000000105000000001413003000000001413003000000000000000                                                                                                
