0120464993879005PEN20170419001105860100025504                                                                                                           
02HENRY HENRY                   0000000627218700000006272187          007097387700000000000290000000000000290000000000000000004375433142017041902045882 
02HENRY HENRY                   0000000627216200000006272162          007097376900000000000290000000000000290000000000000000004375433122017041902042966 
02TERAN JULCAMORO ALAN DAVID    0000000627214100000006272141          007097288900000000009073100000000009073100000000000000008175433102017041901069D%X 
02Samuel Carhuaricra            0000000627105100000006271051          007097248000000000000881900000000000881900000000000000008175433082017041901068O%Q 
02Karl Barrantes                0000000627211800000006272118          007097212800000000000200000000000000200000000000000000004375433062017041902047156 
02Miguel Tovar                  0000000627212900000006272129          007097205600000000000200000000000000200000000000000000004375433042017041902041379 
02brayanhyo@gmail.com           0000000627209300000006272093          007097194200000000000150000000000000150000000000000000008175433022017041901068R%W 
02Alexander Patricio Manrique Re0000000627211300000006272113          00709718430000000000150000000000000150000000000000000000437543300201704190204WNET 
02Carlos Hubert ZavaletaPisconte0000000626479400000006264794          00709716230000000000030000000000000030000000000000000000437543298201704190204WNET 
02remilg_951862315@hotmail.com  0000000627206700000006272067          007097154600000000000300000000000000300000000000000000008175432962017041901069M%N 
02LUIS ENRIQUE FUJITA MORALES   0000000627207200000006272072          007097079400000000000500000000000000500000000000000000004375432942017041902045457 
02MARTINA MARTINA               0000000626525400000006265254          007097067900000000000480000000000000480000000000000000008175432922017041901069B%R 
02Nilo Gotardo Enciso Sulca     0000000627205000000006272050          00709703980000000000040000000000000040000000000000000000437543290201704190204WNET 
02Nathy Nathy                   0000000626569100000006265691          007097039000000000001277200000000001277200000000000000008175432882017041901069O%Y 
02Giancarlo Juarez              0000000627203500000006272035          00709702880000000000030000000000000030000000000000000000437543286201704190204WNET 
02Maria Julia                   0000000626461800000006264618          00709699720000000000100000000000000100000000000000000000437543284201704190204WNET 
02Miguel Tovar                  0000000627203200000006272032          007096986400000000000210000000000000210000000000000000004375432822017041902048137 
02Maria Julia                   0000000626457400000006264574          00709694060000000000050000000000000050000000000000000000437543280201704190204WNET 
02julian martin diaz diaz       0000000627185900000006271859          007096939100000000001936800000000001936800000000000000004375432782017041902043441 
0215306548 Jaime Leonidas Olcese0000000627200300000006272003          007096929400000000001000000000000001000000000000000000004375432762017041902046257 
02RONAL IVAN                    0000000627130700000006271307          007096923300000000002000000000000002000000000000000000008175432742017041902069U%G 
02ant_ch123@hotmail.com         0000000627283400000006272834          007097989600000000000150000000000000150000000000000000008175433722017041901068V%N 
02                              0000000627268400000006272684          007097870600000000000210000000000000210000000000000000004375433702017041902045371 
02Luis Alfonso Ng Lam           0000000627267400000006272674          007097866800000000002000000000000002000000000000000000004375433682017041902047458 
02                              0000000623751800000006237518          007097836500000000000600000000000000600000000000000000008175433662017041901068O%Z 
02Darwin Berrocal Mejia         0000000627263400000006272634          007097834300000000001700000000000001700000000000000000004375433642017041902043993 
02Rodrigo Alonso Malabrigo Ya¦ez0000000627263500000006272635          007097833600000000000200000000000000200000000000000000004375433622017041902042973 
02Christian Gonzaes Salva       0000000626586800000006265868          00709782910000000000080000000000000080000000000000000000437543360201704190204WNET 
02isaias isaias                 0000000627260000000006272600          00709780170000000000110000000000000110000000000000000000437543358201704190204WNET 
02i_leamsi.83@hotmail.com       0000000627258900000006272589          007097787700000000000682500000000000682500000000000000004375433562017041902042991 
02Jorge Antonio Casta¦eda Manriq0000000627151100000006271511          007097781400000000000500000000000000500000000000000000008175433542017041901068T%X 
02ROBERT SEMINAREIO             0000000627258100000006272581          00709777850000000000053000000000000053000000000000000000437543352201704190204WNET 
02Jenny Guzman                  0000000627257700000006272577          00709777780000000000454000000000000454000000000000000000437543350201704190204WNET 
02                              0000000627142500000006271425          007097736900000000000670000000000000670000000000000000008175433482017041901069P%R 
02jado_1981@hotmail.com         0000000627218800000006272188          007097731500000000000150000000000000150000000000000000008175433462017041901068T%E 
02miguel ruiz barron            0000000627253300000006272533          007097722300000000000300000000000000300000000000000000004375433442017041902045345 
02Benedicta Apaza               0000000627217400000006272174          007097682100000000000900000000000000900000000000000000008175433422017041901068J%J 
02victor_manuel1207@hotmail.com 0000000627244300000006272443          007097681800000000000150000000000000150000000000000000008175433402017041901069P%P 
02joelemir.garcia21@gmail.com   0000000627215000000006272150          007097676300000000000150000000000000150000000000000000008175433382017041901069F%C 
02yul951@hotmail.com            0000000627244900000006272449          007097669500000000000300000000000000300000000000000000008175433362017041901068M%S 
023236478 Ghinno Ambrosio Rojas 0000000627248100000006272481          007097660600000000000200000000000000200000000000000000008175433342017041901069C%E 
02yul951@hotmail.com            0000000627244100000006272441          007097658500000000000150000000000000150000000000000000008175433322017041901069E%P 
02Keith Stevens Oncoy Abarca    0000000627245000000006272450          007097639000000000000500000000000000500000000000000000004375433302017041902047257 
02Marco Antonio Manyari Masias  0000000627242800000006272428          007097622300000000001200000000000001200000000000000000004375433282017041902046712 
02Oscar Suarez                  0000000627192600000006271926          00709758840000000000078900000000000078900000000000000000437543326201704190204WNET 
02Anthony Ruiz Quevedo          0000000627239100000006272391          00709757590000000000020000000000000020000000000000000000437543324201704190204WNET 
02giaccomo gustavo lecca vasquez0000000627231400000006272314          007097516800000000001860000000000001860000000000000000004375433222017041902049241 
02carlos alberto castillo ciudad0000000627220700000006272207          007097454100000000000500000000000000500000000000000000008175433202017041901068V%U 
02Carlos Adao Cajamarca Chavez  0000000627215300000006272153          007097437400000000000500000000000000500000000000000000004375433182017041907049381 
02deustin rivadeneira           0000000627224300000006272243          007097417700000000002000000000000002000000000000000000004375433162017041902044051 
02dante silva ya¦ez             0000000626892200000006268922          00709297340000000000100000000000000100000000000000000000437542742201704190204WNET 
02ALBERTO EDUARDO SOTO SALAS    0000000626840100000006268401          007092973100000000004000000000000004000000000000000000001095427402017041901013125 
02maria del carmen pineda rojas 0000000626818700000006268187          007092960500000000001000000000000001000000000000000000008175427382017041901069M%Z 
02Carlos Andres Galvez Salazar  0000000626896900000006268969          007092950100000000000300000000000000300000000000000000004375427362017041902046370 
02Gonzalo Bazan                 0000000626842500000006268425          007092923800000000000600000000000000600000000000000000004375427342017041902042005 
02Jorge Piedra                  0000000626888400000006268884          007092884900000000002500000000000002500000000000000000004375427322017041902040634 
02edwin quispe cari             0000000626886800000006268868          007092881300000000000500000000000000500000000000000000008175427302017041901069Q%B 
02Eleazar Supo                  0000000626887300000006268873          007092880700000000000100000000000000100000000000000000004375427282017041902046515 
02Dante Monja                   0000000626858600000006268586          007092860000000000000690000000000000690000000000000000003365427262017041902019C22 
02Cesar Andres Zapata Bravo     0000000626878800000006268788          00709285130000000000050000000000000050000000000000000000437542724201704190204WNET 
02Julio Cesar Quispe Aguilar    0000000626884800000006268848          00709284170000000000050000000000000050000000000000000000437542722201704190204WNET 
02Christian Manuel Urcia        0000000626881500000006268815          007092817500000000000700000000000000700000000000000000004375427202017041907040005 
02Mirsa Erika                   0000000626561500000006265615          007092790600000000001500000000000001500000000000000000008175427182017041901069D%W 
02ANA                           0000000626743700000006267437          007091087800000000000610000000000000610000000000000000001795425522017041902014Z22 
02JESUS LOPEZ HERMOSILLA        0000000626752300000006267523          00709107760000000001024000000000001024000000000000000000437542549201704190204WNET 
02ESTEFANI CCAHUANA CAMPOS      0000000626302200000006263022          007090998300000000003045000000000003045000000000000000003355425292017041901019B23 
02Diego Carlos                  0000000626747700000006267477          007090980400000000000150000000000000150000000000000000004375425272017041902040098 
02Eunice Elizabeth Ruiz Egacila 0000000626036100000006260361          007090975700000000000480000000000000480000000000000000008175425252017041901068Z%L 
023569470 Jaime Alvarado Rojas  0000000626742100000006267421          00709094100000000000100000000000000100000000000000000000797542523201704190101M512 
02Jose Luis Sifuentes           0000000626751800000006267518          00709106860000000000030000000000000030000000000000000000437542547201704190204WNET 
02Eduardo Vasquez               0000000626565600000006265656          007091066500000000000160000000000000160000000000000000004375425452017041902046792 
02Eduardo Vasquez               0000000626569200000006265692          007091046400000000000260000000000000260000000000000000004375425392017041902042986 
02jose lau torres               0000000626749800000006267498          007091048700000000000150000000000000150000000000000000004375425412017041907044733 
02elvis llamoca salhua          0000000626723400000006267234          007091062700000000000400000000000000400000000000000000008175425432017041901068W%Q 
02neisserstiven@gmail.com       0000000626678800000006266788          007091033300000000000150000000000000150000000000000000000145425372017041901010E12 
02                              0000000626628300000006266283          007091025300000000000600000000000000600000000000000000008175425352017041901069C%C 
02neisserstiven@gmail.com       0000000626678300000006266783          007091024500000000000300000000000000300000000000000000000145425332017041901010E12 
02Cesar Cavero                  0000000626726900000006267269          00709100200000000000280000000000000280000000000000000000521542531201704190101EH12 
02WILBERT MOSALVE               0000000626522000000006265220          00709082680000000000013000000000000013000000000000000000437542509201704190204WNET 
02ANA LUZ RAMOS PE#A            0000000626739000000006267390          007090844900000000005500000000000005500000000000000000004375425132017041902046002 
02eliza fernandez carranza null 0000000626465700000006264657          007090839700000000003899000000000003899000000000000000003165425112017041901018S23 
02Guianpier Franciss Rivera Jara0000000626695700000006266957          00709085380000000000050000000000000050000000000000000000827542515201704190101MZ14 
02jose luis urbano vera         0000000626645700000006266457          007090856000000000000150000000000000150000000000000000008175425172017041901068P%X 
02Wilmar Fredy Benavides Arion  0000000626737100000006267371          007090777400000000000500000000000000500000000000000000004375425072017041902046205 
02christian miguel alvarez felip0000000626742900000006267429          007090890300000000000500000000000000500000000000000000002415425192017041901016P23 
02santos nurena silva           0000000626741300000006267413          007090925100000000001300000000000001300000000000000000004375425212017041902044669 
02Sebastian navarro             0000000627117600000006271176          007095894700000000000989000000000000989000000000000000008175431622017041901068X%E 
02                              0000000626642300000006266423          007095886900000000001199900000000001199900000000000000001155431602017041901013725 
02Blanca delci Rodrigo  Cotrina 0000000627133700000006271337          00709587450000000000068000000000000068000000000000000000437543158201704190204WNET 
02SRA JIMENA RODRIGUEZ S. ** P E0000000627117800000006271178          007095832700000000001440000000000001440000000000000000001875431562017041901015722 
02Lizbeth Jaqueline Nieto Luna  0000000626965200000006269652          007095820100000000003042500000000003042500000000000000008175431542017041901068P%G 
02lesly delgado                 0000000626855400000006268554          007095811300000000000630000000000000630000000000000000001085431522017041901013023 
02Luis Felipe Prado Carmen      0000000627133200000006271332          00709580560000000000200000000000000200000000000000000000437543150201704190204WNET 
02Ana Maria Prado Choquehuanca  0000000627035500000006270355          00709464720000000000135000000000000135000000000000000000437543009201704190704WNET 
02Fernando  Daffos Pe¦a         0000000626461100000006264611          007094616500000000001600000000000001600000000000000000003285430072017041902019412 
02SR:SERGIOOOOO                 0000000626905300000006269053          007094609100000000001550000000000001550000000000000000001185430052017041901013A22 
02Luis Felipe Prado Carmen      0000000627032300000006270323          00709459390000000000050000000000000050000000000000000000437543003201704190204WNET 
02María Luisa Revoredo  Pizardo 0000000627031000000006270310          007094560200000000000700000000000000700000000000000000004375430012017041902042674 
02Enrique Fernandez Varela      0000000627029100000006270291          007094539100000000000150000000000000150000000000000000004375429992017041902045001 
02ESTERGILDA JUANA ARCE DELGADIL0000000627012400000006270124          00709451420000000000090000000000000090000000000000000000842542997201704190101NE11 
02SN SNSN                       0000000627022800000006270228          007094490200000000000150000000000000150000000000000000004375429952017041907041191 
02Aquiles Carcovich Carcovich   0000000626022100000006260221          00709447320000000000105000000000000105000000000000000000437542993201704190204WNET 
02Jose Alberto Gomez Fenco      0000000627020000000006270200          007094458700000000000200000000000000200000000000000000008175429912017041901068L%N 
02CESAR ARCE                    0000000627005700000006270057          007094449500000000000810000000000000810000000000000000001565429892017041901014C22 
02Yuli Grados Rodriguez         0000000626958400000006269584          007094376100000000000193000000000000193000000000000000008175429872017041901069C%K 
02                              0000000625081000000006250810          007094366700000000000600000000000000600000000000000000002745429852017041901017M22 
02Yuli Grados Rodriguez         0000000627000300000006270003          007094363700000000000160000000000000160000000000000000008175429832017041901068Y%W 
02Edson  Montoya  Sermeno       0000000627010700000006270107          007094338700000000014220000000000014220000000000000000004375429802017041902048484 
02SILVANA ELVIRA CABRERA PALOMIN0000000627010900000006270109          00709433160000000000050000000000000050000000000000000000732542978201704190101KC12 
02Enrique A. Yep Tong           0000000627013200000006270132          00709431980000000000053600000000000053600000000000000000437542976201704190704WNET 
02GINO GABRIEL CARRASCO NOVOA   0000000627010400000006270104          00709430320000000000100000000000000100000000000000000000437542974201704190204WNET 
02Caty Palma Alcedo             0000000626658100000006266581          007094223000000000000200000000000000200000000000000000008175429722017041901069B%H 
02jaime barrientos              0000000627006500000006270065          007094194800000000001500000000000001500000000000000000004375429702017041907048244 
02                              0000000626645400000006266454          00709419120000000000180000000000000180000000000000000000508542968201704190101E411 
02Jesus Paseta                  0000000626898600000006268986          00709416430000000000180000000000000180000000000000000000426542966201704190101BU11 
02alonso ramirez                0000000627000700000006270007          00709413950000000000010000000000000010000000000000000000437542964201704190204WNET 
02TRAVEL VACATIONS GROUPS       0000000626999700000006269997          007094113500000000001100000000000001100000000000000000004375429622017041902046752 
02Ricardo Obregon Olivos        0000000626902200000006269022          007094106400000000001600000000000001600000000000000000001905429602017041901015A29 
02LUIS OTOYA LANDAZURI          0000000626996100000006269961          00709409520000000001900000000000001900000000000000000000437542957201704190204WNET 
02ALVAREZ                       0000000626989900000006269899          007094091000000000001300000000000001300000000000000000001185429552017041901013A22 
02Jesus Limaylla                0000000626725100000006267251          00709408830000000000045000000000000045000000000000000000387542953201704190101AR23 
02                              0000000626995000000006269950          007094075300000000002099900000000002099900000000000000004375429512017041902049667 
02Veronica  Flores              0000000626976300000006269763          00709403530000000000063000000000000063000000000000000000437542949201704190204WNET 
02Garet leslie vasquez lucana   0000000626725400000006267254          007090681300000000002270000000000002270000000000000000004375424972017041902049482 
02Edson Banny Atahuaman Capcha  0000000626725900000006267259          00709067340000000000040000000000000040000000000000000000437542495201704190704WNET 
02Eduardo Felix Monteverde      0000000626695600000006266956          00709065650000000000051000000000000051000000000000000000364542493201704190101A421 
02Renato Eduardo Anicama Salvati0000000626732700000006267327          00709074540000000000050000000000000050000000000000000000437542503201704190704WNET 
0215306548 Jaime Leonidas Olcese0000000626735200000006267352          007090757100000000000200000000000000200000000000000000004375425052017041902046047 
02Jorge Luis Ordaya Burneo      0000000626730400000006267304          00709070350000000000050000000000000050000000000000000000437542499201704190204WNET 
02JOHN LEYVA PATRICIO           0000000626724400000006267244          007090717700000000001500000000000001500000000000000000008175425012017041901069A%T 
02                              0000000626384800000006263848          007091358600000000000600000000000000600000000000000000002995425682017041901018B11 
02giaccomo gustavo lecca vasquez0000000626772600000006267726          007091345900000000001200000000000001200000000000000000004375425662017041902041110 
02Kenneth maza nole             0000000626492000000006264920          007091325500000000000379000000000000379000000000000000008175425642017041901068J%J 
02DENISSE ANELI APOLINARIO CARDE0000000626770500000006267705          00709132470000000000150000000000000150000000000000000000437542562201704190204WNET 
02Diego Billy Toledo Alvarez    0000000626736600000006267366          007091307400000000001100000000000001100000000000000000008175425602017041901069D%F 
02                              0000000622363700000006223637          007091286500000000000600000000000000600000000000000000001745425582017041901014U32 
02ALBERTO JUAN GOMEZ VILLAREJO  0000000626430100000006264301          007091229700000000003179000000000003179000000000000000001505425542017041902014623 
02Olga Cecilia Garcia Pacheco Ca0000000626750500000006267505          007091238600000000000500000000000000500000000000000000001365425562017041901013S22 
02SRA CARMEN                    0000000626713300000006267133          00709139840000000000160000000000000160000000000000000000857542572201704190101NT13 
02LESLY ALVAREZ                 0000000626726300000006267263          007091383500000000001500000000000001500000000000000000004375425702017041902040643 
02isac_milagros@hotmail.com     0000000626547200000006265472          007089724000000000000300000000000000300000000000000000008175423642017041801069G%U 
02Milagros Granda Portilla      0000000626518000000006265180          007089893400000000000100000000000000100000000000000000004375423722017041902046032 
02Trilce Anamaria Rodriguez     0000000626591100000006265911          007089895500000000000320000000000000320000000000000000004375423742017041902048515 
02Rodrigo Alonso Malabrigo Ya¦ez0000000626545700000006265457          007089898000000000000200000000000000200000000000000000004375423762017041902046750 
02Luis Enrique Cordova Sandoval 0000000626595000000006265950          00708989230000000000040000000000000040000000000000000000437542370201704190204WNET 
02PAUL ALEXANDER TALLEDO CORDOVA0000000626588800000006265888          007089892100000000001000000000000001000000000000000000004375423682017041902040869 
02isac_milagros@hotmail.com     0000000626548100000006265481          007089726600000000000150000000000000150000000000000000008175423662017041801069C%J 
02german guerra sernaque        0000000626530700000006265307          007089902300000000000406300000000000406300000000000000004375423802017041902048634 
02Anthony Rafael Ayala Lozada   0000000626586400000006265864          007089900800000000000856000000000000856000000000000000004375423782017041902041625 
0217967877 John Ricardo Peláez O0000000626599700000006265997          00708990360000000000030000000000000030000000000000000000437542382201704190204WNET 
02Mario Hoyos                   0000000626602600000006266026          007089904000000000000200000000000000200000000000000000004375423842017041902043487 
02Jose Luis Martin Ortega Casas 0000000626603300000006266033          007089904800000000002800000000000002800000000000000000004375423862017041902048560 
02Gustavo Geldres               0000000626549200000006265492          007090096500000000000160000000000000160000000000000000004375424142017041902043405 
02                              0000000626652100000006266521          00709009430000000000020090000000000020090000000000000000437542412201704190204WNET 
02ICELA DEL PILAR               0000000626295700000006262957          007090091400000000003832000000000003832000000000000000004375424102017041907042354 
02Andres Garcia                 0000000626585900000006265859          007090087200000000000400000000000000400000000000000000004375424082017041902043612 
02SAEG PERU S.A  SAEG PERU S.A. 0000000626528600000006265286          007090081500000000000885000000000000885000000000000000004375424042017041902047374 
02Gian Carlo Severino Falla     0000000626540400000006265404          007090083700000000000500000000000000500000000000000000004375424062017041902043052 
02Miguel Angel Castro Rodan     0000000626553000000006265530          00708991010000000000080000000000000080000000000000000000437542390201704190204WNET 
02Jairo Alvarez                 0000000626606600000006266066          00708990830000000000050000000000000050000000000000000000437542388201704190204WNET 
02ycela caipo alayo             0000000626612700000006266127          007089919200000000000450000000000000450000000000000000004375423942017041902041748 
02Elias Matias Zegarra Field    0000000626612500000006266125          00708991890000000000015000000000000015000000000000000000437542392201704190204WNET 
02ling pin sam                  0000000626611900000006266119          00708991940000000000097400000000000097400000000000000000437542396201704190204WNET 
02Jose Luis Martin Ortega Casas 0000000626614700000006266147          007089921900000000000700000000000000700000000000000000004375423982017041902040326 
02William Acosta                0000000626616200000006266162          007089923100000000000200000000000000200000000000000000004375424002017041902049623 
02ALEXIS POZO MATOS             0000000626523100000006265231          007090078000000000001000000000000001000000000000000000004375424022017041902042867 
02Merly Perez Bula              0000000626531400000006265314          007090147000000000014190000000000014190000000000000000004375424242017041902041856 
02Adrian Gustavo Horna Inostroza0000000626586700000006265867          007090141000000000001000000000000001000000000000000000004375424222017041902044026 
02Inversiones Armendariz        0000000626279400000006262794          007090137200000000001200000000000001200000000000000000004375424202017041902047550 
02gonzalo vasquez de velasco    0000000626658300000006266583          007090102400000000000290000000000000290000000000000000004375424162017041902041680 
02ALEXIS FABIANY POZO MATOS     0000000626663300000006266633          007090120500000000000500000000000000500000000000000000004375424182017041902048218 
02Marco Antonio Manyari Masias  0000000626679500000006266795          007090185800000000000300000000000000300000000000000000004375424352017041902045854 
02Juan Claud Martinez U         0000000626166500000006261665          007090174200000000000299000000000000299000000000000000004375424332017041902048425 
02BETSABE CALLE CRUZ            0000000626675700000006266757          00709017030000000000060000000000000060000000000000000000437542431201704190204WNET 
02deustin rivadeneira           0000000626670200000006266702          007090149900000000001000000000000001000000000000000000004375424272017041902040446 
02Eduardo Willis Samamé         0000000626555000000006265550          007090160500000000008000000000000008000000000000000000004375424292017041902044223 
02ALEXIS ERNESTO ANTUNEZ PURIS  0000000626691400000006266914          007090261900000000000500000000000000500000000000000000004375424442017041902045430 
0211953012 JORGE CHAVEZ         0000000626694300000006266943          007090269100000000000200000000000000200000000000000000004375424462017041902041476 
02VICTOR ENRIQUE RODRIGUEZ BUSTO0000000626688300000006266883          007090255100000000017380000000000017380000000000000000004375424412017041902044897 
02Jorge Huamani                 0000000626695800000006266958          007090278700000000000200000000000000200000000000000000004375424482017041902042406 
02Paul Duarte Yupanqui          0000000626688900000006266889          007090228500000000001100000000000001100000000000000000004375424372017041902046553 
02Eber Mendoza Salvador         0000000626544100000006265441          007090245800000000000100000000000000100000000000000000004375424392017041902048398 
02Carlos aldair Bello calderon  0000000626687000000006266870          007090351200000000000300000000000000300000000000000000001255424522017041901013H23 
02Adrian Humberto Alayza Aguila 0000000626699500000006266995          007090323600000000001000000000000001000000000000000000004375424502017041902041212 
02Jim Elliott                   0000000626440200000006264402          007090361500000000001000000000000001000000000000000000002585424542017041901017613 
02carlos enrique sanchez villarr0000000626702700000006267027          007090370200000000000200000000000000200000000000000000004375424582017041902048772 
02ROBERTH ALEXANDER CRUZ HERMIDA0000000626705900000006267059          00709036980000000000050000000000000050000000000000000000437542456201704190204WNET 
02FERNANDEZ MURILLO FLOR BENILDA0000000626692300000006266923          007090429500000000000650000000000000650000000000000000002645424662017041901017C12 
023236478 Ghinno Ambrosio Rojas 0000000626711100000006267111          007090428700000000000200000000000000200000000000000000008175424642017041901069E%A 
02Christian Jaret Palomino Choqu0000000626705700000006267057          007090398000000000000400000000000000400000000000000000004375424602017041902048774 
02BETSABE CALLE CRUZ            0000000626701100000006267011          00709041280000000000058000000000000058000000000000000000437542462201704190204WNET 
02Juan Julio Rivasplata Huaman  0000000626721400000006267214          00709058690000000000300000000000000300000000000000000000437542487201704190204WNET 
02boris cuentas carbajal        0000000626509000000006265090          007090600800000000001000000000000001000000000000000000008175424892017041901069A%I 
02Miguel Pitot Rodriguez        0000000626723500000006267235          007090601800000000000600000000000000600000000000000000004375424912017041902048103 
02wilder carlier                0000000626698200000006266982          007090539700000000000570100000000000570100000000000000008175424782017041901068Q%X 
02christianck_128@hotmail.com   0000000626697200000006266972          007090540700000000000150000000000000150000000000000000008175424802017041901068N%M 
02Marcela Caceres Calle         0000000626434400000006264344          007090546400000000038970100000000038970100000000000000004375424822017041902042678 
02wilder carlier                0000000626700100000006267001          007090556500000000002786300000000002786300000000000000008175424852017041901068Z%L 
02diego vilchez zoeger          0000000626718600000006267186          00709052540000000000091000000000000091000000000000000000437542472201704190204WNET 
02                              0000000626517200000006265172          007090528900000000000885000000000000885000000000000000004375424742017041902047597 
02christianck_128@hotmail.com   0000000626696600000006266966          007090530400000000000300000000000000300000000000000000008175424762017041901069M%I 
02Elio Silupu campoverde        0000000626599600000006265996          007090516700000000000680000000000000680000000000000000000235424702017041901010N13 
02Luisa Goyoneche               0000000626711900000006267119          007090484700000000000284800000000000284800000000000000004375424682017041902048343 
02Juan Aldave                   0000000626872000000006268720          007092766800000000000600000000000000600000000000000000004375427162017041907045025 
02MANUEL                        0000000626874900000006268749          007092748600000000001600000000000001600000000000000000004375427142017041902048346 
02James Harold Quispe Arizaca   0000000626550200000006265502          007092733600000000000200000000000000200000000000000000008175427122017041901068T%U 
0211614364 JUAN RAMOS VERA      0000000626875400000006268754          007092727900000000000600000000000000600000000000000000004375427102017041902040384 
02Jesus Felix Becerra Cabos     0000000626860700000006268607          00709269680000000000077000000000000077000000000000000000437542708201704190204WNET 
02Georgi Carlo Ickovic Padilla  0000000626864700000006268647          00709263840000000000080000000000000080000000000000000000437542706201704190204WNET 
02jose                          0000000626723300000006267233          007092626000000000001400000000000001400000000000000000008175427042017041901068L%M 
02moniermg1111@hotmail.com      0000000626862000000006268620          007092606700000000000150000000000000150000000000000000008175427022017041901068Z%R 
02Miguel Tomas Matos Valencia   0000000626862300000006268623          00709260300000000000060000000000000060000000000000000000543542700201704190101F31B 
02José Morillo Quintanilla      0000000626822300000006268223          007092536000000000000300000000000000300000000000000000001145426982017041901013622 
02hokage934@hotmail.com         0000000626826900000006268269          007092529900000000000300000000000000300000000000000000002295426962017041901016D22 
0217749107 Victor Cielo acosta  0000000626860000000006268600          00709249570000000000030000000000000030000000000000000000437542694201704190204WNET 
02                              0000000626576400000006265764          007092469800000000001799900000000001799900000000000000001205426922017041901013C22 
02                              0000000626759000000006267590          007092437400000000002810000000000002810000000000000000003585426902017041901019Y24 
02rosa ortiz                    0000000626532000000006265320          007092430800000000000100000000000000100000000000000000001365426882017041901013S22 
02deustin rivadeneira           0000000626853500000006268535          007092401100000000006000000000000006000000000000000000004375426862017041902044405 
02Giuliana Lenci Ramirez        0000000625948300000006259483          007092390200000000001050000000000001050000000000000000001175426842017041901013935 
02Manuel Espinoza               0000000626790400000006267904          007092359100000000000600000000000000600000000000000000004375426822017041902043166 
02Gonzalo javier Rodriguez Carpi0000000626767200000006267672          007092322600000000000200000000000000200000000000000000002765426802017041901017O23 
02alonsopalomino2507@hotmail.com0000000626681700000006266817          007092298000000000000340000000000000340000000000000000008175426782017041901069T%Z 
02claudia cotrina rojas         0000000626783500000006267835          007092272500000000079557800000000079557800000000000000003405426752017041901019G21 
02                              0000000618629100000006186291          007092271100000000001199900000000001199900000000000000008175426732017041901068T%J 
02Wilder Gabriel Silva Castro   0000000626840800000006268408          007092216300000000000400000000000000400000000000000000008175426712017041901069Q%Y 
02Olivia Quiroz Olivia Olivia   0000000625950500000006259505          007092154400000000003045000000000003045000000000000000001095426692017041901013126 
023471358 Carlos Erick Vega Lope0000000626734000000006267340          007092144800000000000300000000000000300000000000000000008175426672017041901068T%L 
02SANTA SOFIA DEL SUR S.A.C. SAN0000000626428100000006264281          00709214290000000000040360000000000040360000000000000000732542665201704190101KC11 
02Walter Moises Leon Vejarano   0000000626826700000006268267          00709210040000000000025000000000000025000000000000000000437542663201704190204WNET 
02Andres Garcia                 0000000626826300000006268263          007092092400000000000200000000000000200000000000000000004375426612017041902042354 
02Maria Eugenia  Olivares       0000000626667500000006266675          00709208720000000000008000000000000008000000000000000000188542659201704190101586B 
02Juan Jose Ramos Vera          0000000626830400000006268304          007092082000000000002000000000000002000000000000000000004375426572017041902043451 
02Maria Eugenia  Olivares       0000000626674100000006266741          00709208170000000000005000000000000005000000000000000000188542655201704190101586B 
02Maria Eugenia  Olivares       0000000626671200000006266712          00709207430000000000017900000000000017900000000000000000188542653201704190101586B 
02Maria Eugenia  Olivares       0000000626669900000006266699          00709206880000000000017900000000000017900000000000000000188542651201704190101586B 
02Maria Eugenia  Olivares       0000000626664400000006266644          00709206470000000000078000000000000078000000000000000000188542649201704190101586B 
02                              0000000623625200000006236252          00709206060000000000110000000000000110000000000000000000437542647201704190204WNET 
02Maria Eugenia  Olivares       0000000626675500000006266755          00709205800000000000005000000000000005000000000000000000188542645201704190101586B 
02pgr7gabriel@hotmail.com       0000000626452400000006264524          007092048800000000000300000000000000300000000000000000008175426432017041901068J%Z 
02german guerra sernaque        0000000626826800000006268268          007092038200000000002000000000000002000000000000000000004375426412017041902042752 
02Karl Barrantes                0000000626532600000006265326          007092030200000000000400000000000000400000000000000000004375426392017041902046184 
02CLAUDIA CORONADO              0000000626800800000006268008          00709202710000000000065000000000000065000000000000000000437542637201704190204WNET 
02Leandro Manuel Albitez Medina 0000000626819900000006268199          00709194780000000000050000000000000050000000000000000000437542635201704190204WNET 
02Guillermo Jorge               0000000626813800000006268138          007091886600000000000624800000000000624800000000000000004375426332017041902049443 
02rudbeck slim avalos tuero     0000000626814400000006268144          007091878300000000000300000000000000300000000000000000004375426312017041902041015 
02José Taboada Borja            0000000626814000000006268140          00709185900000000000110000000000000110000000000000000000437542629201704190204WNET 
02MAURICIO JESUS REYES SANABRIA 0000000626279200000006262792          007091801500000000023100000000000023100000000000000000001185426262017041901013A23 
02Junior Oswaldo Arbildo La Sern0000000626727400000006267274          007091774300000000000500000000000000500000000000000000008175426242017041901069E%T 
02ENRIQUE SANCHE                0000000626453300000006264533          007091765400000000001124100000000001124100000000000000001575426222017041901014D21 
02Anthony Ruiz Quevedo          0000000626804400000006268044          00709172680000000000030000000000000030000000000000000000437542620201704190204WNET 
02GIL ARTURO ROBLES TORRES      0000000626802200000006268022          007091712400000000000300000000000000300000000000000000004375426182017041902041283 
02                              0000000623331600000006233316          007091697700000000001199900000000001199900000000000000008175426162017041901069L%G 
02Roman Quintana vera           0000000626610900000006266109          00709164750000000000020000000000000020000000000000000000564542614201704190101FO11 
02Roman Quintana vera           0000000626753000000006267530          00709163820000000000020000000000000020000000000000000000564542612201704190101FO11 
02SRTA. MIA                     0000000626793600000006267936          00709161930000000000320000000000000320000000000000000000791542610201704190101LZ12 
02                              0000000621877400000006218774          007091609900000000001199900000000001199900000000000000008175426082017041901068P%U 
02bryan sulca                   0000000626793000000006267930          00709160290000000000040000000000000040000000000000000000437542606201704190204WNET 
02Elvis Fernando Quispe Llanque 0000000626772100000006267721          007091596900000000001497000000000001497000000000000000008175426042017041901068J%N 
02                              0000000626790200000006267902          007091589200000000000885000000000000885000000000000000004375426022017041902046341 
02johany.meza1999@gmail.com     0000000624974100000006249741          007091566400000000000170300000000000170300000000000000008175426002017041901068P%V 
02                              0000000626719500000006267195          007091565400000000000885000000000000885000000000000000001565425982017041901014C22 
02Griselda Meza                 0000000625417000000006254170          007091560200000000000790000000000000790000000000000000000065425962017041901010612 
02Colyn Kevyn Ore Guevara       0000000626694600000006266946          007091533000000000000300000000000000300000000000000000008175425942017041901068S%D 
02                              0000000626748800000006267488          007091510600000000000885000000000000885000000000000000008175425922017041901069L%A 
02                              0000000626780400000006267804          007091509100000000001500000000000001500000000000000000004375425902017041902043749 
02                              0000000626756700000006267567          007091494400000000000885000000000000885000000000000000008175425882017041901068V%B 
02ANGELA ILAZARBE ENCISO        0000000626778500000006267785          007091481900000000001071000000000001071000000000000000004375425862017041902049011 
02Andrea Alexandra  Vera Carcele0000000626765000000006267650          007091478700000000000083500000000000083500000000000000001615425842017041901014H23 
02Ronald Rómulo Puma Huarca     0000000626777200000006267772          00709147130000000000100000000000000100000000000000000000437542582201704190204WNET 
02KARLA MAZA                    0000000626680100000006266801          007091459600000000001100000000000001100000000000000000008175425802017041901068S%F 
02Mauricio Gonzalez Torres      0000000626780100000006267801          007091442700000000000300000000000000300000000000000000004375425782017041902042662 
02emersonyapura@outlook.com     0000000626744800000006267448          007091433200000000000750000000000000750000000000000000008175425762017041901069A%J 
02Jhon Paul Infantes Veliz      0000000626777800000006267778          007091419700000000000200000000000000200000000000000000004375425742017041902047150 
02Eduardo Avalos                0000000627197000000006271970          00709688530000000000100000000000000100000000000000000000437543272201704190204WNET 
02oswaldo guerra                0000000627195200000006271952          007096845500000000000500000000000000500000000000000000004375432702017041902040909 
02edson76432654@gmail.com       0000000627194200000006271942          00709684360000000000075000000000000075000000000000000000584543268201704190101G812 
023130889 Andres Diaz Baltodano 0000000627182200000006271822          007096835200000000001000000000000001000000000000000000008175432662017041901068Z%T 
02ALBERTO EDUARDO SOTO SALAS    0000000627192700000006271927          00709682340000000000109800000000000109800000000000000000437543264201704190204WNET 
02Felix augusto Navarro tavara  0000000627151000000006271510          007096816000000000000300000000000000300000000000000000008175432622017041901068Y%E 
02Gian Saenz                    0000000627188900000006271889          007096784400000000000400000000000000400000000000000000004375432602017041902047703 
02reynosoangel619@gmail.com     0000000626658400000006266584          007096770300000000000150000000000000150000000000000000008175432582017041901069H%D 
02Luis Milciades Lezama Cancino 0000000627180800000006271808          007096754300000000001500000000000001500000000000000000008175432562017041901068L%Q 
02SR:JAVIER                     0000000627160000000006271600          00709674420000000000065000000000000065000000000000000000437543254201704190204WNET 
02CAROLA BEHRENDT  null         0000000627101800000006271018          007096732100000000039116000000000039116000000000000000002235432512017041903016725 
02953543518a@gmail.com          0000000623377500000006233775          007096703500000000001500000000000001500000000000000000008175432492017041901068L%B 
02Ricardo Alfonso Maita         0000000626308700000006263087          007096652100000000015040000000000015040000000000000000002755432462017041901017N26 
02                              0000000625671900000006256719          007096631700000000000885000000000000885000000000000000001795432442017041901014Z23 
02Carlos Trigo Herrera          0000000627178600000006271786          007096615000000000000600000000000000600000000000000000004375432422017041902044745 
02german guerra sernaque        0000000627179200000006271792          007096613300000000000500000000000000500000000000000000004375432402017041902042848 
02LESLIE LESLIE                 0000000627006700000006270067          007096613000000000000420000000000000420000000000000000001565432382017041902014C23 
02across across                 0000000627114600000006271146          007096594800000000000340000000000000340000000000000000001565432362017041902014C23 
02Cynthia Susana Ayala Bravo    0000000626612900000006266129          007096577500000000000758000000000000758000000000000000004375432342017041902046993 
02rolando rivera                0000000626940400000006269404          007096541400000000000080000000000000080000000000000000008175432322017041901069R%T 
02                              0000000627133400000006271334          007096537800000000000250000000000000250000000000000000002295432302017041901016D21 
02Andres Garcia                 0000000627161500000006271615          00709652570000000000030000000000000030000000000000000000437543228201704190204WNET 
02isaias isaias                 0000000627171900000006271719          00709649670000000000110000000000000110000000000000000000437543226201704190204WNET 
02Lucila Valdiviezo Malca       0000000627166200000006271662          00709646250000000000152600000000000152600000000000000000437543224201704190204WNET 
02cesar juan gutierrez mendoza  0000000626613800000006266138          007096411200000000000200000000000000200000000000000000008175432222017041901068V%C 
02                              0000000627147000000006271470          00709639990000000000088500000000000088500000000000000000387543220201704190101AR22 
02Antonio Naveda Chinchay       0000000626907500000006269075          007096382500000000003045000000000003045000000000000000004375432182017041902045097 
02Dennis Jonel Pesantes Cardenas0000000627164100000006271641          007096381600000000000200000000000000200000000000000000008175432162017041901069E%S 
02Manuel Martin Melendez Huayta 0000000627154700000006271547          007096357300000000000350000000000000350000000000000000008175432142017041901069U%A 
02deustin rivadeneira           0000000627163800000006271638          007096330800000000003000000000000003000000000000000000004375432122017041902040051 
02Omar Vilchez                  0000000627158400000006271584          00709628770000000000050000000000000050000000000000000000437543210201704190204WNET 
02Carla Reyes Oliva             0000000626854200000006268542          007096280200000000000100000000000000100000000000000000008175432082017041901068O%H 
02PATRICIA LINARES              0000000627018000000006270180          00709625710000000000180000000000000180000000000000000000999543206201704190101T1F1 
02pinoaqp@hotmail.com           0000000627139900000006271399          00709625250000000000026600000000000026600000000000000000778543204201704190101LM12 
02OSCAR OLARTE                  0000000627158600000006271586          007096246600000000000150000000000000150000000000000000004375432022017041902041355 
02CIRO CONTRERAS CAMPANA        0000000627142700000006271427          00709623190000000000030000000000000030000000000000000000370543200201704190101AA21 
02kelly estrada                 0000000627156500000006271565          007096215400000000000200000000000000200000000000000000004375431982017041902042329 
02Franco Alfredo Salcedo Choque 0000000627141100000006271411          007096208100000000000530000000000000530000000000000000008175431962017041901068V%D 
0213963125 Frank Renato         0000000627057500000006270575          007096180500000000000400000000000000400000000000000000003465431942017041901019M13 
02SRTA. REATEGUI                0000000627143000000006271430          00709617950000000000029000000000000029000000000000000000437543192201704190204WNET 
0213725013 Eduardo Avalos Lear  0000000627154400000006271544          00709616730000000000050000000000000050000000000000000000437543190201704190204WNET 
0211631101 Jorge Martinez Lizarr0000000627153500000006271535          00709614760000000000020000000000000020000000000000000000437543188201704190204WNET 
02norma cuicapuza rojas         0000000626383400000006263834          007096146900000000004894600000000004894600000000000000002385431862017041901016M11 
02Nathali Vélez Mendoza         0000000627137900000006271379          00709611610000000000084000000000000084000000000000000000437543184201704190204WNET 
02RASEC JSG                     0000000627148900000006271489          007096101000000000001900000000000001900000000000000000004375431822017041902044606 
02oscateguiblessaaron11@gmail.co0000000627149300000006271493          007096089500000000000300000000000000300000000000000000008175431802017041901069U%F 
0211953012 JORGE CHAVEZ         0000000627141500000006271415          00709608440000000000020000000000000020000000000000000000437543178201704190204WNET 
02Pedro Alexis Abarca Abarca    0000000627147800000006271478          007096057100000000000389300000000000389300000000000000004375431762017041902048347 
02Karina Leon Botoni            0000000627146600000006271466          007096056600000000000320000000000000320000000000000000008175431742017041901068K%Y 
02Giovanni Giuseppe Michele Pina0000000627147300000006271473          007096032300000000000500000000000000500000000000000000004375431722017041907043380 
02SRTA.MARIA GONZALES           0000000627141900000006271419          007096014000000000001220000000000001220000000000000000004375431702017041902047054 
02elias beraun castro           0000000627136700000006271367          00709598150000000000188120000000000188120000000000000000437543168201704190204WNET 
02DALILA DAVILA ALARCON         0000000627125200000006271252          007095913300000000003830100000000003830100000000000000008175431662017041901069V%G 
02CRISTOFER PALOMINO  HUAMAN    0000000627090000000006270900          007095907800000000001820000000000001820000000000000000002405431642017041901016O33 
02Alexander Vladimir Guzman Atac0000000626991500000006269915          00709402660000000000020000000000000020000000000000000000437542947201704190704WNET 
02Omar Vilchez                  0000000626986800000006269868          007094020500000000000180000000000000180000000000000000004375429452017041902048324 
02Wilfredo Alonso Mestanza Vasqu0000000626991000000006269910          007094018600000000000800000000000000800000000000000000004375429432017041902046292 
0213214586 Yessi Guevara Barba  0000000626941000000006269410          007094001000000000000200000000000000200000000000000000008175429412017041901068T%M 
02Aracely Huaman lopez          0000000626983700000006269837          00709399900000000000300000000000000300000000000000000000437542939201704190204WNET 
02Franks darwin Mamani carita   0000000626887200000006268872          007093994700000000000700000000000000700000000000000000008175429372017041901068X%D 
02Juan Diego Medina Rivero      0000000625958100000006259581          007093977600000000000150000000000000150000000000000000004375429352017041902048233 
02                              0000000626979500000006269795          007093967700000000002210000000000002210000000000000000004375429332017041902049563 
02dureck13@hotmail.com          0000000626660600000006266606          007093965100000000000150000000000000150000000000000000003195429312017041901018V24 
02marielena melgar              0000000626924000000006269240          00709395550000000000050000000000000050000000000000000000508542929201704190101E411 
02Juan Gonzalez Jimenez         0000000626985600000006269856          007093932700000000000600000000000000600000000000000000004375429272017041902045530 
02gleroseg3@hotmail.com         0000000626591600000006265916          00709391890000000000338000000000000338000000000000000000437542925201704190204WNET 
02JOSE WILSON OC EGUIZABAL      0000000626982300000006269823          007093905700000000001500000000000001500000000000000000004375429232017041902040900 
02Paola Berrios                 0000000626981000000006269810          00709389950000000000220000000000000220000000000000000000437542921201704190204WNET 
02Diana Carolina Santos Martinez0000000626978100000006269781          007093876400000000000698000000000000698000000000000000004375429192017041902043171 
02Carlos Emanuel Elgegren Oyarce0000000626976400000006269764          007093847000000000000200000000000000200000000000000000004375429172017041902044115 
02raul rojas valverde           0000000626969200000006269692          007093844400000000000371800000000000371800000000000000008175429152017041901069I%B 
02Jorge Bustamante              0000000626975200000006269752          007093838100000000000300000000000000300000000000000000004375429132017041902045987 
02Aracelli Paz                  0000000626957400000006269574          00709383060000000000049000000000000049000000000000000000437542911201704190204WNET 
02raul rojas valverde           0000000626955900000006269559          007093826400000000003528200000000003528200000000000000008175429092017041901068V%J 
02anthony brian munoz fernandez 0000000626481400000006264814          007093812100000000002748500000000002748500000000000000002505429072017041901016Y24 
02Alicia Castillo               0000000626076800000006260768          00709378950000000001300000000000001300000000000000000000778542904201704190101LM13 
02Brenda Vásquez                0000000625757900000006257579          007093782800000000000490000000000000490000000000000000001335429022017041901013P24 
02Dennis Jonel Pesantes Cardenas0000000626969300000006269693          007093772400000000000200000000000000200000000000000000008175429002017041901068P%I 
02ARESTEGUI MELENDEZ INGRID     0000000626816300000006268163          007093771000000000000650000000000000650000000000000000001485428982017041901014422 
02Eduardo Avalos                0000000626971100000006269711          00709377000000000000034530000000000034530000000000000000437542896201704190204WNET 
02katty.delacruz.pari@gmail.com 0000000626970100000006269701          007093754100000000000512100000000000512100000000000000004375428942017041902040556 
02                              0000000626141700000006261417          007093754000000000001800000000000001800000000000000000001375428922017041901013T24 
02FRANCO ANGULO CHIGNE          0000000626966700000006269667          007093752800000000000500000000000000500000000000000000004375428902017041902049400 
02ANGEL RAFAEL QUISPE VARGAS    0000000626010800000006260108          00709373680000000002609100000000002609100000000000000000220542887201704190101646C 
02Zuker Jesus Leyva Figueroa    0000000626961800000006269618          007093733900000000000200000000000000200000000000000000008175428852017041901068V%K 
02Milagros Cabello              0000000626959300000006269593          007093731100000000000200000000000000200000000000000000004375428832017041902040775 
023418816 Daniel Carhuamaca Zara0000000626957200000006269572          00709372640000000000060000000000000060000000000000000000437542881201704190204WNET 
02italo Esteban torres Valdivia 0000000626964600000006269646          00709372060000000000055000000000000055000000000000000000437542879201704190204WNET 
02alonso galdos                 0000000626951500000006269515          00709371790000000000030000000000000030000000000000000000437542877201704190204WNET 
02Marina                        0000000626926500000006269265          00709370740000000000110000000000000110000000000000000000717542875201704190101JX11 
02ABEL CHAVEZ *SE BRINDAN RESTRI0000000626912400000006269124          007093700000000000000400000000000000400000000000000000002345428732017041901016I11 
02daniel vega carrasco          0000000626963100000006269631          007093683600000000000500000000000000500000000000000000004375428712017041902047105 
02Pedro Antonio Cevallos Yacila 0000000626963900000006269639          007093681800000000008870000000000008870000000000000000004375428692017041902044789 
02Juan Pablo Demetrio  Lezama Al0000000626962400000006269624          007093679400000000000150000000000000150000000000000000004375428672017041902043034 
02Diego Alonso Ibárcena Vera    0000000626959700000006269597          007093673600000000000280500000000000280500000000000000008175428652017041902069L%G 
02OSCAR OLARTE                  0000000626961200000006269612          007093672400000000000300000000000000300000000000000000004375428632017041902046328 
02                              0000000622150700000006221507          007093668000000000002634300000000002634300000000000000002345428612017041901016I12 
02poderoso7410@gmail.com        0000000626953600000006269536          007093655900000000000300000000000000300000000000000000008175428592017041901068V%X 
02daniel prado                  0000000626936900000006269369          007093653300000000000200000000000000200000000000000000008175428572017041901068U%Y 
02Angelica                      0000000626959000000006269590          007093650800000000001350000000000001350000000000000000004375428552017041902046540 
02SRT:ROCIO                     0000000626956900000006269569          007093644500000000000770000000000000770000000000000000004375428532017041902041923 
02deustin rivadeneira           0000000626957900000006269579          007093633400000000001000000000000001000000000000000000004375428512017041902042631 
02Abel Armando Casta¦eda Miranda0000000626948800000006269488          00709361900000000000100000000000000100000000000000000000437542849201704190204WNET 
02francisco bueno mescua        0000000626955200000006269552          007093617900000000000200000000000000200000000000000000004375428472017041902049696 
0211953012 JORGE CHAVEZ         0000000626954700000006269547          007093595700000000000200000000000000200000000000000000004375428452017041902048383 
02renzo Cazorla                 0000000626913600000006269136          007093575800000000000200000000000000200000000000000000008175428432017041901069B%N 
02Dalila Quesada                0000000626384000000006263840          007093568400000000000584100000000000584100000000000000001065428412017041901012Y21 
02YOLANDA JULCA                 0000000626917200000006269172          007093565500000000003000000000000003000000000000000000003415428392017041901019H24 
02CHRISTIAN ARTURO LEON ARIAS   0000000626951200000006269512          007093562800000000000200000000000000200000000000000000004375428372017041902048061 
02YOLANDA JULCA                 0000000626906700000006269067          007093559100000000001160000000000001160000000000000000003415428352017041901019H24 
02LUIS ALBERTO VALENCIA YABAR   0000000626803500000006268035          007093551800000000004000000000000004000000000000000000008175428332017041901069O%H 
02Fernando Custodio             0000000626753200000006267532          00709354930000000000030000000000000030000000000000000000437542831201704190204WNET 
02INDUSTRIA TEXTIL AMAZONAS S.A.0000000625957500000006259575          007093544800000000003045700000000003045700000000000000003125428292017041901018O13 
02Eduardo Antonio Rojas Aguirre 0000000626799800000006267998          007093541000000000000200000000000000200000000000000000008175428272017041901068Y%K 
02Jose Hendy Mori Cavero        0000000626946000000006269460          007093528700000000000570000000000000570000000000000000004375428252017041902045082 
02oscar alfredo deza ocampo     0000000626946500000006269465          007093523700000000000200000000000000200000000000000000004375428232017041902049898 
02ESCUELA PARA EL DESARROLLO    0000000626929600000006269296          007093514000000000001560000000000001560000000000000000004375428212017041902041384 
02JUAN PABLO LAZO MACEDO        0000000626941300000006269413          007093513000000000000300000000000000300000000000000000004375428192017041902040737 
02BETSABE CHAVEZ                0000000626732300000006267323          00709348570000000000159000000000000159000000000000000000712542817201704190101JS14 
02REMAX Expo Grupo Grupo        0000000626903500000006269035          00709347900000000000180000000000000180000000000000000000437542811201704190204WNET 
02Eduardo Willis Samamé         0000000626943700000006269437          00709347100000000000200000000000000200000000000000000000437542809201704190204WNET 
02Luis Mariano Pardo Alva       0000000626938800000006269388          00709346860000000000050000000000000050000000000000000000437542807201704190204WNET 
02DANIEL ALTAMIRANO ARROYO      0000000626939800000006269398          00709348320000000000090000000000000090000000000000000000437542815201704190204WNET 
02Tito Chavez                   0000000626942600000006269426          007093483000000000000186400000000000186400000000000000004375428132017041902041989 
02JOSE LUIS ZAVALA SOLANO       0000000626941900000006269419          007093458400000000000900000000000000900000000000000000008175428052017041901068U%H 
02justo martin flores ramos     0000000626934800000006269348          007093445000000000000300000000000000300000000000000000008175428032017041901069R%J 
02VICTOR SANTIAGO CHIPANA HUAMAN0000000626809100000006268091          007093418800000000001869000000000001869000000000000000002185428012017041901016222 
02VICTOR SANTIAGO CHIPANA HUAMAN0000000626891600000006268916          007093413700000000000469000000000000469000000000000000002185427992017041901016222 
02Edinson Jhancarlos Chacon Delg0000000626936400000006269364          007093397800000000000500000000000000500000000000000000004375427972017041902043040 
02aixapostigo@gmail.com         0000000626932900000006269329          007093372600000000000150000000000000150000000000000000004375427952017041902048086 
02Jaqueline Pilar  Gutiérrez Cár0000000626924100000006269241          00709335960000000000120000000000000120000000000000000000851542793201704190201NN11 
02Diego jorge wilfredo Delgado m0000000626925000000006269250          007093283800000000000400000000000000400000000000000000004375427912017041902044092 
02Charles Quispe                0000000626636800000006266368          00709326910000000000082960000000000082960000000000000000437542789201704190204WNET 
02DANIEL ALTAMIRANO ARROYO      0000000626910700000006269107          007093237600000000000200000000000000200000000000000000004375427872017041902043711 
02Cesat Ortega                  0000000626860200000006268602          007093202100000000000772000000000000772000000000000000002355427852017041901016J42 
02Darwin Ruben Fuentes Barriga  0000000626917700000006269177          00709317950000000000040500000000000040500000000000000000437542783201704190204WNET 
02eric noriega                  0000000626916500000006269165          007093176000000000000200000000000000200000000000000000004375427812017041902041707 
02rosa bertha marcos ardian     0000000626910900000006269109          007093172400000000001950000000000001950000000000000000004375427792017041902049761 
02Charlesand Cocos              0000000626812600000006268126          007093167400000000000100000000000000100000000000000000004375427772017041902046512 
02Amanecer Tours Sac info@peruvi0000000624517500000006245175          007093165800000000000453600000000000453600000000000000003175427752017041901018T22 
02                              0000000626913700000006269137          00709314580000000000016370000000000016370000000000000000437542773201704190204WNET 
02BETSABE CALLE CRUZ            0000000626711400000006267114          00709314490000000000060000000000000060000000000000000000437542771201704190204WNET 
02Daniel Morales                0000000626913200000006269132          007093139700000000002300000000000002300000000000000000004375427692017041902045540 
02                              0000000626801800000006268018          007093132500000000006790000000000006790000000000000000002205427672017041901016443 
02LUISA MARIBEL  LEZAMA CORONEL 0000000626435600000006264356          007093129200000000007220800000000007220800000000000000008175427652017041901069P%G 
02nexar hernando villar astudill0000000626620600000006266206          007093123700000000000990000000000000990000000000000000008175427632017041901069L%L 
02JOSEPH CHAVEZ PEREIRA         0000000626908900000006269089          00709312050000000001150000000000001150000000000000000000437542760201704190204WNET 
02Alonso Segura                 0000000626905400000006269054          00709311440000000000032500000000000032500000000000000000437542758201704190204WNET 
02marcelo yepes luna            0000000626907100000006269071          007093083200000000001200000000000001200000000000000000004375427562017041902043908 
02diego alonso reyes valle romer0000000626909200000006269092          007093082400000000000450000000000000450000000000000000004375427542017041902043347 
02SRA. ELVA ISABEL LOPEZ MONTALV0000000626855900000006268559          007093065800000000000780000000000000780000000000000000001755427522017041901014V35 
02Regina Orellano               0000000626879900000006268799          00709302980000000000335600000000000335600000000000000000437542750201704190704WNET 
02SRTA CINTHYA                  0000000626871300000006268713          00709302870000000000080000000000000080000000000000000000791542748201704190101LZ12 
02RODRIGO CHAVEZ DURAN          0000000626771500000006267715          007093024900000000005500000000000005500000000000000000004375427462017041902042406 
02Jose Alberto Gomez Fenco      0000000626511700000006265117          007093015400000000000150000000000000150000000000000000001075427442017041901012Z21 
02WILLIAM ALBERTO GUTIERREZ CHIR0000000627130900000006271309          007095776600000000000300000000000000300000000000000000004375431482017041902040359 
02miguel ruiz barron            0000000627129900000006271299          00709575460000000000030000000000000030000000000000000000437543146201704190204WNET 
02SILVIA CABANILLAS TAPIA       0000000625208700000006252087          007095749500000000000160000000000000160000000000000000002775431442017041901017P22 
02Diego Del Carpio null         0000000626955500000006269555          007095695500000000007767000000000007767000000000000000004375431422017041907049723 
02Ricardo Javier Cortez Olortegu0000000627111400000006271114          007095691300000000000900000000000000900000000000000000002625431402017041901017A11 
02Edgard Junior Coronel Ceron   0000000627042600000006270426          007095674100000000000300000000000000300000000000000000008175431382017041901069C%G 
0212498192 Victor Delgado       0000000627119700000006271197          007095672800000000000200000000000000200000000000000000008175431362017041901068X%J 
02global corp  travel           0000000627122300000006271223          007095669600000000001100000000000001100000000000000000004375431342017041902042484 
02                              0000000627116600000006271166          00709560140000000000060000000000000060000000000000000000437543132201704190204WNET 
02CONFECCIONES MELGAR S.A  CONFE0000000627045400000006270454          007095590700000000008318100000000008318100000000000000004375431302017041902046721 
02pinoaqp@hotmail.com           0000000627098500000006270985          00709556440000000000075000000000000075000000000000000000778543128201704190101LM12 
02marco usucachi diaz           0000000626424700000006264247          007095535000000000022804300000000022804300000000000000004375431252017041902048025 
02Dimas Zegarra Quispe          0000000624808400000006248084          007095528300000000000180000000000000180000000000000000008175431232017041901069M%H 
02Gonzalo Bazan                 0000000627081600000006270816          007095521400000000000600000000000000600000000000000000004375431212017041902046758 
02yos_core11@hotmail.com        0000000626926600000006269266          007095516600000000000999900000000000999900000000000000008175431192017041901069H%W 
02Neptali Huaranga Tapia        0000000625965700000006259657          007095502800000000000690000000000000690000000000000000001015431172017041901012T22 
02                              0000000627023400000006270234          007095497800000000000599900000000000599900000000000000003015431152017041901018D45 
02DOSURBANIA URBANIA URBANIA    0000000627081400000006270814          007095413000000000001800000000000001800000000000000000004375431132017041902048533 
02REMAX GOLD gold gold          0000000626929700000006269297          007095407300000000001800000000000001800000000000000000008175431112017041901069A%J 
02Gustavo David Zegarra Roque   0000000627102500000006271025          007095406000000000000150000000000000150000000000000000004375431092017041902048226 
02Luis Guadalupe Palma          0000000627098100000006270981          007095397800000000000200000000000000200000000000000000008175431072017041901068S%L 
02diego alonso reyes valle romer0000000627099700000006270997          007095351700000000000400000000000000400000000000000000004375431052017041902045382 
02paul alexander bardales bardal0000000627081800000006270818          00709534090000000000648000000000000648000000000000000000900543103201704190101P014 
02UNOURBANIA URBANIA URBANIA    0000000627064600000006270646          007095325900000000001800000000000001800000000000000000004375431012017041902047726 
02Anthony Rafael Ayala Lozada   0000000627096100000006270961          007095312100000000001000000000000001000000000000000000004375430992017041902043102 
02Alan Edher Garcia Valverde    0000000627094000000006270940          007095284100000000001000000000000001000000000000000000004375430972017041902040618 
02gojan-99@hotmail.com          0000000627092700000006270927          007095263900000000000150000000000000150000000000000000008175430952017041901069H%O 
02DANIELA CAMACHO null          0000000627076000000006270760          007095260300000000002529000000000002529000000000000000001695430932017041901014P23 
02                              0000000617236500000006172365          00709524580000000000285000000000000285000000000000000000437543091201704190204WNET 
02gino lozano pe¦a              0000000627086600000006270866          00709523800000000000100000000000000100000000000000000000437543089201704190204WNET 
02                              0000000627085900000006270859          007095212800000000000260000000000000260000000000000000004375430872017041902040930 
02Jorge Huamani                 0000000627085000000006270850          007095192800000000000200000000000000200000000000000000004375430852017041902048394 
02slahsersgams@hotmail.es       0000000626656700000006266567          007095170200000000000150000000000000150000000000000000008175430832017041901069Q%F 
02Teresa Juliana  Chavez Guzman 0000000627077900000006270779          00709515090000000000008000000000000008000000000000000000437543081201704190204WNET 
02                              0000000626745600000006267456          00709514160000000000060000000000000060000000000000000000360543079201704190201A023 
02Juan Julio Rivasplata Huaman  0000000627079600000006270796          00709512680000000000070000000000000070000000000000000000437543077201704190204WNET 
02Erika Matusova Matusova       0000000627076700000006270767          00709510690000000000100000000000000100000000000000000000437543075201704190204WNET 
02Roxana Zavala                 0000000625237000000006252370          007095087000000000007520000000000007520000000000000000002035430732017041901015N12 
02Giovanni André Asto Palacios  0000000626918300000006269183          007095086800000000001000000000000001000000000000000000008175430712017041901069D%I 
02Elena Rodriguez               0000000626394100000006263941          007095073600000000000500000000000000500000000000000000003585430692017041901019Y22 
02Omar Ivan Villacorta Cordova  0000000626875000000006268750          007095064900000000000330000000000000330000000000000000008175430672017041901069S%D 
02Karl Barrantes                0000000627073700000006270737          00709506290000000000038000000000000038000000000000000000437543065201704190204WNET 
02                              0000000625865700000006258657          007095055400000000001199900000000001199900000000000000004375430632017041902043287 
02Adrian Gustavo Horna Inostroza0000000627071700000006270717          00709503910000000000150000000000000150000000000000000000437543061201704190204WNET 
02Anthony Ruiz Quevedo          0000000627071400000006270714          00709503310000000000030000000000000030000000000000000000437543059201704190204WNET 
02Anthony Rafael Ayala Lozada   0000000627068000000006270680          007095011300000000000500000000000000500000000000000000004375430572017041902046876 
02Mercedes Aquino               0000000625485500000006254855          007095010600000000003290000000000003290000000000000000004375430552017041902041121 
02FOTO PERU EIRL                0000000627062800000006270628          007095002500000000017970000000000017970000000000000000004375430522017041902045420 
02german guerra sernaque        0000000627068200000006270682          007095001000000000001000000000000001000000000000000000004375430502017041902043306 
02ricardo david yacila neyra    0000000627067800000006270678          007095000200000000000500000000000000500000000000000000008175430482017041901068L%C 
02MARÍA DEL PILAR PISCOYA RODRÍG0000000627063900000006270639          007094976400000000005000000000000005000000000000000000004375430462017041902044591 
02LUIS ENRIQUE CORDOVA SALDA#A  0000000627016000000006270160          00709493180000000000056000000000000056000000000000000000437543044201704190204WNET 
02Carlos Christian Martinez Vill0000000627032100000006270321          007094913100000000000400000000000000400000000000000000004375430422017041902046035 
02Jordy Julio Vela Lezama       0000000627003300000006270033          007094907500000000000400000000000000400000000000000000008175430402017041901069F%L 
02Elias Quispe Curi¦aupa        0000000626367600000006263676          007094896800000000000500000000000000500000000000000000004375430382017041902049895 
02VENTAS VENTAS VENTAS          0000000626296400000006262964          007094883000000000001800000000000001800000000000000000008175430362017041901069S%H 
02Graciela Dangelo Dangelo      0000000627046700000006270467          007094877800000000001050000000000001050000000000000000001825430342017041901015221 
02LUIS OTOYA LANDAZURI          0000000627053300000006270533          00709483190000000003499000000000003499000000000000000000437543031201704190204WNET 
02Christian Manuel Urcia        0000000627052900000006270529          007094828600000000000800000000000000800000000000000000004375430292017041902041684 
02Violeta Cabezudo Salazar      0000000627047200000006270472          007094820600000000002200000000000002200000000000000000001875430272017041901015724 
02LUIS OTOYA LANDAZURI          0000000627052100000006270521          00709481950000000003500000000000003500000000000000000000437543024201704190204WNET 
023613533 Edward Hernan Castro Y0000000627048800000006270488          007094786100000000000300000000000000300000000000000000004375430222017041902047172 
02Yorman Alfonso Paredes Valdivi0000000626411800000006264118          007094772800000000000450000000000000450000000000000000008175430202017041901069L%X 
02aixapostigo@gmail.com         0000000627045000000006270450          007094759500000000000049500000000000049500000000000000004375430182017041902043853 
02erick montalvo                0000000626850700000006268507          007094752000000000062899500000000062899500000000000000001755430152017041901014V32 
02Centro Medico Virgilio Cuadros0000000626876100000006268761          00709471290000000000084710000000000084710000000000000000616543013201704190101H413 
02fredyomar0310@hotmail.com     0000000627025500000006270255          007094692500000000000150000000000000150000000000000000008175430112017041901069M%O 
03000000496000000009777050000000009777050000000000000000                                                                                                
